{
  "_format": "hh-sol-artifact-1",
  "contractName": "MyNFT",
  "sourceName": "contracts/MyNFT.sol",
  "abi": [
    {
      "inputs": [
        {
          "internalType": "address",
          "name": "_proxyRegistryAddress",
          "type": "address"
        },
        {
          "internalType": "string",
          "name": "_contractUri",
          "type": "string"
        },
        {
          "internalType": "string",
          "name": "_metadataUri",
          "type": "string"
        },
        {
          "internalType": "string",
          "name": "_name",
          "type": "string"
        },
        {
          "internalType": "string",
          "name": "_symbol",
          "type": "string"
        },
        {
          "internalType": "uint256",
          "name": "_tokenAmount",
          "type": "uint256"
        },
        {
          "internalType": "address",
          "name": "_VRFCoordinator",
          "type": "address"
        },
        {
          "internalType": "address",
          "name": "_LinkToken",
          "type": "address"
        },
        {
          "internalType": "bytes32",
          "name": "_keyhash",
          "type": "bytes32"
        }
      ],
      "stateMutability": "nonpayable",
      "type": "constructor"
    },
    {
      "anonymous": false,
      "inputs": [
        {
          "indexed": true,
          "internalType": "address",
          "name": "owner",
          "type": "address"
        },
        {
          "indexed": true,
          "internalType": "address",
          "name": "approved",
          "type": "address"
        },
        {
          "indexed": true,
          "internalType": "uint256",
          "name": "tokenId",
          "type": "uint256"
        }
      ],
      "name": "Approval",
      "type": "event"
    },
    {
      "anonymous": false,
      "inputs": [
        {
          "indexed": true,
          "internalType": "address",
          "name": "owner",
          "type": "address"
        },
        {
          "indexed": true,
          "internalType": "address",
          "name": "operator",
          "type": "address"
        },
        {
          "indexed": false,
          "internalType": "bool",
          "name": "approved",
          "type": "bool"
        }
      ],
      "name": "ApprovalForAll",
      "type": "event"
    },
    {
      "anonymous": false,
      "inputs": [
        {
          "indexed": false,
          "internalType": "address",
          "name": "userAddress",
          "type": "address"
        },
        {
          "indexed": false,
          "internalType": "address payable",
          "name": "relayerAddress",
          "type": "address"
        },
        {
          "indexed": false,
          "internalType": "bytes",
          "name": "functionSignature",
          "type": "bytes"
        }
      ],
      "name": "MetaTransactionExecuted",
      "type": "event"
    },
    {
      "anonymous": false,
      "inputs": [
        {
          "indexed": false,
          "internalType": "uint256",
          "name": "newPrice",
          "type": "uint256"
        }
      ],
      "name": "MintPriceSet",
      "type": "event"
    },
    {
      "anonymous": false,
      "inputs": [
        {
          "indexed": true,
          "internalType": "address",
          "name": "previousOwner",
          "type": "address"
        },
        {
          "indexed": true,
          "internalType": "address",
          "name": "newOwner",
          "type": "address"
        }
      ],
      "name": "OwnershipTransferred",
      "type": "event"
    },
    {
      "anonymous": false,
      "inputs": [
        {
          "indexed": true,
          "internalType": "address",
          "name": "from",
          "type": "address"
        },
        {
          "indexed": true,
          "internalType": "address",
          "name": "to",
          "type": "address"
        },
        {
          "indexed": true,
          "internalType": "uint256",
          "name": "tokenId",
          "type": "uint256"
        }
      ],
      "name": "Transfer",
      "type": "event"
    },
    {
      "inputs": [],
      "name": "ERC712_VERSION",
      "outputs": [
        {
          "internalType": "string",
          "name": "",
          "type": "string"
        }
      ],
      "stateMutability": "view",
      "type": "function"
    },
    {
      "inputs": [],
      "name": "LinkToken",
      "outputs": [
        {
          "internalType": "address",
          "name": "",
          "type": "address"
        }
      ],
      "stateMutability": "view",
      "type": "function"
    },
    {
      "inputs": [],
      "name": "VRFCoordinator",
      "outputs": [
        {
          "internalType": "address",
          "name": "",
          "type": "address"
        }
      ],
      "stateMutability": "view",
      "type": "function"
    },
    {
      "inputs": [
        {
          "internalType": "string",
          "name": "_metadataUri",
          "type": "string"
        }
      ],
      "name": "_setBaseURI",
      "outputs": [],
      "stateMutability": "nonpayable",
      "type": "function"
    },
    {
      "inputs": [
        {
          "internalType": "string",
          "name": "_contractUri",
          "type": "string"
        }
      ],
      "name": "_setContractURI",
      "outputs": [],
      "stateMutability": "nonpayable",
      "type": "function"
    },
    {
      "inputs": [
        {
          "internalType": "uint256",
          "name": "_tokenAmount",
          "type": "uint256"
        }
      ],
      "name": "_setTokenAmount",
      "outputs": [],
      "stateMutability": "nonpayable",
      "type": "function"
    },
    {
      "inputs": [
        {
          "internalType": "address",
          "name": "to",
          "type": "address"
        },
        {
          "internalType": "uint256",
          "name": "tokenId",
          "type": "uint256"
        }
      ],
      "name": "approve",
      "outputs": [],
      "stateMutability": "nonpayable",
      "type": "function"
    },
    {
      "inputs": [
        {
          "internalType": "address",
          "name": "owner",
          "type": "address"
        }
      ],
      "name": "balanceOf",
      "outputs": [
        {
          "internalType": "uint256",
          "name": "",
          "type": "uint256"
        }
      ],
      "stateMutability": "view",
      "type": "function"
    },
    {
      "inputs": [],
      "name": "contractURI",
      "outputs": [
        {
          "internalType": "string",
          "name": "",
          "type": "string"
        }
      ],
      "stateMutability": "view",
      "type": "function"
    },
    {
      "inputs": [
        {
          "internalType": "address",
          "name": "userAddress",
          "type": "address"
        },
        {
          "internalType": "bytes",
          "name": "functionSignature",
          "type": "bytes"
        },
        {
          "internalType": "bytes32",
          "name": "sigR",
          "type": "bytes32"
        },
        {
          "internalType": "bytes32",
          "name": "sigS",
          "type": "bytes32"
        },
        {
          "internalType": "uint8",
          "name": "sigV",
          "type": "uint8"
        }
      ],
      "name": "executeMetaTransaction",
      "outputs": [
        {
          "internalType": "bytes",
          "name": "",
          "type": "bytes"
        }
      ],
      "stateMutability": "payable",
      "type": "function"
    },
    {
      "inputs": [
        {
          "internalType": "uint256",
          "name": "tokenId",
          "type": "uint256"
        }
      ],
      "name": "getApproved",
      "outputs": [
        {
          "internalType": "address",
          "name": "",
          "type": "address"
        }
      ],
      "stateMutability": "view",
      "type": "function"
    },
    {
      "inputs": [],
      "name": "getAvaiableTokenAmount",
      "outputs": [
        {
          "internalType": "uint256",
          "name": "",
          "type": "uint256"
        }
      ],
      "stateMutability": "view",
      "type": "function"
    },
    {
      "inputs": [],
      "name": "getChainId",
      "outputs": [
        {
          "internalType": "uint256",
          "name": "",
          "type": "uint256"
        }
      ],
      "stateMutability": "view",
      "type": "function"
    },
    {
      "inputs": [],
      "name": "getDomainSeperator",
      "outputs": [
        {
          "internalType": "bytes32",
          "name": "",
          "type": "bytes32"
        }
      ],
      "stateMutability": "view",
      "type": "function"
    },
    {
      "inputs": [],
      "name": "getMintPrice",
      "outputs": [
        {
          "internalType": "uint256",
          "name": "",
          "type": "uint256"
        }
      ],
      "stateMutability": "view",
      "type": "function"
    },
    {
      "inputs": [
        {
          "internalType": "address",
          "name": "user",
          "type": "address"
        }
      ],
      "name": "getNonce",
      "outputs": [
        {
          "internalType": "uint256",
          "name": "nonce",
          "type": "uint256"
        }
      ],
      "stateMutability": "view",
      "type": "function"
    },
    {
      "inputs": [],
      "name": "getTokenAmount",
      "outputs": [
        {
          "internalType": "uint256",
          "name": "",
          "type": "uint256"
        }
      ],
      "stateMutability": "view",
      "type": "function"
    },
    {
      "inputs": [
        {
          "internalType": "address",
          "name": "owner",
          "type": "address"
        },
        {
          "internalType": "address",
          "name": "operator",
          "type": "address"
        }
      ],
      "name": "isApprovedForAll",
      "outputs": [
        {
          "internalType": "bool",
          "name": "",
          "type": "bool"
        }
      ],
      "stateMutability": "view",
      "type": "function"
    },
    {
      "inputs": [],
      "name": "mintPrice",
      "outputs": [
        {
          "internalType": "uint256",
          "name": "",
          "type": "uint256"
        }
      ],
      "stateMutability": "view",
      "type": "function"
    },
    {
      "inputs": [],
      "name": "name",
      "outputs": [
        {
          "internalType": "string",
          "name": "",
          "type": "string"
        }
      ],
      "stateMutability": "view",
      "type": "function"
    },
    {
      "inputs": [],
      "name": "owner",
      "outputs": [
        {
          "internalType": "address",
          "name": "",
          "type": "address"
        }
      ],
      "stateMutability": "view",
      "type": "function"
    },
    {
      "inputs": [
        {
          "internalType": "uint256",
          "name": "tokenId",
          "type": "uint256"
        }
      ],
      "name": "ownerOf",
      "outputs": [
        {
          "internalType": "address",
          "name": "",
          "type": "address"
        }
      ],
      "stateMutability": "view",
      "type": "function"
    },
    {
      "inputs": [],
      "name": "randomResult",
      "outputs": [
        {
          "internalType": "uint256",
          "name": "",
          "type": "uint256"
        }
      ],
      "stateMutability": "view",
      "type": "function"
    },
    {
      "inputs": [
        {
          "internalType": "bytes32",
          "name": "requestId",
          "type": "bytes32"
        },
        {
          "internalType": "uint256",
          "name": "randomness",
          "type": "uint256"
        }
      ],
      "name": "rawFulfillRandomness",
      "outputs": [],
      "stateMutability": "nonpayable",
      "type": "function"
    },
    {
      "inputs": [],
      "name": "renounceOwnership",
      "outputs": [],
      "stateMutability": "nonpayable",
      "type": "function"
    },
    {
      "inputs": [
        {
          "internalType": "address",
          "name": "_to",
          "type": "address"
        },
        {
          "internalType": "uint8",
          "name": "amount",
          "type": "uint8"
        }
      ],
      "name": "requestRandomNFT",
      "outputs": [],
      "stateMutability": "payable",
      "type": "function"
    },
    {
      "inputs": [
        {
          "internalType": "address",
          "name": "from",
          "type": "address"
        },
        {
          "internalType": "address",
          "name": "to",
          "type": "address"
        },
        {
          "internalType": "uint256",
          "name": "tokenId",
          "type": "uint256"
        }
      ],
      "name": "safeTransferFrom",
      "outputs": [],
      "stateMutability": "nonpayable",
      "type": "function"
    },
    {
      "inputs": [
        {
          "internalType": "address",
          "name": "from",
          "type": "address"
        },
        {
          "internalType": "address",
          "name": "to",
          "type": "address"
        },
        {
          "internalType": "uint256",
          "name": "tokenId",
          "type": "uint256"
        },
        {
          "internalType": "bytes",
          "name": "_data",
          "type": "bytes"
        }
      ],
      "name": "safeTransferFrom",
      "outputs": [],
      "stateMutability": "nonpayable",
      "type": "function"
    },
    {
      "inputs": [
        {
          "internalType": "address",
          "name": "operator",
          "type": "address"
        },
        {
          "internalType": "bool",
          "name": "approved",
          "type": "bool"
        }
      ],
      "name": "setApprovalForAll",
      "outputs": [],
      "stateMutability": "nonpayable",
      "type": "function"
    },
    {
      "inputs": [
        {
          "internalType": "uint256",
          "name": "_price",
          "type": "uint256"
        }
      ],
      "name": "setMintPrice",
      "outputs": [],
      "stateMutability": "nonpayable",
      "type": "function"
    },
    {
      "inputs": [
        {
          "internalType": "bytes4",
          "name": "interfaceId",
          "type": "bytes4"
        }
      ],
      "name": "supportsInterface",
      "outputs": [
        {
          "internalType": "bool",
          "name": "",
          "type": "bool"
        }
      ],
      "stateMutability": "view",
      "type": "function"
    },
    {
      "inputs": [],
      "name": "symbol",
      "outputs": [
        {
          "internalType": "string",
          "name": "",
          "type": "string"
        }
      ],
      "stateMutability": "view",
      "type": "function"
    },
    {
      "inputs": [
        {
          "internalType": "uint256",
          "name": "index",
          "type": "uint256"
        }
      ],
      "name": "tokenByIndex",
      "outputs": [
        {
          "internalType": "uint256",
          "name": "",
          "type": "uint256"
        }
      ],
      "stateMutability": "view",
      "type": "function"
    },
    {
      "inputs": [
        {
          "internalType": "address",
          "name": "owner",
          "type": "address"
        },
        {
          "internalType": "uint256",
          "name": "index",
          "type": "uint256"
        }
      ],
      "name": "tokenOfOwnerByIndex",
      "outputs": [
        {
          "internalType": "uint256",
          "name": "",
          "type": "uint256"
        }
      ],
      "stateMutability": "view",
      "type": "function"
    },
    {
      "inputs": [
        {
          "internalType": "uint256",
          "name": "_tokenId",
          "type": "uint256"
        }
      ],
      "name": "tokenURI",
      "outputs": [
        {
          "internalType": "string",
          "name": "",
          "type": "string"
        }
      ],
      "stateMutability": "view",
      "type": "function"
    },
    {
      "inputs": [],
      "name": "totalSupply",
      "outputs": [
        {
          "internalType": "uint256",
          "name": "",
          "type": "uint256"
        }
      ],
      "stateMutability": "view",
      "type": "function"
    },
    {
      "inputs": [
        {
          "internalType": "address",
          "name": "from",
          "type": "address"
        },
        {
          "internalType": "address",
          "name": "to",
          "type": "address"
        },
        {
          "internalType": "uint256",
          "name": "tokenId",
          "type": "uint256"
        }
      ],
      "name": "transferFrom",
      "outputs": [],
      "stateMutability": "nonpayable",
      "type": "function"
    },
    {
      "inputs": [
        {
          "internalType": "address",
          "name": "newOwner",
          "type": "address"
        }
      ],
      "name": "transferOwnership",
      "outputs": [],
      "stateMutability": "nonpayable",
      "type": "function"
    }
  ],
  "bytecode": "0x60c06040526000600a60006101000a81548160ff021916908315150217905550600060105560006013553480156200003657600080fd5b50604051620069883803806200698883398181016040528101906200005c9190620008fe565b85858a8585858282878781600090805190602001906200007e92919062000774565b5080600190805190602001906200009792919062000774565b505050620000ba620000ae6200027460201b60201c565b6200029060201b60201c565b8173ffffffffffffffffffffffffffffffffffffffff1660a08173ffffffffffffffffffffffffffffffffffffffff1660601b815250508073ffffffffffffffffffffffffffffffffffffffff1660808173ffffffffffffffffffffffffffffffffffffffff1660601b81525050505083600f60006101000a81548173ffffffffffffffffffffffffffffffffffffffff021916908373ffffffffffffffffffffffffffffffffffffffff1602179055506200017c866200035660201b60201c565b8060148190555082601760006101000a81548173ffffffffffffffffffffffffffffffffffffffff021916908373ffffffffffffffffffffffffffffffffffffffff16021790555081601660006101000a81548173ffffffffffffffffffffffffffffffffffffffff021916908373ffffffffffffffffffffffffffffffffffffffff16021790555067016345785d8a00006015819055505050505050506200022b87620003d860201b60201c565b6200023c88620003f460201b60201c565b6200024d846200041060201b60201c565b62000265666a94d74f4300006200050760201b60201c565b50505050505050505062000e60565b60006200028b620005db60201b62001e661760201c565b905090565b6000600d60009054906101000a900473ffffffffffffffffffffffffffffffffffffffff16905081600d60006101000a81548173ffffffffffffffffffffffffffffffffffffffff021916908373ffffffffffffffffffffffffffffffffffffffff1602179055508173ffffffffffffffffffffffffffffffffffffffff168173ffffffffffffffffffffffffffffffffffffffff167f8be0079c531659141344cd1fd0a4f28419497f9722a3daafe3b4186f6b6457e060405160405180910390a35050565b600a60009054906101000a900460ff1615620003a9576040517f08c379a0000000000000000000000000000000000000000000000000000000008152600401620003a09062000b3b565b60405180910390fd5b620003ba816200068e60201b60201c565b6001600a60006101000a81548160ff02191690831515021790555050565b8060119080519060200190620003f092919062000774565b5050565b80601290805190602001906200040c92919062000774565b5050565b620004206200027460201b60201c565b73ffffffffffffffffffffffffffffffffffffffff16620004466200073d60201b60201c565b73ffffffffffffffffffffffffffffffffffffffff16146200049f576040517f08c379a0000000000000000000000000000000000000000000000000000000008152600401620004969062000b19565b60405180910390fd5b8060138190555060196000620004b6919062000805565b60005b601354811015620005035760198190806001815401808255809150506001900390600052602060002001600090919091909150558080620004fa9062000cd4565b915050620004b9565b5050565b620005176200027460201b60201c565b73ffffffffffffffffffffffffffffffffffffffff166200053d6200073d60201b60201c565b73ffffffffffffffffffffffffffffffffffffffff161462000596576040517f08c379a00000000000000000000000000000000000000000000000000000000081526004016200058d9062000b19565b60405180910390fd5b80601a819055507f680d48f3ac056f34ba048f33f9724cf2b4023626c5baa2b6bc554ec47fbfa101601a54604051620005d0919062000b5d565b60405180910390a150565b60003073ffffffffffffffffffffffffffffffffffffffff163373ffffffffffffffffffffffffffffffffffffffff1614156200068757600080368080601f016020809104026020016040519081016040528093929190818152602001838380828437600081840152601f19601f820116905080830192505050505050509050600080369050905073ffffffffffffffffffffffffffffffffffffffff8183015116925050506200068b565b3390505b90565b6040518060800160405280604f815260200162006939604f91398051906020012081805190602001206040518060400160405280600181526020017f31000000000000000000000000000000000000000000000000000000000000008152508051906020012030620007056200076760201b60201c565b60001b6040516020016200071e95949392919062000abc565b60405160208183030381529060405280519060200120600b8190555050565b6000600d60009054906101000a900473ffffffffffffffffffffffffffffffffffffffff16905090565b6000804690508091505090565b828054620007829062000c68565b90600052602060002090601f016020900481019282620007a65760008555620007f2565b82601f10620007c157805160ff1916838001178555620007f2565b82800160010185558215620007f2579182015b82811115620007f1578251825591602001919060010190620007d4565b5b50905062000801919062000828565b5090565b508054600082559060005260206000209081019062000825919062000828565b50565b5b808211156200084357600081600090555060010162000829565b5090565b60006200085e620008588462000ba3565b62000b7a565b9050828152602081018484840111156200087757600080fd5b6200088484828562000c32565b509392505050565b6000815190506200089d8162000e12565b92915050565b600081519050620008b48162000e2c565b92915050565b600082601f830112620008cc57600080fd5b8151620008de84826020860162000847565b91505092915050565b600081519050620008f88162000e46565b92915050565b60008060008060008060008060006101208a8c0312156200091e57600080fd5b60006200092e8c828d016200088c565b99505060208a015167ffffffffffffffff8111156200094c57600080fd5b6200095a8c828d01620008ba565b98505060408a015167ffffffffffffffff8111156200097857600080fd5b620009868c828d01620008ba565b97505060608a015167ffffffffffffffff811115620009a457600080fd5b620009b28c828d01620008ba565b96505060808a015167ffffffffffffffff811115620009d057600080fd5b620009de8c828d01620008ba565b95505060a0620009f18c828d01620008e7565b94505060c062000a048c828d016200088c565b93505060e062000a178c828d016200088c565b92505061010062000a2b8c828d01620008a3565b9150509295985092959850929598565b62000a468162000bea565b82525050565b62000a578162000bfe565b82525050565b600062000a6c60208362000bd9565b915062000a798262000dc0565b602082019050919050565b600062000a93600e8362000bd9565b915062000aa08262000de9565b602082019050919050565b62000ab68162000c28565b82525050565b600060a08201905062000ad3600083018862000a4c565b62000ae2602083018762000a4c565b62000af1604083018662000a4c565b62000b00606083018562000a3b565b62000b0f608083018462000a4c565b9695505050505050565b6000602082019050818103600083015262000b348162000a5d565b9050919050565b6000602082019050818103600083015262000b568162000a84565b9050919050565b600060208201905062000b74600083018462000aab565b92915050565b600062000b8662000b99565b905062000b94828262000c9e565b919050565b6000604051905090565b600067ffffffffffffffff82111562000bc15762000bc062000d80565b5b62000bcc8262000daf565b9050602081019050919050565b600082825260208201905092915050565b600062000bf78262000c08565b9050919050565b6000819050919050565b600073ffffffffffffffffffffffffffffffffffffffff82169050919050565b6000819050919050565b60005b8381101562000c5257808201518184015260208101905062000c35565b8381111562000c62576000848401525b50505050565b6000600282049050600182168062000c8157607f821691505b6020821081141562000c985762000c9762000d51565b5b50919050565b62000ca98262000daf565b810181811067ffffffffffffffff8211171562000ccb5762000cca62000d80565b5b80604052505050565b600062000ce18262000c28565b91507fffffffffffffffffffffffffffffffffffffffffffffffffffffffffffffffff82141562000d175762000d1662000d22565b5b600182019050919050565b7f4e487b7100000000000000000000000000000000000000000000000000000000600052601160045260246000fd5b7f4e487b7100000000000000000000000000000000000000000000000000000000600052602260045260246000fd5b7f4e487b7100000000000000000000000000000000000000000000000000000000600052604160045260246000fd5b6000601f19601f8301169050919050565b7f4f776e61626c653a2063616c6c6572206973206e6f7420746865206f776e6572600082015250565b7f616c726561647920696e69746564000000000000000000000000000000000000600082015250565b62000e1d8162000bea565b811462000e2957600080fd5b50565b62000e378162000bfe565b811462000e4357600080fd5b50565b62000e518162000c28565b811462000e5d57600080fd5b50565b60805160601c60a05160601c615a9f62000e9a60003960008181611598015261268c0152600081816113df01526126500152615a9f6000f3fe6080604052600436106102255760003560e01c80636352211e11610123578063a22cb465116100ab578063c92bb9ce1161006f578063c92bb9ce14610817578063e8a3d48514610840578063e985e9c51461086b578063f2fde38b146108a8578063f4a0a528146108d157610225565b8063a22cb46514610734578063a7f93ebd1461075d578063b7b334c314610788578063b88d4fde146107b1578063c87b56dd146107da57610225565b8063721c492c116100f2578063721c492c1461066e57806375f91ec81461068a5780638da5cb5b146106b557806394985ddd146106e057806395d89b411461070957610225565b80636352211e146105b25780636817c76c146105ef57806370a082311461061a578063715018a61461065757610225565b806323b872dd116101b15780633408e470116101755780633408e470146104cb57806342619f66146104f657806342842e0e146105215780634f6ccce71461054a5780634f8e2fdf1461058757610225565b806323b872dd146103d45780632d0335ab146103fd5780632f745c591461043a57806331b5b9071461047757806333b60863146104a057610225565b80630c53c51c116101f85780630c53c51c146102f85780630f7e59701461032857806318160ddd146103535780631855495f1461037e57806320379ee5146103a957610225565b806301ffc9a71461022a57806306fdde0314610267578063081812fc14610292578063095ea7b3146102cf575b600080fd5b34801561023657600080fd5b50610251600480360381019061024c9190613f40565b6108fa565b60405161025e919061476c565b60405180910390f35b34801561027357600080fd5b5061027c610974565b60405161028991906148bc565b60405180910390f35b34801561029e57600080fd5b506102b960048036038101906102b49190613ffc565b610a06565b6040516102c69190614689565b60405180910390f35b3480156102db57600080fd5b506102f660048036038101906102f19190613e63565b610a8b565b005b610312600480360381019061030d9190613dd4565b610ba3565b60405161031f919061489a565b60405180910390f35b34801561033457600080fd5b5061033d610e15565b60405161034a91906148bc565b60405180910390f35b34801561035f57600080fd5b50610368610e4e565b6040516103759190614ca5565b60405180910390f35b34801561038a57600080fd5b50610393610e5b565b6040516103a09190614ca5565b60405180910390f35b3480156103b557600080fd5b506103be610e68565b6040516103cb9190614787565b60405180910390f35b3480156103e057600080fd5b506103fb60048036038101906103f69190613cce565b610e72565b005b34801561040957600080fd5b50610424600480360381019061041f9190613c69565b610ed2565b6040516104319190614ca5565b60405180910390f35b34801561044657600080fd5b50610461600480360381019061045c9190613e63565b610f1b565b60405161046e9190614ca5565b60405180910390f35b34801561048357600080fd5b5061049e60048036038101906104999190613fbb565b610fc0565b005b3480156104ac57600080fd5b506104b5610fda565b6040516104c29190614689565b60405180910390f35b3480156104d757600080fd5b506104e0611000565b6040516104ed9190614ca5565b60405180910390f35b34801561050257600080fd5b5061050b61100d565b6040516105189190614ca5565b60405180910390f35b34801561052d57600080fd5b5061054860048036038101906105439190613cce565b611013565b005b34801561055657600080fd5b50610571600480360381019061056c9190613ffc565b611033565b60405161057e9190614ca5565b60405180910390f35b34801561059357600080fd5b5061059c6110ca565b6040516105a99190614689565b60405180910390f35b3480156105be57600080fd5b506105d960048036038101906105d49190613ffc565b6110f0565b6040516105e69190614689565b60405180910390f35b3480156105fb57600080fd5b506106046111a2565b6040516106119190614ca5565b60405180910390f35b34801561062657600080fd5b50610641600480360381019061063c9190613c69565b6111a8565b60405161064e9190614ca5565b60405180910390f35b34801561066357600080fd5b5061066c611260565b005b61068860048036038101906106839190613e9f565b6112e8565b005b34801561069657600080fd5b5061069f611562565b6040516106ac9190614ca5565b60405180910390f35b3480156106c157600080fd5b506106ca61156c565b6040516106d79190614689565b60405180910390f35b3480156106ec57600080fd5b5061070760048036038101906107029190613f04565b611596565b005b34801561071557600080fd5b5061071e611632565b60405161072b91906148bc565b60405180910390f35b34801561074057600080fd5b5061075b60048036038101906107569190613d98565b6116c4565b005b34801561076957600080fd5b50610772611845565b60405161077f9190614ca5565b60405180910390f35b34801561079457600080fd5b506107af60048036038101906107aa9190613ffc565b61184f565b005b3480156107bd57600080fd5b506107d860048036038101906107d39190613d1d565b61192d565b005b3480156107e657600080fd5b5061080160048036038101906107fc9190613ffc565b61198f565b60405161080e91906148bc565b60405180910390f35b34801561082357600080fd5b5061083e60048036038101906108399190613fbb565b611a38565b005b34801561084c57600080fd5b50610855611a52565b60405161086291906148bc565b60405180910390f35b34801561087757600080fd5b50610892600480360381019061088d9190613c92565b611bad565b60405161089f919061476c565b60405180910390f35b3480156108b457600080fd5b506108cf60048036038101906108ca9190613c69565b611caf565b005b3480156108dd57600080fd5b506108f860048036038101906108f39190613ffc565b611da7565b005b60007f780e9d63000000000000000000000000000000000000000000000000000000007bffffffffffffffffffffffffffffffffffffffffffffffffffffffff1916827bffffffffffffffffffffffffffffffffffffffffffffffffffffffff1916148061096d575061096c82611f17565b5b9050919050565b60606000805461098390614fcf565b80601f01602080910402602001604051908101604052809291908181526020018280546109af90614fcf565b80156109fc5780601f106109d1576101008083540402835291602001916109fc565b820191906000526020600020905b8154815290600101906020018083116109df57829003601f168201915b5050505050905090565b6000610a1182611ff9565b610a50576040517f08c379a0000000000000000000000000000000000000000000000000000000008152600401610a4790614b45565b60405180910390fd5b6004600083815260200190815260200160002060009054906101000a900473ffffffffffffffffffffffffffffffffffffffff169050919050565b6000610a96826110f0565b90508073ffffffffffffffffffffffffffffffffffffffff168373ffffffffffffffffffffffffffffffffffffffff161415610b07576040517f08c379a0000000000000000000000000000000000000000000000000000000008152600401610afe90614c05565b60405180910390fd5b8073ffffffffffffffffffffffffffffffffffffffff16610b26612065565b73ffffffffffffffffffffffffffffffffffffffff161480610b555750610b5481610b4f612065565b611bad565b5b610b94576040517f08c379a0000000000000000000000000000000000000000000000000000000008152600401610b8b90614aa5565b60405180910390fd5b610b9e8383612074565b505050565b606060006040518060600160405280600c60008a73ffffffffffffffffffffffffffffffffffffffff1673ffffffffffffffffffffffffffffffffffffffff1681526020019081526020016000205481526020018873ffffffffffffffffffffffffffffffffffffffff168152602001878152509050610c26878287878761212d565b610c65576040517f08c379a0000000000000000000000000000000000000000000000000000000008152600401610c5c90614ba5565b60405180910390fd5b610cb86001600c60008a73ffffffffffffffffffffffffffffffffffffffff1673ffffffffffffffffffffffffffffffffffffffff1681526020019081526020016000205461223690919063ffffffff16565b600c60008973ffffffffffffffffffffffffffffffffffffffff1673ffffffffffffffffffffffffffffffffffffffff168152602001908152602001600020819055507f5845892132946850460bff5a0083f71031bc5bf9aadcd40f1de79423eac9b10b873388604051610d2e939291906146a4565b60405180910390a16000803073ffffffffffffffffffffffffffffffffffffffff16888a604051602001610d639291906145fb565b604051602081830303815290604052604051610d7f91906145e4565b6000604051808303816000865af19150503d8060008114610dbc576040519150601f19603f3d011682016040523d82523d6000602084013e610dc1565b606091505b509150915081610e06576040517f08c379a0000000000000000000000000000000000000000000000000000000008152600401610dfd906149a5565b60405180910390fd5b80935050505095945050505050565b6040518060400160405280600181526020017f310000000000000000000000000000000000000000000000000000000000000081525081565b6000600880549050905090565b6000601980549050905090565b6000600b54905090565b610e83610e7d612065565b8261224c565b610ec2576040517f08c379a0000000000000000000000000000000000000000000000000000000008152600401610eb990614c25565b60405180910390fd5b610ecd83838361232a565b505050565b6000600c60008373ffffffffffffffffffffffffffffffffffffffff1673ffffffffffffffffffffffffffffffffffffffff168152602001908152602001600020549050919050565b6000610f26836111a8565b8210610f67576040517f08c379a0000000000000000000000000000000000000000000000000000000008152600401610f5e90614945565b60405180910390fd5b600660008473ffffffffffffffffffffffffffffffffffffffff1673ffffffffffffffffffffffffffffffffffffffff168152602001908152602001600020600083815260200190815260200160002054905092915050565b8060119080519060200190610fd6929190613a03565b5050565b601760009054906101000a900473ffffffffffffffffffffffffffffffffffffffff1681565b6000804690508091505090565b60185481565b61102e8383836040518060200160405280600081525061192d565b505050565b600061103d610e4e565b821061107e576040517f08c379a000000000000000000000000000000000000000000000000000000000815260040161107590614c65565b60405180910390fd5b600882815481106110b8577f4e487b7100000000000000000000000000000000000000000000000000000000600052603260045260246000fd5b90600052602060002001549050919050565b601660009054906101000a900473ffffffffffffffffffffffffffffffffffffffff1681565b6000806002600084815260200190815260200160002060009054906101000a900473ffffffffffffffffffffffffffffffffffffffff169050600073ffffffffffffffffffffffffffffffffffffffff168173ffffffffffffffffffffffffffffffffffffffff161415611199576040517f08c379a000000000000000000000000000000000000000000000000000000000815260040161119090614ae5565b60405180910390fd5b80915050919050565b601a5481565b60008073ffffffffffffffffffffffffffffffffffffffff168273ffffffffffffffffffffffffffffffffffffffff161415611219576040517f08c379a000000000000000000000000000000000000000000000000000000000815260040161121090614ac5565b60405180910390fd5b600360008373ffffffffffffffffffffffffffffffffffffffff1673ffffffffffffffffffffffffffffffffffffffff168152602001908152602001600020549050919050565b611268612065565b73ffffffffffffffffffffffffffffffffffffffff1661128661156c565b73ffffffffffffffffffffffffffffffffffffffff16146112dc576040517f08c379a00000000000000000000000000000000000000000000000000000000081526004016112d390614b65565b60405180910390fd5b6112e66000612586565b565b8060ff16601354811115611331576040517f08c379a000000000000000000000000000000000000000000000000000000000815260040161132890614bc5565b60405180910390fd5b8160ff166014811115611379576040517f08c379a0000000000000000000000000000000000000000000000000000000008152600401611370906149e5565b60405180910390fd5b601a548360ff1661138a9190614e1c565b3410156113cc576040517f08c379a00000000000000000000000000000000000000000000000000000000081526004016113c390614c85565b60405180910390fd5b8260ff166015546113dd9190614e1c565b7f000000000000000000000000000000000000000000000000000000000000000073ffffffffffffffffffffffffffffffffffffffff166370a08231306040518263ffffffff1660e01b81526004016114369190614689565b60206040518083038186803b15801561144e57600080fd5b505afa158015611462573d6000803e3d6000fd5b505050506040513d601f19601f820116820180604052508101906114869190614025565b10156114c7576040517f08c379a00000000000000000000000000000000000000000000000000000000081526004016114be90614a45565b60405180910390fd5b60005b6001846114d79190614eaa565b60ff168160ff161161155b5760006114f360145460155461264c565b905085601b600083815260200190815260200160002060006101000a81548173ffffffffffffffffffffffffffffffffffffffff021916908373ffffffffffffffffffffffffffffffffffffffff1602179055505080806115539061507b565b9150506114ca565b5050505050565b6000601354905090565b6000600d60009054906101000a900473ffffffffffffffffffffffffffffffffffffffff16905090565b7f000000000000000000000000000000000000000000000000000000000000000073ffffffffffffffffffffffffffffffffffffffff163373ffffffffffffffffffffffffffffffffffffffff1614611624576040517f08c379a000000000000000000000000000000000000000000000000000000000815260040161161b90614be5565b60405180910390fd5b61162e82826127ae565b5050565b60606001805461164190614fcf565b80601f016020809104026020016040519081016040528092919081815260200182805461166d90614fcf565b80156116ba5780601f1061168f576101008083540402835291602001916116ba565b820191906000526020600020905b81548152906001019060200180831161169d57829003601f168201915b5050505050905090565b6116cc612065565b73ffffffffffffffffffffffffffffffffffffffff168273ffffffffffffffffffffffffffffffffffffffff16141561173a576040517f08c379a000000000000000000000000000000000000000000000000000000000815260040161173190614a25565b60405180910390fd5b8060056000611747612065565b73ffffffffffffffffffffffffffffffffffffffff1673ffffffffffffffffffffffffffffffffffffffff16815260200190815260200160002060008473ffffffffffffffffffffffffffffffffffffffff1673ffffffffffffffffffffffffffffffffffffffff16815260200190815260200160002060006101000a81548160ff0219169083151502179055508173ffffffffffffffffffffffffffffffffffffffff166117f4612065565b73ffffffffffffffffffffffffffffffffffffffff167f17307eab39ab6107e8899845ad3d59bd9653f200f220920489ca2b5937696c3183604051611839919061476c565b60405180910390a35050565b6000601a54905090565b611857612065565b73ffffffffffffffffffffffffffffffffffffffff1661187561156c565b73ffffffffffffffffffffffffffffffffffffffff16146118cb576040517f08c379a00000000000000000000000000000000000000000000000000000000081526004016118c290614b65565b60405180910390fd5b80601381905550601960006118e09190613a89565b60005b601354811015611929576019819080600181540180825580915050600190039060005260206000200160009091909190915055808061192190615032565b9150506118e3565b5050565b61193e611938612065565b8361224c565b61197d576040517f08c379a000000000000000000000000000000000000000000000000000000000815260040161197490614c25565b60405180910390fd5b61198984848484612857565b50505050565b6060611a006040518060400160405280600a81526020017f746f6b656e5552493a20000000000000000000000000000000000000000000008152506119d26128b3565b6119db85612a0e565b6040516020016119ec929190614623565b604051602081830303815290604052612bbb565b611a086128b3565b611a1183612a0e565b604051602001611a22929190614623565b6040516020818303038152906040529050919050565b8060129080519060200190611a4e929190613a03565b5050565b6060611b1d6040518060400160405280600d81526020017f636f6e74726163745552493a200000000000000000000000000000000000000081525060128054611a9a90614fcf565b80601f0160208091040260200160405190810160405280929190818152602001828054611ac690614fcf565b8015611b135780601f10611ae857610100808354040283529160200191611b13565b820191906000526020600020905b815481529060010190602001808311611af657829003601f168201915b5050505050612bbb565b60128054611b2a90614fcf565b80601f0160208091040260200160405190810160405280929190818152602001828054611b5690614fcf565b8015611ba35780601f10611b7857610100808354040283529160200191611ba3565b820191906000526020600020905b815481529060010190602001808311611b8657829003601f168201915b5050505050905090565b600080600f60009054906101000a900473ffffffffffffffffffffffffffffffffffffffff1690508273ffffffffffffffffffffffffffffffffffffffff168173ffffffffffffffffffffffffffffffffffffffff1663c4552791866040518263ffffffff1660e01b8152600401611c259190614689565b60206040518083038186803b158015611c3d57600080fd5b505afa158015611c51573d6000803e3d6000fd5b505050506040513d601f19601f82011682018060405250810190611c759190613f92565b73ffffffffffffffffffffffffffffffffffffffff161415611c9b576001915050611ca9565b611ca58484612c57565b9150505b92915050565b611cb7612065565b73ffffffffffffffffffffffffffffffffffffffff16611cd561156c565b73ffffffffffffffffffffffffffffffffffffffff1614611d2b576040517f08c379a0000000000000000000000000000000000000000000000000000000008152600401611d2290614b65565b60405180910390fd5b600073ffffffffffffffffffffffffffffffffffffffff168173ffffffffffffffffffffffffffffffffffffffff161415611d9b576040517f08c379a0000000000000000000000000000000000000000000000000000000008152600401611d9290614985565b60405180910390fd5b611da481612586565b50565b611daf612065565b73ffffffffffffffffffffffffffffffffffffffff16611dcd61156c565b73ffffffffffffffffffffffffffffffffffffffff1614611e23576040517f08c379a0000000000000000000000000000000000000000000000000000000008152600401611e1a90614b65565b60405180910390fd5b80601a819055507f680d48f3ac056f34ba048f33f9724cf2b4023626c5baa2b6bc554ec47fbfa101601a54604051611e5b9190614ca5565b60405180910390a150565b60003073ffffffffffffffffffffffffffffffffffffffff163373ffffffffffffffffffffffffffffffffffffffff161415611f1057600080368080601f016020809104026020016040519081016040528093929190818152602001838380828437600081840152601f19601f820116905080830192505050505050509050600080369050905073ffffffffffffffffffffffffffffffffffffffff818301511692505050611f14565b3390505b90565b60007f80ac58cd000000000000000000000000000000000000000000000000000000007bffffffffffffffffffffffffffffffffffffffffffffffffffffffff1916827bffffffffffffffffffffffffffffffffffffffffffffffffffffffff19161480611fe257507f5b5e139f000000000000000000000000000000000000000000000000000000007bffffffffffffffffffffffffffffffffffffffffffffffffffffffff1916827bffffffffffffffffffffffffffffffffffffffffffffffffffffffff1916145b80611ff25750611ff182612ceb565b5b9050919050565b60008073ffffffffffffffffffffffffffffffffffffffff166002600084815260200190815260200160002060009054906101000a900473ffffffffffffffffffffffffffffffffffffffff1673ffffffffffffffffffffffffffffffffffffffff1614159050919050565b600061206f611e66565b905090565b816004600083815260200190815260200160002060006101000a81548173ffffffffffffffffffffffffffffffffffffffff021916908373ffffffffffffffffffffffffffffffffffffffff160217905550808273ffffffffffffffffffffffffffffffffffffffff166120e7836110f0565b73ffffffffffffffffffffffffffffffffffffffff167f8c5be1e5ebec7d5bd14f71427d1e84f3dd0314c0f7b2291e5b200ac8c7c3b92560405160405180910390a45050565b60008073ffffffffffffffffffffffffffffffffffffffff168673ffffffffffffffffffffffffffffffffffffffff16141561219e576040517f08c379a000000000000000000000000000000000000000000000000000000000815260040161219590614a85565b60405180910390fd5b60016121b16121ac87612d55565b612dbd565b838686604051600081526020016040526040516121d19493929190614855565b6020604051602081039080840390855afa1580156121f3573d6000803e3d6000fd5b5050506020604051035173ffffffffffffffffffffffffffffffffffffffff168673ffffffffffffffffffffffffffffffffffffffff1614905095945050505050565b600081836122449190614d95565b905092915050565b600061225782611ff9565b612296576040517f08c379a000000000000000000000000000000000000000000000000000000000815260040161228d90614a65565b60405180910390fd5b60006122a1836110f0565b90508073ffffffffffffffffffffffffffffffffffffffff168473ffffffffffffffffffffffffffffffffffffffff16148061231057508373ffffffffffffffffffffffffffffffffffffffff166122f884610a06565b73ffffffffffffffffffffffffffffffffffffffff16145b8061232157506123208185611bad565b5b91505092915050565b8273ffffffffffffffffffffffffffffffffffffffff1661234a826110f0565b73ffffffffffffffffffffffffffffffffffffffff16146123a0576040517f08c379a000000000000000000000000000000000000000000000000000000000815260040161239790614b85565b60405180910390fd5b600073ffffffffffffffffffffffffffffffffffffffff168273ffffffffffffffffffffffffffffffffffffffff161415612410576040517f08c379a000000000000000000000000000000000000000000000000000000000815260040161240790614a05565b60405180910390fd5b61241b838383612df6565b612426600082612074565b6001600360008573ffffffffffffffffffffffffffffffffffffffff1673ffffffffffffffffffffffffffffffffffffffff16815260200190815260200160002060008282546124769190614e76565b925050819055506001600360008473ffffffffffffffffffffffffffffffffffffffff1673ffffffffffffffffffffffffffffffffffffffff16815260200190815260200160002060008282546124cd9190614d95565b92505081905550816002600083815260200190815260200160002060006101000a81548173ffffffffffffffffffffffffffffffffffffffff021916908373ffffffffffffffffffffffffffffffffffffffff160217905550808273ffffffffffffffffffffffffffffffffffffffff168473ffffffffffffffffffffffffffffffffffffffff167fddf252ad1be2c89b69c2b068fc378daa952ba7f163c4a11628f55a4df523b3ef60405160405180910390a4505050565b6000600d60009054906101000a900473ffffffffffffffffffffffffffffffffffffffff16905081600d60006101000a81548173ffffffffffffffffffffffffffffffffffffffff021916908373ffffffffffffffffffffffffffffffffffffffff1602179055508173ffffffffffffffffffffffffffffffffffffffff168173ffffffffffffffffffffffffffffffffffffffff167f8be0079c531659141344cd1fd0a4f28419497f9722a3daafe3b4186f6b6457e060405160405180910390a35050565b60007f000000000000000000000000000000000000000000000000000000000000000073ffffffffffffffffffffffffffffffffffffffff16634000aea07f0000000000000000000000000000000000000000000000000000000000000000848660006040516020016126c09291906147a2565b6040516020818303038152906040526040518463ffffffff1660e01b81526004016126ed9392919061472e565b602060405180830381600087803b15801561270757600080fd5b505af115801561271b573d6000803e3d6000fd5b505050506040513d601f19601f8201168201806040525081019061273f9190613edb565b50600061276284600030600e600089815260200190815260200160002054612f0a565b90506001600e6000868152602001908152602001600020546127849190614d95565b600e6000868152602001908152602001600020819055506127a58482612f46565b91505092915050565b806018819055506000601980549050826127c891906150dd565b90506000601b600085815260200190815260200160002060009054906101000a900473ffffffffffffffffffffffffffffffffffffffff1690506128508160198481548110612840577f4e487b7100000000000000000000000000000000000000000000000000000000600052603260045260246000fd5b9060005260206000200154612f79565b5050505050565b61286284848461232a565b61286e8484848461301d565b6128ad576040517f08c379a00000000000000000000000000000000000000000000000000000000081526004016128a490614965565b60405180910390fd5b50505050565b606061297e6040518060400160405280600e81526020017f62617365546f6b656e5552493a20000000000000000000000000000000000000815250601180546128fb90614fcf565b80601f016020809104026020016040519081016040528092919081815260200182805461292790614fcf565b80156129745780601f1061294957610100808354040283529160200191612974565b820191906000526020600020905b81548152906001019060200180831161295757829003601f168201915b5050505050612bbb565b6011805461298b90614fcf565b80601f01602080910402602001604051908101604052809291908181526020018280546129b790614fcf565b8015612a045780601f106129d957610100808354040283529160200191612a04565b820191906000526020600020905b8154815290600101906020018083116129e757829003601f168201915b5050505050905090565b60606000821415612a56576040518060400160405280600181526020017f30000000000000000000000000000000000000000000000000000000000000008152509050612bb6565b600082905060005b60008214612a88578080612a7190615032565b915050600a82612a819190614deb565b9150612a5e565b60008167ffffffffffffffff811115612aca577f4e487b7100000000000000000000000000000000000000000000000000000000600052604160045260246000fd5b6040519080825280601f01601f191660200182016040528015612afc5781602001600182028036833780820191505090505b5090505b60008514612baf57600182612b159190614e76565b9150600a85612b2491906150dd565b6030612b309190614d95565b60f81b818381518110612b6c577f4e487b7100000000000000000000000000000000000000000000000000000000600052603260045260246000fd5b60200101907effffffffffffffffffffffffffffffffffffffffffffffffffffffffffffff1916908160001a905350600a85612ba89190614deb565b9450612b00565b8093505050505b919050565b612c538282604051602401612bd19291906148de565b6040516020818303038152906040527f4b5c4277000000000000000000000000000000000000000000000000000000007bffffffffffffffffffffffffffffffffffffffffffffffffffffffff19166020820180517bffffffffffffffffffffffffffffffffffffffffffffffffffffffff83818316178352505050506131b4565b5050565b6000600560008473ffffffffffffffffffffffffffffffffffffffff1673ffffffffffffffffffffffffffffffffffffffff16815260200190815260200160002060008373ffffffffffffffffffffffffffffffffffffffff1673ffffffffffffffffffffffffffffffffffffffff16815260200190815260200160002060009054906101000a900460ff16905092915050565b60007f01ffc9a7000000000000000000000000000000000000000000000000000000007bffffffffffffffffffffffffffffffffffffffffffffffffffffffff1916827bffffffffffffffffffffffffffffffffffffffffffffffffffffffff1916149050919050565b6000604051806080016040528060438152602001615a27604391398051906020012082600001518360200151846040015180519060200120604051602001612da094939291906147cb565b604051602081830303815290604052805190602001209050919050565b6000612dc7610e68565b82604051602001612dd9929190614652565b604051602081830303815290604052805190602001209050919050565b612e018383836131dd565b600073ffffffffffffffffffffffffffffffffffffffff168373ffffffffffffffffffffffffffffffffffffffff161415612e4457612e3f816131e2565b612e83565b8173ffffffffffffffffffffffffffffffffffffffff168373ffffffffffffffffffffffffffffffffffffffff1614612e8257612e81838261322b565b5b5b600073ffffffffffffffffffffffffffffffffffffffff168273ffffffffffffffffffffffffffffffffffffffff161415612ec657612ec181613398565b612f05565b8273ffffffffffffffffffffffffffffffffffffffff168273ffffffffffffffffffffffffffffffffffffffff1614612f0457612f0382826134db565b5b5b505050565b600084848484604051602001612f239493929190614810565b6040516020818303038152906040528051906020012060001c9050949350505050565b60008282604051602001612f5b9291906145b8565b60405160208183030381529060405280519060200120905092915050565b6000612f85838361355a565b612fc46040518060400160405280600981526020017f546f6b656e49643a20000000000000000000000000000000000000000000000081525083613728565b61300b6040518060400160405280600981526020017f626173657572693a2000000000000000000000000000000000000000000000008152506130068461198f565b612bbb565b613014826137c4565b81905092915050565b600061303e8473ffffffffffffffffffffffffffffffffffffffff16613951565b156131a7578373ffffffffffffffffffffffffffffffffffffffff1663150b7a02613067612065565b8786866040518563ffffffff1660e01b815260040161308994939291906146e2565b602060405180830381600087803b1580156130a357600080fd5b505af19250505080156130d457506040513d601f19601f820116820180604052508101906130d19190613f69565b60015b613157573d8060008114613104576040519150601f19603f3d011682016040523d82523d6000602084013e613109565b606091505b5060008151141561314f576040517f08c379a000000000000000000000000000000000000000000000000000000000815260040161314690614965565b60405180910390fd5b805181602001fd5b63150b7a0260e01b7bffffffffffffffffffffffffffffffffffffffffffffffffffffffff1916817bffffffffffffffffffffffffffffffffffffffffffffffffffffffff1916149150506131ac565b600190505b949350505050565b60008151905060006a636f6e736f6c652e6c6f679050602083016000808483855afa5050505050565b505050565b6008805490506009600083815260200190815260200160002081905550600881908060018154018082558091505060019003906000526020600020016000909190919091505550565b60006001613238846111a8565b6132429190614e76565b9050600060076000848152602001908152602001600020549050818114613327576000600660008673ffffffffffffffffffffffffffffffffffffffff1673ffffffffffffffffffffffffffffffffffffffff168152602001908152602001600020600084815260200190815260200160002054905080600660008773ffffffffffffffffffffffffffffffffffffffff1673ffffffffffffffffffffffffffffffffffffffff168152602001908152602001600020600084815260200190815260200160002081905550816007600083815260200190815260200160002081905550505b6007600084815260200190815260200160002060009055600660008573ffffffffffffffffffffffffffffffffffffffff1673ffffffffffffffffffffffffffffffffffffffff16815260200190815260200160002060008381526020019081526020016000206000905550505050565b600060016008805490506133ac9190614e76565b9050600060096000848152602001908152602001600020549050600060088381548110613402577f4e487b7100000000000000000000000000000000000000000000000000000000600052603260045260246000fd5b90600052602060002001549050806008838154811061344a577f4e487b7100000000000000000000000000000000000000000000000000000000600052603260045260246000fd5b9060005260206000200181905550816009600083815260200190815260200160002081905550600960008581526020019081526020016000206000905560088054806134bf577f4e487b7100000000000000000000000000000000000000000000000000000000600052603160045260246000fd5b6001900381819060005260206000200160009055905550505050565b60006134e6836111a8565b905081600660008573ffffffffffffffffffffffffffffffffffffffff1673ffffffffffffffffffffffffffffffffffffffff168152602001908152602001600020600083815260200190815260200160002081905550806007600084815260200190815260200160002081905550505050565b600073ffffffffffffffffffffffffffffffffffffffff168273ffffffffffffffffffffffffffffffffffffffff1614156135ca576040517f08c379a00000000000000000000000000000000000000000000000000000000081526004016135c190614b25565b60405180910390fd5b6135d381611ff9565b15613613576040517f08c379a000000000000000000000000000000000000000000000000000000000815260040161360a906149c5565b60405180910390fd5b61361f60008383612df6565b6001600360008473ffffffffffffffffffffffffffffffffffffffff1673ffffffffffffffffffffffffffffffffffffffff168152602001908152602001600020600082825461366f9190614d95565b92505081905550816002600083815260200190815260200160002060006101000a81548173ffffffffffffffffffffffffffffffffffffffff021916908373ffffffffffffffffffffffffffffffffffffffff160217905550808273ffffffffffffffffffffffffffffffffffffffff16600073ffffffffffffffffffffffffffffffffffffffff167fddf252ad1be2c89b69c2b068fc378daa952ba7f163c4a11628f55a4df523b3ef60405160405180910390a45050565b6137c0828260405160240161373e929190614915565b6040516020818303038152906040527f9710a9d0000000000000000000000000000000000000000000000000000000007bffffffffffffffffffffffffffffffffffffffffffffffffffffffff19166020820180517bffffffffffffffffffffffffffffffffffffffffffffffffffffffff83818316178352505050506131b4565b5050565b60006019805490501161380c576040517f08c379a000000000000000000000000000000000000000000000000000000000815260040161380390614b05565b60405180910390fd5b600061381782613964565b9050601980549050811115613861576040517f08c379a000000000000000000000000000000000000000000000000000000000815260040161385890614c45565b60405180910390fd5b601960016019805490506138759190614e76565b815481106138ac577f4e487b7100000000000000000000000000000000000000000000000000000000600052603260045260246000fd5b9060005260206000200154601982815481106138f1577f4e487b7100000000000000000000000000000000000000000000000000000000600052603260045260246000fd5b90600052602060002001819055506019805480613937577f4e487b7100000000000000000000000000000000000000000000000000000000600052603160045260246000fd5b600190038181906000526020600020016000905590555050565b600080823b905060008111915050919050565b600080600090505b6019805490508110156139e8576000601982815481106139b5577f4e487b7100000000000000000000000000000000000000000000000000000000600052603260045260246000fd5b90600052602060002001549050838114156139d45781925050506139fe565b5080806139e090615032565b91505061396c565b5060646019805490506139fb9190614d95565b90505b919050565b828054613a0f90614fcf565b90600052602060002090601f016020900481019282613a315760008555613a78565b82601f10613a4a57805160ff1916838001178555613a78565b82800160010185558215613a78579182015b82811115613a77578251825591602001919060010190613a5c565b5b509050613a859190613aaa565b5090565b5080546000825590600052602060002090810190613aa79190613aaa565b50565b5b80821115613ac3576000816000905550600101613aab565b5090565b6000613ada613ad584614ce5565b614cc0565b905082815260208101848484011115613af257600080fd5b613afd848285614f8d565b509392505050565b6000613b18613b1384614d16565b614cc0565b905082815260208101848484011115613b3057600080fd5b613b3b848285614f8d565b509392505050565b600081359050613b5281615985565b92915050565b600081359050613b678161599c565b92915050565b600081519050613b7c8161599c565b92915050565b600081359050613b91816159b3565b92915050565b600081359050613ba6816159ca565b92915050565b600081519050613bbb816159ca565b92915050565b600082601f830112613bd257600080fd5b8135613be2848260208601613ac7565b91505092915050565b600081519050613bfa816159e1565b92915050565b600082601f830112613c1157600080fd5b8135613c21848260208601613b05565b91505092915050565b600081359050613c39816159f8565b92915050565b600081519050613c4e816159f8565b92915050565b600081359050613c6381615a0f565b92915050565b600060208284031215613c7b57600080fd5b6000613c8984828501613b43565b91505092915050565b60008060408385031215613ca557600080fd5b6000613cb385828601613b43565b9250506020613cc485828601613b43565b9150509250929050565b600080600060608486031215613ce357600080fd5b6000613cf186828701613b43565b9350506020613d0286828701613b43565b9250506040613d1386828701613c2a565b9150509250925092565b60008060008060808587031215613d3357600080fd5b6000613d4187828801613b43565b9450506020613d5287828801613b43565b9350506040613d6387828801613c2a565b925050606085013567ffffffffffffffff811115613d8057600080fd5b613d8c87828801613bc1565b91505092959194509250565b60008060408385031215613dab57600080fd5b6000613db985828601613b43565b9250506020613dca85828601613b58565b9150509250929050565b600080600080600060a08688031215613dec57600080fd5b6000613dfa88828901613b43565b955050602086013567ffffffffffffffff811115613e1757600080fd5b613e2388828901613bc1565b9450506040613e3488828901613b82565b9350506060613e4588828901613b82565b9250506080613e5688828901613c54565b9150509295509295909350565b60008060408385031215613e7657600080fd5b6000613e8485828601613b43565b9250506020613e9585828601613c2a565b9150509250929050565b60008060408385031215613eb257600080fd5b6000613ec085828601613b43565b9250506020613ed185828601613c54565b9150509250929050565b600060208284031215613eed57600080fd5b6000613efb84828501613b6d565b91505092915050565b60008060408385031215613f1757600080fd5b6000613f2585828601613b82565b9250506020613f3685828601613c2a565b9150509250929050565b600060208284031215613f5257600080fd5b6000613f6084828501613b97565b91505092915050565b600060208284031215613f7b57600080fd5b6000613f8984828501613bac565b91505092915050565b600060208284031215613fa457600080fd5b6000613fb284828501613beb565b91505092915050565b600060208284031215613fcd57600080fd5b600082013567ffffffffffffffff811115613fe757600080fd5b613ff384828501613c00565b91505092915050565b60006020828403121561400e57600080fd5b600061401c84828501613c2a565b91505092915050565b60006020828403121561403757600080fd5b600061404584828501613c3f565b91505092915050565b61405781614ef0565b82525050565b61406681614ede565b82525050565b61407d61407882614ede565b6150a5565b82525050565b61408c81614f02565b82525050565b61409b81614f0e565b82525050565b6140b26140ad82614f0e565b6150b7565b82525050565b60006140c382614d47565b6140cd8185614d5d565b93506140dd818560208601614f9c565b6140e6816151ca565b840191505092915050565b60006140fc82614d47565b6141068185614d6e565b9350614116818560208601614f9c565b80840191505092915050565b600061412d82614d52565b6141378185614d79565b9350614147818560208601614f9c565b614150816151ca565b840191505092915050565b600061416682614d52565b6141708185614d8a565b9350614180818560208601614f9c565b80840191505092915050565b6000614199602b83614d79565b91506141a4826151e8565b604082019050919050565b60006141bc603283614d79565b91506141c782615237565b604082019050919050565b60006141df602683614d79565b91506141ea82615286565b604082019050919050565b6000614202601c83614d79565b915061420d826152d5565b602082019050919050565b6000614225601c83614d79565b9150614230826152fe565b602082019050919050565b6000614248600283614d8a565b915061425382615327565b600282019050919050565b600061426b602a83614d79565b915061427682615350565b604082019050919050565b600061428e602483614d79565b91506142998261539f565b604082019050919050565b60006142b1601983614d79565b91506142bc826153ee565b602082019050919050565b60006142d4602b83614d79565b91506142df82615417565b604082019050919050565b60006142f7602c83614d79565b915061430282615466565b604082019050919050565b600061431a602583614d79565b9150614325826154b5565b604082019050919050565b600061433d603883614d79565b915061434882615504565b604082019050919050565b6000614360602a83614d79565b915061436b82615553565b604082019050919050565b6000614383602983614d79565b915061438e826155a2565b604082019050919050565b60006143a6601183614d79565b91506143b1826155f1565b602082019050919050565b60006143c9602083614d79565b91506143d48261561a565b602082019050919050565b60006143ec602c83614d79565b91506143f782615643565b604082019050919050565b600061440f602083614d79565b915061441a82615692565b602082019050919050565b6000614432602983614d79565b915061443d826156bb565b604082019050919050565b6000614455602183614d79565b91506144608261570a565b604082019050919050565b6000614478602983614d79565b915061448382615759565b604082019050919050565b600061449b601f83614d79565b91506144a6826157a8565b602082019050919050565b60006144be602183614d79565b91506144c9826157d1565b604082019050919050565b60006144e1603183614d79565b91506144ec82615820565b604082019050919050565b6000614504602a83614d79565b915061450f8261586f565b604082019050919050565b6000614527602c83614d79565b9150614532826158be565b604082019050919050565b600061454a602183614d79565b91506145558261590d565b604082019050919050565b600061456d600183614d8a565b91506145788261595c565b600182019050919050565b61458c81614f76565b82525050565b6145a361459e82614f76565b6150d3565b82525050565b6145b281614f80565b82525050565b60006145c482856140a1565b6020820191506145d48284614592565b6020820191508190509392505050565b60006145f082846140f1565b915081905092915050565b600061460782856140f1565b9150614613828461406c565b6014820191508190509392505050565b600061462f828561415b565b915061463a82614560565b9150614646828461415b565b91508190509392505050565b600061465d8261423b565b915061466982856140a1565b60208201915061467982846140a1565b6020820191508190509392505050565b600060208201905061469e600083018461405d565b92915050565b60006060820190506146b9600083018661405d565b6146c6602083018561404e565b81810360408301526146d881846140b8565b9050949350505050565b60006080820190506146f7600083018761405d565b614704602083018661405d565b6147116040830185614583565b818103606083015261472381846140b8565b905095945050505050565b6000606082019050614743600083018661405d565b6147506020830185614583565b818103604083015261476281846140b8565b9050949350505050565b60006020820190506147816000830184614083565b92915050565b600060208201905061479c6000830184614092565b92915050565b60006040820190506147b76000830185614092565b6147c46020830184614583565b9392505050565b60006080820190506147e06000830187614092565b6147ed6020830186614583565b6147fa604083018561405d565b6148076060830184614092565b95945050505050565b60006080820190506148256000830187614092565b6148326020830186614583565b61483f604083018561405d565b61484c6060830184614583565b95945050505050565b600060808201905061486a6000830187614092565b61487760208301866145a9565b6148846040830185614092565b6148916060830184614092565b95945050505050565b600060208201905081810360008301526148b481846140b8565b905092915050565b600060208201905081810360008301526148d68184614122565b905092915050565b600060408201905081810360008301526148f88185614122565b9050818103602083015261490c8184614122565b90509392505050565b6000604082019050818103600083015261492f8185614122565b905061493e6020830184614583565b9392505050565b6000602082019050818103600083015261495e8161418c565b9050919050565b6000602082019050818103600083015261497e816141af565b9050919050565b6000602082019050818103600083015261499e816141d2565b9050919050565b600060208201905081810360008301526149be816141f5565b9050919050565b600060208201905081810360008301526149de81614218565b9050919050565b600060208201905081810360008301526149fe8161425e565b9050919050565b60006020820190508181036000830152614a1e81614281565b9050919050565b60006020820190508181036000830152614a3e816142a4565b9050919050565b60006020820190508181036000830152614a5e816142c7565b9050919050565b60006020820190508181036000830152614a7e816142ea565b9050919050565b60006020820190508181036000830152614a9e8161430d565b9050919050565b60006020820190508181036000830152614abe81614330565b9050919050565b60006020820190508181036000830152614ade81614353565b9050919050565b60006020820190508181036000830152614afe81614376565b9050919050565b60006020820190508181036000830152614b1e81614399565b9050919050565b60006020820190508181036000830152614b3e816143bc565b9050919050565b60006020820190508181036000830152614b5e816143df565b9050919050565b60006020820190508181036000830152614b7e81614402565b9050919050565b60006020820190508181036000830152614b9e81614425565b9050919050565b60006020820190508181036000830152614bbe81614448565b9050919050565b60006020820190508181036000830152614bde8161446b565b9050919050565b60006020820190508181036000830152614bfe8161448e565b9050919050565b60006020820190508181036000830152614c1e816144b1565b9050919050565b60006020820190508181036000830152614c3e816144d4565b9050919050565b60006020820190508181036000830152614c5e816144f7565b9050919050565b60006020820190508181036000830152614c7e8161451a565b9050919050565b60006020820190508181036000830152614c9e8161453d565b9050919050565b6000602082019050614cba6000830184614583565b92915050565b6000614cca614cdb565b9050614cd68282615001565b919050565b6000604051905090565b600067ffffffffffffffff821115614d0057614cff61519b565b5b614d09826151ca565b9050602081019050919050565b600067ffffffffffffffff821115614d3157614d3061519b565b5b614d3a826151ca565b9050602081019050919050565b600081519050919050565b600081519050919050565b600082825260208201905092915050565b600081905092915050565b600082825260208201905092915050565b600081905092915050565b6000614da082614f76565b9150614dab83614f76565b9250827fffffffffffffffffffffffffffffffffffffffffffffffffffffffffffffffff03821115614de057614ddf61510e565b5b828201905092915050565b6000614df682614f76565b9150614e0183614f76565b925082614e1157614e1061513d565b5b828204905092915050565b6000614e2782614f76565b9150614e3283614f76565b9250817fffffffffffffffffffffffffffffffffffffffffffffffffffffffffffffffff0483118215151615614e6b57614e6a61510e565b5b828202905092915050565b6000614e8182614f76565b9150614e8c83614f76565b925082821015614e9f57614e9e61510e565b5b828203905092915050565b6000614eb582614f80565b9150614ec083614f80565b925082821015614ed357614ed261510e565b5b828203905092915050565b6000614ee982614f56565b9050919050565b6000614efb82614f56565b9050919050565b60008115159050919050565b6000819050919050565b60007fffffffff0000000000000000000000000000000000000000000000000000000082169050919050565b6000614f4f82614ede565b9050919050565b600073ffffffffffffffffffffffffffffffffffffffff82169050919050565b6000819050919050565b600060ff82169050919050565b82818337600083830152505050565b60005b83811015614fba578082015181840152602081019050614f9f565b83811115614fc9576000848401525b50505050565b60006002820490506001821680614fe757607f821691505b60208210811415614ffb57614ffa61516c565b5b50919050565b61500a826151ca565b810181811067ffffffffffffffff821117156150295761502861519b565b5b80604052505050565b600061503d82614f76565b91507fffffffffffffffffffffffffffffffffffffffffffffffffffffffffffffffff8214156150705761506f61510e565b5b600182019050919050565b600061508682614f80565b915060ff82141561509a5761509961510e565b5b600182019050919050565b60006150b0826150c1565b9050919050565b6000819050919050565b60006150cc826151db565b9050919050565b6000819050919050565b60006150e882614f76565b91506150f383614f76565b9250826151035761510261513d565b5b828206905092915050565b7f4e487b7100000000000000000000000000000000000000000000000000000000600052601160045260246000fd5b7f4e487b7100000000000000000000000000000000000000000000000000000000600052601260045260246000fd5b7f4e487b7100000000000000000000000000000000000000000000000000000000600052602260045260246000fd5b7f4e487b7100000000000000000000000000000000000000000000000000000000600052604160045260246000fd5b6000601f19601f8301169050919050565b60008160601b9050919050565b7f455243373231456e756d657261626c653a206f776e657220696e646578206f7560008201527f74206f6620626f756e6473000000000000000000000000000000000000000000602082015250565b7f4552433732313a207472616e7366657220746f206e6f6e20455243373231526560008201527f63656976657220696d706c656d656e7465720000000000000000000000000000602082015250565b7f4f776e61626c653a206e6577206f776e657220697320746865207a65726f206160008201527f6464726573730000000000000000000000000000000000000000000000000000602082015250565b7f46756e6374696f6e2063616c6c206e6f74207375636365737366756c00000000600082015250565b7f4552433732313a20746f6b656e20616c7265616479206d696e74656400000000600082015250565b7f1901000000000000000000000000000000000000000000000000000000000000600082015250565b7f53686f756c64204265206c657373206f7220657175616c207468616e20616d6f60008201527f756e742070657220747800000000000000000000000000000000000000000000602082015250565b7f4552433732313a207472616e7366657220746f20746865207a65726f2061646460008201527f7265737300000000000000000000000000000000000000000000000000000000602082015250565b7f4552433732313a20617070726f766520746f2063616c6c657200000000000000600082015250565b7f4e6f7420656e6f756768204c494e4b202d2066696c6c20636f6e74726163742060008201527f7769746820666175636574000000000000000000000000000000000000000000602082015250565b7f4552433732313a206f70657261746f7220717565727920666f72206e6f6e657860008201527f697374656e7420746f6b656e0000000000000000000000000000000000000000602082015250565b7f4e61746976654d6574615472616e73616374696f6e3a20494e56414c49445f5360008201527f49474e4552000000000000000000000000000000000000000000000000000000602082015250565b7f4552433732313a20617070726f76652063616c6c6572206973206e6f74206f7760008201527f6e6572206e6f7220617070726f76656420666f7220616c6c0000000000000000602082015250565b7f4552433732313a2062616c616e636520717565727920666f7220746865207a6560008201527f726f206164647265737300000000000000000000000000000000000000000000602082015250565b7f4552433732313a206f776e657220717565727920666f72206e6f6e657869737460008201527f656e7420746f6b656e0000000000000000000000000000000000000000000000602082015250565b7f746f6b656e49647320697320656d707479000000000000000000000000000000600082015250565b7f4552433732313a206d696e7420746f20746865207a65726f2061646472657373600082015250565b7f4552433732313a20617070726f76656420717565727920666f72206e6f6e657860008201527f697374656e7420746f6b656e0000000000000000000000000000000000000000602082015250565b7f4f776e61626c653a2063616c6c6572206973206e6f7420746865206f776e6572600082015250565b7f4552433732313a207472616e73666572206f6620746f6b656e2074686174206960008201527f73206e6f74206f776e0000000000000000000000000000000000000000000000602082015250565b7f5369676e657220616e64207369676e617475726520646f206e6f74206d61746360008201527f6800000000000000000000000000000000000000000000000000000000000000602082015250565b7f53686f756c64204265206c657373206f7220657175616c207468616e20746f7460008201527f616c20616d6f756e740000000000000000000000000000000000000000000000602082015250565b7f4f6e6c7920565246436f6f7264696e61746f722063616e2066756c66696c6c00600082015250565b7f4552433732313a20617070726f76616c20746f2063757272656e74206f776e6560008201527f7200000000000000000000000000000000000000000000000000000000000000602082015250565b7f4552433732313a207472616e736665722063616c6c6572206973206e6f74206f60008201527f776e6572206e6f7220617070726f766564000000000000000000000000000000602082015250565b7f43616e6e6f742066696e6420746f6b656e49647320496e646578202d2072656d60008201527f6f7665546f6b656e496400000000000000000000000000000000000000000000602082015250565b7f455243373231456e756d657261626c653a20676c6f62616c20696e646578206f60008201527f7574206f6620626f756e64730000000000000000000000000000000000000000602082015250565b7f4e6f7420656e6f756768204554482073656e743b20636865636b20707269636560008201527f2100000000000000000000000000000000000000000000000000000000000000602082015250565b7f2f00000000000000000000000000000000000000000000000000000000000000600082015250565b61598e81614ede565b811461599957600080fd5b50565b6159a581614f02565b81146159b057600080fd5b50565b6159bc81614f0e565b81146159c757600080fd5b50565b6159d381614f18565b81146159de57600080fd5b50565b6159ea81614f44565b81146159f557600080fd5b50565b615a0181614f76565b8114615a0c57600080fd5b50565b615a1881614f80565b8114615a2357600080fd5b5056fe4d6574615472616e73616374696f6e2875696e74323536206e6f6e63652c616464726573732066726f6d2c62797465732066756e6374696f6e5369676e617475726529a26469706673582212207deebfe380ab4206265de4525181fcae467f2eb0e8e03a9c0ab3220c5980192264736f6c63430008040033454950373132446f6d61696e28737472696e67206e616d652c737472696e672076657273696f6e2c6164647265737320766572696679696e67436f6e74726163742c627974657333322073616c7429",
  "linkReferences": {},
  "deployedLinkReferences": {}
}