{
  "_format": "hh-sol-artifact-1",
  "contractName": "EIP712Base",
  "sourceName": "contracts/common/meta-transactions/EIP712Base.sol",
  "abi": [
    {
      "inputs": [],
      "name": "ERC712_VERSION",
      "outputs": [
        {
          "internalType": "string",
          "name": "",
          "type": "string"
        }
      ],
      "stateMutability": "view",
      "type": "function"
    },
    {
      "inputs": [],
      "name": "getChainId",
      "outputs": [
        {
          "internalType": "uint256",
          "name": "",
          "type": "uint256"
        }
      ],
      "stateMutability": "view",
      "type": "function"
    },
    {
      "inputs": [],
      "name": "getDomainSeperator",
      "outputs": [
        {
          "internalType": "bytes32",
          "name": "",
          "type": "bytes32"
        }
      ],
      "stateMutability": "view",
      "type": "function"
    }
  ],
  "bytecode": "0x608060405260008060006101000a81548160ff02191690831515021790555034801561002a57600080fd5b506102498061003a6000396000f3fe608060405234801561001057600080fd5b50600436106100415760003560e01c80630f7e59701461004657806320379ee5146100645780633408e47014610082575b600080fd5b61004e6100a0565b60405161005b9190610162565b60405180910390f35b61006c6100d9565b6040516100799190610147565b60405180910390f35b61008a6100e3565b6040516100979190610184565b60405180910390f35b6040518060400160405280600181526020017f310000000000000000000000000000000000000000000000000000000000000081525081565b6000600154905090565b6000804690508091505090565b6100f9816101bb565b82525050565b600061010a8261019f565b61011481856101aa565b93506101248185602086016101cf565b61012d81610202565b840191505092915050565b610141816101c5565b82525050565b600060208201905061015c60008301846100f0565b92915050565b6000602082019050818103600083015261017c81846100ff565b905092915050565b60006020820190506101996000830184610138565b92915050565b600081519050919050565b600082825260208201905092915050565b6000819050919050565b6000819050919050565b60005b838110156101ed5780820151818401526020810190506101d2565b838111156101fc576000848401525b50505050565b6000601f19601f830116905091905056fea2646970667358221220a80bcc5a6acadd2aa1c062da2f2bad65accde3c8551226f2715d0a21a6a7ef1d64736f6c63430008040033",
  "linkReferences": {},
  "deployedLinkReferences": {}
}