{
  "_format": "hh-sol-artifact-1",
  "contractName": "_Iceberg",
  "sourceName": "contracts/_NFT.sol",
  "abi": [
    {
      "inputs": [
        {
          "internalType": "string",
          "name": "baseURI",
          "type": "string"
        },
        {
          "internalType": "uint256",
          "name": "maxAmount",
          "type": "uint256"
        },
        {
          "internalType": "address",
          "name": "_VRFCoordinator",
          "type": "address"
        },
        {
          "internalType": "address",
          "name": "_LinkToken",
          "type": "address"
        },
        {
          "internalType": "bytes32",
          "name": "_keyhash",
          "type": "bytes32"
        }
      ],
      "stateMutability": "nonpayable",
      "type": "constructor"
    },
    {
      "anonymous": false,
      "inputs": [
        {
          "indexed": true,
          "internalType": "address",
          "name": "_to",
          "type": "address"
        },
        {
          "indexed": false,
          "internalType": "address",
          "name": "_address",
          "type": "address"
        }
      ],
      "name": "AddedWhiteList",
      "type": "event"
    },
    {
      "anonymous": false,
      "inputs": [
        {
          "indexed": true,
          "internalType": "address",
          "name": "owner",
          "type": "address"
        },
        {
          "indexed": true,
          "internalType": "address",
          "name": "approved",
          "type": "address"
        },
        {
          "indexed": true,
          "internalType": "uint256",
          "name": "tokenId",
          "type": "uint256"
        }
      ],
      "name": "Approval",
      "type": "event"
    },
    {
      "anonymous": false,
      "inputs": [
        {
          "indexed": true,
          "internalType": "address",
          "name": "owner",
          "type": "address"
        },
        {
          "indexed": true,
          "internalType": "address",
          "name": "operator",
          "type": "address"
        },
        {
          "indexed": false,
          "internalType": "bool",
          "name": "approved",
          "type": "bool"
        }
      ],
      "name": "ApprovalForAll",
      "type": "event"
    },
    {
      "anonymous": false,
      "inputs": [
        {
          "indexed": true,
          "internalType": "address",
          "name": "previousOwner",
          "type": "address"
        },
        {
          "indexed": true,
          "internalType": "address",
          "name": "newOwner",
          "type": "address"
        }
      ],
      "name": "OwnershipTransferred",
      "type": "event"
    },
    {
      "anonymous": false,
      "inputs": [
        {
          "indexed": false,
          "internalType": "bool",
          "name": "pause",
          "type": "bool"
        }
      ],
      "name": "PauseEvent",
      "type": "event"
    },
    {
      "anonymous": false,
      "inputs": [
        {
          "indexed": false,
          "internalType": "uint256",
          "name": "_count",
          "type": "uint256"
        }
      ],
      "name": "RemainTokenCount",
      "type": "event"
    },
    {
      "anonymous": false,
      "inputs": [
        {
          "indexed": true,
          "internalType": "address",
          "name": "_to",
          "type": "address"
        },
        {
          "indexed": false,
          "internalType": "address",
          "name": "_address",
          "type": "address"
        }
      ],
      "name": "RemovedWhiteList",
      "type": "event"
    },
    {
      "anonymous": false,
      "inputs": [],
      "name": "SoldOut",
      "type": "event"
    },
    {
      "anonymous": false,
      "inputs": [
        {
          "indexed": true,
          "internalType": "address",
          "name": "from",
          "type": "address"
        },
        {
          "indexed": true,
          "internalType": "address",
          "name": "to",
          "type": "address"
        },
        {
          "indexed": true,
          "internalType": "uint256",
          "name": "tokenId",
          "type": "uint256"
        }
      ],
      "name": "Transfer",
      "type": "event"
    },
    {
      "anonymous": false,
      "inputs": [
        {
          "indexed": true,
          "internalType": "address",
          "name": "_to",
          "type": "address"
        },
        {
          "indexed": false,
          "internalType": "uint256",
          "name": "id",
          "type": "uint256"
        }
      ],
      "name": "welcomeToNFT",
      "type": "event"
    },
    {
      "inputs": [],
      "name": "LinkToken",
      "outputs": [
        {
          "internalType": "address",
          "name": "",
          "type": "address"
        }
      ],
      "stateMutability": "view",
      "type": "function"
    },
    {
      "inputs": [],
      "name": "MAX_ELEMENTS",
      "outputs": [
        {
          "internalType": "uint256",
          "name": "",
          "type": "uint256"
        }
      ],
      "stateMutability": "view",
      "type": "function"
    },
    {
      "inputs": [],
      "name": "PRICE",
      "outputs": [
        {
          "internalType": "uint256",
          "name": "",
          "type": "uint256"
        }
      ],
      "stateMutability": "view",
      "type": "function"
    },
    {
      "inputs": [],
      "name": "START_AT",
      "outputs": [
        {
          "internalType": "uint256",
          "name": "",
          "type": "uint256"
        }
      ],
      "stateMutability": "view",
      "type": "function"
    },
    {
      "inputs": [],
      "name": "VRFCoordinator",
      "outputs": [
        {
          "internalType": "address",
          "name": "",
          "type": "address"
        }
      ],
      "stateMutability": "view",
      "type": "function"
    },
    {
      "inputs": [
        {
          "internalType": "address",
          "name": "_address",
          "type": "address"
        }
      ],
      "name": "addWhiteList",
      "outputs": [],
      "stateMutability": "nonpayable",
      "type": "function"
    },
    {
      "inputs": [
        {
          "internalType": "address",
          "name": "to",
          "type": "address"
        },
        {
          "internalType": "uint256",
          "name": "tokenId",
          "type": "uint256"
        }
      ],
      "name": "approve",
      "outputs": [],
      "stateMutability": "nonpayable",
      "type": "function"
    },
    {
      "inputs": [
        {
          "internalType": "address",
          "name": "owner",
          "type": "address"
        }
      ],
      "name": "balanceOf",
      "outputs": [
        {
          "internalType": "uint256",
          "name": "",
          "type": "uint256"
        }
      ],
      "stateMutability": "view",
      "type": "function"
    },
    {
      "inputs": [],
      "name": "baseTokenURI",
      "outputs": [
        {
          "internalType": "string",
          "name": "",
          "type": "string"
        }
      ],
      "stateMutability": "view",
      "type": "function"
    },
    {
      "inputs": [],
      "name": "creator1Address",
      "outputs": [
        {
          "internalType": "address",
          "name": "",
          "type": "address"
        }
      ],
      "stateMutability": "view",
      "type": "function"
    },
    {
      "inputs": [],
      "name": "creator2Address",
      "outputs": [
        {
          "internalType": "address",
          "name": "",
          "type": "address"
        }
      ],
      "stateMutability": "view",
      "type": "function"
    },
    {
      "inputs": [],
      "name": "devAddress",
      "outputs": [
        {
          "internalType": "address",
          "name": "",
          "type": "address"
        }
      ],
      "stateMutability": "view",
      "type": "function"
    },
    {
      "inputs": [
        {
          "internalType": "uint256",
          "name": "tokenId",
          "type": "uint256"
        }
      ],
      "name": "getApproved",
      "outputs": [
        {
          "internalType": "address",
          "name": "",
          "type": "address"
        }
      ],
      "stateMutability": "view",
      "type": "function"
    },
    {
      "inputs": [],
      "name": "getPause",
      "outputs": [
        {
          "internalType": "bool",
          "name": "",
          "type": "bool"
        }
      ],
      "stateMutability": "view",
      "type": "function"
    },
    {
      "inputs": [
        {
          "internalType": "uint256",
          "name": "offset",
          "type": "uint256"
        },
        {
          "internalType": "uint256",
          "name": "limit",
          "type": "uint256"
        }
      ],
      "name": "getUnsoldTokens",
      "outputs": [
        {
          "internalType": "uint256[]",
          "name": "",
          "type": "uint256[]"
        }
      ],
      "stateMutability": "view",
      "type": "function"
    },
    {
      "inputs": [
        {
          "internalType": "address",
          "name": "owner",
          "type": "address"
        },
        {
          "internalType": "address",
          "name": "operator",
          "type": "address"
        }
      ],
      "name": "isApprovedForAll",
      "outputs": [
        {
          "internalType": "bool",
          "name": "",
          "type": "bool"
        }
      ],
      "stateMutability": "view",
      "type": "function"
    },
    {
      "inputs": [
        {
          "internalType": "address",
          "name": "_address",
          "type": "address"
        }
      ],
      "name": "isWhiteList",
      "outputs": [
        {
          "internalType": "bool",
          "name": "",
          "type": "bool"
        }
      ],
      "stateMutability": "view",
      "type": "function"
    },
    {
      "inputs": [
        {
          "internalType": "uint256[]",
          "name": "_tokensId",
          "type": "uint256[]"
        }
      ],
      "name": "mintUnsoldTokens",
      "outputs": [],
      "stateMutability": "nonpayable",
      "type": "function"
    },
    {
      "inputs": [],
      "name": "mintedTokenCount",
      "outputs": [
        {
          "internalType": "uint256",
          "name": "",
          "type": "uint256"
        }
      ],
      "stateMutability": "view",
      "type": "function"
    },
    {
      "inputs": [],
      "name": "name",
      "outputs": [
        {
          "internalType": "string",
          "name": "",
          "type": "string"
        }
      ],
      "stateMutability": "view",
      "type": "function"
    },
    {
      "inputs": [],
      "name": "owner",
      "outputs": [
        {
          "internalType": "address",
          "name": "",
          "type": "address"
        }
      ],
      "stateMutability": "view",
      "type": "function"
    },
    {
      "inputs": [
        {
          "internalType": "uint256",
          "name": "tokenId",
          "type": "uint256"
        }
      ],
      "name": "ownerOf",
      "outputs": [
        {
          "internalType": "address",
          "name": "",
          "type": "address"
        }
      ],
      "stateMutability": "view",
      "type": "function"
    },
    {
      "inputs": [
        {
          "internalType": "uint256",
          "name": "_count",
          "type": "uint256"
        }
      ],
      "name": "price",
      "outputs": [
        {
          "internalType": "uint256",
          "name": "",
          "type": "uint256"
        }
      ],
      "stateMutability": "pure",
      "type": "function"
    },
    {
      "inputs": [
        {
          "internalType": "bytes32",
          "name": "requestId",
          "type": "bytes32"
        },
        {
          "internalType": "uint256",
          "name": "randomness",
          "type": "uint256"
        }
      ],
      "name": "rawFulfillRandomness",
      "outputs": [],
      "stateMutability": "nonpayable",
      "type": "function"
    },
    {
      "inputs": [
        {
          "internalType": "uint256",
          "name": "tokenId",
          "type": "uint256"
        }
      ],
      "name": "rawOwnerOf",
      "outputs": [
        {
          "internalType": "address",
          "name": "",
          "type": "address"
        }
      ],
      "stateMutability": "view",
      "type": "function"
    },
    {
      "inputs": [],
      "name": "remainTokenCount",
      "outputs": [
        {
          "internalType": "uint256",
          "name": "",
          "type": "uint256"
        }
      ],
      "stateMutability": "view",
      "type": "function"
    },
    {
      "inputs": [
        {
          "internalType": "address",
          "name": "_address",
          "type": "address"
        }
      ],
      "name": "removeWhiteList",
      "outputs": [],
      "stateMutability": "nonpayable",
      "type": "function"
    },
    {
      "inputs": [],
      "name": "renounceOwnership",
      "outputs": [],
      "stateMutability": "nonpayable",
      "type": "function"
    },
    {
      "inputs": [
        {
          "internalType": "address",
          "name": "_to",
          "type": "address"
        },
        {
          "internalType": "uint8",
          "name": "amount",
          "type": "uint8"
        }
      ],
      "name": "requestRandomNFT",
      "outputs": [],
      "stateMutability": "payable",
      "type": "function"
    },
    {
      "inputs": [
        {
          "internalType": "address",
          "name": "from",
          "type": "address"
        },
        {
          "internalType": "address",
          "name": "to",
          "type": "address"
        },
        {
          "internalType": "uint256",
          "name": "tokenId",
          "type": "uint256"
        }
      ],
      "name": "safeTransferFrom",
      "outputs": [],
      "stateMutability": "nonpayable",
      "type": "function"
    },
    {
      "inputs": [
        {
          "internalType": "address",
          "name": "from",
          "type": "address"
        },
        {
          "internalType": "address",
          "name": "to",
          "type": "address"
        },
        {
          "internalType": "uint256",
          "name": "tokenId",
          "type": "uint256"
        },
        {
          "internalType": "bytes",
          "name": "_data",
          "type": "bytes"
        }
      ],
      "name": "safeTransferFrom",
      "outputs": [],
      "stateMutability": "nonpayable",
      "type": "function"
    },
    {
      "inputs": [
        {
          "internalType": "address",
          "name": "operator",
          "type": "address"
        },
        {
          "internalType": "bool",
          "name": "approved",
          "type": "bool"
        }
      ],
      "name": "setApprovalForAll",
      "outputs": [],
      "stateMutability": "nonpayable",
      "type": "function"
    },
    {
      "inputs": [
        {
          "internalType": "string",
          "name": "baseURI",
          "type": "string"
        }
      ],
      "name": "setBaseURI",
      "outputs": [],
      "stateMutability": "nonpayable",
      "type": "function"
    },
    {
      "inputs": [
        {
          "internalType": "uint256",
          "name": "_maxElements",
          "type": "uint256"
        }
      ],
      "name": "setMaxElementCount",
      "outputs": [],
      "stateMutability": "nonpayable",
      "type": "function"
    },
    {
      "inputs": [
        {
          "internalType": "bool",
          "name": "_pause",
          "type": "bool"
        }
      ],
      "name": "setPause",
      "outputs": [],
      "stateMutability": "nonpayable",
      "type": "function"
    },
    {
      "inputs": [
        {
          "internalType": "bytes4",
          "name": "interfaceId",
          "type": "bytes4"
        }
      ],
      "name": "supportsInterface",
      "outputs": [
        {
          "internalType": "bool",
          "name": "",
          "type": "bool"
        }
      ],
      "stateMutability": "view",
      "type": "function"
    },
    {
      "inputs": [],
      "name": "symbol",
      "outputs": [
        {
          "internalType": "string",
          "name": "",
          "type": "string"
        }
      ],
      "stateMutability": "view",
      "type": "function"
    },
    {
      "inputs": [
        {
          "internalType": "uint256",
          "name": "index",
          "type": "uint256"
        }
      ],
      "name": "tokenByIndex",
      "outputs": [
        {
          "internalType": "uint256",
          "name": "",
          "type": "uint256"
        }
      ],
      "stateMutability": "view",
      "type": "function"
    },
    {
      "inputs": [
        {
          "internalType": "address",
          "name": "owner",
          "type": "address"
        },
        {
          "internalType": "uint256",
          "name": "index",
          "type": "uint256"
        }
      ],
      "name": "tokenOfOwnerByIndex",
      "outputs": [
        {
          "internalType": "uint256",
          "name": "",
          "type": "uint256"
        }
      ],
      "stateMutability": "view",
      "type": "function"
    },
    {
      "inputs": [
        {
          "internalType": "uint256",
          "name": "tokenId",
          "type": "uint256"
        }
      ],
      "name": "tokenURI",
      "outputs": [
        {
          "internalType": "string",
          "name": "",
          "type": "string"
        }
      ],
      "stateMutability": "view",
      "type": "function"
    },
    {
      "inputs": [],
      "name": "totalSupply",
      "outputs": [
        {
          "internalType": "uint256",
          "name": "",
          "type": "uint256"
        }
      ],
      "stateMutability": "view",
      "type": "function"
    },
    {
      "inputs": [
        {
          "internalType": "address",
          "name": "from",
          "type": "address"
        },
        {
          "internalType": "address",
          "name": "to",
          "type": "address"
        },
        {
          "internalType": "uint256",
          "name": "tokenId",
          "type": "uint256"
        }
      ],
      "name": "transferFrom",
      "outputs": [],
      "stateMutability": "nonpayable",
      "type": "function"
    },
    {
      "inputs": [
        {
          "internalType": "address",
          "name": "newOwner",
          "type": "address"
        }
      ],
      "name": "transferOwnership",
      "outputs": [],
      "stateMutability": "nonpayable",
      "type": "function"
    },
    {
      "inputs": [
        {
          "internalType": "address",
          "name": "_owner",
          "type": "address"
        }
      ],
      "name": "walletOfOwner",
      "outputs": [
        {
          "internalType": "uint256[]",
          "name": "",
          "type": "uint256[]"
        }
      ],
      "stateMutability": "view",
      "type": "function"
    },
    {
      "inputs": [],
      "name": "withdrawAll",
      "outputs": [],
      "stateMutability": "nonpayable",
      "type": "function"
    }
  ],
  "bytecode": "0x60c06040526122b8600c5567016345785d8a0000600e556000601460006101000a81548160ff0219169083151502179055503480156200003e57600080fd5b50604051620068843803806200688483398181016040528101906200006491906200064f565b82826040518060400160405280600781526020017f49434542455247000000000000000000000000000000000000000000000000008152506040518060400160405280600381526020017f49434500000000000000000000000000000000000000000000000000000000008152508160009080519060200190620000ea929190620004e8565b50806001908051906020019062000103929190620004e8565b5050508173ffffffffffffffffffffffffffffffffffffffff1660a08173ffffffffffffffffffffffffffffffffffffffff1660601b815250508073ffffffffffffffffffffffffffffffffffffffff1660808173ffffffffffffffffffffffffffffffffffffffff1660601b815250505050620001966200018a6200024c60201b60201c565b6200025460201b60201c565b620001a7856200031a60201b60201c565b620001b884620003c560201b60201c565b82601060006101000a81548173ffffffffffffffffffffffffffffffffffffffff021916908373ffffffffffffffffffffffffffffffffffffffff16021790555081600f60006101000a81548173ffffffffffffffffffffffffffffffffffffffff021916908373ffffffffffffffffffffffffffffffffffffffff16021790555080600d819055505050505050620009f0565b600033905090565b6000600b60009054906101000a900473ffffffffffffffffffffffffffffffffffffffff16905081600b60006101000a81548173ffffffffffffffffffffffffffffffffffffffff021916908373ffffffffffffffffffffffffffffffffffffffff1602179055508173ffffffffffffffffffffffffffffffffffffffff168173ffffffffffffffffffffffffffffffffffffffff167f8be0079c531659141344cd1fd0a4f28419497f9722a3daafe3b4186f6b6457e060405160405180910390a35050565b6200032a6200024c60201b60201c565b73ffffffffffffffffffffffffffffffffffffffff16620003506200046e60201b60201c565b73ffffffffffffffffffffffffffffffffffffffff1614620003a9576040517f08c379a0000000000000000000000000000000000000000000000000000000008152600401620003a09062000711565b60405180910390fd5b8060159080519060200190620003c1929190620004e8565b5050565b620003d56200024c60201b60201c565b73ffffffffffffffffffffffffffffffffffffffff16620003fb6200046e60201b60201c565b73ffffffffffffffffffffffffffffffffffffffff161462000454576040517f08c379a00000000000000000000000000000000000000000000000000000000081526004016200044b9062000711565b60405180910390fd5b80600c819055506200046b6200049860201b60201c565b50565b6000600b60009054906101000a900473ffffffffffffffffffffffffffffffffffffffff16905090565b60005b600c54811015620004e55760118190806001815401808255809150506001900390600052602060002001600090919091909150558080620004dc906200088d565b9150506200049b565b50565b828054620004f69062000821565b90600052602060002090601f0160209004810192826200051a576000855562000566565b82601f106200053557805160ff191683800117855562000566565b8280016001018555821562000566579182015b828111156200056557825182559160200191906001019062000548565b5b50905062000575919062000579565b5090565b5b80821115620005945760008160009055506001016200057a565b5090565b6000620005af620005a9846200075c565b62000733565b905082815260208101848484011115620005c857600080fd5b620005d5848285620007eb565b509392505050565b600081519050620005ee81620009a2565b92915050565b6000815190506200060581620009bc565b92915050565b600082601f8301126200061d57600080fd5b81516200062f84826020860162000598565b91505092915050565b6000815190506200064981620009d6565b92915050565b600080600080600060a086880312156200066857600080fd5b600086015167ffffffffffffffff8111156200068357600080fd5b62000691888289016200060b565b9550506020620006a48882890162000638565b9450506040620006b788828901620005dd565b9350506060620006ca88828901620005dd565b9250506080620006dd88828901620005f4565b9150509295509295909350565b6000620006f960208362000792565b9150620007068262000979565b602082019050919050565b600060208201905081810360008301526200072c81620006ea565b9050919050565b60006200073f62000752565b90506200074d828262000857565b919050565b6000604051905090565b600067ffffffffffffffff8211156200077a576200077962000939565b5b620007858262000968565b9050602081019050919050565b600082825260208201905092915050565b6000620007b082620007c1565b9050919050565b6000819050919050565b600073ffffffffffffffffffffffffffffffffffffffff82169050919050565b6000819050919050565b60005b838110156200080b578082015181840152602081019050620007ee565b838111156200081b576000848401525b50505050565b600060028204905060018216806200083a57607f821691505b602082108114156200085157620008506200090a565b5b50919050565b620008628262000968565b810181811067ffffffffffffffff8211171562000884576200088362000939565b5b80604052505050565b60006200089a82620007e1565b91507fffffffffffffffffffffffffffffffffffffffffffffffffffffffffffffffff821415620008d057620008cf620008db565b5b600182019050919050565b7f4e487b7100000000000000000000000000000000000000000000000000000000600052601160045260246000fd5b7f4e487b7100000000000000000000000000000000000000000000000000000000600052602260045260246000fd5b7f4e487b7100000000000000000000000000000000000000000000000000000000600052604160045260246000fd5b6000601f19601f8301169050919050565b7f4f776e61626c653a2063616c6c6572206973206e6f7420746865206f776e6572600082015250565b620009ad81620007a3565b8114620009b957600080fd5b50565b620009c781620007b7565b8114620009d357600080fd5b50565b620009e181620007e1565b8114620009ed57600080fd5b50565b60805160601c60a05160601c615e5a62000a2a60003960008181611a4d0152612d790152600081816117750152612d3d0152615e5a6000f3fe6080604052600436106102725760003560e01c8063721c492c1161014f578063b2992bb0116100c1578063d547cfb71161007a578063d547cfb71461097d578063e7cd4a04146109a8578063e985e9c5146109d1578063f2fde38b14610a0e578063f99031a714610a37578063fdf5a49f14610a7457610272565b8063b2992bb01461086f578063b88d4fde14610898578063bedb86fb146108c1578063bf7b766d146108ea578063c87b56dd14610915578063d09135051461095257610272565b80638da5cb5b116101135780638da5cb5b1461075f57806394985ddd1461078a57806395d89b41146107b3578063967d61d9146107de578063a22cb4651461081b578063aa3d92fb1461084457610272565b8063721c492c146106995780637f81be69146106b5578063853828b6146106f25780638d041988146107095780638d859f3e1461073457610272565b80633502a716116101e85780634f6ccce7116101ac5780634f6ccce7146105775780634f8e2fdf146105b457806355f804b3146105df5780636352211e1461060857806370a0823114610645578063715018a61461068257610272565b80633502a716146104905780633ad10ef6146104bb5780633e3ca9d3146104e657806342842e0e14610511578063438b63001461053a57610272565b80632042e5c21161023a5780632042e5c21461037057806323b872dd1461039957806326a49e37146103c25780632b799146146103ff5780632f745c591461042857806333b608631461046557610272565b806301ffc9a71461027757806306fdde03146102b4578063081812fc146102df578063095ea7b31461031c57806318160ddd14610345575b600080fd5b34801561028357600080fd5b5061029e6004803603810190610299919061448f565b610a9f565b6040516102ab9190614cab565b60405180910390f35b3480156102c057600080fd5b506102c9610b19565b6040516102d69190614d34565b60405180910390f35b3480156102eb57600080fd5b5061030660048036038101906103019190614522565b610bab565b6040516103139190614be4565b60405180910390f35b34801561032857600080fd5b50610343600480360381019061033e9190614348565b610c30565b005b34801561035157600080fd5b5061035a610d48565b6040516103679190615116565b60405180910390f35b34801561037c57600080fd5b50610397600480360381019061039291906141dd565b610d55565b005b3480156103a557600080fd5b506103c060048036038101906103bb9190614242565b610f0d565b005b3480156103ce57600080fd5b506103e960048036038101906103e49190614522565b610f6d565b6040516103f69190615116565b60405180910390f35b34801561040b57600080fd5b5061042660048036038101906104219190614522565b610f90565b005b34801561043457600080fd5b5061044f600480360381019061044a9190614348565b61101e565b60405161045c9190615116565b60405180910390f35b34801561047157600080fd5b5061047a6110c3565b6040516104879190614be4565b60405180910390f35b34801561049c57600080fd5b506104a56110e9565b6040516104b29190615116565b60405180910390f35b3480156104c757600080fd5b506104d06110ef565b6040516104dd9190614be4565b60405180910390f35b3480156104f257600080fd5b506104fb611107565b6040516105089190614cab565b60405180910390f35b34801561051d57600080fd5b5061053860048036038101906105339190614242565b61111e565b005b34801561054657600080fd5b50610561600480360381019061055c91906141dd565b61113e565b60405161056e9190614c89565b60405180910390f35b34801561058357600080fd5b5061059e60048036038101906105999190614522565b611238565b6040516105ab9190615116565b60405180910390f35b3480156105c057600080fd5b506105c96112cf565b6040516105d69190614be4565b60405180910390f35b3480156105eb57600080fd5b50610606600480360381019061060191906144e1565b6112f5565b005b34801561061457600080fd5b5061062f600480360381019061062a9190614522565b61138b565b60405161063c9190614be4565b60405180910390f35b34801561065157600080fd5b5061066c600480360381019061066791906141dd565b61143d565b6040516106799190615116565b60405180910390f35b34801561068e57600080fd5b506106976114f5565b005b6106b360048036038101906106ae9190614384565b61157d565b005b3480156106c157600080fd5b506106dc60048036038101906106d79190614522565b6118f7565b6040516106e99190614be4565b60405180910390f35b3480156106fe57600080fd5b50610707611934565b005b34801561071557600080fd5b5061071e611a09565b60405161072b9190615116565b60405180910390f35b34801561074057600080fd5b50610749611a16565b6040516107569190615116565b60405180910390f35b34801561076b57600080fd5b50610774611a21565b6040516107819190614be4565b60405180910390f35b34801561079657600080fd5b506107b160048036038101906107ac9190614453565b611a4b565b005b3480156107bf57600080fd5b506107c8611ae7565b6040516107d59190614d34565b60405180910390f35b3480156107ea57600080fd5b5061080560048036038101906108009190614574565b611b79565b6040516108129190614c89565b60405180910390f35b34801561082757600080fd5b50610842600480360381019061083d919061430c565b611cac565b005b34801561085057600080fd5b50610859611e2d565b6040516108669190614be4565b60405180910390f35b34801561087b57600080fd5b50610896600480360381019061089191906143c0565b611e45565b005b3480156108a457600080fd5b506108bf60048036038101906108ba9190614291565b612002565b005b3480156108cd57600080fd5b506108e860048036038101906108e39190614401565b612064565b005b3480156108f657600080fd5b506108ff612143565b60405161090c9190615116565b60405180910390f35b34801561092157600080fd5b5061093c60048036038101906109379190614522565b612148565b6040516109499190614d34565b60405180910390f35b34801561095e57600080fd5b506109676121ef565b6040516109749190614be4565b60405180910390f35b34801561098957600080fd5b50610992612207565b60405161099f9190614d34565b60405180910390f35b3480156109b457600080fd5b506109cf60048036038101906109ca91906141dd565b612295565b005b3480156109dd57600080fd5b506109f860048036038101906109f39190614206565b61244e565b604051610a059190614cab565b60405180910390f35b348015610a1a57600080fd5b50610a356004803603810190610a3091906141dd565b6124e2565b005b348015610a4357600080fd5b50610a5e6004803603810190610a5991906141dd565b6125da565b604051610a6b9190614cab565b60405180910390f35b348015610a8057600080fd5b50610a896126ac565b604051610a969190615116565b60405180910390f35b60007f780e9d63000000000000000000000000000000000000000000000000000000007bffffffffffffffffffffffffffffffffffffffffffffffffffffffff1916827bffffffffffffffffffffffffffffffffffffffffffffffffffffffff19161480610b125750610b11826126c8565b5b9050919050565b606060008054610b2890615481565b80601f0160208091040260200160405190810160405280929190818152602001828054610b5490615481565b8015610ba15780601f10610b7657610100808354040283529160200191610ba1565b820191906000526020600020905b815481529060010190602001808311610b8457829003601f168201915b5050505050905090565b6000610bb6826127aa565b610bf5576040517f08c379a0000000000000000000000000000000000000000000000000000000008152600401610bec90614f16565b60405180910390fd5b6004600083815260200190815260200160002060009054906101000a900473ffffffffffffffffffffffffffffffffffffffff169050919050565b6000610c3b8261138b565b90508073ffffffffffffffffffffffffffffffffffffffff168373ffffffffffffffffffffffffffffffffffffffff161415610cac576040517f08c379a0000000000000000000000000000000000000000000000000000000008152600401610ca390615016565b60405180910390fd5b8073ffffffffffffffffffffffffffffffffffffffff16610ccb612816565b73ffffffffffffffffffffffffffffffffffffffff161480610cfa5750610cf981610cf4612816565b61244e565b5b610d39576040517f08c379a0000000000000000000000000000000000000000000000000000000008152600401610d3090614e76565b60405180910390fd5b610d43838361281e565b505050565b6000600880549050905090565b610d5d612816565b73ffffffffffffffffffffffffffffffffffffffff16610d7b611a21565b73ffffffffffffffffffffffffffffffffffffffff1614610dd1576040517f08c379a0000000000000000000000000000000000000000000000000000000008152600401610dc890614f36565b60405180910390fd5b601360008273ffffffffffffffffffffffffffffffffffffffff1673ffffffffffffffffffffffffffffffffffffffff16815260200190815260200160002060009054906101000a900460ff16610e5d576040517f08c379a0000000000000000000000000000000000000000000000000000000008152600401610e5490614ff6565b60405180910390fd5b6000601360008373ffffffffffffffffffffffffffffffffffffffff1673ffffffffffffffffffffffffffffffffffffffff16815260200190815260200160002060006101000a81548160ff021916908315150217905550610ebd611a21565b73ffffffffffffffffffffffffffffffffffffffff167fcb42719d2b82d4796894ffbefbbd2f6ef1ec43294286f1cc5baae689e9c71b5f82604051610f029190614be4565b60405180910390a250565b610f1e610f18612816565b826128d7565b610f5d576040517f08c379a0000000000000000000000000000000000000000000000000000000008152600401610f5490615096565b60405180910390fd5b610f688383836129b5565b505050565b6000610f898266470de4df820000612c1190919063ffffffff16565b9050919050565b610f98612816565b73ffffffffffffffffffffffffffffffffffffffff16610fb6611a21565b73ffffffffffffffffffffffffffffffffffffffff161461100c576040517f08c379a000000000000000000000000000000000000000000000000000000000815260040161100390614f36565b60405180910390fd5b80600c8190555061101b612c27565b50565b60006110298361143d565b821061106a576040517f08c379a000000000000000000000000000000000000000000000000000000000815260040161106190614d56565b60405180910390fd5b600660008473ffffffffffffffffffffffffffffffffffffffff1673ffffffffffffffffffffffffffffffffffffffff168152602001908152602001600020600083815260200190815260200160002054905092915050565b601060009054906101000a900473ffffffffffffffffffffffffffffffffffffffff1681565b600c5481565b7394da7d3d5f83a7253a2b96427d69c971a4bac6df81565b6000601460009054906101000a900460ff16905090565b61113983838360405180602001604052806000815250612002565b505050565b6060600061114b8361143d565b905060008167ffffffffffffffff81111561118f577f4e487b7100000000000000000000000000000000000000000000000000000000600052604160045260246000fd5b6040519080825280602002602001820160405280156111bd5781602001602082028036833780820191505090505b50905060005b8281101561122d576111d5858261101e565b82828151811061120e577f4e487b7100000000000000000000000000000000000000000000000000000000600052603260045260246000fd5b6020026020010181815250508080611225906154e4565b9150506111c3565b508092505050919050565b6000611242610d48565b8210611283576040517f08c379a000000000000000000000000000000000000000000000000000000000815260040161127a906150d6565b60405180910390fd5b600882815481106112bd577f4e487b7100000000000000000000000000000000000000000000000000000000600052603260045260246000fd5b90600052602060002001549050919050565b600f60009054906101000a900473ffffffffffffffffffffffffffffffffffffffff1681565b6112fd612816565b73ffffffffffffffffffffffffffffffffffffffff1661131b611a21565b73ffffffffffffffffffffffffffffffffffffffff1614611371576040517f08c379a000000000000000000000000000000000000000000000000000000000815260040161136890614f36565b60405180910390fd5b8060159080519060200190611387929190613f17565b5050565b6000806002600084815260200190815260200160002060009054906101000a900473ffffffffffffffffffffffffffffffffffffffff169050600073ffffffffffffffffffffffffffffffffffffffff168173ffffffffffffffffffffffffffffffffffffffff161415611434576040517f08c379a000000000000000000000000000000000000000000000000000000000815260040161142b90614eb6565b60405180910390fd5b80915050919050565b60008073ffffffffffffffffffffffffffffffffffffffff168273ffffffffffffffffffffffffffffffffffffffff1614156114ae576040517f08c379a00000000000000000000000000000000000000000000000000000000081526004016114a590614e96565b60405180910390fd5b600360008373ffffffffffffffffffffffffffffffffffffffff1673ffffffffffffffffffffffffffffffffffffffff168152602001908152602001600020549050919050565b6114fd612816565b73ffffffffffffffffffffffffffffffffffffffff1661151b611a21565b73ffffffffffffffffffffffffffffffffffffffff1614611571576040517f08c379a000000000000000000000000000000000000000000000000000000000815260040161156890614f36565b60405180910390fd5b61157b6000612c73565b565b6000611587611a09565b10156115c8576040517f08c379a00000000000000000000000000000000000000000000000000000000081526004016115bf906150f6565b60405180910390fd5b601460009054906101000a900460ff1615801561162f5750601360003373ffffffffffffffffffffffffffffffffffffffff1673ffffffffffffffffffffffffffffffffffffffff16815260200190815260200160002060009054906101000a900460ff16155b61166e576040517f08c379a000000000000000000000000000000000000000000000000000000000815260040161166590615036565b60405180910390fd5b60006116786126ac565b905060028260ff1611156116c1576040517f08c379a00000000000000000000000000000000000000000000000000000000081526004016116b890614e36565b60405180910390fd5b600c548260ff16826116d3919061526b565b1115611714576040517f08c379a000000000000000000000000000000000000000000000000000000000815260040161170b90614e36565b60405180910390fd5b6117208260ff16610f6d565b341015611762576040517f08c379a000000000000000000000000000000000000000000000000000000000815260040161175990614fb6565b60405180910390fd5b8160ff16600e5461177391906152f2565b7f000000000000000000000000000000000000000000000000000000000000000073ffffffffffffffffffffffffffffffffffffffff166370a08231306040518263ffffffff1660e01b81526004016117cc9190614be4565b60206040518083038186803b1580156117e457600080fd5b505afa1580156117f8573d6000803e3d6000fd5b505050506040513d601f19601f8201168201806040525081019061181c919061454b565b101561185d576040517f08c379a000000000000000000000000000000000000000000000000000000000815260040161185490614e16565b60405180910390fd5b60005b60018361186d9190615380565b60ff168160ff16116118f1576000611889600d54600e54612d39565b9050846012600083815260200190815260200160002060006101000a81548173ffffffffffffffffffffffffffffffffffffffff021916908373ffffffffffffffffffffffffffffffffffffffff1602179055505080806118e99061552d565b915050611860565b50505050565b60006002600083815260200190815260200160002060009054906101000a900473ffffffffffffffffffffffffffffffffffffffff169050919050565b61193c612816565b73ffffffffffffffffffffffffffffffffffffffff1661195a611a21565b73ffffffffffffffffffffffffffffffffffffffff16146119b0576040517f08c379a00000000000000000000000000000000000000000000000000000000081526004016119a790614f36565b60405180910390fd5b6000479050600081116119c257600080fd5b611a0673c09eac15f9ba6462e8e4612af7c431e1cfe08b87611a0160646119f3606486612c1190919063ffffffff16565b612e9b90919063ffffffff16565b612eb1565b50565b6000601180549050905090565b66470de4df82000081565b6000600b60009054906101000a900473ffffffffffffffffffffffffffffffffffffffff16905090565b7f000000000000000000000000000000000000000000000000000000000000000073ffffffffffffffffffffffffffffffffffffffff163373ffffffffffffffffffffffffffffffffffffffff1614611ad9576040517f08c379a0000000000000000000000000000000000000000000000000000000008152600401611ad090614f96565b60405180910390fd5b611ae38282612f62565b5050565b606060018054611af690615481565b80601f0160208091040260200160405190810160405280929190818152602001828054611b2290615481565b8015611b6f5780601f10611b4457610100808354040283529160200191611b6f565b820191906000526020600020905b815481529060010190602001808311611b5257829003601f168201915b5050505050905090565b606060008267ffffffffffffffff811115611bbd577f4e487b7100000000000000000000000000000000000000000000000000000000600052604160045260246000fd5b604051908082528060200260200182016040528015611beb5781602001602082028036833780820191505090505b50905060005b83811015611ca15760008582611c07919061526b565b9050600073ffffffffffffffffffffffffffffffffffffffff16611c2a826118f7565b73ffffffffffffffffffffffffffffffffffffffff161415611c8d5780838381518110611c80577f4e487b7100000000000000000000000000000000000000000000000000000000600052603260045260246000fd5b6020026020010181815250505b508080611c99906154e4565b915050611bf1565b508091505092915050565b611cb4612816565b73ffffffffffffffffffffffffffffffffffffffff168273ffffffffffffffffffffffffffffffffffffffff161415611d22576040517f08c379a0000000000000000000000000000000000000000000000000000000008152600401611d1990614df6565b60405180910390fd5b8060056000611d2f612816565b73ffffffffffffffffffffffffffffffffffffffff1673ffffffffffffffffffffffffffffffffffffffff16815260200190815260200160002060008473ffffffffffffffffffffffffffffffffffffffff1673ffffffffffffffffffffffffffffffffffffffff16815260200190815260200160002060006101000a81548160ff0219169083151502179055508173ffffffffffffffffffffffffffffffffffffffff16611ddc612816565b73ffffffffffffffffffffffffffffffffffffffff167f17307eab39ab6107e8899845ad3d59bd9653f200f220920489ca2b5937696c3183604051611e219190614cab565b60405180910390a35050565b73c09eac15f9ba6462e8e4612af7c431e1cfe08b8781565b611e4d612816565b73ffffffffffffffffffffffffffffffffffffffff16611e6b611a21565b73ffffffffffffffffffffffffffffffffffffffff1614611ec1576040517f08c379a0000000000000000000000000000000000000000000000000000000008152600401611eb890614f36565b60405180910390fd5b601460009054906101000a900460ff16611f10576040517f08c379a0000000000000000000000000000000000000000000000000000000008152600401611f0790614fd6565b60405180910390fd5b60005b8151811015611ffe57600073ffffffffffffffffffffffffffffffffffffffff16611f7d838381518110611f70577f4e487b7100000000000000000000000000000000000000000000000000000000600052603260045260246000fd5b60200260200101516118f7565b73ffffffffffffffffffffffffffffffffffffffff161415611feb57611fea611fa4611a21565b838381518110611fdd577f4e487b7100000000000000000000000000000000000000000000000000000000600052603260045260246000fd5b6020026020010151613082565b5b8080611ff6906154e4565b915050611f13565b5050565b61201361200d612816565b836128d7565b612052576040517f08c379a000000000000000000000000000000000000000000000000000000000815260040161204990615096565b60405180910390fd5b61205e848484846130de565b50505050565b61206c612816565b73ffffffffffffffffffffffffffffffffffffffff1661208a611a21565b73ffffffffffffffffffffffffffffffffffffffff16146120e0576040517f08c379a00000000000000000000000000000000000000000000000000000000081526004016120d790614f36565b60405180910390fd5b80601460006101000a81548160ff0219169083151502179055507f10e1c3fcaff06b68391033547e8f9bb8067d7c4a2e32659b0629153814d242d3601460009054906101000a900460ff166040516121389190614cab565b60405180910390a150565b600181565b6060612153826127aa565b612192576040517f08c379a000000000000000000000000000000000000000000000000000000000815260040161218990614f76565b60405180910390fd5b600061219c61313a565b905060008151116121bc57604051806020016040528060008152506121e7565b806121c6846131cc565b6040516020016121d7929190614bab565b6040516020818303038152906040525b915050919050565b735db342fb039c1c85bec5fe89af6734621f421d8481565b6015805461221490615481565b80601f016020809104026020016040519081016040528092919081815260200182805461224090615481565b801561228d5780601f106122625761010080835404028352916020019161228d565b820191906000526020600020905b81548152906001019060200180831161227057829003601f168201915b505050505081565b61229d612816565b73ffffffffffffffffffffffffffffffffffffffff166122bb611a21565b73ffffffffffffffffffffffffffffffffffffffff1614612311576040517f08c379a000000000000000000000000000000000000000000000000000000000815260040161230890614f36565b60405180910390fd5b601360008273ffffffffffffffffffffffffffffffffffffffff1673ffffffffffffffffffffffffffffffffffffffff16815260200190815260200160002060009054906101000a900460ff161561239e576040517f08c379a000000000000000000000000000000000000000000000000000000000815260040161239590615056565b60405180910390fd5b6001601360008373ffffffffffffffffffffffffffffffffffffffff1673ffffffffffffffffffffffffffffffffffffffff16815260200190815260200160002060006101000a81548160ff0219169083151502179055506123fe611a21565b73ffffffffffffffffffffffffffffffffffffffff167f2524a238d00e807019ada57d0cd5fcdd24375bf0eabdea1614798777eaeb23d6826040516124439190614be4565b60405180910390a250565b6000600560008473ffffffffffffffffffffffffffffffffffffffff1673ffffffffffffffffffffffffffffffffffffffff16815260200190815260200160002060008373ffffffffffffffffffffffffffffffffffffffff1673ffffffffffffffffffffffffffffffffffffffff16815260200190815260200160002060009054906101000a900460ff16905092915050565b6124ea612816565b73ffffffffffffffffffffffffffffffffffffffff16612508611a21565b73ffffffffffffffffffffffffffffffffffffffff161461255e576040517f08c379a000000000000000000000000000000000000000000000000000000000815260040161255590614f36565b60405180910390fd5b600073ffffffffffffffffffffffffffffffffffffffff168173ffffffffffffffffffffffffffffffffffffffff1614156125ce576040517f08c379a00000000000000000000000000000000000000000000000000000000081526004016125c590614d96565b60405180910390fd5b6125d781612c73565b50565b60006125e4612816565b73ffffffffffffffffffffffffffffffffffffffff16612602611a21565b73ffffffffffffffffffffffffffffffffffffffff1614612658576040517f08c379a000000000000000000000000000000000000000000000000000000000815260040161264f90614f36565b60405180910390fd5b601360008373ffffffffffffffffffffffffffffffffffffffff1673ffffffffffffffffffffffffffffffffffffffff16815260200190815260200160002060009054906101000a900460ff169050919050565b60006126b6611a09565b600c546126c3919061534c565b905090565b60007f80ac58cd000000000000000000000000000000000000000000000000000000007bffffffffffffffffffffffffffffffffffffffffffffffffffffffff1916827bffffffffffffffffffffffffffffffffffffffffffffffffffffffff1916148061279357507f5b5e139f000000000000000000000000000000000000000000000000000000007bffffffffffffffffffffffffffffffffffffffffffffffffffffffff1916827bffffffffffffffffffffffffffffffffffffffffffffffffffffffff1916145b806127a357506127a282613379565b5b9050919050565b60008073ffffffffffffffffffffffffffffffffffffffff166002600084815260200190815260200160002060009054906101000a900473ffffffffffffffffffffffffffffffffffffffff1673ffffffffffffffffffffffffffffffffffffffff1614159050919050565b600033905090565b816004600083815260200190815260200160002060006101000a81548173ffffffffffffffffffffffffffffffffffffffff021916908373ffffffffffffffffffffffffffffffffffffffff160217905550808273ffffffffffffffffffffffffffffffffffffffff166128918361138b565b73ffffffffffffffffffffffffffffffffffffffff167f8c5be1e5ebec7d5bd14f71427d1e84f3dd0314c0f7b2291e5b200ac8c7c3b92560405160405180910390a45050565b60006128e2826127aa565b612921576040517f08c379a000000000000000000000000000000000000000000000000000000000815260040161291890614e56565b60405180910390fd5b600061292c8361138b565b90508073ffffffffffffffffffffffffffffffffffffffff168473ffffffffffffffffffffffffffffffffffffffff16148061299b57508373ffffffffffffffffffffffffffffffffffffffff1661298384610bab565b73ffffffffffffffffffffffffffffffffffffffff16145b806129ac57506129ab818561244e565b5b91505092915050565b8273ffffffffffffffffffffffffffffffffffffffff166129d58261138b565b73ffffffffffffffffffffffffffffffffffffffff1614612a2b576040517f08c379a0000000000000000000000000000000000000000000000000000000008152600401612a2290614f56565b60405180910390fd5b600073ffffffffffffffffffffffffffffffffffffffff168273ffffffffffffffffffffffffffffffffffffffff161415612a9b576040517f08c379a0000000000000000000000000000000000000000000000000000000008152600401612a9290614dd6565b60405180910390fd5b612aa68383836133e3565b612ab160008261281e565b6001600360008573ffffffffffffffffffffffffffffffffffffffff1673ffffffffffffffffffffffffffffffffffffffff1681526020019081526020016000206000828254612b01919061534c565b925050819055506001600360008473ffffffffffffffffffffffffffffffffffffffff1673ffffffffffffffffffffffffffffffffffffffff1681526020019081526020016000206000828254612b58919061526b565b92505081905550816002600083815260200190815260200160002060006101000a81548173ffffffffffffffffffffffffffffffffffffffff021916908373ffffffffffffffffffffffffffffffffffffffff160217905550808273ffffffffffffffffffffffffffffffffffffffff168473ffffffffffffffffffffffffffffffffffffffff167fddf252ad1be2c89b69c2b068fc378daa952ba7f163c4a11628f55a4df523b3ef60405160405180910390a4505050565b60008183612c1f91906152f2565b905092915050565b60005b600c54811015612c705760118190806001815401808255809150506001900390600052602060002001600090919091909150558080612c68906154e4565b915050612c2a565b50565b6000600b60009054906101000a900473ffffffffffffffffffffffffffffffffffffffff16905081600b60006101000a81548173ffffffffffffffffffffffffffffffffffffffff021916908373ffffffffffffffffffffffffffffffffffffffff1602179055508173ffffffffffffffffffffffffffffffffffffffff168173ffffffffffffffffffffffffffffffffffffffff167f8be0079c531659141344cd1fd0a4f28419497f9722a3daafe3b4186f6b6457e060405160405180910390a35050565b60007f000000000000000000000000000000000000000000000000000000000000000073ffffffffffffffffffffffffffffffffffffffff16634000aea07f000000000000000000000000000000000000000000000000000000000000000084866000604051602001612dad929190614cc6565b6040516020818303038152906040526040518463ffffffff1660e01b8152600401612dda93929190614c4b565b602060405180830381600087803b158015612df457600080fd5b505af1158015612e08573d6000803e3d6000fd5b505050506040513d601f19601f82011682018060405250810190612e2c919061442a565b506000612e4f84600030600a6000898152602001908152602001600020546134f7565b90506001600a600086815260200190815260200160002054612e71919061526b565b600a600086815260200190815260200160002081905550612e928482613533565b91505092915050565b60008183612ea991906152c1565b905092915050565b60008273ffffffffffffffffffffffffffffffffffffffff1682604051612ed790614bcf565b60006040518083038185875af1925050503d8060008114612f14576040519150601f19603f3d011682016040523d82523d6000602084013e612f19565b606091505b5050905080612f5d576040517f08c379a0000000000000000000000000000000000000000000000000000000008152600401612f5490615076565b60405180910390fd5b505050565b600060118054905082612f75919061556b565b905060006012600085815260200190815260200160002060009054906101000a900473ffffffffffffffffffffffffffffffffffffffff169050612ffd8160118481548110612fed577f4e487b7100000000000000000000000000000000000000000000000000000000600052603260045260246000fd5b9060005260206000200154613566565b6000613007611a09565b9050600081111561304e577fa650fd68254e5b4ec12085cac5ab4db28cbd9fe57bc98b366fbd4d91ab55c148816040516130419190615116565b60405180910390a161307b565b7f52df9fe5b9c9a7b0b4fdc2c9f89387959e35e4209c2a8d133a2b8165edad2a0460405160405180910390a15b5050505050565b61308c828261357d565b8173ffffffffffffffffffffffffffffffffffffffff167f07084d10de365e4fe4f6861261b5f1fc13cea244b38301f31d2ff67e1cb92de2826040516130d29190615116565b60405180910390a25050565b6130e98484846129b5565b6130f58484848461359b565b613134576040517f08c379a000000000000000000000000000000000000000000000000000000000815260040161312b90614d76565b60405180910390fd5b50505050565b60606015805461314990615481565b80601f016020809104026020016040519081016040528092919081815260200182805461317590615481565b80156131c25780601f10613197576101008083540402835291602001916131c2565b820191906000526020600020905b8154815290600101906020018083116131a557829003601f168201915b5050505050905090565b60606000821415613214576040518060400160405280600181526020017f30000000000000000000000000000000000000000000000000000000000000008152509050613374565b600082905060005b6000821461324657808061322f906154e4565b915050600a8261323f91906152c1565b915061321c565b60008167ffffffffffffffff811115613288577f4e487b7100000000000000000000000000000000000000000000000000000000600052604160045260246000fd5b6040519080825280601f01601f1916602001820160405280156132ba5781602001600182028036833780820191505090505b5090505b6000851461336d576001826132d3919061534c565b9150600a856132e2919061556b565b60306132ee919061526b565b60f81b81838151811061332a577f4e487b7100000000000000000000000000000000000000000000000000000000600052603260045260246000fd5b60200101907effffffffffffffffffffffffffffffffffffffffffffffffffffffffffffff1916908160001a905350600a8561336691906152c1565b94506132be565b8093505050505b919050565b60007f01ffc9a7000000000000000000000000000000000000000000000000000000007bffffffffffffffffffffffffffffffffffffffffffffffffffffffff1916827bffffffffffffffffffffffffffffffffffffffffffffffffffffffff1916149050919050565b6133ee838383613732565b600073ffffffffffffffffffffffffffffffffffffffff168373ffffffffffffffffffffffffffffffffffffffff1614156134315761342c81613737565b613470565b8173ffffffffffffffffffffffffffffffffffffffff168373ffffffffffffffffffffffffffffffffffffffff161461346f5761346e8382613780565b5b5b600073ffffffffffffffffffffffffffffffffffffffff168273ffffffffffffffffffffffffffffffffffffffff1614156134b3576134ae816138ed565b6134f2565b8273ffffffffffffffffffffffffffffffffffffffff168273ffffffffffffffffffffffffffffffffffffffff16146134f1576134f08282613a30565b5b5b505050565b6000848484846040516020016135109493929190614cef565b6040516020818303038152906040528051906020012060001c9050949350505050565b60008282604051602001613548929190614b7f565b60405160208183030381529060405280519060200120905092915050565b6135708282613082565b61357981613aaf565b5050565b613597828260405180602001604052806000815250613c3c565b5050565b60006135bc8473ffffffffffffffffffffffffffffffffffffffff16613c97565b15613725578373ffffffffffffffffffffffffffffffffffffffff1663150b7a026135e5612816565b8786866040518563ffffffff1660e01b81526004016136079493929190614bff565b602060405180830381600087803b15801561362157600080fd5b505af192505050801561365257506040513d601f19601f8201168201806040525081019061364f91906144b8565b60015b6136d5573d8060008114613682576040519150601f19603f3d011682016040523d82523d6000602084013e613687565b606091505b506000815114156136cd576040517f08c379a00000000000000000000000000000000000000000000000000000000081526004016136c490614d76565b60405180910390fd5b805181602001fd5b63150b7a0260e01b7bffffffffffffffffffffffffffffffffffffffffffffffffffffffff1916817bffffffffffffffffffffffffffffffffffffffffffffffffffffffff19161491505061372a565b600190505b949350505050565b505050565b6008805490506009600083815260200190815260200160002081905550600881908060018154018082558091505060019003906000526020600020016000909190919091505550565b6000600161378d8461143d565b613797919061534c565b905060006007600084815260200190815260200160002054905081811461387c576000600660008673ffffffffffffffffffffffffffffffffffffffff1673ffffffffffffffffffffffffffffffffffffffff168152602001908152602001600020600084815260200190815260200160002054905080600660008773ffffffffffffffffffffffffffffffffffffffff1673ffffffffffffffffffffffffffffffffffffffff168152602001908152602001600020600084815260200190815260200160002081905550816007600083815260200190815260200160002081905550505b6007600084815260200190815260200160002060009055600660008573ffffffffffffffffffffffffffffffffffffffff1673ffffffffffffffffffffffffffffffffffffffff16815260200190815260200160002060008381526020019081526020016000206000905550505050565b60006001600880549050613901919061534c565b9050600060096000848152602001908152602001600020549050600060088381548110613957577f4e487b7100000000000000000000000000000000000000000000000000000000600052603260045260246000fd5b90600052602060002001549050806008838154811061399f577f4e487b7100000000000000000000000000000000000000000000000000000000600052603260045260246000fd5b906000526020600020018190555081600960008381526020019081526020016000208190555060096000858152602001908152602001600020600090556008805480613a14577f4e487b7100000000000000000000000000000000000000000000000000000000600052603160045260246000fd5b6001900381819060005260206000200160009055905550505050565b6000613a3b8361143d565b905081600660008573ffffffffffffffffffffffffffffffffffffffff1673ffffffffffffffffffffffffffffffffffffffff168152602001908152602001600020600083815260200190815260200160002081905550806007600084815260200190815260200160002081905550505050565b600060118054905011613af7576040517f08c379a0000000000000000000000000000000000000000000000000000000008152600401613aee90614ed6565b60405180910390fd5b6000613b0282613caa565b9050601180549050811115613b4c576040517f08c379a0000000000000000000000000000000000000000000000000000000008152600401613b43906150b6565b60405180910390fd5b60116001601180549050613b60919061534c565b81548110613b97577f4e487b7100000000000000000000000000000000000000000000000000000000600052603260045260246000fd5b906000526020600020015460118281548110613bdc577f4e487b7100000000000000000000000000000000000000000000000000000000600052603260045260246000fd5b90600052602060002001819055506011805480613c22577f4e487b7100000000000000000000000000000000000000000000000000000000600052603160045260246000fd5b600190038181906000526020600020016000905590555050565b613c468383613d49565b613c53600084848461359b565b613c92576040517f08c379a0000000000000000000000000000000000000000000000000000000008152600401613c8990614d76565b60405180910390fd5b505050565b600080823b905060008111915050919050565b600080600090505b601180549050811015613d2e57600060118281548110613cfb577f4e487b7100000000000000000000000000000000000000000000000000000000600052603260045260246000fd5b9060005260206000200154905083811415613d1a578192505050613d44565b508080613d26906154e4565b915050613cb2565b506064601180549050613d41919061526b565b90505b919050565b600073ffffffffffffffffffffffffffffffffffffffff168273ffffffffffffffffffffffffffffffffffffffff161415613db9576040517f08c379a0000000000000000000000000000000000000000000000000000000008152600401613db090614ef6565b60405180910390fd5b613dc2816127aa565b15613e02576040517f08c379a0000000000000000000000000000000000000000000000000000000008152600401613df990614db6565b60405180910390fd5b613e0e600083836133e3565b6001600360008473ffffffffffffffffffffffffffffffffffffffff1673ffffffffffffffffffffffffffffffffffffffff1681526020019081526020016000206000828254613e5e919061526b565b92505081905550816002600083815260200190815260200160002060006101000a81548173ffffffffffffffffffffffffffffffffffffffff021916908373ffffffffffffffffffffffffffffffffffffffff160217905550808273ffffffffffffffffffffffffffffffffffffffff16600073ffffffffffffffffffffffffffffffffffffffff167fddf252ad1be2c89b69c2b068fc378daa952ba7f163c4a11628f55a4df523b3ef60405160405180910390a45050565b828054613f2390615481565b90600052602060002090601f016020900481019282613f455760008555613f8c565b82601f10613f5e57805160ff1916838001178555613f8c565b82800160010185558215613f8c579182015b82811115613f8b578251825591602001919060010190613f70565b5b509050613f999190613f9d565b5090565b5b80821115613fb6576000816000905550600101613f9e565b5090565b6000613fcd613fc884615156565b615131565b90508083825260208201905082856020860282011115613fec57600080fd5b60005b8581101561401c5781614002888261419e565b845260208401935060208301925050600181019050613fef565b5050509392505050565b600061403961403484615182565b615131565b90508281526020810184848401111561405157600080fd5b61405c84828561543f565b509392505050565b6000614077614072846151b3565b615131565b90508281526020810184848401111561408f57600080fd5b61409a84828561543f565b509392505050565b6000813590506140b181615d9a565b92915050565b600082601f8301126140c857600080fd5b81356140d8848260208601613fba565b91505092915050565b6000813590506140f081615db1565b92915050565b60008151905061410581615db1565b92915050565b60008135905061411a81615dc8565b92915050565b60008135905061412f81615ddf565b92915050565b60008151905061414481615ddf565b92915050565b600082601f83011261415b57600080fd5b813561416b848260208601614026565b91505092915050565b600082601f83011261418557600080fd5b8135614195848260208601614064565b91505092915050565b6000813590506141ad81615df6565b92915050565b6000815190506141c281615df6565b92915050565b6000813590506141d781615e0d565b92915050565b6000602082840312156141ef57600080fd5b60006141fd848285016140a2565b91505092915050565b6000806040838503121561421957600080fd5b6000614227858286016140a2565b9250506020614238858286016140a2565b9150509250929050565b60008060006060848603121561425757600080fd5b6000614265868287016140a2565b9350506020614276868287016140a2565b92505060406142878682870161419e565b9150509250925092565b600080600080608085870312156142a757600080fd5b60006142b5878288016140a2565b94505060206142c6878288016140a2565b93505060406142d78782880161419e565b925050606085013567ffffffffffffffff8111156142f457600080fd5b6143008782880161414a565b91505092959194509250565b6000806040838503121561431f57600080fd5b600061432d858286016140a2565b925050602061433e858286016140e1565b9150509250929050565b6000806040838503121561435b57600080fd5b6000614369858286016140a2565b925050602061437a8582860161419e565b9150509250929050565b6000806040838503121561439757600080fd5b60006143a5858286016140a2565b92505060206143b6858286016141c8565b9150509250929050565b6000602082840312156143d257600080fd5b600082013567ffffffffffffffff8111156143ec57600080fd5b6143f8848285016140b7565b91505092915050565b60006020828403121561441357600080fd5b6000614421848285016140e1565b91505092915050565b60006020828403121561443c57600080fd5b600061444a848285016140f6565b91505092915050565b6000806040838503121561446657600080fd5b60006144748582860161410b565b92505060206144858582860161419e565b9150509250929050565b6000602082840312156144a157600080fd5b60006144af84828501614120565b91505092915050565b6000602082840312156144ca57600080fd5b60006144d884828501614135565b91505092915050565b6000602082840312156144f357600080fd5b600082013567ffffffffffffffff81111561450d57600080fd5b61451984828501614174565b91505092915050565b60006020828403121561453457600080fd5b60006145428482850161419e565b91505092915050565b60006020828403121561455d57600080fd5b600061456b848285016141b3565b91505092915050565b6000806040838503121561458757600080fd5b60006145958582860161419e565b92505060206145a68582860161419e565b9150509250929050565b60006145bc8383614b4a565b60208301905092915050565b6145d1816153b4565b82525050565b60006145e2826151f4565b6145ec8185615222565b93506145f7836151e4565b8060005b8381101561462857815161460f88826145b0565b975061461a83615215565b9250506001810190506145fb565b5085935050505092915050565b61463e816153c6565b82525050565b61464d816153d2565b82525050565b61466461465f826153d2565b615557565b82525050565b6000614675826151ff565b61467f8185615233565b935061468f81856020860161544e565b61469881615658565b840191505092915050565b60006146ae8261520a565b6146b8818561524f565b93506146c881856020860161544e565b6146d181615658565b840191505092915050565b60006146e78261520a565b6146f18185615260565b935061470181856020860161544e565b80840191505092915050565b600061471a602b8361524f565b915061472582615669565b604082019050919050565b600061473d60328361524f565b9150614748826156b8565b604082019050919050565b600061476060268361524f565b915061476b82615707565b604082019050919050565b6000614783601c8361524f565b915061478e82615756565b602082019050919050565b60006147a660248361524f565b91506147b18261577f565b604082019050919050565b60006147c960198361524f565b91506147d4826157ce565b602082019050919050565b60006147ec602b8361524f565b91506147f7826157f7565b604082019050919050565b600061480f60098361524f565b915061481a82615846565b602082019050919050565b6000614832602c8361524f565b915061483d8261586f565b604082019050919050565b600061485560388361524f565b9150614860826158be565b604082019050919050565b6000614878602a8361524f565b91506148838261590d565b604082019050919050565b600061489b60298361524f565b91506148a68261595c565b604082019050919050565b60006148be60118361524f565b91506148c9826159ab565b602082019050919050565b60006148e160208361524f565b91506148ec826159d4565b602082019050919050565b6000614904602c8361524f565b915061490f826159fd565b604082019050919050565b600061492760208361524f565b915061493282615a4c565b602082019050919050565b600061494a60298361524f565b915061495582615a75565b604082019050919050565b600061496d602f8361524f565b915061497882615ac4565b604082019050919050565b6000614990601f8361524f565b915061499b82615b13565b602082019050919050565b60006149b360118361524f565b91506149be82615b3c565b602082019050919050565b60006149d660108361524f565b91506149e182615b65565b602082019050919050565b60006149f9600f8361524f565b9150614a0482615b8e565b602082019050919050565b6000614a1c60218361524f565b9150614a2782615bb7565b604082019050919050565b6000614a3f600e8361524f565b9150614a4a82615c06565b602082019050919050565b6000614a62600083615244565b9150614a6d82615c2f565b600082019050919050565b6000614a85600d8361524f565b9150614a9082615c32565b602082019050919050565b6000614aa860108361524f565b9150614ab382615c5b565b602082019050919050565b6000614acb60318361524f565b9150614ad682615c84565b604082019050919050565b6000614aee602a8361524f565b9150614af982615cd3565b604082019050919050565b6000614b11602c8361524f565b9150614b1c82615d22565b604082019050919050565b6000614b3460088361524f565b9150614b3f82615d71565b602082019050919050565b614b5381615428565b82525050565b614b6281615428565b82525050565b614b79614b7482615428565b615561565b82525050565b6000614b8b8285614653565b602082019150614b9b8284614b68565b6020820191508190509392505050565b6000614bb782856146dc565b9150614bc382846146dc565b91508190509392505050565b6000614bda82614a55565b9150819050919050565b6000602082019050614bf960008301846145c8565b92915050565b6000608082019050614c1460008301876145c8565b614c2160208301866145c8565b614c2e6040830185614b59565b8181036060830152614c40818461466a565b905095945050505050565b6000606082019050614c6060008301866145c8565b614c6d6020830185614b59565b8181036040830152614c7f818461466a565b9050949350505050565b60006020820190508181036000830152614ca381846145d7565b905092915050565b6000602082019050614cc06000830184614635565b92915050565b6000604082019050614cdb6000830185614644565b614ce86020830184614b59565b9392505050565b6000608082019050614d046000830187614644565b614d116020830186614b59565b614d1e60408301856145c8565b614d2b6060830184614b59565b95945050505050565b60006020820190508181036000830152614d4e81846146a3565b905092915050565b60006020820190508181036000830152614d6f8161470d565b9050919050565b60006020820190508181036000830152614d8f81614730565b9050919050565b60006020820190508181036000830152614daf81614753565b9050919050565b60006020820190508181036000830152614dcf81614776565b9050919050565b60006020820190508181036000830152614def81614799565b9050919050565b60006020820190508181036000830152614e0f816147bc565b9050919050565b60006020820190508181036000830152614e2f816147df565b9050919050565b60006020820190508181036000830152614e4f81614802565b9050919050565b60006020820190508181036000830152614e6f81614825565b9050919050565b60006020820190508181036000830152614e8f81614848565b9050919050565b60006020820190508181036000830152614eaf8161486b565b9050919050565b60006020820190508181036000830152614ecf8161488e565b9050919050565b60006020820190508181036000830152614eef816148b1565b9050919050565b60006020820190508181036000830152614f0f816148d4565b9050919050565b60006020820190508181036000830152614f2f816148f7565b9050919050565b60006020820190508181036000830152614f4f8161491a565b9050919050565b60006020820190508181036000830152614f6f8161493d565b9050919050565b60006020820190508181036000830152614f8f81614960565b9050919050565b60006020820190508181036000830152614faf81614983565b9050919050565b60006020820190508181036000830152614fcf816149a6565b9050919050565b60006020820190508181036000830152614fef816149c9565b9050919050565b6000602082019050818103600083015261500f816149ec565b9050919050565b6000602082019050818103600083015261502f81614a0f565b9050919050565b6000602082019050818103600083015261504f81614a32565b9050919050565b6000602082019050818103600083015261506f81614a78565b9050919050565b6000602082019050818103600083015261508f81614a9b565b9050919050565b600060208201905081810360008301526150af81614abe565b9050919050565b600060208201905081810360008301526150cf81614ae1565b9050919050565b600060208201905081810360008301526150ef81614b04565b9050919050565b6000602082019050818103600083015261510f81614b27565b9050919050565b600060208201905061512b6000830184614b59565b92915050565b600061513b61514c565b905061514782826154b3565b919050565b6000604051905090565b600067ffffffffffffffff82111561517157615170615629565b5b602082029050602081019050919050565b600067ffffffffffffffff82111561519d5761519c615629565b5b6151a682615658565b9050602081019050919050565b600067ffffffffffffffff8211156151ce576151cd615629565b5b6151d782615658565b9050602081019050919050565b6000819050602082019050919050565b600081519050919050565b600081519050919050565b600081519050919050565b6000602082019050919050565b600082825260208201905092915050565b600082825260208201905092915050565b600081905092915050565b600082825260208201905092915050565b600081905092915050565b600061527682615428565b915061528183615428565b9250827fffffffffffffffffffffffffffffffffffffffffffffffffffffffffffffffff038211156152b6576152b561559c565b5b828201905092915050565b60006152cc82615428565b91506152d783615428565b9250826152e7576152e66155cb565b5b828204905092915050565b60006152fd82615428565b915061530883615428565b9250817fffffffffffffffffffffffffffffffffffffffffffffffffffffffffffffffff04831182151516156153415761534061559c565b5b828202905092915050565b600061535782615428565b915061536283615428565b9250828210156153755761537461559c565b5b828203905092915050565b600061538b82615432565b915061539683615432565b9250828210156153a9576153a861559c565b5b828203905092915050565b60006153bf82615408565b9050919050565b60008115159050919050565b6000819050919050565b60007fffffffff0000000000000000000000000000000000000000000000000000000082169050919050565b600073ffffffffffffffffffffffffffffffffffffffff82169050919050565b6000819050919050565b600060ff82169050919050565b82818337600083830152505050565b60005b8381101561546c578082015181840152602081019050615451565b8381111561547b576000848401525b50505050565b6000600282049050600182168061549957607f821691505b602082108114156154ad576154ac6155fa565b5b50919050565b6154bc82615658565b810181811067ffffffffffffffff821117156154db576154da615629565b5b80604052505050565b60006154ef82615428565b91507fffffffffffffffffffffffffffffffffffffffffffffffffffffffffffffffff8214156155225761552161559c565b5b600182019050919050565b600061553882615432565b915060ff82141561554c5761554b61559c565b5b600182019050919050565b6000819050919050565b6000819050919050565b600061557682615428565b915061558183615428565b925082615591576155906155cb565b5b828206905092915050565b7f4e487b7100000000000000000000000000000000000000000000000000000000600052601160045260246000fd5b7f4e487b7100000000000000000000000000000000000000000000000000000000600052601260045260246000fd5b7f4e487b7100000000000000000000000000000000000000000000000000000000600052602260045260246000fd5b7f4e487b7100000000000000000000000000000000000000000000000000000000600052604160045260246000fd5b6000601f19601f8301169050919050565b7f455243373231456e756d657261626c653a206f776e657220696e646578206f7560008201527f74206f6620626f756e6473000000000000000000000000000000000000000000602082015250565b7f4552433732313a207472616e7366657220746f206e6f6e20455243373231526560008201527f63656976657220696d706c656d656e7465720000000000000000000000000000602082015250565b7f4f776e61626c653a206e6577206f776e657220697320746865207a65726f206160008201527f6464726573730000000000000000000000000000000000000000000000000000602082015250565b7f4552433732313a20746f6b656e20616c7265616479206d696e74656400000000600082015250565b7f4552433732313a207472616e7366657220746f20746865207a65726f2061646460008201527f7265737300000000000000000000000000000000000000000000000000000000602082015250565b7f4552433732313a20617070726f766520746f2063616c6c657200000000000000600082015250565b7f4e6f7420656e6f756768204c494e4b202d2066696c6c20636f6e74726163742060008201527f7769746820666175636574000000000000000000000000000000000000000000602082015250565b7f4d6178206c696d69740000000000000000000000000000000000000000000000600082015250565b7f4552433732313a206f70657261746f7220717565727920666f72206e6f6e657860008201527f697374656e7420746f6b656e0000000000000000000000000000000000000000602082015250565b7f4552433732313a20617070726f76652063616c6c6572206973206e6f74206f7760008201527f6e6572206e6f7220617070726f76656420666f7220616c6c0000000000000000602082015250565b7f4552433732313a2062616c616e636520717565727920666f7220746865207a6560008201527f726f206164647265737300000000000000000000000000000000000000000000602082015250565b7f4552433732313a206f776e657220717565727920666f72206e6f6e657869737460008201527f656e7420746f6b656e0000000000000000000000000000000000000000000000602082015250565b7f746f6b656e49647320697320656d707479000000000000000000000000000000600082015250565b7f4552433732313a206d696e7420746f20746865207a65726f2061646472657373600082015250565b7f4552433732313a20617070726f76656420717565727920666f72206e6f6e657860008201527f697374656e7420746f6b656e0000000000000000000000000000000000000000602082015250565b7f4f776e61626c653a2063616c6c6572206973206e6f7420746865206f776e6572600082015250565b7f4552433732313a207472616e73666572206f6620746f6b656e2074686174206960008201527f73206e6f74206f776e0000000000000000000000000000000000000000000000602082015250565b7f4552433732314d657461646174613a2055524920717565727920666f72206e6f60008201527f6e6578697374656e7420746f6b656e0000000000000000000000000000000000602082015250565b7f4f6e6c7920565246436f6f7264696e61746f722063616e2066756c66696c6c00600082015250565b7f56616c75652062656c6f77207072696365000000000000000000000000000000600082015250565b7f50617573652069732064697361626c6500000000000000000000000000000000600082015250565b7f416c72656164792072656d6f7665640000000000000000000000000000000000600082015250565b7f4552433732313a20617070726f76616c20746f2063757272656e74206f776e6560008201527f7200000000000000000000000000000000000000000000000000000000000000602082015250565b7f53616c6573206e6f74206f70656e000000000000000000000000000000000000600082015250565b50565b7f416c726561647920416464656400000000000000000000000000000000000000600082015250565b7f5472616e73666572206661696c65642e00000000000000000000000000000000600082015250565b7f4552433732313a207472616e736665722063616c6c6572206973206e6f74206f60008201527f776e6572206e6f7220617070726f766564000000000000000000000000000000602082015250565b7f43616e6e6f742066696e6420746f6b656e49647320496e646578202d2072656d60008201527f6f7665546f6b656e496400000000000000000000000000000000000000000000602082015250565b7f455243373231456e756d657261626c653a20676c6f62616c20696e646578206f60008201527f7574206f6620626f756e64730000000000000000000000000000000000000000602082015250565b7f536f6c646f757421000000000000000000000000000000000000000000000000600082015250565b615da3816153b4565b8114615dae57600080fd5b50565b615dba816153c6565b8114615dc557600080fd5b50565b615dd1816153d2565b8114615ddc57600080fd5b50565b615de8816153dc565b8114615df357600080fd5b50565b615dff81615428565b8114615e0a57600080fd5b50565b615e1681615432565b8114615e2157600080fd5b5056fea264697066735822122051bd6e4ada9a0f88748834cf572f0fc3ba6f767b696fb373cd6620914d6a702564736f6c63430008040033",
  "linkReferences": {},
  "deployedLinkReferences": {}
}