{
  "_format": "hh-sol-artifact-1",
  "contractName": "Iceberg",
  "sourceName": "contracts/NFT.sol",
  "abi": [
    {
      "inputs": [
        {
          "internalType": "string",
          "name": "baseURI",
          "type": "string"
        },
        {
          "internalType": "uint256",
          "name": "maxAmount",
          "type": "uint256"
        },
        {
          "internalType": "address",
          "name": "_VRFCoordinator",
          "type": "address"
        },
        {
          "internalType": "address",
          "name": "_LinkToken",
          "type": "address"
        },
        {
          "internalType": "bytes32",
          "name": "_keyhash",
          "type": "bytes32"
        }
      ],
      "stateMutability": "nonpayable",
      "type": "constructor"
    },
    {
      "anonymous": false,
      "inputs": [
        {
          "indexed": true,
          "internalType": "address",
          "name": "owner",
          "type": "address"
        },
        {
          "indexed": true,
          "internalType": "address",
          "name": "approved",
          "type": "address"
        },
        {
          "indexed": true,
          "internalType": "uint256",
          "name": "tokenId",
          "type": "uint256"
        }
      ],
      "name": "Approval",
      "type": "event"
    },
    {
      "anonymous": false,
      "inputs": [
        {
          "indexed": true,
          "internalType": "address",
          "name": "owner",
          "type": "address"
        },
        {
          "indexed": true,
          "internalType": "address",
          "name": "operator",
          "type": "address"
        },
        {
          "indexed": false,
          "internalType": "bool",
          "name": "approved",
          "type": "bool"
        }
      ],
      "name": "ApprovalForAll",
      "type": "event"
    },
    {
      "anonymous": false,
      "inputs": [
        {
          "indexed": true,
          "internalType": "address",
          "name": "previousOwner",
          "type": "address"
        },
        {
          "indexed": true,
          "internalType": "address",
          "name": "newOwner",
          "type": "address"
        }
      ],
      "name": "OwnershipTransferred",
      "type": "event"
    },
    {
      "anonymous": false,
      "inputs": [
        {
          "indexed": false,
          "internalType": "bool",
          "name": "pause",
          "type": "bool"
        }
      ],
      "name": "PauseEvent",
      "type": "event"
    },
    {
      "anonymous": false,
      "inputs": [
        {
          "indexed": true,
          "internalType": "address",
          "name": "from",
          "type": "address"
        },
        {
          "indexed": true,
          "internalType": "address",
          "name": "to",
          "type": "address"
        },
        {
          "indexed": true,
          "internalType": "uint256",
          "name": "tokenId",
          "type": "uint256"
        }
      ],
      "name": "Transfer",
      "type": "event"
    },
    {
      "anonymous": false,
      "inputs": [
        {
          "indexed": true,
          "internalType": "uint256",
          "name": "id",
          "type": "uint256"
        }
      ],
      "name": "welcomeToNFT",
      "type": "event"
    },
    {
      "inputs": [],
      "name": "LinkToken",
      "outputs": [
        {
          "internalType": "address",
          "name": "",
          "type": "address"
        }
      ],
      "stateMutability": "view",
      "type": "function"
    },
    {
      "inputs": [],
      "name": "MAX_ELEMENTS",
      "outputs": [
        {
          "internalType": "uint256",
          "name": "",
          "type": "uint256"
        }
      ],
      "stateMutability": "view",
      "type": "function"
    },
    {
      "inputs": [],
      "name": "PRICE",
      "outputs": [
        {
          "internalType": "uint256",
          "name": "",
          "type": "uint256"
        }
      ],
      "stateMutability": "view",
      "type": "function"
    },
    {
      "inputs": [],
      "name": "START_AT",
      "outputs": [
        {
          "internalType": "uint256",
          "name": "",
          "type": "uint256"
        }
      ],
      "stateMutability": "view",
      "type": "function"
    },
    {
      "inputs": [],
      "name": "VRFCoordinator",
      "outputs": [
        {
          "internalType": "address",
          "name": "",
          "type": "address"
        }
      ],
      "stateMutability": "view",
      "type": "function"
    },
    {
      "inputs": [
        {
          "internalType": "address",
          "name": "_address",
          "type": "address"
        }
      ],
      "name": "addWhiteList",
      "outputs": [],
      "stateMutability": "nonpayable",
      "type": "function"
    },
    {
      "inputs": [
        {
          "internalType": "address",
          "name": "to",
          "type": "address"
        },
        {
          "internalType": "uint256",
          "name": "tokenId",
          "type": "uint256"
        }
      ],
      "name": "approve",
      "outputs": [],
      "stateMutability": "nonpayable",
      "type": "function"
    },
    {
      "inputs": [
        {
          "internalType": "address",
          "name": "owner",
          "type": "address"
        }
      ],
      "name": "balanceOf",
      "outputs": [
        {
          "internalType": "uint256",
          "name": "",
          "type": "uint256"
        }
      ],
      "stateMutability": "view",
      "type": "function"
    },
    {
      "inputs": [],
      "name": "baseTokenURI",
      "outputs": [
        {
          "internalType": "string",
          "name": "",
          "type": "string"
        }
      ],
      "stateMutability": "view",
      "type": "function"
    },
    {
      "inputs": [],
      "name": "creator1Address",
      "outputs": [
        {
          "internalType": "address",
          "name": "",
          "type": "address"
        }
      ],
      "stateMutability": "view",
      "type": "function"
    },
    {
      "inputs": [],
      "name": "creator2Address",
      "outputs": [
        {
          "internalType": "address",
          "name": "",
          "type": "address"
        }
      ],
      "stateMutability": "view",
      "type": "function"
    },
    {
      "inputs": [],
      "name": "devAddress",
      "outputs": [
        {
          "internalType": "address",
          "name": "",
          "type": "address"
        }
      ],
      "stateMutability": "view",
      "type": "function"
    },
    {
      "inputs": [
        {
          "internalType": "uint256",
          "name": "tokenId",
          "type": "uint256"
        }
      ],
      "name": "getApproved",
      "outputs": [
        {
          "internalType": "address",
          "name": "",
          "type": "address"
        }
      ],
      "stateMutability": "view",
      "type": "function"
    },
    {
      "inputs": [],
      "name": "getPause",
      "outputs": [
        {
          "internalType": "bool",
          "name": "",
          "type": "bool"
        }
      ],
      "stateMutability": "view",
      "type": "function"
    },
    {
      "inputs": [
        {
          "internalType": "uint256",
          "name": "offset",
          "type": "uint256"
        },
        {
          "internalType": "uint256",
          "name": "limit",
          "type": "uint256"
        }
      ],
      "name": "getUnsoldTokens",
      "outputs": [
        {
          "internalType": "uint256[]",
          "name": "",
          "type": "uint256[]"
        }
      ],
      "stateMutability": "view",
      "type": "function"
    },
    {
      "inputs": [
        {
          "internalType": "address",
          "name": "owner",
          "type": "address"
        },
        {
          "internalType": "address",
          "name": "operator",
          "type": "address"
        }
      ],
      "name": "isApprovedForAll",
      "outputs": [
        {
          "internalType": "bool",
          "name": "",
          "type": "bool"
        }
      ],
      "stateMutability": "view",
      "type": "function"
    },
    {
      "inputs": [
        {
          "internalType": "address",
          "name": "_address",
          "type": "address"
        }
      ],
      "name": "isWhiteList",
      "outputs": [
        {
          "internalType": "bool",
          "name": "",
          "type": "bool"
        }
      ],
      "stateMutability": "view",
      "type": "function"
    },
    {
      "inputs": [
        {
          "internalType": "uint256[]",
          "name": "_tokensId",
          "type": "uint256[]"
        }
      ],
      "name": "mintUnsoldTokens",
      "outputs": [],
      "stateMutability": "nonpayable",
      "type": "function"
    },
    {
      "inputs": [],
      "name": "mintedTokenCount",
      "outputs": [
        {
          "internalType": "uint256",
          "name": "",
          "type": "uint256"
        }
      ],
      "stateMutability": "view",
      "type": "function"
    },
    {
      "inputs": [],
      "name": "name",
      "outputs": [
        {
          "internalType": "string",
          "name": "",
          "type": "string"
        }
      ],
      "stateMutability": "view",
      "type": "function"
    },
    {
      "inputs": [],
      "name": "owner",
      "outputs": [
        {
          "internalType": "address",
          "name": "",
          "type": "address"
        }
      ],
      "stateMutability": "view",
      "type": "function"
    },
    {
      "inputs": [
        {
          "internalType": "uint256",
          "name": "tokenId",
          "type": "uint256"
        }
      ],
      "name": "ownerOf",
      "outputs": [
        {
          "internalType": "address",
          "name": "",
          "type": "address"
        }
      ],
      "stateMutability": "view",
      "type": "function"
    },
    {
      "inputs": [
        {
          "internalType": "uint256",
          "name": "_count",
          "type": "uint256"
        }
      ],
      "name": "price",
      "outputs": [
        {
          "internalType": "uint256",
          "name": "",
          "type": "uint256"
        }
      ],
      "stateMutability": "pure",
      "type": "function"
    },
    {
      "inputs": [
        {
          "internalType": "bytes32",
          "name": "requestId",
          "type": "bytes32"
        },
        {
          "internalType": "uint256",
          "name": "randomness",
          "type": "uint256"
        }
      ],
      "name": "rawFulfillRandomness",
      "outputs": [],
      "stateMutability": "nonpayable",
      "type": "function"
    },
    {
      "inputs": [
        {
          "internalType": "uint256",
          "name": "tokenId",
          "type": "uint256"
        }
      ],
      "name": "rawOwnerOf",
      "outputs": [
        {
          "internalType": "address",
          "name": "",
          "type": "address"
        }
      ],
      "stateMutability": "view",
      "type": "function"
    },
    {
      "inputs": [],
      "name": "remainTokenCount",
      "outputs": [
        {
          "internalType": "uint256",
          "name": "",
          "type": "uint256"
        }
      ],
      "stateMutability": "view",
      "type": "function"
    },
    {
      "inputs": [
        {
          "internalType": "address",
          "name": "_address",
          "type": "address"
        }
      ],
      "name": "removeWhiteList",
      "outputs": [],
      "stateMutability": "nonpayable",
      "type": "function"
    },
    {
      "inputs": [],
      "name": "renounceOwnership",
      "outputs": [],
      "stateMutability": "nonpayable",
      "type": "function"
    },
    {
      "inputs": [
        {
          "internalType": "address",
          "name": "_to",
          "type": "address"
        },
        {
          "internalType": "uint8",
          "name": "amount",
          "type": "uint8"
        }
      ],
      "name": "requestRandomNFT",
      "outputs": [],
      "stateMutability": "payable",
      "type": "function"
    },
    {
      "inputs": [
        {
          "internalType": "address",
          "name": "from",
          "type": "address"
        },
        {
          "internalType": "address",
          "name": "to",
          "type": "address"
        },
        {
          "internalType": "uint256",
          "name": "tokenId",
          "type": "uint256"
        }
      ],
      "name": "safeTransferFrom",
      "outputs": [],
      "stateMutability": "nonpayable",
      "type": "function"
    },
    {
      "inputs": [
        {
          "internalType": "address",
          "name": "from",
          "type": "address"
        },
        {
          "internalType": "address",
          "name": "to",
          "type": "address"
        },
        {
          "internalType": "uint256",
          "name": "tokenId",
          "type": "uint256"
        },
        {
          "internalType": "bytes",
          "name": "_data",
          "type": "bytes"
        }
      ],
      "name": "safeTransferFrom",
      "outputs": [],
      "stateMutability": "nonpayable",
      "type": "function"
    },
    {
      "inputs": [
        {
          "internalType": "address",
          "name": "operator",
          "type": "address"
        },
        {
          "internalType": "bool",
          "name": "approved",
          "type": "bool"
        }
      ],
      "name": "setApprovalForAll",
      "outputs": [],
      "stateMutability": "nonpayable",
      "type": "function"
    },
    {
      "inputs": [
        {
          "internalType": "string",
          "name": "baseURI",
          "type": "string"
        }
      ],
      "name": "setBaseURI",
      "outputs": [],
      "stateMutability": "nonpayable",
      "type": "function"
    },
    {
      "inputs": [
        {
          "internalType": "uint256",
          "name": "_maxElements",
          "type": "uint256"
        }
      ],
      "name": "setMaxElementCount",
      "outputs": [],
      "stateMutability": "nonpayable",
      "type": "function"
    },
    {
      "inputs": [
        {
          "internalType": "bool",
          "name": "_pause",
          "type": "bool"
        }
      ],
      "name": "setPause",
      "outputs": [],
      "stateMutability": "nonpayable",
      "type": "function"
    },
    {
      "inputs": [
        {
          "internalType": "bytes4",
          "name": "interfaceId",
          "type": "bytes4"
        }
      ],
      "name": "supportsInterface",
      "outputs": [
        {
          "internalType": "bool",
          "name": "",
          "type": "bool"
        }
      ],
      "stateMutability": "view",
      "type": "function"
    },
    {
      "inputs": [],
      "name": "symbol",
      "outputs": [
        {
          "internalType": "string",
          "name": "",
          "type": "string"
        }
      ],
      "stateMutability": "view",
      "type": "function"
    },
    {
      "inputs": [
        {
          "internalType": "uint256",
          "name": "index",
          "type": "uint256"
        }
      ],
      "name": "tokenByIndex",
      "outputs": [
        {
          "internalType": "uint256",
          "name": "",
          "type": "uint256"
        }
      ],
      "stateMutability": "view",
      "type": "function"
    },
    {
      "inputs": [
        {
          "internalType": "address",
          "name": "owner",
          "type": "address"
        },
        {
          "internalType": "uint256",
          "name": "index",
          "type": "uint256"
        }
      ],
      "name": "tokenOfOwnerByIndex",
      "outputs": [
        {
          "internalType": "uint256",
          "name": "",
          "type": "uint256"
        }
      ],
      "stateMutability": "view",
      "type": "function"
    },
    {
      "inputs": [
        {
          "internalType": "uint256",
          "name": "tokenId",
          "type": "uint256"
        }
      ],
      "name": "tokenURI",
      "outputs": [
        {
          "internalType": "string",
          "name": "",
          "type": "string"
        }
      ],
      "stateMutability": "view",
      "type": "function"
    },
    {
      "inputs": [],
      "name": "totalSupply",
      "outputs": [
        {
          "internalType": "uint256",
          "name": "",
          "type": "uint256"
        }
      ],
      "stateMutability": "view",
      "type": "function"
    },
    {
      "inputs": [
        {
          "internalType": "address",
          "name": "from",
          "type": "address"
        },
        {
          "internalType": "address",
          "name": "to",
          "type": "address"
        },
        {
          "internalType": "uint256",
          "name": "tokenId",
          "type": "uint256"
        }
      ],
      "name": "transferFrom",
      "outputs": [],
      "stateMutability": "nonpayable",
      "type": "function"
    },
    {
      "inputs": [
        {
          "internalType": "address",
          "name": "newOwner",
          "type": "address"
        }
      ],
      "name": "transferOwnership",
      "outputs": [],
      "stateMutability": "nonpayable",
      "type": "function"
    },
    {
      "inputs": [
        {
          "internalType": "address",
          "name": "_owner",
          "type": "address"
        }
      ],
      "name": "walletOfOwner",
      "outputs": [
        {
          "internalType": "uint256[]",
          "name": "",
          "type": "uint256[]"
        }
      ],
      "stateMutability": "view",
      "type": "function"
    },
    {
      "inputs": [],
      "name": "withdrawAll",
      "outputs": [],
      "stateMutability": "nonpayable",
      "type": "function"
    }
  ],
  "bytecode": "0x60c06040526122b8600c5567016345785d8a0000600e556000601460006101000a81548160ff0219169083151502179055503480156200003e57600080fd5b506040516200673a3803806200673a83398181016040528101906200006491906200064f565b82826040518060400160405280600781526020017f49434542455247000000000000000000000000000000000000000000000000008152506040518060400160405280600381526020017f49434500000000000000000000000000000000000000000000000000000000008152508160009080519060200190620000ea929190620004e8565b50806001908051906020019062000103929190620004e8565b5050508173ffffffffffffffffffffffffffffffffffffffff1660a08173ffffffffffffffffffffffffffffffffffffffff1660601b815250508073ffffffffffffffffffffffffffffffffffffffff1660808173ffffffffffffffffffffffffffffffffffffffff1660601b815250505050620001966200018a6200024c60201b60201c565b6200025460201b60201c565b620001a7856200031a60201b60201c565b620001b884620003c560201b60201c565b82601060006101000a81548173ffffffffffffffffffffffffffffffffffffffff021916908373ffffffffffffffffffffffffffffffffffffffff16021790555081600f60006101000a81548173ffffffffffffffffffffffffffffffffffffffff021916908373ffffffffffffffffffffffffffffffffffffffff16021790555080600d819055505050505050620009f0565b600033905090565b6000600b60009054906101000a900473ffffffffffffffffffffffffffffffffffffffff16905081600b60006101000a81548173ffffffffffffffffffffffffffffffffffffffff021916908373ffffffffffffffffffffffffffffffffffffffff1602179055508173ffffffffffffffffffffffffffffffffffffffff168173ffffffffffffffffffffffffffffffffffffffff167f8be0079c531659141344cd1fd0a4f28419497f9722a3daafe3b4186f6b6457e060405160405180910390a35050565b6200032a6200024c60201b60201c565b73ffffffffffffffffffffffffffffffffffffffff16620003506200046e60201b60201c565b73ffffffffffffffffffffffffffffffffffffffff1614620003a9576040517f08c379a0000000000000000000000000000000000000000000000000000000008152600401620003a09062000711565b60405180910390fd5b8060159080519060200190620003c1929190620004e8565b5050565b620003d56200024c60201b60201c565b73ffffffffffffffffffffffffffffffffffffffff16620003fb6200046e60201b60201c565b73ffffffffffffffffffffffffffffffffffffffff161462000454576040517f08c379a00000000000000000000000000000000000000000000000000000000081526004016200044b9062000711565b60405180910390fd5b80600c819055506200046b6200049860201b60201c565b50565b6000600b60009054906101000a900473ffffffffffffffffffffffffffffffffffffffff16905090565b60005b600c54811015620004e55760118190806001815401808255809150506001900390600052602060002001600090919091909150558080620004dc906200088d565b9150506200049b565b50565b828054620004f69062000821565b90600052602060002090601f0160209004810192826200051a576000855562000566565b82601f106200053557805160ff191683800117855562000566565b8280016001018555821562000566579182015b828111156200056557825182559160200191906001019062000548565b5b50905062000575919062000579565b5090565b5b80821115620005945760008160009055506001016200057a565b5090565b6000620005af620005a9846200075c565b62000733565b905082815260208101848484011115620005c857600080fd5b620005d5848285620007eb565b509392505050565b600081519050620005ee81620009a2565b92915050565b6000815190506200060581620009bc565b92915050565b600082601f8301126200061d57600080fd5b81516200062f84826020860162000598565b91505092915050565b6000815190506200064981620009d6565b92915050565b600080600080600060a086880312156200066857600080fd5b600086015167ffffffffffffffff8111156200068357600080fd5b62000691888289016200060b565b9550506020620006a48882890162000638565b9450506040620006b788828901620005dd565b9350506060620006ca88828901620005dd565b9250506080620006dd88828901620005f4565b9150509295509295909350565b6000620006f960208362000792565b9150620007068262000979565b602082019050919050565b600060208201905081810360008301526200072c81620006ea565b9050919050565b60006200073f62000752565b90506200074d828262000857565b919050565b6000604051905090565b600067ffffffffffffffff8211156200077a576200077962000939565b5b620007858262000968565b9050602081019050919050565b600082825260208201905092915050565b6000620007b082620007c1565b9050919050565b6000819050919050565b600073ffffffffffffffffffffffffffffffffffffffff82169050919050565b6000819050919050565b60005b838110156200080b578082015181840152602081019050620007ee565b838111156200081b576000848401525b50505050565b600060028204905060018216806200083a57607f821691505b602082108114156200085157620008506200090a565b5b50919050565b620008628262000968565b810181811067ffffffffffffffff8211171562000884576200088362000939565b5b80604052505050565b60006200089a82620007e1565b91507fffffffffffffffffffffffffffffffffffffffffffffffffffffffffffffffff821415620008d057620008cf620008db565b5b600182019050919050565b7f4e487b7100000000000000000000000000000000000000000000000000000000600052601160045260246000fd5b7f4e487b7100000000000000000000000000000000000000000000000000000000600052602260045260246000fd5b7f4e487b7100000000000000000000000000000000000000000000000000000000600052604160045260246000fd5b6000601f19601f8301169050919050565b7f4f776e61626c653a2063616c6c6572206973206e6f7420746865206f776e6572600082015250565b620009ad81620007a3565b8114620009b957600080fd5b50565b620009c781620007b7565b8114620009d357600080fd5b50565b620009e181620007e1565b8114620009ed57600080fd5b50565b60805160601c60a05160601c615d1062000a2a600039600081816119f80152612ccf0152600081816117200152612c930152615d106000f3fe6080604052600436106102725760003560e01c8063721c492c1161014f578063b2992bb0116100c1578063d547cfb71161007a578063d547cfb71461097d578063e7cd4a04146109a8578063e985e9c5146109d1578063f2fde38b14610a0e578063f99031a714610a37578063fdf5a49f14610a7457610272565b8063b2992bb01461086f578063b88d4fde14610898578063bedb86fb146108c1578063bf7b766d146108ea578063c87b56dd14610915578063d09135051461095257610272565b80638da5cb5b116101135780638da5cb5b1461075f57806394985ddd1461078a57806395d89b41146107b3578063967d61d9146107de578063a22cb4651461081b578063aa3d92fb1461084457610272565b8063721c492c146106995780637f81be69146106b5578063853828b6146106f25780638d041988146107095780638d859f3e1461073457610272565b80633502a716116101e85780634f6ccce7116101ac5780634f6ccce7146105775780634f8e2fdf146105b457806355f804b3146105df5780636352211e1461060857806370a0823114610645578063715018a61461068257610272565b80633502a716146104905780633ad10ef6146104bb5780633e3ca9d3146104e657806342842e0e14610511578063438b63001461053a57610272565b80632042e5c21161023a5780632042e5c21461037057806323b872dd1461039957806326a49e37146103c25780632b799146146103ff5780632f745c591461042857806333b608631461046557610272565b806301ffc9a71461027757806306fdde03146102b4578063081812fc146102df578063095ea7b31461031c57806318160ddd14610345575b600080fd5b34801561028357600080fd5b5061029e60048036038101906102999190614345565b610a9f565b6040516102ab9190614b61565b60405180910390f35b3480156102c057600080fd5b506102c9610b19565b6040516102d69190614bea565b60405180910390f35b3480156102eb57600080fd5b50610306600480360381019061030191906143d8565b610bab565b6040516103139190614a9a565b60405180910390f35b34801561032857600080fd5b50610343600480360381019061033e91906141fe565b610c30565b005b34801561035157600080fd5b5061035a610d48565b6040516103679190614fcc565b60405180910390f35b34801561037c57600080fd5b5061039760048036038101906103929190614093565b610d55565b005b3480156103a557600080fd5b506103c060048036038101906103bb91906140f8565b610eb8565b005b3480156103ce57600080fd5b506103e960048036038101906103e491906143d8565b610f18565b6040516103f69190614fcc565b60405180910390f35b34801561040b57600080fd5b50610426600480360381019061042191906143d8565b610f3b565b005b34801561043457600080fd5b5061044f600480360381019061044a91906141fe565b610fc9565b60405161045c9190614fcc565b60405180910390f35b34801561047157600080fd5b5061047a61106e565b6040516104879190614a9a565b60405180910390f35b34801561049c57600080fd5b506104a5611094565b6040516104b29190614fcc565b60405180910390f35b3480156104c757600080fd5b506104d061109a565b6040516104dd9190614a9a565b60405180910390f35b3480156104f257600080fd5b506104fb6110b2565b6040516105089190614b61565b60405180910390f35b34801561051d57600080fd5b50610538600480360381019061053391906140f8565b6110c9565b005b34801561054657600080fd5b50610561600480360381019061055c9190614093565b6110e9565b60405161056e9190614b3f565b60405180910390f35b34801561058357600080fd5b5061059e600480360381019061059991906143d8565b6111e3565b6040516105ab9190614fcc565b60405180910390f35b3480156105c057600080fd5b506105c961127a565b6040516105d69190614a9a565b60405180910390f35b3480156105eb57600080fd5b5061060660048036038101906106019190614397565b6112a0565b005b34801561061457600080fd5b5061062f600480360381019061062a91906143d8565b611336565b60405161063c9190614a9a565b60405180910390f35b34801561065157600080fd5b5061066c60048036038101906106679190614093565b6113e8565b6040516106799190614fcc565b60405180910390f35b34801561068e57600080fd5b506106976114a0565b005b6106b360048036038101906106ae919061423a565b611528565b005b3480156106c157600080fd5b506106dc60048036038101906106d791906143d8565b6118a2565b6040516106e99190614a9a565b60405180910390f35b3480156106fe57600080fd5b506107076118df565b005b34801561071557600080fd5b5061071e6119b4565b60405161072b9190614fcc565b60405180910390f35b34801561074057600080fd5b506107496119c1565b6040516107569190614fcc565b60405180910390f35b34801561076b57600080fd5b506107746119cc565b6040516107819190614a9a565b60405180910390f35b34801561079657600080fd5b506107b160048036038101906107ac9190614309565b6119f6565b005b3480156107bf57600080fd5b506107c8611a92565b6040516107d59190614bea565b60405180910390f35b3480156107ea57600080fd5b506108056004803603810190610800919061442a565b611b24565b6040516108129190614b3f565b60405180910390f35b34801561082757600080fd5b50610842600480360381019061083d91906141c2565b611c57565b005b34801561085057600080fd5b50610859611dd8565b6040516108669190614a9a565b60405180910390f35b34801561087b57600080fd5b5061089660048036038101906108919190614276565b611df0565b005b3480156108a457600080fd5b506108bf60048036038101906108ba9190614147565b611fad565b005b3480156108cd57600080fd5b506108e860048036038101906108e391906142b7565b61200f565b005b3480156108f657600080fd5b506108ff6120ee565b60405161090c9190614fcc565b60405180910390f35b34801561092157600080fd5b5061093c600480360381019061093791906143d8565b6120f3565b6040516109499190614bea565b60405180910390f35b34801561095e57600080fd5b5061096761219a565b6040516109749190614a9a565b60405180910390f35b34801561098957600080fd5b506109926121b2565b60405161099f9190614bea565b60405180910390f35b3480156109b457600080fd5b506109cf60048036038101906109ca9190614093565b612240565b005b3480156109dd57600080fd5b506109f860048036038101906109f391906140bc565b6123a4565b604051610a059190614b61565b60405180910390f35b348015610a1a57600080fd5b50610a356004803603810190610a309190614093565b612438565b005b348015610a4357600080fd5b50610a5e6004803603810190610a599190614093565b612530565b604051610a6b9190614b61565b60405180910390f35b348015610a8057600080fd5b50610a89612602565b604051610a969190614fcc565b60405180910390f35b60007f780e9d63000000000000000000000000000000000000000000000000000000007bffffffffffffffffffffffffffffffffffffffffffffffffffffffff1916827bffffffffffffffffffffffffffffffffffffffffffffffffffffffff19161480610b125750610b118261261e565b5b9050919050565b606060008054610b2890615337565b80601f0160208091040260200160405190810160405280929190818152602001828054610b5490615337565b8015610ba15780601f10610b7657610100808354040283529160200191610ba1565b820191906000526020600020905b815481529060010190602001808311610b8457829003601f168201915b5050505050905090565b6000610bb682612700565b610bf5576040517f08c379a0000000000000000000000000000000000000000000000000000000008152600401610bec90614dcc565b60405180910390fd5b6004600083815260200190815260200160002060009054906101000a900473ffffffffffffffffffffffffffffffffffffffff169050919050565b6000610c3b82611336565b90508073ffffffffffffffffffffffffffffffffffffffff168373ffffffffffffffffffffffffffffffffffffffff161415610cac576040517f08c379a0000000000000000000000000000000000000000000000000000000008152600401610ca390614ecc565b60405180910390fd5b8073ffffffffffffffffffffffffffffffffffffffff16610ccb61276c565b73ffffffffffffffffffffffffffffffffffffffff161480610cfa5750610cf981610cf461276c565b6123a4565b5b610d39576040517f08c379a0000000000000000000000000000000000000000000000000000000008152600401610d3090614d2c565b60405180910390fd5b610d438383612774565b505050565b6000600880549050905090565b610d5d61276c565b73ffffffffffffffffffffffffffffffffffffffff16610d7b6119cc565b73ffffffffffffffffffffffffffffffffffffffff1614610dd1576040517f08c379a0000000000000000000000000000000000000000000000000000000008152600401610dc890614dec565b60405180910390fd5b601360008273ffffffffffffffffffffffffffffffffffffffff1673ffffffffffffffffffffffffffffffffffffffff16815260200190815260200160002060009054906101000a900460ff16610e5d576040517f08c379a0000000000000000000000000000000000000000000000000000000008152600401610e5490614eac565b60405180910390fd5b6000601360008373ffffffffffffffffffffffffffffffffffffffff1673ffffffffffffffffffffffffffffffffffffffff16815260200190815260200160002060006101000a81548160ff02191690831515021790555050565b610ec9610ec361276c565b8261282d565b610f08576040517f08c379a0000000000000000000000000000000000000000000000000000000008152600401610eff90614f4c565b60405180910390fd5b610f1383838361290b565b505050565b6000610f348266470de4df820000612b6790919063ffffffff16565b9050919050565b610f4361276c565b73ffffffffffffffffffffffffffffffffffffffff16610f616119cc565b73ffffffffffffffffffffffffffffffffffffffff1614610fb7576040517f08c379a0000000000000000000000000000000000000000000000000000000008152600401610fae90614dec565b60405180910390fd5b80600c81905550610fc6612b7d565b50565b6000610fd4836113e8565b8210611015576040517f08c379a000000000000000000000000000000000000000000000000000000000815260040161100c90614c0c565b60405180910390fd5b600660008473ffffffffffffffffffffffffffffffffffffffff1673ffffffffffffffffffffffffffffffffffffffff168152602001908152602001600020600083815260200190815260200160002054905092915050565b601060009054906101000a900473ffffffffffffffffffffffffffffffffffffffff1681565b600c5481565b7394da7d3d5f83a7253a2b96427d69c971a4bac6df81565b6000601460009054906101000a900460ff16905090565b6110e483838360405180602001604052806000815250611fad565b505050565b606060006110f6836113e8565b905060008167ffffffffffffffff81111561113a577f4e487b7100000000000000000000000000000000000000000000000000000000600052604160045260246000fd5b6040519080825280602002602001820160405280156111685781602001602082028036833780820191505090505b50905060005b828110156111d8576111808582610fc9565b8282815181106111b9577f4e487b7100000000000000000000000000000000000000000000000000000000600052603260045260246000fd5b60200260200101818152505080806111d09061539a565b91505061116e565b508092505050919050565b60006111ed610d48565b821061122e576040517f08c379a000000000000000000000000000000000000000000000000000000000815260040161122590614f8c565b60405180910390fd5b60088281548110611268577f4e487b7100000000000000000000000000000000000000000000000000000000600052603260045260246000fd5b90600052602060002001549050919050565b600f60009054906101000a900473ffffffffffffffffffffffffffffffffffffffff1681565b6112a861276c565b73ffffffffffffffffffffffffffffffffffffffff166112c66119cc565b73ffffffffffffffffffffffffffffffffffffffff161461131c576040517f08c379a000000000000000000000000000000000000000000000000000000000815260040161131390614dec565b60405180910390fd5b8060159080519060200190611332929190613dcd565b5050565b6000806002600084815260200190815260200160002060009054906101000a900473ffffffffffffffffffffffffffffffffffffffff169050600073ffffffffffffffffffffffffffffffffffffffff168173ffffffffffffffffffffffffffffffffffffffff1614156113df576040517f08c379a00000000000000000000000000000000000000000000000000000000081526004016113d690614d6c565b60405180910390fd5b80915050919050565b60008073ffffffffffffffffffffffffffffffffffffffff168273ffffffffffffffffffffffffffffffffffffffff161415611459576040517f08c379a000000000000000000000000000000000000000000000000000000000815260040161145090614d4c565b60405180910390fd5b600360008373ffffffffffffffffffffffffffffffffffffffff1673ffffffffffffffffffffffffffffffffffffffff168152602001908152602001600020549050919050565b6114a861276c565b73ffffffffffffffffffffffffffffffffffffffff166114c66119cc565b73ffffffffffffffffffffffffffffffffffffffff161461151c576040517f08c379a000000000000000000000000000000000000000000000000000000000815260040161151390614dec565b60405180910390fd5b6115266000612bc9565b565b60006115326119b4565b1015611573576040517f08c379a000000000000000000000000000000000000000000000000000000000815260040161156a90614fac565b60405180910390fd5b601460009054906101000a900460ff161580156115da5750601360003373ffffffffffffffffffffffffffffffffffffffff1673ffffffffffffffffffffffffffffffffffffffff16815260200190815260200160002060009054906101000a900460ff16155b611619576040517f08c379a000000000000000000000000000000000000000000000000000000000815260040161161090614eec565b60405180910390fd5b6000611623612602565b905060028260ff16111561166c576040517f08c379a000000000000000000000000000000000000000000000000000000000815260040161166390614cec565b60405180910390fd5b600c548260ff168261167e9190615121565b11156116bf576040517f08c379a00000000000000000000000000000000000000000000000000000000081526004016116b690614cec565b60405180910390fd5b6116cb8260ff16610f18565b34101561170d576040517f08c379a000000000000000000000000000000000000000000000000000000000815260040161170490614e6c565b60405180910390fd5b8160ff16600e5461171e91906151a8565b7f000000000000000000000000000000000000000000000000000000000000000073ffffffffffffffffffffffffffffffffffffffff166370a08231306040518263ffffffff1660e01b81526004016117779190614a9a565b60206040518083038186803b15801561178f57600080fd5b505afa1580156117a3573d6000803e3d6000fd5b505050506040513d601f19601f820116820180604052508101906117c79190614401565b1015611808576040517f08c379a00000000000000000000000000000000000000000000000000000000081526004016117ff90614ccc565b60405180910390fd5b60005b6001836118189190615236565b60ff168160ff161161189c576000611834600d54600e54612c8f565b9050846012600083815260200190815260200160002060006101000a81548173ffffffffffffffffffffffffffffffffffffffff021916908373ffffffffffffffffffffffffffffffffffffffff160217905550508080611894906153e3565b91505061180b565b50505050565b60006002600083815260200190815260200160002060009054906101000a900473ffffffffffffffffffffffffffffffffffffffff169050919050565b6118e761276c565b73ffffffffffffffffffffffffffffffffffffffff166119056119cc565b73ffffffffffffffffffffffffffffffffffffffff161461195b576040517f08c379a000000000000000000000000000000000000000000000000000000000815260040161195290614dec565b60405180910390fd5b60004790506000811161196d57600080fd5b6119b173c09eac15f9ba6462e8e4612af7c431e1cfe08b876119ac606461199e606486612b6790919063ffffffff16565b612df190919063ffffffff16565b612e07565b50565b6000601180549050905090565b66470de4df82000081565b6000600b60009054906101000a900473ffffffffffffffffffffffffffffffffffffffff16905090565b7f000000000000000000000000000000000000000000000000000000000000000073ffffffffffffffffffffffffffffffffffffffff163373ffffffffffffffffffffffffffffffffffffffff1614611a84576040517f08c379a0000000000000000000000000000000000000000000000000000000008152600401611a7b90614e4c565b60405180910390fd5b611a8e8282612eb8565b5050565b606060018054611aa190615337565b80601f0160208091040260200160405190810160405280929190818152602001828054611acd90615337565b8015611b1a5780601f10611aef57610100808354040283529160200191611b1a565b820191906000526020600020905b815481529060010190602001808311611afd57829003601f168201915b5050505050905090565b606060008267ffffffffffffffff811115611b68577f4e487b7100000000000000000000000000000000000000000000000000000000600052604160045260246000fd5b604051908082528060200260200182016040528015611b965781602001602082028036833780820191505090505b50905060005b83811015611c4c5760008582611bb29190615121565b9050600073ffffffffffffffffffffffffffffffffffffffff16611bd5826118a2565b73ffffffffffffffffffffffffffffffffffffffff161415611c385780838381518110611c2b577f4e487b7100000000000000000000000000000000000000000000000000000000600052603260045260246000fd5b6020026020010181815250505b508080611c449061539a565b915050611b9c565b508091505092915050565b611c5f61276c565b73ffffffffffffffffffffffffffffffffffffffff168273ffffffffffffffffffffffffffffffffffffffff161415611ccd576040517f08c379a0000000000000000000000000000000000000000000000000000000008152600401611cc490614cac565b60405180910390fd5b8060056000611cda61276c565b73ffffffffffffffffffffffffffffffffffffffff1673ffffffffffffffffffffffffffffffffffffffff16815260200190815260200160002060008473ffffffffffffffffffffffffffffffffffffffff1673ffffffffffffffffffffffffffffffffffffffff16815260200190815260200160002060006101000a81548160ff0219169083151502179055508173ffffffffffffffffffffffffffffffffffffffff16611d8761276c565b73ffffffffffffffffffffffffffffffffffffffff167f17307eab39ab6107e8899845ad3d59bd9653f200f220920489ca2b5937696c3183604051611dcc9190614b61565b60405180910390a35050565b73c09eac15f9ba6462e8e4612af7c431e1cfe08b8781565b611df861276c565b73ffffffffffffffffffffffffffffffffffffffff16611e166119cc565b73ffffffffffffffffffffffffffffffffffffffff1614611e6c576040517f08c379a0000000000000000000000000000000000000000000000000000000008152600401611e6390614dec565b60405180910390fd5b601460009054906101000a900460ff16611ebb576040517f08c379a0000000000000000000000000000000000000000000000000000000008152600401611eb290614e8c565b60405180910390fd5b60005b8151811015611fa957600073ffffffffffffffffffffffffffffffffffffffff16611f28838381518110611f1b577f4e487b7100000000000000000000000000000000000000000000000000000000600052603260045260246000fd5b60200260200101516118a2565b73ffffffffffffffffffffffffffffffffffffffff161415611f9657611f95611f4f6119cc565b838381518110611f88577f4e487b7100000000000000000000000000000000000000000000000000000000600052603260045260246000fd5b6020026020010151612f59565b5b8080611fa19061539a565b915050611ebe565b5050565b611fbe611fb861276c565b8361282d565b611ffd576040517f08c379a0000000000000000000000000000000000000000000000000000000008152600401611ff490614f4c565b60405180910390fd5b61200984848484612f94565b50505050565b61201761276c565b73ffffffffffffffffffffffffffffffffffffffff166120356119cc565b73ffffffffffffffffffffffffffffffffffffffff161461208b576040517f08c379a000000000000000000000000000000000000000000000000000000000815260040161208290614dec565b60405180910390fd5b80601460006101000a81548160ff0219169083151502179055507f10e1c3fcaff06b68391033547e8f9bb8067d7c4a2e32659b0629153814d242d3601460009054906101000a900460ff166040516120e39190614b61565b60405180910390a150565b600181565b60606120fe82612700565b61213d576040517f08c379a000000000000000000000000000000000000000000000000000000000815260040161213490614e2c565b60405180910390fd5b6000612147612ff0565b905060008151116121675760405180602001604052806000815250612192565b8061217184613082565b604051602001612182929190614a61565b6040516020818303038152906040525b915050919050565b735db342fb039c1c85bec5fe89af6734621f421d8481565b601580546121bf90615337565b80601f01602080910402602001604051908101604052809291908181526020018280546121eb90615337565b80156122385780601f1061220d57610100808354040283529160200191612238565b820191906000526020600020905b81548152906001019060200180831161221b57829003601f168201915b505050505081565b61224861276c565b73ffffffffffffffffffffffffffffffffffffffff166122666119cc565b73ffffffffffffffffffffffffffffffffffffffff16146122bc576040517f08c379a00000000000000000000000000000000000000000000000000000000081526004016122b390614dec565b60405180910390fd5b601360008273ffffffffffffffffffffffffffffffffffffffff1673ffffffffffffffffffffffffffffffffffffffff16815260200190815260200160002060009054906101000a900460ff1615612349576040517f08c379a000000000000000000000000000000000000000000000000000000000815260040161234090614f0c565b60405180910390fd5b6001601360008373ffffffffffffffffffffffffffffffffffffffff1673ffffffffffffffffffffffffffffffffffffffff16815260200190815260200160002060006101000a81548160ff02191690831515021790555050565b6000600560008473ffffffffffffffffffffffffffffffffffffffff1673ffffffffffffffffffffffffffffffffffffffff16815260200190815260200160002060008373ffffffffffffffffffffffffffffffffffffffff1673ffffffffffffffffffffffffffffffffffffffff16815260200190815260200160002060009054906101000a900460ff16905092915050565b61244061276c565b73ffffffffffffffffffffffffffffffffffffffff1661245e6119cc565b73ffffffffffffffffffffffffffffffffffffffff16146124b4576040517f08c379a00000000000000000000000000000000000000000000000000000000081526004016124ab90614dec565b60405180910390fd5b600073ffffffffffffffffffffffffffffffffffffffff168173ffffffffffffffffffffffffffffffffffffffff161415612524576040517f08c379a000000000000000000000000000000000000000000000000000000000815260040161251b90614c4c565b60405180910390fd5b61252d81612bc9565b50565b600061253a61276c565b73ffffffffffffffffffffffffffffffffffffffff166125586119cc565b73ffffffffffffffffffffffffffffffffffffffff16146125ae576040517f08c379a00000000000000000000000000000000000000000000000000000000081526004016125a590614dec565b60405180910390fd5b601360008373ffffffffffffffffffffffffffffffffffffffff1673ffffffffffffffffffffffffffffffffffffffff16815260200190815260200160002060009054906101000a900460ff169050919050565b600061260c6119b4565b600c546126199190615202565b905090565b60007f80ac58cd000000000000000000000000000000000000000000000000000000007bffffffffffffffffffffffffffffffffffffffffffffffffffffffff1916827bffffffffffffffffffffffffffffffffffffffffffffffffffffffff191614806126e957507f5b5e139f000000000000000000000000000000000000000000000000000000007bffffffffffffffffffffffffffffffffffffffffffffffffffffffff1916827bffffffffffffffffffffffffffffffffffffffffffffffffffffffff1916145b806126f957506126f88261322f565b5b9050919050565b60008073ffffffffffffffffffffffffffffffffffffffff166002600084815260200190815260200160002060009054906101000a900473ffffffffffffffffffffffffffffffffffffffff1673ffffffffffffffffffffffffffffffffffffffff1614159050919050565b600033905090565b816004600083815260200190815260200160002060006101000a81548173ffffffffffffffffffffffffffffffffffffffff021916908373ffffffffffffffffffffffffffffffffffffffff160217905550808273ffffffffffffffffffffffffffffffffffffffff166127e783611336565b73ffffffffffffffffffffffffffffffffffffffff167f8c5be1e5ebec7d5bd14f71427d1e84f3dd0314c0f7b2291e5b200ac8c7c3b92560405160405180910390a45050565b600061283882612700565b612877576040517f08c379a000000000000000000000000000000000000000000000000000000000815260040161286e90614d0c565b60405180910390fd5b600061288283611336565b90508073ffffffffffffffffffffffffffffffffffffffff168473ffffffffffffffffffffffffffffffffffffffff1614806128f157508373ffffffffffffffffffffffffffffffffffffffff166128d984610bab565b73ffffffffffffffffffffffffffffffffffffffff16145b80612902575061290181856123a4565b5b91505092915050565b8273ffffffffffffffffffffffffffffffffffffffff1661292b82611336565b73ffffffffffffffffffffffffffffffffffffffff1614612981576040517f08c379a000000000000000000000000000000000000000000000000000000000815260040161297890614e0c565b60405180910390fd5b600073ffffffffffffffffffffffffffffffffffffffff168273ffffffffffffffffffffffffffffffffffffffff1614156129f1576040517f08c379a00000000000000000000000000000000000000000000000000000000081526004016129e890614c8c565b60405180910390fd5b6129fc838383613299565b612a07600082612774565b6001600360008573ffffffffffffffffffffffffffffffffffffffff1673ffffffffffffffffffffffffffffffffffffffff1681526020019081526020016000206000828254612a579190615202565b925050819055506001600360008473ffffffffffffffffffffffffffffffffffffffff1673ffffffffffffffffffffffffffffffffffffffff1681526020019081526020016000206000828254612aae9190615121565b92505081905550816002600083815260200190815260200160002060006101000a81548173ffffffffffffffffffffffffffffffffffffffff021916908373ffffffffffffffffffffffffffffffffffffffff160217905550808273ffffffffffffffffffffffffffffffffffffffff168473ffffffffffffffffffffffffffffffffffffffff167fddf252ad1be2c89b69c2b068fc378daa952ba7f163c4a11628f55a4df523b3ef60405160405180910390a4505050565b60008183612b7591906151a8565b905092915050565b60005b600c54811015612bc65760118190806001815401808255809150506001900390600052602060002001600090919091909150558080612bbe9061539a565b915050612b80565b50565b6000600b60009054906101000a900473ffffffffffffffffffffffffffffffffffffffff16905081600b60006101000a81548173ffffffffffffffffffffffffffffffffffffffff021916908373ffffffffffffffffffffffffffffffffffffffff1602179055508173ffffffffffffffffffffffffffffffffffffffff168173ffffffffffffffffffffffffffffffffffffffff167f8be0079c531659141344cd1fd0a4f28419497f9722a3daafe3b4186f6b6457e060405160405180910390a35050565b60007f000000000000000000000000000000000000000000000000000000000000000073ffffffffffffffffffffffffffffffffffffffff16634000aea07f000000000000000000000000000000000000000000000000000000000000000084866000604051602001612d03929190614b7c565b6040516020818303038152906040526040518463ffffffff1660e01b8152600401612d3093929190614b01565b602060405180830381600087803b158015612d4a57600080fd5b505af1158015612d5e573d6000803e3d6000fd5b505050506040513d601f19601f82011682018060405250810190612d8291906142e0565b506000612da584600030600a6000898152602001908152602001600020546133ad565b90506001600a600086815260200190815260200160002054612dc79190615121565b600a600086815260200190815260200160002081905550612de884826133e9565b91505092915050565b60008183612dff9190615177565b905092915050565b60008273ffffffffffffffffffffffffffffffffffffffff1682604051612e2d90614a85565b60006040518083038185875af1925050503d8060008114612e6a576040519150601f19603f3d011682016040523d82523d6000602084013e612e6f565b606091505b5050905080612eb3576040517f08c379a0000000000000000000000000000000000000000000000000000000008152600401612eaa90614f2c565b60405180910390fd5b505050565b600060118054905082612ecb9190615421565b905060006012600085815260200190815260200160002060009054906101000a900473ffffffffffffffffffffffffffffffffffffffff169050612f538160118481548110612f43577f4e487b7100000000000000000000000000000000000000000000000000000000600052603260045260246000fd5b906000526020600020015461341c565b50505050565b612f638282613433565b807f5bca338135f114fbfc9ea943cbbd4615fbfb5164248c8ba97773143919daf7c260405160405180910390a25050565b612f9f84848461290b565b612fab84848484613451565b612fea576040517f08c379a0000000000000000000000000000000000000000000000000000000008152600401612fe190614c2c565b60405180910390fd5b50505050565b606060158054612fff90615337565b80601f016020809104026020016040519081016040528092919081815260200182805461302b90615337565b80156130785780601f1061304d57610100808354040283529160200191613078565b820191906000526020600020905b81548152906001019060200180831161305b57829003601f168201915b5050505050905090565b606060008214156130ca576040518060400160405280600181526020017f3000000000000000000000000000000000000000000000000000000000000000815250905061322a565b600082905060005b600082146130fc5780806130e59061539a565b915050600a826130f59190615177565b91506130d2565b60008167ffffffffffffffff81111561313e577f4e487b7100000000000000000000000000000000000000000000000000000000600052604160045260246000fd5b6040519080825280601f01601f1916602001820160405280156131705781602001600182028036833780820191505090505b5090505b60008514613223576001826131899190615202565b9150600a856131989190615421565b60306131a49190615121565b60f81b8183815181106131e0577f4e487b7100000000000000000000000000000000000000000000000000000000600052603260045260246000fd5b60200101907effffffffffffffffffffffffffffffffffffffffffffffffffffffffffffff1916908160001a905350600a8561321c9190615177565b9450613174565b8093505050505b919050565b60007f01ffc9a7000000000000000000000000000000000000000000000000000000007bffffffffffffffffffffffffffffffffffffffffffffffffffffffff1916827bffffffffffffffffffffffffffffffffffffffffffffffffffffffff1916149050919050565b6132a48383836135e8565b600073ffffffffffffffffffffffffffffffffffffffff168373ffffffffffffffffffffffffffffffffffffffff1614156132e7576132e2816135ed565b613326565b8173ffffffffffffffffffffffffffffffffffffffff168373ffffffffffffffffffffffffffffffffffffffff1614613325576133248382613636565b5b5b600073ffffffffffffffffffffffffffffffffffffffff168273ffffffffffffffffffffffffffffffffffffffff16141561336957613364816137a3565b6133a8565b8273ffffffffffffffffffffffffffffffffffffffff168273ffffffffffffffffffffffffffffffffffffffff16146133a7576133a682826138e6565b5b5b505050565b6000848484846040516020016133c69493929190614ba5565b6040516020818303038152906040528051906020012060001c9050949350505050565b600082826040516020016133fe929190614a35565b60405160208183030381529060405280519060200120905092915050565b6134268282612f59565b61342f81613965565b5050565b61344d828260405180602001604052806000815250613af2565b5050565b60006134728473ffffffffffffffffffffffffffffffffffffffff16613b4d565b156135db578373ffffffffffffffffffffffffffffffffffffffff1663150b7a0261349b61276c565b8786866040518563ffffffff1660e01b81526004016134bd9493929190614ab5565b602060405180830381600087803b1580156134d757600080fd5b505af192505050801561350857506040513d601f19601f82011682018060405250810190613505919061436e565b60015b61358b573d8060008114613538576040519150601f19603f3d011682016040523d82523d6000602084013e61353d565b606091505b50600081511415613583576040517f08c379a000000000000000000000000000000000000000000000000000000000815260040161357a90614c2c565b60405180910390fd5b805181602001fd5b63150b7a0260e01b7bffffffffffffffffffffffffffffffffffffffffffffffffffffffff1916817bffffffffffffffffffffffffffffffffffffffffffffffffffffffff1916149150506135e0565b600190505b949350505050565b505050565b6008805490506009600083815260200190815260200160002081905550600881908060018154018082558091505060019003906000526020600020016000909190919091505550565b60006001613643846113e8565b61364d9190615202565b9050600060076000848152602001908152602001600020549050818114613732576000600660008673ffffffffffffffffffffffffffffffffffffffff1673ffffffffffffffffffffffffffffffffffffffff168152602001908152602001600020600084815260200190815260200160002054905080600660008773ffffffffffffffffffffffffffffffffffffffff1673ffffffffffffffffffffffffffffffffffffffff168152602001908152602001600020600084815260200190815260200160002081905550816007600083815260200190815260200160002081905550505b6007600084815260200190815260200160002060009055600660008573ffffffffffffffffffffffffffffffffffffffff1673ffffffffffffffffffffffffffffffffffffffff16815260200190815260200160002060008381526020019081526020016000206000905550505050565b600060016008805490506137b79190615202565b905060006009600084815260200190815260200160002054905060006008838154811061380d577f4e487b7100000000000000000000000000000000000000000000000000000000600052603260045260246000fd5b906000526020600020015490508060088381548110613855577f4e487b7100000000000000000000000000000000000000000000000000000000600052603260045260246000fd5b9060005260206000200181905550816009600083815260200190815260200160002081905550600960008581526020019081526020016000206000905560088054806138ca577f4e487b7100000000000000000000000000000000000000000000000000000000600052603160045260246000fd5b6001900381819060005260206000200160009055905550505050565b60006138f1836113e8565b905081600660008573ffffffffffffffffffffffffffffffffffffffff1673ffffffffffffffffffffffffffffffffffffffff168152602001908152602001600020600083815260200190815260200160002081905550806007600084815260200190815260200160002081905550505050565b6000601180549050116139ad576040517f08c379a00000000000000000000000000000000000000000000000000000000081526004016139a490614d8c565b60405180910390fd5b60006139b882613b60565b9050601180549050811115613a02576040517f08c379a00000000000000000000000000000000000000000000000000000000081526004016139f990614f6c565b60405180910390fd5b60116001601180549050613a169190615202565b81548110613a4d577f4e487b7100000000000000000000000000000000000000000000000000000000600052603260045260246000fd5b906000526020600020015460118281548110613a92577f4e487b7100000000000000000000000000000000000000000000000000000000600052603260045260246000fd5b90600052602060002001819055506011805480613ad8577f4e487b7100000000000000000000000000000000000000000000000000000000600052603160045260246000fd5b600190038181906000526020600020016000905590555050565b613afc8383613bff565b613b096000848484613451565b613b48576040517f08c379a0000000000000000000000000000000000000000000000000000000008152600401613b3f90614c2c565b60405180910390fd5b505050565b600080823b905060008111915050919050565b600080600090505b601180549050811015613be457600060118281548110613bb1577f4e487b7100000000000000000000000000000000000000000000000000000000600052603260045260246000fd5b9060005260206000200154905083811415613bd0578192505050613bfa565b508080613bdc9061539a565b915050613b68565b506064601180549050613bf79190615121565b90505b919050565b600073ffffffffffffffffffffffffffffffffffffffff168273ffffffffffffffffffffffffffffffffffffffff161415613c6f576040517f08c379a0000000000000000000000000000000000000000000000000000000008152600401613c6690614dac565b60405180910390fd5b613c7881612700565b15613cb8576040517f08c379a0000000000000000000000000000000000000000000000000000000008152600401613caf90614c6c565b60405180910390fd5b613cc460008383613299565b6001600360008473ffffffffffffffffffffffffffffffffffffffff1673ffffffffffffffffffffffffffffffffffffffff1681526020019081526020016000206000828254613d149190615121565b92505081905550816002600083815260200190815260200160002060006101000a81548173ffffffffffffffffffffffffffffffffffffffff021916908373ffffffffffffffffffffffffffffffffffffffff160217905550808273ffffffffffffffffffffffffffffffffffffffff16600073ffffffffffffffffffffffffffffffffffffffff167fddf252ad1be2c89b69c2b068fc378daa952ba7f163c4a11628f55a4df523b3ef60405160405180910390a45050565b828054613dd990615337565b90600052602060002090601f016020900481019282613dfb5760008555613e42565b82601f10613e1457805160ff1916838001178555613e42565b82800160010185558215613e42579182015b82811115613e41578251825591602001919060010190613e26565b5b509050613e4f9190613e53565b5090565b5b80821115613e6c576000816000905550600101613e54565b5090565b6000613e83613e7e8461500c565b614fe7565b90508083825260208201905082856020860282011115613ea257600080fd5b60005b85811015613ed25781613eb88882614054565b845260208401935060208301925050600181019050613ea5565b5050509392505050565b6000613eef613eea84615038565b614fe7565b905082815260208101848484011115613f0757600080fd5b613f128482856152f5565b509392505050565b6000613f2d613f2884615069565b614fe7565b905082815260208101848484011115613f4557600080fd5b613f508482856152f5565b509392505050565b600081359050613f6781615c50565b92915050565b600082601f830112613f7e57600080fd5b8135613f8e848260208601613e70565b91505092915050565b600081359050613fa681615c67565b92915050565b600081519050613fbb81615c67565b92915050565b600081359050613fd081615c7e565b92915050565b600081359050613fe581615c95565b92915050565b600081519050613ffa81615c95565b92915050565b600082601f83011261401157600080fd5b8135614021848260208601613edc565b91505092915050565b600082601f83011261403b57600080fd5b813561404b848260208601613f1a565b91505092915050565b60008135905061406381615cac565b92915050565b60008151905061407881615cac565b92915050565b60008135905061408d81615cc3565b92915050565b6000602082840312156140a557600080fd5b60006140b384828501613f58565b91505092915050565b600080604083850312156140cf57600080fd5b60006140dd85828601613f58565b92505060206140ee85828601613f58565b9150509250929050565b60008060006060848603121561410d57600080fd5b600061411b86828701613f58565b935050602061412c86828701613f58565b925050604061413d86828701614054565b9150509250925092565b6000806000806080858703121561415d57600080fd5b600061416b87828801613f58565b945050602061417c87828801613f58565b935050604061418d87828801614054565b925050606085013567ffffffffffffffff8111156141aa57600080fd5b6141b687828801614000565b91505092959194509250565b600080604083850312156141d557600080fd5b60006141e385828601613f58565b92505060206141f485828601613f97565b9150509250929050565b6000806040838503121561421157600080fd5b600061421f85828601613f58565b925050602061423085828601614054565b9150509250929050565b6000806040838503121561424d57600080fd5b600061425b85828601613f58565b925050602061426c8582860161407e565b9150509250929050565b60006020828403121561428857600080fd5b600082013567ffffffffffffffff8111156142a257600080fd5b6142ae84828501613f6d565b91505092915050565b6000602082840312156142c957600080fd5b60006142d784828501613f97565b91505092915050565b6000602082840312156142f257600080fd5b600061430084828501613fac565b91505092915050565b6000806040838503121561431c57600080fd5b600061432a85828601613fc1565b925050602061433b85828601614054565b9150509250929050565b60006020828403121561435757600080fd5b600061436584828501613fd6565b91505092915050565b60006020828403121561438057600080fd5b600061438e84828501613feb565b91505092915050565b6000602082840312156143a957600080fd5b600082013567ffffffffffffffff8111156143c357600080fd5b6143cf8482850161402a565b91505092915050565b6000602082840312156143ea57600080fd5b60006143f884828501614054565b91505092915050565b60006020828403121561441357600080fd5b600061442184828501614069565b91505092915050565b6000806040838503121561443d57600080fd5b600061444b85828601614054565b925050602061445c85828601614054565b9150509250929050565b60006144728383614a00565b60208301905092915050565b6144878161526a565b82525050565b6000614498826150aa565b6144a281856150d8565b93506144ad8361509a565b8060005b838110156144de5781516144c58882614466565b97506144d0836150cb565b9250506001810190506144b1565b5085935050505092915050565b6144f48161527c565b82525050565b61450381615288565b82525050565b61451a61451582615288565b61540d565b82525050565b600061452b826150b5565b61453581856150e9565b9350614545818560208601615304565b61454e8161550e565b840191505092915050565b6000614564826150c0565b61456e8185615105565b935061457e818560208601615304565b6145878161550e565b840191505092915050565b600061459d826150c0565b6145a78185615116565b93506145b7818560208601615304565b80840191505092915050565b60006145d0602b83615105565b91506145db8261551f565b604082019050919050565b60006145f3603283615105565b91506145fe8261556e565b604082019050919050565b6000614616602683615105565b9150614621826155bd565b604082019050919050565b6000614639601c83615105565b91506146448261560c565b602082019050919050565b600061465c602483615105565b915061466782615635565b604082019050919050565b600061467f601983615105565b915061468a82615684565b602082019050919050565b60006146a2602b83615105565b91506146ad826156ad565b604082019050919050565b60006146c5600983615105565b91506146d0826156fc565b602082019050919050565b60006146e8602c83615105565b91506146f382615725565b604082019050919050565b600061470b603883615105565b915061471682615774565b604082019050919050565b600061472e602a83615105565b9150614739826157c3565b604082019050919050565b6000614751602983615105565b915061475c82615812565b604082019050919050565b6000614774601183615105565b915061477f82615861565b602082019050919050565b6000614797602083615105565b91506147a28261588a565b602082019050919050565b60006147ba602c83615105565b91506147c5826158b3565b604082019050919050565b60006147dd602083615105565b91506147e882615902565b602082019050919050565b6000614800602983615105565b915061480b8261592b565b604082019050919050565b6000614823602f83615105565b915061482e8261597a565b604082019050919050565b6000614846601f83615105565b9150614851826159c9565b602082019050919050565b6000614869601183615105565b9150614874826159f2565b602082019050919050565b600061488c601083615105565b915061489782615a1b565b602082019050919050565b60006148af600f83615105565b91506148ba82615a44565b602082019050919050565b60006148d2602183615105565b91506148dd82615a6d565b604082019050919050565b60006148f5600e83615105565b915061490082615abc565b602082019050919050565b60006149186000836150fa565b915061492382615ae5565b600082019050919050565b600061493b600d83615105565b915061494682615ae8565b602082019050919050565b600061495e601083615105565b915061496982615b11565b602082019050919050565b6000614981603183615105565b915061498c82615b3a565b604082019050919050565b60006149a4602a83615105565b91506149af82615b89565b604082019050919050565b60006149c7602c83615105565b91506149d282615bd8565b604082019050919050565b60006149ea600883615105565b91506149f582615c27565b602082019050919050565b614a09816152de565b82525050565b614a18816152de565b82525050565b614a2f614a2a826152de565b615417565b82525050565b6000614a418285614509565b602082019150614a518284614a1e565b6020820191508190509392505050565b6000614a6d8285614592565b9150614a798284614592565b91508190509392505050565b6000614a908261490b565b9150819050919050565b6000602082019050614aaf600083018461447e565b92915050565b6000608082019050614aca600083018761447e565b614ad7602083018661447e565b614ae46040830185614a0f565b8181036060830152614af68184614520565b905095945050505050565b6000606082019050614b16600083018661447e565b614b236020830185614a0f565b8181036040830152614b358184614520565b9050949350505050565b60006020820190508181036000830152614b59818461448d565b905092915050565b6000602082019050614b7660008301846144eb565b92915050565b6000604082019050614b9160008301856144fa565b614b9e6020830184614a0f565b9392505050565b6000608082019050614bba60008301876144fa565b614bc76020830186614a0f565b614bd4604083018561447e565b614be16060830184614a0f565b95945050505050565b60006020820190508181036000830152614c048184614559565b905092915050565b60006020820190508181036000830152614c25816145c3565b9050919050565b60006020820190508181036000830152614c45816145e6565b9050919050565b60006020820190508181036000830152614c6581614609565b9050919050565b60006020820190508181036000830152614c858161462c565b9050919050565b60006020820190508181036000830152614ca58161464f565b9050919050565b60006020820190508181036000830152614cc581614672565b9050919050565b60006020820190508181036000830152614ce581614695565b9050919050565b60006020820190508181036000830152614d05816146b8565b9050919050565b60006020820190508181036000830152614d25816146db565b9050919050565b60006020820190508181036000830152614d45816146fe565b9050919050565b60006020820190508181036000830152614d6581614721565b9050919050565b60006020820190508181036000830152614d8581614744565b9050919050565b60006020820190508181036000830152614da581614767565b9050919050565b60006020820190508181036000830152614dc58161478a565b9050919050565b60006020820190508181036000830152614de5816147ad565b9050919050565b60006020820190508181036000830152614e05816147d0565b9050919050565b60006020820190508181036000830152614e25816147f3565b9050919050565b60006020820190508181036000830152614e4581614816565b9050919050565b60006020820190508181036000830152614e6581614839565b9050919050565b60006020820190508181036000830152614e858161485c565b9050919050565b60006020820190508181036000830152614ea58161487f565b9050919050565b60006020820190508181036000830152614ec5816148a2565b9050919050565b60006020820190508181036000830152614ee5816148c5565b9050919050565b60006020820190508181036000830152614f05816148e8565b9050919050565b60006020820190508181036000830152614f258161492e565b9050919050565b60006020820190508181036000830152614f4581614951565b9050919050565b60006020820190508181036000830152614f6581614974565b9050919050565b60006020820190508181036000830152614f8581614997565b9050919050565b60006020820190508181036000830152614fa5816149ba565b9050919050565b60006020820190508181036000830152614fc5816149dd565b9050919050565b6000602082019050614fe16000830184614a0f565b92915050565b6000614ff1615002565b9050614ffd8282615369565b919050565b6000604051905090565b600067ffffffffffffffff821115615027576150266154df565b5b602082029050602081019050919050565b600067ffffffffffffffff821115615053576150526154df565b5b61505c8261550e565b9050602081019050919050565b600067ffffffffffffffff821115615084576150836154df565b5b61508d8261550e565b9050602081019050919050565b6000819050602082019050919050565b600081519050919050565b600081519050919050565b600081519050919050565b6000602082019050919050565b600082825260208201905092915050565b600082825260208201905092915050565b600081905092915050565b600082825260208201905092915050565b600081905092915050565b600061512c826152de565b9150615137836152de565b9250827fffffffffffffffffffffffffffffffffffffffffffffffffffffffffffffffff0382111561516c5761516b615452565b5b828201905092915050565b6000615182826152de565b915061518d836152de565b92508261519d5761519c615481565b5b828204905092915050565b60006151b3826152de565b91506151be836152de565b9250817fffffffffffffffffffffffffffffffffffffffffffffffffffffffffffffffff04831182151516156151f7576151f6615452565b5b828202905092915050565b600061520d826152de565b9150615218836152de565b92508282101561522b5761522a615452565b5b828203905092915050565b6000615241826152e8565b915061524c836152e8565b92508282101561525f5761525e615452565b5b828203905092915050565b6000615275826152be565b9050919050565b60008115159050919050565b6000819050919050565b60007fffffffff0000000000000000000000000000000000000000000000000000000082169050919050565b600073ffffffffffffffffffffffffffffffffffffffff82169050919050565b6000819050919050565b600060ff82169050919050565b82818337600083830152505050565b60005b83811015615322578082015181840152602081019050615307565b83811115615331576000848401525b50505050565b6000600282049050600182168061534f57607f821691505b60208210811415615363576153626154b0565b5b50919050565b6153728261550e565b810181811067ffffffffffffffff82111715615391576153906154df565b5b80604052505050565b60006153a5826152de565b91507fffffffffffffffffffffffffffffffffffffffffffffffffffffffffffffffff8214156153d8576153d7615452565b5b600182019050919050565b60006153ee826152e8565b915060ff82141561540257615401615452565b5b600182019050919050565b6000819050919050565b6000819050919050565b600061542c826152de565b9150615437836152de565b92508261544757615446615481565b5b828206905092915050565b7f4e487b7100000000000000000000000000000000000000000000000000000000600052601160045260246000fd5b7f4e487b7100000000000000000000000000000000000000000000000000000000600052601260045260246000fd5b7f4e487b7100000000000000000000000000000000000000000000000000000000600052602260045260246000fd5b7f4e487b7100000000000000000000000000000000000000000000000000000000600052604160045260246000fd5b6000601f19601f8301169050919050565b7f455243373231456e756d657261626c653a206f776e657220696e646578206f7560008201527f74206f6620626f756e6473000000000000000000000000000000000000000000602082015250565b7f4552433732313a207472616e7366657220746f206e6f6e20455243373231526560008201527f63656976657220696d706c656d656e7465720000000000000000000000000000602082015250565b7f4f776e61626c653a206e6577206f776e657220697320746865207a65726f206160008201527f6464726573730000000000000000000000000000000000000000000000000000602082015250565b7f4552433732313a20746f6b656e20616c7265616479206d696e74656400000000600082015250565b7f4552433732313a207472616e7366657220746f20746865207a65726f2061646460008201527f7265737300000000000000000000000000000000000000000000000000000000602082015250565b7f4552433732313a20617070726f766520746f2063616c6c657200000000000000600082015250565b7f4e6f7420656e6f756768204c494e4b202d2066696c6c20636f6e74726163742060008201527f7769746820666175636574000000000000000000000000000000000000000000602082015250565b7f4d6178206c696d69740000000000000000000000000000000000000000000000600082015250565b7f4552433732313a206f70657261746f7220717565727920666f72206e6f6e657860008201527f697374656e7420746f6b656e0000000000000000000000000000000000000000602082015250565b7f4552433732313a20617070726f76652063616c6c6572206973206e6f74206f7760008201527f6e6572206e6f7220617070726f76656420666f7220616c6c0000000000000000602082015250565b7f4552433732313a2062616c616e636520717565727920666f7220746865207a6560008201527f726f206164647265737300000000000000000000000000000000000000000000602082015250565b7f4552433732313a206f776e657220717565727920666f72206e6f6e657869737460008201527f656e7420746f6b656e0000000000000000000000000000000000000000000000602082015250565b7f746f6b656e49647320697320656d707479000000000000000000000000000000600082015250565b7f4552433732313a206d696e7420746f20746865207a65726f2061646472657373600082015250565b7f4552433732313a20617070726f76656420717565727920666f72206e6f6e657860008201527f697374656e7420746f6b656e0000000000000000000000000000000000000000602082015250565b7f4f776e61626c653a2063616c6c6572206973206e6f7420746865206f776e6572600082015250565b7f4552433732313a207472616e73666572206f6620746f6b656e2074686174206960008201527f73206e6f74206f776e0000000000000000000000000000000000000000000000602082015250565b7f4552433732314d657461646174613a2055524920717565727920666f72206e6f60008201527f6e6578697374656e7420746f6b656e0000000000000000000000000000000000602082015250565b7f4f6e6c7920565246436f6f7264696e61746f722063616e2066756c66696c6c00600082015250565b7f56616c75652062656c6f77207072696365000000000000000000000000000000600082015250565b7f50617573652069732064697361626c6500000000000000000000000000000000600082015250565b7f416c72656164792072656d6f7665640000000000000000000000000000000000600082015250565b7f4552433732313a20617070726f76616c20746f2063757272656e74206f776e6560008201527f7200000000000000000000000000000000000000000000000000000000000000602082015250565b7f53616c6573206e6f74206f70656e000000000000000000000000000000000000600082015250565b50565b7f416c726561647920416464656400000000000000000000000000000000000000600082015250565b7f5472616e73666572206661696c65642e00000000000000000000000000000000600082015250565b7f4552433732313a207472616e736665722063616c6c6572206973206e6f74206f60008201527f776e6572206e6f7220617070726f766564000000000000000000000000000000602082015250565b7f43616e6e6f742066696e6420746f6b656e49647320496e646578202d2072656d60008201527f6f7665546f6b656e496400000000000000000000000000000000000000000000602082015250565b7f455243373231456e756d657261626c653a20676c6f62616c20696e646578206f60008201527f7574206f6620626f756e64730000000000000000000000000000000000000000602082015250565b7f536f6c646f757421000000000000000000000000000000000000000000000000600082015250565b615c598161526a565b8114615c6457600080fd5b50565b615c708161527c565b8114615c7b57600080fd5b50565b615c8781615288565b8114615c9257600080fd5b50565b615c9e81615292565b8114615ca957600080fd5b50565b615cb5816152de565b8114615cc057600080fd5b50565b615ccc816152e8565b8114615cd757600080fd5b5056fea2646970667358221220f079f51d669447bcf1aa5583d872ea528c0adfca191a19ab0dd072c2f4e8d10764736f6c63430008040033",
  "linkReferences": {},
  "deployedLinkReferences": {}
}