{
  "_format": "hh-sol-artifact-1",
  "contractName": "ERC721",
  "sourceName": "contracts/ERC721.sol",
  "abi": [
    {
      "inputs": [
        {
          "internalType": "string",
          "name": "name_",
          "type": "string"
        },
        {
          "internalType": "string",
          "name": "symbol_",
          "type": "string"
        }
      ],
      "stateMutability": "nonpayable",
      "type": "constructor"
    },
    {
      "anonymous": false,
      "inputs": [
        {
          "indexed": true,
          "internalType": "address",
          "name": "owner",
          "type": "address"
        },
        {
          "indexed": true,
          "internalType": "address",
          "name": "approved",
          "type": "address"
        },
        {
          "indexed": true,
          "internalType": "uint256",
          "name": "tokenId",
          "type": "uint256"
        }
      ],
      "name": "Approval",
      "type": "event"
    },
    {
      "anonymous": false,
      "inputs": [
        {
          "indexed": true,
          "internalType": "address",
          "name": "owner",
          "type": "address"
        },
        {
          "indexed": true,
          "internalType": "address",
          "name": "operator",
          "type": "address"
        },
        {
          "indexed": false,
          "internalType": "bool",
          "name": "approved",
          "type": "bool"
        }
      ],
      "name": "ApprovalForAll",
      "type": "event"
    },
    {
      "anonymous": false,
      "inputs": [
        {
          "indexed": true,
          "internalType": "address",
          "name": "from",
          "type": "address"
        },
        {
          "indexed": true,
          "internalType": "address",
          "name": "to",
          "type": "address"
        },
        {
          "indexed": true,
          "internalType": "uint256",
          "name": "tokenId",
          "type": "uint256"
        }
      ],
      "name": "Transfer",
      "type": "event"
    },
    {
      "inputs": [
        {
          "internalType": "address",
          "name": "to",
          "type": "address"
        },
        {
          "internalType": "uint256",
          "name": "tokenId",
          "type": "uint256"
        }
      ],
      "name": "approve",
      "outputs": [],
      "stateMutability": "nonpayable",
      "type": "function"
    },
    {
      "inputs": [
        {
          "internalType": "address",
          "name": "owner",
          "type": "address"
        }
      ],
      "name": "balanceOf",
      "outputs": [
        {
          "internalType": "uint256",
          "name": "",
          "type": "uint256"
        }
      ],
      "stateMutability": "view",
      "type": "function"
    },
    {
      "inputs": [
        {
          "internalType": "uint256",
          "name": "tokenId",
          "type": "uint256"
        }
      ],
      "name": "getApproved",
      "outputs": [
        {
          "internalType": "address",
          "name": "",
          "type": "address"
        }
      ],
      "stateMutability": "view",
      "type": "function"
    },
    {
      "inputs": [
        {
          "internalType": "address",
          "name": "owner",
          "type": "address"
        },
        {
          "internalType": "address",
          "name": "operator",
          "type": "address"
        }
      ],
      "name": "isApprovedForAll",
      "outputs": [
        {
          "internalType": "bool",
          "name": "",
          "type": "bool"
        }
      ],
      "stateMutability": "view",
      "type": "function"
    },
    {
      "inputs": [],
      "name": "name",
      "outputs": [
        {
          "internalType": "string",
          "name": "",
          "type": "string"
        }
      ],
      "stateMutability": "view",
      "type": "function"
    },
    {
      "inputs": [
        {
          "internalType": "uint256",
          "name": "tokenId",
          "type": "uint256"
        }
      ],
      "name": "ownerOf",
      "outputs": [
        {
          "internalType": "address",
          "name": "",
          "type": "address"
        }
      ],
      "stateMutability": "view",
      "type": "function"
    },
    {
      "inputs": [
        {
          "internalType": "uint256",
          "name": "tokenId",
          "type": "uint256"
        }
      ],
      "name": "rawOwnerOf",
      "outputs": [
        {
          "internalType": "address",
          "name": "",
          "type": "address"
        }
      ],
      "stateMutability": "view",
      "type": "function"
    },
    {
      "inputs": [
        {
          "internalType": "address",
          "name": "from",
          "type": "address"
        },
        {
          "internalType": "address",
          "name": "to",
          "type": "address"
        },
        {
          "internalType": "uint256",
          "name": "tokenId",
          "type": "uint256"
        }
      ],
      "name": "safeTransferFrom",
      "outputs": [],
      "stateMutability": "nonpayable",
      "type": "function"
    },
    {
      "inputs": [
        {
          "internalType": "address",
          "name": "from",
          "type": "address"
        },
        {
          "internalType": "address",
          "name": "to",
          "type": "address"
        },
        {
          "internalType": "uint256",
          "name": "tokenId",
          "type": "uint256"
        },
        {
          "internalType": "bytes",
          "name": "_data",
          "type": "bytes"
        }
      ],
      "name": "safeTransferFrom",
      "outputs": [],
      "stateMutability": "nonpayable",
      "type": "function"
    },
    {
      "inputs": [
        {
          "internalType": "address",
          "name": "operator",
          "type": "address"
        },
        {
          "internalType": "bool",
          "name": "approved",
          "type": "bool"
        }
      ],
      "name": "setApprovalForAll",
      "outputs": [],
      "stateMutability": "nonpayable",
      "type": "function"
    },
    {
      "inputs": [
        {
          "internalType": "bytes4",
          "name": "interfaceId",
          "type": "bytes4"
        }
      ],
      "name": "supportsInterface",
      "outputs": [
        {
          "internalType": "bool",
          "name": "",
          "type": "bool"
        }
      ],
      "stateMutability": "view",
      "type": "function"
    },
    {
      "inputs": [],
      "name": "symbol",
      "outputs": [
        {
          "internalType": "string",
          "name": "",
          "type": "string"
        }
      ],
      "stateMutability": "view",
      "type": "function"
    },
    {
      "inputs": [
        {
          "internalType": "uint256",
          "name": "tokenId",
          "type": "uint256"
        }
      ],
      "name": "tokenURI",
      "outputs": [
        {
          "internalType": "string",
          "name": "",
          "type": "string"
        }
      ],
      "stateMutability": "view",
      "type": "function"
    },
    {
      "inputs": [
        {
          "internalType": "address",
          "name": "from",
          "type": "address"
        },
        {
          "internalType": "address",
          "name": "to",
          "type": "address"
        },
        {
          "internalType": "uint256",
          "name": "tokenId",
          "type": "uint256"
        }
      ],
      "name": "transferFrom",
      "outputs": [],
      "stateMutability": "nonpayable",
      "type": "function"
    }
  ],
  "bytecode": "0x60806040523480156200001157600080fd5b50604051620027b3380380620027b3833981810160405281019062000037919062000193565b81600090805190602001906200004f92919062000071565b5080600190805190602001906200006892919062000071565b50505062000376565b8280546200007f906200029b565b90600052602060002090601f016020900481019282620000a35760008555620000ef565b82601f10620000be57805160ff1916838001178555620000ef565b82800160010185558215620000ef579182015b82811115620000ee578251825591602001919060010190620000d1565b5b509050620000fe919062000102565b5090565b5b808211156200011d57600081600090555060010162000103565b5090565b60006200013862000132846200022f565b62000206565b9050828152602081018484840111156200015157600080fd5b6200015e84828562000265565b509392505050565b600082601f8301126200017857600080fd5b81516200018a84826020860162000121565b91505092915050565b60008060408385031215620001a757600080fd5b600083015167ffffffffffffffff811115620001c257600080fd5b620001d08582860162000166565b925050602083015167ffffffffffffffff811115620001ee57600080fd5b620001fc8582860162000166565b9150509250929050565b60006200021262000225565b9050620002208282620002d1565b919050565b6000604051905090565b600067ffffffffffffffff8211156200024d576200024c62000336565b5b620002588262000365565b9050602081019050919050565b60005b838110156200028557808201518184015260208101905062000268565b8381111562000295576000848401525b50505050565b60006002820490506001821680620002b457607f821691505b60208210811415620002cb57620002ca62000307565b5b50919050565b620002dc8262000365565b810181811067ffffffffffffffff82111715620002fe57620002fd62000336565b5b80604052505050565b7f4e487b7100000000000000000000000000000000000000000000000000000000600052602260045260246000fd5b7f4e487b7100000000000000000000000000000000000000000000000000000000600052604160045260246000fd5b6000601f19601f8301169050919050565b61242d80620003866000396000f3fe608060405234801561001057600080fd5b50600436106100ea5760003560e01c806370a082311161008c578063a22cb46511610066578063a22cb4651461026f578063b88d4fde1461028b578063c87b56dd146102a7578063e985e9c5146102d7576100ea565b806370a08231146101f15780637f81be691461022157806395d89b4114610251576100ea565b8063095ea7b3116100c8578063095ea7b31461016d57806323b872dd1461018957806342842e0e146101a55780636352211e146101c1576100ea565b806301ffc9a7146100ef57806306fdde031461011f578063081812fc1461013d575b600080fd5b61010960048036038101906101049190611707565b610307565b6040516101169190611a81565b60405180910390f35b6101276103e9565b6040516101349190611a9c565b60405180910390f35b61015760048036038101906101529190611759565b61047b565b6040516101649190611a1a565b60405180910390f35b610187600480360381019061018291906116cb565b610500565b005b6101a3600480360381019061019e91906115c5565b610618565b005b6101bf60048036038101906101ba91906115c5565b610678565b005b6101db60048036038101906101d69190611759565b610698565b6040516101e89190611a1a565b60405180910390f35b61020b60048036038101906102069190611560565b61074a565b6040516102189190611c3e565b60405180910390f35b61023b60048036038101906102369190611759565b610802565b6040516102489190611a1a565b60405180910390f35b61025961083f565b6040516102669190611a9c565b60405180910390f35b6102896004803603810190610284919061168f565b6108d1565b005b6102a560048036038101906102a09190611614565b610a52565b005b6102c160048036038101906102bc9190611759565b610ab4565b6040516102ce9190611a9c565b60405180910390f35b6102f160048036038101906102ec9190611589565b610b5b565b6040516102fe9190611a81565b60405180910390f35b60007f80ac58cd000000000000000000000000000000000000000000000000000000007bffffffffffffffffffffffffffffffffffffffffffffffffffffffff1916827bffffffffffffffffffffffffffffffffffffffffffffffffffffffff191614806103d257507f5b5e139f000000000000000000000000000000000000000000000000000000007bffffffffffffffffffffffffffffffffffffffffffffffffffffffff1916827bffffffffffffffffffffffffffffffffffffffffffffffffffffffff1916145b806103e257506103e182610bef565b5b9050919050565b6060600080546103f890611e63565b80601f016020809104026020016040519081016040528092919081815260200182805461042490611e63565b80156104715780601f1061044657610100808354040283529160200191610471565b820191906000526020600020905b81548152906001019060200180831161045457829003601f168201915b5050505050905090565b600061048682610c59565b6104c5576040517f08c379a00000000000000000000000000000000000000000000000000000000081526004016104bc90611b9e565b60405180910390fd5b6004600083815260200190815260200160002060009054906101000a900473ffffffffffffffffffffffffffffffffffffffff169050919050565b600061050b82610698565b90508073ffffffffffffffffffffffffffffffffffffffff168373ffffffffffffffffffffffffffffffffffffffff16141561057c576040517f08c379a000000000000000000000000000000000000000000000000000000000815260040161057390611bfe565b60405180910390fd5b8073ffffffffffffffffffffffffffffffffffffffff1661059b610cc5565b73ffffffffffffffffffffffffffffffffffffffff1614806105ca57506105c9816105c4610cc5565b610b5b565b5b610609576040517f08c379a000000000000000000000000000000000000000000000000000000000815260040161060090611b3e565b60405180910390fd5b6106138383610ccd565b505050565b610629610623610cc5565b82610d86565b610668576040517f08c379a000000000000000000000000000000000000000000000000000000000815260040161065f90611c1e565b60405180910390fd5b610673838383610e64565b505050565b61069383838360405180602001604052806000815250610a52565b505050565b6000806002600084815260200190815260200160002060009054906101000a900473ffffffffffffffffffffffffffffffffffffffff169050600073ffffffffffffffffffffffffffffffffffffffff168173ffffffffffffffffffffffffffffffffffffffff161415610741576040517f08c379a000000000000000000000000000000000000000000000000000000000815260040161073890611b7e565b60405180910390fd5b80915050919050565b60008073ffffffffffffffffffffffffffffffffffffffff168273ffffffffffffffffffffffffffffffffffffffff1614156107bb576040517f08c379a00000000000000000000000000000000000000000000000000000000081526004016107b290611b5e565b60405180910390fd5b600360008373ffffffffffffffffffffffffffffffffffffffff1673ffffffffffffffffffffffffffffffffffffffff168152602001908152602001600020549050919050565b60006002600083815260200190815260200160002060009054906101000a900473ffffffffffffffffffffffffffffffffffffffff169050919050565b60606001805461084e90611e63565b80601f016020809104026020016040519081016040528092919081815260200182805461087a90611e63565b80156108c75780601f1061089c576101008083540402835291602001916108c7565b820191906000526020600020905b8154815290600101906020018083116108aa57829003601f168201915b5050505050905090565b6108d9610cc5565b73ffffffffffffffffffffffffffffffffffffffff168273ffffffffffffffffffffffffffffffffffffffff161415610947576040517f08c379a000000000000000000000000000000000000000000000000000000000815260040161093e90611afe565b60405180910390fd5b8060056000610954610cc5565b73ffffffffffffffffffffffffffffffffffffffff1673ffffffffffffffffffffffffffffffffffffffff16815260200190815260200160002060008473ffffffffffffffffffffffffffffffffffffffff1673ffffffffffffffffffffffffffffffffffffffff16815260200190815260200160002060006101000a81548160ff0219169083151502179055508173ffffffffffffffffffffffffffffffffffffffff16610a01610cc5565b73ffffffffffffffffffffffffffffffffffffffff167f17307eab39ab6107e8899845ad3d59bd9653f200f220920489ca2b5937696c3183604051610a469190611a81565b60405180910390a35050565b610a63610a5d610cc5565b83610d86565b610aa2576040517f08c379a0000000000000000000000000000000000000000000000000000000008152600401610a9990611c1e565b60405180910390fd5b610aae848484846110c0565b50505050565b6060610abf82610c59565b610afe576040517f08c379a0000000000000000000000000000000000000000000000000000000008152600401610af590611bde565b60405180910390fd5b6000610b0861111c565b90506000815111610b285760405180602001604052806000815250610b53565b80610b3284611133565b604051602001610b439291906119f6565b6040516020818303038152906040525b915050919050565b6000600560008473ffffffffffffffffffffffffffffffffffffffff1673ffffffffffffffffffffffffffffffffffffffff16815260200190815260200160002060008373ffffffffffffffffffffffffffffffffffffffff1673ffffffffffffffffffffffffffffffffffffffff16815260200190815260200160002060009054906101000a900460ff16905092915050565b60007f01ffc9a7000000000000000000000000000000000000000000000000000000007bffffffffffffffffffffffffffffffffffffffffffffffffffffffff1916827bffffffffffffffffffffffffffffffffffffffffffffffffffffffff1916149050919050565b60008073ffffffffffffffffffffffffffffffffffffffff166002600084815260200190815260200160002060009054906101000a900473ffffffffffffffffffffffffffffffffffffffff1673ffffffffffffffffffffffffffffffffffffffff1614159050919050565b600033905090565b816004600083815260200190815260200160002060006101000a81548173ffffffffffffffffffffffffffffffffffffffff021916908373ffffffffffffffffffffffffffffffffffffffff160217905550808273ffffffffffffffffffffffffffffffffffffffff16610d4083610698565b73ffffffffffffffffffffffffffffffffffffffff167f8c5be1e5ebec7d5bd14f71427d1e84f3dd0314c0f7b2291e5b200ac8c7c3b92560405160405180910390a45050565b6000610d9182610c59565b610dd0576040517f08c379a0000000000000000000000000000000000000000000000000000000008152600401610dc790611b1e565b60405180910390fd5b6000610ddb83610698565b90508073ffffffffffffffffffffffffffffffffffffffff168473ffffffffffffffffffffffffffffffffffffffff161480610e4a57508373ffffffffffffffffffffffffffffffffffffffff16610e328461047b565b73ffffffffffffffffffffffffffffffffffffffff16145b80610e5b5750610e5a8185610b5b565b5b91505092915050565b8273ffffffffffffffffffffffffffffffffffffffff16610e8482610698565b73ffffffffffffffffffffffffffffffffffffffff1614610eda576040517f08c379a0000000000000000000000000000000000000000000000000000000008152600401610ed190611bbe565b60405180910390fd5b600073ffffffffffffffffffffffffffffffffffffffff168273ffffffffffffffffffffffffffffffffffffffff161415610f4a576040517f08c379a0000000000000000000000000000000000000000000000000000000008152600401610f4190611ade565b60405180910390fd5b610f558383836112e0565b610f60600082610ccd565b6001600360008573ffffffffffffffffffffffffffffffffffffffff1673ffffffffffffffffffffffffffffffffffffffff1681526020019081526020016000206000828254610fb09190611d79565b925050819055506001600360008473ffffffffffffffffffffffffffffffffffffffff1673ffffffffffffffffffffffffffffffffffffffff16815260200190815260200160002060008282546110079190611cf2565b92505081905550816002600083815260200190815260200160002060006101000a81548173ffffffffffffffffffffffffffffffffffffffff021916908373ffffffffffffffffffffffffffffffffffffffff160217905550808273ffffffffffffffffffffffffffffffffffffffff168473ffffffffffffffffffffffffffffffffffffffff167fddf252ad1be2c89b69c2b068fc378daa952ba7f163c4a11628f55a4df523b3ef60405160405180910390a4505050565b6110cb848484610e64565b6110d7848484846112e5565b611116576040517f08c379a000000000000000000000000000000000000000000000000000000000815260040161110d90611abe565b60405180910390fd5b50505050565b606060405180602001604052806000815250905090565b6060600082141561117b576040518060400160405280600181526020017f300000000000000000000000000000000000000000000000000000000000000081525090506112db565b600082905060005b600082146111ad57808061119690611ec6565b915050600a826111a69190611d48565b9150611183565b60008167ffffffffffffffff8111156111ef577f4e487b7100000000000000000000000000000000000000000000000000000000600052604160045260246000fd5b6040519080825280601f01601f1916602001820160405280156112215781602001600182028036833780820191505090505b5090505b600085146112d45760018261123a9190611d79565b9150600a856112499190611f0f565b60306112559190611cf2565b60f81b818381518110611291577f4e487b7100000000000000000000000000000000000000000000000000000000600052603260045260246000fd5b60200101907effffffffffffffffffffffffffffffffffffffffffffffffffffffffffffff1916908160001a905350600a856112cd9190611d48565b9450611225565b8093505050505b919050565b505050565b60006113068473ffffffffffffffffffffffffffffffffffffffff1661147c565b1561146f578373ffffffffffffffffffffffffffffffffffffffff1663150b7a0261132f610cc5565b8786866040518563ffffffff1660e01b81526004016113519493929190611a35565b602060405180830381600087803b15801561136b57600080fd5b505af192505050801561139c57506040513d601f19601f820116820180604052508101906113999190611730565b60015b61141f573d80600081146113cc576040519150601f19603f3d011682016040523d82523d6000602084013e6113d1565b606091505b50600081511415611417576040517f08c379a000000000000000000000000000000000000000000000000000000000815260040161140e90611abe565b60405180910390fd5b805181602001fd5b63150b7a0260e01b7bffffffffffffffffffffffffffffffffffffffffffffffffffffffff1916817bffffffffffffffffffffffffffffffffffffffffffffffffffffffff191614915050611474565b600190505b949350505050565b600080823b905060008111915050919050565b60006114a261149d84611c7e565b611c59565b9050828152602081018484840111156114ba57600080fd5b6114c5848285611e21565b509392505050565b6000813590506114dc8161239b565b92915050565b6000813590506114f1816123b2565b92915050565b600081359050611506816123c9565b92915050565b60008151905061151b816123c9565b92915050565b600082601f83011261153257600080fd5b813561154284826020860161148f565b91505092915050565b60008135905061155a816123e0565b92915050565b60006020828403121561157257600080fd5b6000611580848285016114cd565b91505092915050565b6000806040838503121561159c57600080fd5b60006115aa858286016114cd565b92505060206115bb858286016114cd565b9150509250929050565b6000806000606084860312156115da57600080fd5b60006115e8868287016114cd565b93505060206115f9868287016114cd565b925050604061160a8682870161154b565b9150509250925092565b6000806000806080858703121561162a57600080fd5b6000611638878288016114cd565b9450506020611649878288016114cd565b935050604061165a8782880161154b565b925050606085013567ffffffffffffffff81111561167757600080fd5b61168387828801611521565b91505092959194509250565b600080604083850312156116a257600080fd5b60006116b0858286016114cd565b92505060206116c1858286016114e2565b9150509250929050565b600080604083850312156116de57600080fd5b60006116ec858286016114cd565b92505060206116fd8582860161154b565b9150509250929050565b60006020828403121561171957600080fd5b6000611727848285016114f7565b91505092915050565b60006020828403121561174257600080fd5b60006117508482850161150c565b91505092915050565b60006020828403121561176b57600080fd5b60006117798482850161154b565b91505092915050565b61178b81611dad565b82525050565b61179a81611dbf565b82525050565b60006117ab82611caf565b6117b58185611cc5565b93506117c5818560208601611e30565b6117ce81611ffc565b840191505092915050565b60006117e482611cba565b6117ee8185611cd6565b93506117fe818560208601611e30565b61180781611ffc565b840191505092915050565b600061181d82611cba565b6118278185611ce7565b9350611837818560208601611e30565b80840191505092915050565b6000611850603283611cd6565b915061185b8261200d565b604082019050919050565b6000611873602483611cd6565b915061187e8261205c565b604082019050919050565b6000611896601983611cd6565b91506118a1826120ab565b602082019050919050565b60006118b9602c83611cd6565b91506118c4826120d4565b604082019050919050565b60006118dc603883611cd6565b91506118e782612123565b604082019050919050565b60006118ff602a83611cd6565b915061190a82612172565b604082019050919050565b6000611922602983611cd6565b915061192d826121c1565b604082019050919050565b6000611945602c83611cd6565b915061195082612210565b604082019050919050565b6000611968602983611cd6565b91506119738261225f565b604082019050919050565b600061198b602f83611cd6565b9150611996826122ae565b604082019050919050565b60006119ae602183611cd6565b91506119b9826122fd565b604082019050919050565b60006119d1603183611cd6565b91506119dc8261234c565b604082019050919050565b6119f081611e17565b82525050565b6000611a028285611812565b9150611a0e8284611812565b91508190509392505050565b6000602082019050611a2f6000830184611782565b92915050565b6000608082019050611a4a6000830187611782565b611a576020830186611782565b611a6460408301856119e7565b8181036060830152611a7681846117a0565b905095945050505050565b6000602082019050611a966000830184611791565b92915050565b60006020820190508181036000830152611ab681846117d9565b905092915050565b60006020820190508181036000830152611ad781611843565b9050919050565b60006020820190508181036000830152611af781611866565b9050919050565b60006020820190508181036000830152611b1781611889565b9050919050565b60006020820190508181036000830152611b37816118ac565b9050919050565b60006020820190508181036000830152611b57816118cf565b9050919050565b60006020820190508181036000830152611b77816118f2565b9050919050565b60006020820190508181036000830152611b9781611915565b9050919050565b60006020820190508181036000830152611bb781611938565b9050919050565b60006020820190508181036000830152611bd78161195b565b9050919050565b60006020820190508181036000830152611bf78161197e565b9050919050565b60006020820190508181036000830152611c17816119a1565b9050919050565b60006020820190508181036000830152611c37816119c4565b9050919050565b6000602082019050611c5360008301846119e7565b92915050565b6000611c63611c74565b9050611c6f8282611e95565b919050565b6000604051905090565b600067ffffffffffffffff821115611c9957611c98611fcd565b5b611ca282611ffc565b9050602081019050919050565b600081519050919050565b600081519050919050565b600082825260208201905092915050565b600082825260208201905092915050565b600081905092915050565b6000611cfd82611e17565b9150611d0883611e17565b9250827fffffffffffffffffffffffffffffffffffffffffffffffffffffffffffffffff03821115611d3d57611d3c611f40565b5b828201905092915050565b6000611d5382611e17565b9150611d5e83611e17565b925082611d6e57611d6d611f6f565b5b828204905092915050565b6000611d8482611e17565b9150611d8f83611e17565b925082821015611da257611da1611f40565b5b828203905092915050565b6000611db882611df7565b9050919050565b60008115159050919050565b60007fffffffff0000000000000000000000000000000000000000000000000000000082169050919050565b600073ffffffffffffffffffffffffffffffffffffffff82169050919050565b6000819050919050565b82818337600083830152505050565b60005b83811015611e4e578082015181840152602081019050611e33565b83811115611e5d576000848401525b50505050565b60006002820490506001821680611e7b57607f821691505b60208210811415611e8f57611e8e611f9e565b5b50919050565b611e9e82611ffc565b810181811067ffffffffffffffff82111715611ebd57611ebc611fcd565b5b80604052505050565b6000611ed182611e17565b91507fffffffffffffffffffffffffffffffffffffffffffffffffffffffffffffffff821415611f0457611f03611f40565b5b600182019050919050565b6000611f1a82611e17565b9150611f2583611e17565b925082611f3557611f34611f6f565b5b828206905092915050565b7f4e487b7100000000000000000000000000000000000000000000000000000000600052601160045260246000fd5b7f4e487b7100000000000000000000000000000000000000000000000000000000600052601260045260246000fd5b7f4e487b7100000000000000000000000000000000000000000000000000000000600052602260045260246000fd5b7f4e487b7100000000000000000000000000000000000000000000000000000000600052604160045260246000fd5b6000601f19601f8301169050919050565b7f4552433732313a207472616e7366657220746f206e6f6e20455243373231526560008201527f63656976657220696d706c656d656e7465720000000000000000000000000000602082015250565b7f4552433732313a207472616e7366657220746f20746865207a65726f2061646460008201527f7265737300000000000000000000000000000000000000000000000000000000602082015250565b7f4552433732313a20617070726f766520746f2063616c6c657200000000000000600082015250565b7f4552433732313a206f70657261746f7220717565727920666f72206e6f6e657860008201527f697374656e7420746f6b656e0000000000000000000000000000000000000000602082015250565b7f4552433732313a20617070726f76652063616c6c6572206973206e6f74206f7760008201527f6e6572206e6f7220617070726f76656420666f7220616c6c0000000000000000602082015250565b7f4552433732313a2062616c616e636520717565727920666f7220746865207a6560008201527f726f206164647265737300000000000000000000000000000000000000000000602082015250565b7f4552433732313a206f776e657220717565727920666f72206e6f6e657869737460008201527f656e7420746f6b656e0000000000000000000000000000000000000000000000602082015250565b7f4552433732313a20617070726f76656420717565727920666f72206e6f6e657860008201527f697374656e7420746f6b656e0000000000000000000000000000000000000000602082015250565b7f4552433732313a207472616e73666572206f6620746f6b656e2074686174206960008201527f73206e6f74206f776e0000000000000000000000000000000000000000000000602082015250565b7f4552433732314d657461646174613a2055524920717565727920666f72206e6f60008201527f6e6578697374656e7420746f6b656e0000000000000000000000000000000000602082015250565b7f4552433732313a20617070726f76616c20746f2063757272656e74206f776e6560008201527f7200000000000000000000000000000000000000000000000000000000000000602082015250565b7f4552433732313a207472616e736665722063616c6c6572206973206e6f74206f60008201527f776e6572206e6f7220617070726f766564000000000000000000000000000000602082015250565b6123a481611dad565b81146123af57600080fd5b50565b6123bb81611dbf565b81146123c657600080fd5b50565b6123d281611dcb565b81146123dd57600080fd5b50565b6123e981611e17565b81146123f457600080fd5b5056fea26469706673582212208cb896876f04faa9e4cc27be47b82ac698ede6510b302e0d09dc84687c3cc5e264736f6c63430008040033",
  "linkReferences": {},
  "deployedLinkReferences": {}
}