{
  "address": "0xb3bd51cF5967682cf6667618474A9d8EE13AD4DC",
  "abi": [
    {
      "inputs": [
        {
          "internalType": "string",
          "name": "baseURI",
          "type": "string"
        },
        {
          "internalType": "uint256",
          "name": "maxAmount",
          "type": "uint256"
        },
        {
          "internalType": "address",
          "name": "_VRFCoordinator",
          "type": "address"
        },
        {
          "internalType": "address",
          "name": "_LinkToken",
          "type": "address"
        },
        {
          "internalType": "bytes32",
          "name": "_keyhash",
          "type": "bytes32"
        }
      ],
      "stateMutability": "nonpayable",
      "type": "constructor"
    },
    {
      "anonymous": false,
      "inputs": [
        {
          "indexed": true,
          "internalType": "address",
          "name": "owner",
          "type": "address"
        },
        {
          "indexed": true,
          "internalType": "address",
          "name": "approved",
          "type": "address"
        },
        {
          "indexed": true,
          "internalType": "uint256",
          "name": "tokenId",
          "type": "uint256"
        }
      ],
      "name": "Approval",
      "type": "event"
    },
    {
      "anonymous": false,
      "inputs": [
        {
          "indexed": true,
          "internalType": "address",
          "name": "owner",
          "type": "address"
        },
        {
          "indexed": true,
          "internalType": "address",
          "name": "operator",
          "type": "address"
        },
        {
          "indexed": false,
          "internalType": "bool",
          "name": "approved",
          "type": "bool"
        }
      ],
      "name": "ApprovalForAll",
      "type": "event"
    },
    {
      "anonymous": false,
      "inputs": [
        {
          "indexed": true,
          "internalType": "address",
          "name": "previousOwner",
          "type": "address"
        },
        {
          "indexed": true,
          "internalType": "address",
          "name": "newOwner",
          "type": "address"
        }
      ],
      "name": "OwnershipTransferred",
      "type": "event"
    },
    {
      "anonymous": false,
      "inputs": [
        {
          "indexed": false,
          "internalType": "bool",
          "name": "pause",
          "type": "bool"
        }
      ],
      "name": "PauseEvent",
      "type": "event"
    },
    {
      "anonymous": false,
      "inputs": [
        {
          "indexed": true,
          "internalType": "address",
          "name": "from",
          "type": "address"
        },
        {
          "indexed": true,
          "internalType": "address",
          "name": "to",
          "type": "address"
        },
        {
          "indexed": true,
          "internalType": "uint256",
          "name": "tokenId",
          "type": "uint256"
        }
      ],
      "name": "Transfer",
      "type": "event"
    },
    {
      "anonymous": false,
      "inputs": [
        {
          "indexed": true,
          "internalType": "uint256",
          "name": "id",
          "type": "uint256"
        }
      ],
      "name": "welcomeToMekaVerse",
      "type": "event"
    },
    {
      "inputs": [],
      "name": "LinkToken",
      "outputs": [
        {
          "internalType": "address",
          "name": "",
          "type": "address"
        }
      ],
      "stateMutability": "view",
      "type": "function"
    },
    {
      "inputs": [],
      "name": "MAX_ELEMENTS",
      "outputs": [
        {
          "internalType": "uint256",
          "name": "",
          "type": "uint256"
        }
      ],
      "stateMutability": "view",
      "type": "function"
    },
    {
      "inputs": [],
      "name": "PRICE",
      "outputs": [
        {
          "internalType": "uint256",
          "name": "",
          "type": "uint256"
        }
      ],
      "stateMutability": "view",
      "type": "function"
    },
    {
      "inputs": [],
      "name": "START_AT",
      "outputs": [
        {
          "internalType": "uint256",
          "name": "",
          "type": "uint256"
        }
      ],
      "stateMutability": "view",
      "type": "function"
    },
    {
      "inputs": [],
      "name": "VRFCoordinator",
      "outputs": [
        {
          "internalType": "address",
          "name": "",
          "type": "address"
        }
      ],
      "stateMutability": "view",
      "type": "function"
    },
    {
      "inputs": [
        {
          "internalType": "address",
          "name": "to",
          "type": "address"
        },
        {
          "internalType": "uint256",
          "name": "tokenId",
          "type": "uint256"
        }
      ],
      "name": "approve",
      "outputs": [],
      "stateMutability": "nonpayable",
      "type": "function"
    },
    {
      "inputs": [
        {
          "internalType": "address",
          "name": "owner",
          "type": "address"
        }
      ],
      "name": "balanceOf",
      "outputs": [
        {
          "internalType": "uint256",
          "name": "",
          "type": "uint256"
        }
      ],
      "stateMutability": "view",
      "type": "function"
    },
    {
      "inputs": [],
      "name": "baseTokenURI",
      "outputs": [
        {
          "internalType": "string",
          "name": "",
          "type": "string"
        }
      ],
      "stateMutability": "view",
      "type": "function"
    },
    {
      "inputs": [],
      "name": "creator1Address",
      "outputs": [
        {
          "internalType": "address",
          "name": "",
          "type": "address"
        }
      ],
      "stateMutability": "view",
      "type": "function"
    },
    {
      "inputs": [],
      "name": "creator2Address",
      "outputs": [
        {
          "internalType": "address",
          "name": "",
          "type": "address"
        }
      ],
      "stateMutability": "view",
      "type": "function"
    },
    {
      "inputs": [],
      "name": "devAddress",
      "outputs": [
        {
          "internalType": "address",
          "name": "",
          "type": "address"
        }
      ],
      "stateMutability": "view",
      "type": "function"
    },
    {
      "inputs": [
        {
          "internalType": "uint256",
          "name": "tokenId",
          "type": "uint256"
        }
      ],
      "name": "getApproved",
      "outputs": [
        {
          "internalType": "address",
          "name": "",
          "type": "address"
        }
      ],
      "stateMutability": "view",
      "type": "function"
    },
    {
      "inputs": [
        {
          "internalType": "uint256",
          "name": "offset",
          "type": "uint256"
        },
        {
          "internalType": "uint256",
          "name": "limit",
          "type": "uint256"
        }
      ],
      "name": "getUnsoldTokens",
      "outputs": [
        {
          "internalType": "uint256[]",
          "name": "",
          "type": "uint256[]"
        }
      ],
      "stateMutability": "view",
      "type": "function"
    },
    {
      "inputs": [
        {
          "internalType": "address",
          "name": "owner",
          "type": "address"
        },
        {
          "internalType": "address",
          "name": "operator",
          "type": "address"
        }
      ],
      "name": "isApprovedForAll",
      "outputs": [
        {
          "internalType": "bool",
          "name": "",
          "type": "bool"
        }
      ],
      "stateMutability": "view",
      "type": "function"
    },
    {
      "inputs": [
        {
          "internalType": "uint256[]",
          "name": "_tokensId",
          "type": "uint256[]"
        }
      ],
      "name": "mintUnsoldTokens",
      "outputs": [],
      "stateMutability": "nonpayable",
      "type": "function"
    },
    {
      "inputs": [],
      "name": "mintedTokenCount",
      "outputs": [
        {
          "internalType": "uint256",
          "name": "",
          "type": "uint256"
        }
      ],
      "stateMutability": "view",
      "type": "function"
    },
    {
      "inputs": [],
      "name": "name",
      "outputs": [
        {
          "internalType": "string",
          "name": "",
          "type": "string"
        }
      ],
      "stateMutability": "view",
      "type": "function"
    },
    {
      "inputs": [],
      "name": "owner",
      "outputs": [
        {
          "internalType": "address",
          "name": "",
          "type": "address"
        }
      ],
      "stateMutability": "view",
      "type": "function"
    },
    {
      "inputs": [
        {
          "internalType": "uint256",
          "name": "tokenId",
          "type": "uint256"
        }
      ],
      "name": "ownerOf",
      "outputs": [
        {
          "internalType": "address",
          "name": "",
          "type": "address"
        }
      ],
      "stateMutability": "view",
      "type": "function"
    },
    {
      "inputs": [
        {
          "internalType": "uint256",
          "name": "_count",
          "type": "uint256"
        }
      ],
      "name": "price",
      "outputs": [
        {
          "internalType": "uint256",
          "name": "",
          "type": "uint256"
        }
      ],
      "stateMutability": "pure",
      "type": "function"
    },
    {
      "inputs": [
        {
          "internalType": "bytes32",
          "name": "requestId",
          "type": "bytes32"
        },
        {
          "internalType": "uint256",
          "name": "randomness",
          "type": "uint256"
        }
      ],
      "name": "rawFulfillRandomness",
      "outputs": [],
      "stateMutability": "nonpayable",
      "type": "function"
    },
    {
      "inputs": [
        {
          "internalType": "uint256",
          "name": "tokenId",
          "type": "uint256"
        }
      ],
      "name": "rawOwnerOf",
      "outputs": [
        {
          "internalType": "address",
          "name": "",
          "type": "address"
        }
      ],
      "stateMutability": "view",
      "type": "function"
    },
    {
      "inputs": [],
      "name": "remainTokenCount",
      "outputs": [
        {
          "internalType": "uint256",
          "name": "",
          "type": "uint256"
        }
      ],
      "stateMutability": "view",
      "type": "function"
    },
    {
      "inputs": [],
      "name": "renounceOwnership",
      "outputs": [],
      "stateMutability": "nonpayable",
      "type": "function"
    },
    {
      "inputs": [
        {
          "internalType": "address",
          "name": "_to",
          "type": "address"
        },
        {
          "internalType": "uint8",
          "name": "amount",
          "type": "uint8"
        }
      ],
      "name": "requestRandomNFT",
      "outputs": [],
      "stateMutability": "payable",
      "type": "function"
    },
    {
      "inputs": [
        {
          "internalType": "address",
          "name": "from",
          "type": "address"
        },
        {
          "internalType": "address",
          "name": "to",
          "type": "address"
        },
        {
          "internalType": "uint256",
          "name": "tokenId",
          "type": "uint256"
        }
      ],
      "name": "safeTransferFrom",
      "outputs": [],
      "stateMutability": "nonpayable",
      "type": "function"
    },
    {
      "inputs": [
        {
          "internalType": "address",
          "name": "from",
          "type": "address"
        },
        {
          "internalType": "address",
          "name": "to",
          "type": "address"
        },
        {
          "internalType": "uint256",
          "name": "tokenId",
          "type": "uint256"
        },
        {
          "internalType": "bytes",
          "name": "_data",
          "type": "bytes"
        }
      ],
      "name": "safeTransferFrom",
      "outputs": [],
      "stateMutability": "nonpayable",
      "type": "function"
    },
    {
      "inputs": [
        {
          "internalType": "address",
          "name": "operator",
          "type": "address"
        },
        {
          "internalType": "bool",
          "name": "approved",
          "type": "bool"
        }
      ],
      "name": "setApprovalForAll",
      "outputs": [],
      "stateMutability": "nonpayable",
      "type": "function"
    },
    {
      "inputs": [
        {
          "internalType": "string",
          "name": "baseURI",
          "type": "string"
        }
      ],
      "name": "setBaseURI",
      "outputs": [],
      "stateMutability": "nonpayable",
      "type": "function"
    },
    {
      "inputs": [
        {
          "internalType": "uint256",
          "name": "_maxElements",
          "type": "uint256"
        }
      ],
      "name": "setMaxElementCount",
      "outputs": [],
      "stateMutability": "nonpayable",
      "type": "function"
    },
    {
      "inputs": [
        {
          "internalType": "bool",
          "name": "_pause",
          "type": "bool"
        }
      ],
      "name": "setPause",
      "outputs": [],
      "stateMutability": "nonpayable",
      "type": "function"
    },
    {
      "inputs": [
        {
          "internalType": "bytes4",
          "name": "interfaceId",
          "type": "bytes4"
        }
      ],
      "name": "supportsInterface",
      "outputs": [
        {
          "internalType": "bool",
          "name": "",
          "type": "bool"
        }
      ],
      "stateMutability": "view",
      "type": "function"
    },
    {
      "inputs": [],
      "name": "symbol",
      "outputs": [
        {
          "internalType": "string",
          "name": "",
          "type": "string"
        }
      ],
      "stateMutability": "view",
      "type": "function"
    },
    {
      "inputs": [
        {
          "internalType": "uint256",
          "name": "index",
          "type": "uint256"
        }
      ],
      "name": "tokenByIndex",
      "outputs": [
        {
          "internalType": "uint256",
          "name": "",
          "type": "uint256"
        }
      ],
      "stateMutability": "view",
      "type": "function"
    },
    {
      "inputs": [
        {
          "internalType": "address",
          "name": "owner",
          "type": "address"
        },
        {
          "internalType": "uint256",
          "name": "index",
          "type": "uint256"
        }
      ],
      "name": "tokenOfOwnerByIndex",
      "outputs": [
        {
          "internalType": "uint256",
          "name": "",
          "type": "uint256"
        }
      ],
      "stateMutability": "view",
      "type": "function"
    },
    {
      "inputs": [
        {
          "internalType": "uint256",
          "name": "tokenId",
          "type": "uint256"
        }
      ],
      "name": "tokenURI",
      "outputs": [
        {
          "internalType": "string",
          "name": "",
          "type": "string"
        }
      ],
      "stateMutability": "view",
      "type": "function"
    },
    {
      "inputs": [],
      "name": "totalSupply",
      "outputs": [
        {
          "internalType": "uint256",
          "name": "",
          "type": "uint256"
        }
      ],
      "stateMutability": "view",
      "type": "function"
    },
    {
      "inputs": [
        {
          "internalType": "address",
          "name": "from",
          "type": "address"
        },
        {
          "internalType": "address",
          "name": "to",
          "type": "address"
        },
        {
          "internalType": "uint256",
          "name": "tokenId",
          "type": "uint256"
        }
      ],
      "name": "transferFrom",
      "outputs": [],
      "stateMutability": "nonpayable",
      "type": "function"
    },
    {
      "inputs": [
        {
          "internalType": "address",
          "name": "newOwner",
          "type": "address"
        }
      ],
      "name": "transferOwnership",
      "outputs": [],
      "stateMutability": "nonpayable",
      "type": "function"
    },
    {
      "inputs": [
        {
          "internalType": "address",
          "name": "_owner",
          "type": "address"
        }
      ],
      "name": "walletOfOwner",
      "outputs": [
        {
          "internalType": "uint256[]",
          "name": "",
          "type": "uint256[]"
        }
      ],
      "stateMutability": "view",
      "type": "function"
    },
    {
      "inputs": [],
      "name": "withdrawAll",
      "outputs": [],
      "stateMutability": "nonpayable",
      "type": "function"
    }
  ],
  "transactionHash": "0xf1e494f06b398e25dcd4aab35b79b12181a4cb1c90ca552425ab229e4ae8b7e9",
  "args": [
    "https://gateway.pinata.cloud/ipfs/QmbHc4TRoZQh4ZnnM2UQSr11diDdFpeXt1dntVw7jUhTvH/",
    6,
    "0xb3dCcb4Cf7a26f6cf6B120Cf5A73875B7BBc655B",
    "0x01BE23585060835E02B77ef475b0Cc51aA1e0709",
    "0x2ed0feb3e7fd2022120aa84fab1945545a9f2ffc9076fd6156fa96eaff4c1311"
  ],
  "solcInputHash": "72e541b89180dc8d1d236a4163f05c35",
  "bytecode": "0x60c06040526122b8600c5567016345785d8a0000600e556000601360006101000a81548160ff0219169083151502179055503480156200003e57600080fd5b50604051620061763803806200617683398181016040528101906200006491906200064f565b82826040518060400160405280600781526020017f49434542455247000000000000000000000000000000000000000000000000008152506040518060400160405280600381526020017f49434500000000000000000000000000000000000000000000000000000000008152508160009080519060200190620000ea929190620004e8565b50806001908051906020019062000103929190620004e8565b5050508173ffffffffffffffffffffffffffffffffffffffff1660a08173ffffffffffffffffffffffffffffffffffffffff1660601b815250508073ffffffffffffffffffffffffffffffffffffffff1660808173ffffffffffffffffffffffffffffffffffffffff1660601b815250505050620001966200018a6200024c60201b60201c565b6200025460201b60201c565b620001a7856200031a60201b60201c565b620001b884620003c560201b60201c565b82601060006101000a81548173ffffffffffffffffffffffffffffffffffffffff021916908373ffffffffffffffffffffffffffffffffffffffff16021790555081600f60006101000a81548173ffffffffffffffffffffffffffffffffffffffff021916908373ffffffffffffffffffffffffffffffffffffffff16021790555080600d819055505050505050620009f0565b600033905090565b6000600b60009054906101000a900473ffffffffffffffffffffffffffffffffffffffff16905081600b60006101000a81548173ffffffffffffffffffffffffffffffffffffffff021916908373ffffffffffffffffffffffffffffffffffffffff1602179055508173ffffffffffffffffffffffffffffffffffffffff168173ffffffffffffffffffffffffffffffffffffffff167f8be0079c531659141344cd1fd0a4f28419497f9722a3daafe3b4186f6b6457e060405160405180910390a35050565b6200032a6200024c60201b60201c565b73ffffffffffffffffffffffffffffffffffffffff16620003506200046e60201b60201c565b73ffffffffffffffffffffffffffffffffffffffff1614620003a9576040517f08c379a0000000000000000000000000000000000000000000000000000000008152600401620003a09062000711565b60405180910390fd5b8060149080519060200190620003c1929190620004e8565b5050565b620003d56200024c60201b60201c565b73ffffffffffffffffffffffffffffffffffffffff16620003fb6200046e60201b60201c565b73ffffffffffffffffffffffffffffffffffffffff161462000454576040517f08c379a00000000000000000000000000000000000000000000000000000000081526004016200044b9062000711565b60405180910390fd5b80600c819055506200046b6200049860201b60201c565b50565b6000600b60009054906101000a900473ffffffffffffffffffffffffffffffffffffffff16905090565b60005b600c54811015620004e55760118190806001815401808255809150506001900390600052602060002001600090919091909150558080620004dc906200088d565b9150506200049b565b50565b828054620004f69062000821565b90600052602060002090601f0160209004810192826200051a576000855562000566565b82601f106200053557805160ff191683800117855562000566565b8280016001018555821562000566579182015b828111156200056557825182559160200191906001019062000548565b5b50905062000575919062000579565b5090565b5b80821115620005945760008160009055506001016200057a565b5090565b6000620005af620005a9846200075c565b62000733565b905082815260208101848484011115620005c857600080fd5b620005d5848285620007eb565b509392505050565b600081519050620005ee81620009a2565b92915050565b6000815190506200060581620009bc565b92915050565b600082601f8301126200061d57600080fd5b81516200062f84826020860162000598565b91505092915050565b6000815190506200064981620009d6565b92915050565b600080600080600060a086880312156200066857600080fd5b600086015167ffffffffffffffff8111156200068357600080fd5b62000691888289016200060b565b9550506020620006a48882890162000638565b9450506040620006b788828901620005dd565b9350506060620006ca88828901620005dd565b9250506080620006dd88828901620005f4565b9150509295509295909350565b6000620006f960208362000792565b9150620007068262000979565b602082019050919050565b600060208201905081810360008301526200072c81620006ea565b9050919050565b60006200073f62000752565b90506200074d828262000857565b919050565b6000604051905090565b600067ffffffffffffffff8211156200077a576200077962000939565b5b620007858262000968565b9050602081019050919050565b600082825260208201905092915050565b6000620007b082620007c1565b9050919050565b6000819050919050565b600073ffffffffffffffffffffffffffffffffffffffff82169050919050565b6000819050919050565b60005b838110156200080b578082015181840152602081019050620007ee565b838111156200081b576000848401525b50505050565b600060028204905060018216806200083a57607f821691505b602082108114156200085157620008506200090a565b5b50919050565b620008628262000968565b810181811067ffffffffffffffff8211171562000884576200088362000939565b5b80604052505050565b60006200089a82620007e1565b91507fffffffffffffffffffffffffffffffffffffffffffffffffffffffffffffffff821415620008d057620008cf620008db565b5b600182019050919050565b7f4e487b7100000000000000000000000000000000000000000000000000000000600052601160045260246000fd5b7f4e487b7100000000000000000000000000000000000000000000000000000000600052602260045260246000fd5b7f4e487b7100000000000000000000000000000000000000000000000000000000600052604160045260246000fd5b6000601f19601f8301169050919050565b7f4f776e61626c653a2063616c6c6572206973206e6f7420746865206f776e6572600082015250565b620009ad81620007a3565b8114620009b957600080fd5b50565b620009c781620007b7565b8114620009d357600080fd5b50565b620009e181620007e1565b8114620009ed57600080fd5b50565b60805160601c60a05160601c61574c62000a2a6000396000818161174201526127e301526000818161146a01526127a7015261574c6000f3fe6080604052600436106102465760003560e01c8063721c492c11610139578063aa3d92fb116100b6578063c87b56dd1161007a578063c87b56dd14610895578063d0913505146108d2578063d547cfb7146108fd578063e985e9c514610928578063f2fde38b14610965578063fdf5a49f1461098e57610246565b8063aa3d92fb146107c4578063b2992bb0146107ef578063b88d4fde14610818578063bedb86fb14610841578063bf7b766d1461086a57610246565b80638da5cb5b116100fd5780638da5cb5b146106df57806394985ddd1461070a57806395d89b4114610733578063967d61d91461075e578063a22cb4651461079b57610246565b8063721c492c146106195780637f81be6914610635578063853828b6146106725780638d041988146106895780638d859f3e146106b457610246565b80633502a716116101c75780634f8e2fdf1161018b5780634f8e2fdf1461053457806355f804b31461055f5780636352211e1461058857806370a08231146105c5578063715018a61461060257610246565b80633502a7161461043b5780633ad10ef61461046657806342842e0e14610491578063438b6300146104ba5780634f6ccce7146104f757610246565b806323b872dd1161020e57806323b872dd1461034457806326a49e371461036d5780632b799146146103aa5780632f745c59146103d357806333b608631461041057610246565b806301ffc9a71461024b57806306fdde0314610288578063081812fc146102b3578063095ea7b3146102f057806318160ddd14610319575b600080fd5b34801561025757600080fd5b50610272600480360381019061026d9190613e59565b6109b9565b60405161027f919061462f565b60405180910390f35b34801561029457600080fd5b5061029d610a33565b6040516102aa91906146b8565b60405180910390f35b3480156102bf57600080fd5b506102da60048036038101906102d59190613eec565b610ac5565b6040516102e79190614568565b60405180910390f35b3480156102fc57600080fd5b5061031760048036038101906103129190613d12565b610b4a565b005b34801561032557600080fd5b5061032e610c62565b60405161033b9190614a5a565b60405180910390f35b34801561035057600080fd5b5061036b60048036038101906103669190613c0c565b610c6f565b005b34801561037957600080fd5b50610394600480360381019061038f9190613eec565b610ccf565b6040516103a19190614a5a565b60405180910390f35b3480156103b657600080fd5b506103d160048036038101906103cc9190613eec565b610cf2565b005b3480156103df57600080fd5b506103fa60048036038101906103f59190613d12565b610d80565b6040516104079190614a5a565b60405180910390f35b34801561041c57600080fd5b50610425610e25565b6040516104329190614568565b60405180910390f35b34801561044757600080fd5b50610450610e4b565b60405161045d9190614a5a565b60405180910390f35b34801561047257600080fd5b5061047b610e51565b6040516104889190614568565b60405180910390f35b34801561049d57600080fd5b506104b860048036038101906104b39190613c0c565b610e69565b005b3480156104c657600080fd5b506104e160048036038101906104dc9190613ba7565b610e89565b6040516104ee919061460d565b60405180910390f35b34801561050357600080fd5b5061051e60048036038101906105199190613eec565b610f83565b60405161052b9190614a5a565b60405180910390f35b34801561054057600080fd5b5061054961101a565b6040516105569190614568565b60405180910390f35b34801561056b57600080fd5b5061058660048036038101906105819190613eab565b611040565b005b34801561059457600080fd5b506105af60048036038101906105aa9190613eec565b6110d6565b6040516105bc9190614568565b60405180910390f35b3480156105d157600080fd5b506105ec60048036038101906105e79190613ba7565b611188565b6040516105f99190614a5a565b60405180910390f35b34801561060e57600080fd5b50610617611240565b005b610633600480360381019061062e9190613d4e565b6112c8565b005b34801561064157600080fd5b5061065c60048036038101906106579190613eec565b6115ec565b6040516106699190614568565b60405180910390f35b34801561067e57600080fd5b50610687611629565b005b34801561069557600080fd5b5061069e6116fe565b6040516106ab9190614a5a565b60405180910390f35b3480156106c057600080fd5b506106c961170b565b6040516106d69190614a5a565b60405180910390f35b3480156106eb57600080fd5b506106f4611716565b6040516107019190614568565b60405180910390f35b34801561071657600080fd5b50610731600480360381019061072c9190613e1d565b611740565b005b34801561073f57600080fd5b506107486117dc565b60405161075591906146b8565b60405180910390f35b34801561076a57600080fd5b5061078560048036038101906107809190613f3e565b61186e565b604051610792919061460d565b60405180910390f35b3480156107a757600080fd5b506107c260048036038101906107bd9190613cd6565b6119a1565b005b3480156107d057600080fd5b506107d9611b22565b6040516107e69190614568565b60405180910390f35b3480156107fb57600080fd5b5061081660048036038101906108119190613d8a565b611b3a565b005b34801561082457600080fd5b5061083f600480360381019061083a9190613c5b565b611cf7565b005b34801561084d57600080fd5b5061086860048036038101906108639190613dcb565b611d59565b005b34801561087657600080fd5b5061087f611e38565b60405161088c9190614a5a565b60405180910390f35b3480156108a157600080fd5b506108bc60048036038101906108b79190613eec565b611e3d565b6040516108c991906146b8565b60405180910390f35b3480156108de57600080fd5b506108e7611ee4565b6040516108f49190614568565b60405180910390f35b34801561090957600080fd5b50610912611efc565b60405161091f91906146b8565b60405180910390f35b34801561093457600080fd5b5061094f600480360381019061094a9190613bd0565b611f8a565b60405161095c919061462f565b60405180910390f35b34801561097157600080fd5b5061098c60048036038101906109879190613ba7565b61201e565b005b34801561099a57600080fd5b506109a3612116565b6040516109b09190614a5a565b60405180910390f35b60007f780e9d63000000000000000000000000000000000000000000000000000000007bffffffffffffffffffffffffffffffffffffffffffffffffffffffff1916827bffffffffffffffffffffffffffffffffffffffffffffffffffffffff19161480610a2c5750610a2b82612132565b5b9050919050565b606060008054610a4290614dc5565b80601f0160208091040260200160405190810160405280929190818152602001828054610a6e90614dc5565b8015610abb5780601f10610a9057610100808354040283529160200191610abb565b820191906000526020600020905b815481529060010190602001808311610a9e57829003601f168201915b5050505050905090565b6000610ad082612214565b610b0f576040517f08c379a0000000000000000000000000000000000000000000000000000000008152600401610b069061489a565b60405180910390fd5b6004600083815260200190815260200160002060009054906101000a900473ffffffffffffffffffffffffffffffffffffffff169050919050565b6000610b55826110d6565b90508073ffffffffffffffffffffffffffffffffffffffff168373ffffffffffffffffffffffffffffffffffffffff161415610bc6576040517f08c379a0000000000000000000000000000000000000000000000000000000008152600401610bbd9061497a565b60405180910390fd5b8073ffffffffffffffffffffffffffffffffffffffff16610be5612280565b73ffffffffffffffffffffffffffffffffffffffff161480610c145750610c1381610c0e612280565b611f8a565b5b610c53576040517f08c379a0000000000000000000000000000000000000000000000000000000008152600401610c4a906147fa565b60405180910390fd5b610c5d8383612288565b505050565b6000600880549050905090565b610c80610c7a612280565b82612341565b610cbf576040517f08c379a0000000000000000000000000000000000000000000000000000000008152600401610cb6906149da565b60405180910390fd5b610cca83838361241f565b505050565b6000610ceb8266470de4df82000061267b90919063ffffffff16565b9050919050565b610cfa612280565b73ffffffffffffffffffffffffffffffffffffffff16610d18611716565b73ffffffffffffffffffffffffffffffffffffffff1614610d6e576040517f08c379a0000000000000000000000000000000000000000000000000000000008152600401610d65906148ba565b60405180910390fd5b80600c81905550610d7d612691565b50565b6000610d8b83611188565b8210610dcc576040517f08c379a0000000000000000000000000000000000000000000000000000000008152600401610dc3906146da565b60405180910390fd5b600660008473ffffffffffffffffffffffffffffffffffffffff1673ffffffffffffffffffffffffffffffffffffffff168152602001908152602001600020600083815260200190815260200160002054905092915050565b601060009054906101000a900473ffffffffffffffffffffffffffffffffffffffff1681565b600c5481565b7394da7d3d5f83a7253a2b96427d69c971a4bac6df81565b610e8483838360405180602001604052806000815250611cf7565b505050565b60606000610e9683611188565b905060008167ffffffffffffffff811115610eda577f4e487b7100000000000000000000000000000000000000000000000000000000600052604160045260246000fd5b604051908082528060200260200182016040528015610f085781602001602082028036833780820191505090505b50905060005b82811015610f7857610f208582610d80565b828281518110610f59577f4e487b7100000000000000000000000000000000000000000000000000000000600052603260045260246000fd5b6020026020010181815250508080610f7090614e28565b915050610f0e565b508092505050919050565b6000610f8d610c62565b8210610fce576040517f08c379a0000000000000000000000000000000000000000000000000000000008152600401610fc590614a1a565b60405180910390fd5b60088281548110611008577f4e487b7100000000000000000000000000000000000000000000000000000000600052603260045260246000fd5b90600052602060002001549050919050565b600f60009054906101000a900473ffffffffffffffffffffffffffffffffffffffff1681565b611048612280565b73ffffffffffffffffffffffffffffffffffffffff16611066611716565b73ffffffffffffffffffffffffffffffffffffffff16146110bc576040517f08c379a00000000000000000000000000000000000000000000000000000000081526004016110b3906148ba565b60405180910390fd5b80601490805190602001906110d29291906138e1565b5050565b6000806002600084815260200190815260200160002060009054906101000a900473ffffffffffffffffffffffffffffffffffffffff169050600073ffffffffffffffffffffffffffffffffffffffff168173ffffffffffffffffffffffffffffffffffffffff16141561117f576040517f08c379a00000000000000000000000000000000000000000000000000000000081526004016111769061483a565b60405180910390fd5b80915050919050565b60008073ffffffffffffffffffffffffffffffffffffffff168273ffffffffffffffffffffffffffffffffffffffff1614156111f9576040517f08c379a00000000000000000000000000000000000000000000000000000000081526004016111f09061481a565b60405180910390fd5b600360008373ffffffffffffffffffffffffffffffffffffffff1673ffffffffffffffffffffffffffffffffffffffff168152602001908152602001600020549050919050565b611248612280565b73ffffffffffffffffffffffffffffffffffffffff16611266611716565b73ffffffffffffffffffffffffffffffffffffffff16146112bc576040517f08c379a00000000000000000000000000000000000000000000000000000000081526004016112b3906148ba565b60405180910390fd5b6112c660006126dd565b565b60006112d26116fe565b1015611313576040517f08c379a000000000000000000000000000000000000000000000000000000000815260040161130a90614a3a565b60405180910390fd5b601360009054906101000a900460ff1615611363576040517f08c379a000000000000000000000000000000000000000000000000000000000815260040161135a9061499a565b60405180910390fd5b600061136d612116565b905060028260ff1611156113b6576040517f08c379a00000000000000000000000000000000000000000000000000000000081526004016113ad906147ba565b60405180910390fd5b600c548260ff16826113c89190614baf565b1115611409576040517f08c379a0000000000000000000000000000000000000000000000000000000008152600401611400906147ba565b60405180910390fd5b6114158260ff16610ccf565b341015611457576040517f08c379a000000000000000000000000000000000000000000000000000000000815260040161144e9061493a565b60405180910390fd5b8160ff16600e546114689190614c36565b7f000000000000000000000000000000000000000000000000000000000000000073ffffffffffffffffffffffffffffffffffffffff166370a08231306040518263ffffffff1660e01b81526004016114c19190614568565b60206040518083038186803b1580156114d957600080fd5b505afa1580156114ed573d6000803e3d6000fd5b505050506040513d601f19601f820116820180604052508101906115119190613f15565b1015611552576040517f08c379a00000000000000000000000000000000000000000000000000000000081526004016115499061479a565b60405180910390fd5b60005b6001836115629190614cc4565b60ff168160ff16116115e657600061157e600d54600e546127a3565b9050846012600083815260200190815260200160002060006101000a81548173ffffffffffffffffffffffffffffffffffffffff021916908373ffffffffffffffffffffffffffffffffffffffff1602179055505080806115de90614e71565b915050611555565b50505050565b60006002600083815260200190815260200160002060009054906101000a900473ffffffffffffffffffffffffffffffffffffffff169050919050565b611631612280565b73ffffffffffffffffffffffffffffffffffffffff1661164f611716565b73ffffffffffffffffffffffffffffffffffffffff16146116a5576040517f08c379a000000000000000000000000000000000000000000000000000000000815260040161169c906148ba565b60405180910390fd5b6000479050600081116116b757600080fd5b6116fb73c09eac15f9ba6462e8e4612af7c431e1cfe08b876116f660646116e860648661267b90919063ffffffff16565b61290590919063ffffffff16565b61291b565b50565b6000601180549050905090565b66470de4df82000081565b6000600b60009054906101000a900473ffffffffffffffffffffffffffffffffffffffff16905090565b7f000000000000000000000000000000000000000000000000000000000000000073ffffffffffffffffffffffffffffffffffffffff163373ffffffffffffffffffffffffffffffffffffffff16146117ce576040517f08c379a00000000000000000000000000000000000000000000000000000000081526004016117c59061491a565b60405180910390fd5b6117d882826129cc565b5050565b6060600180546117eb90614dc5565b80601f016020809104026020016040519081016040528092919081815260200182805461181790614dc5565b80156118645780601f1061183957610100808354040283529160200191611864565b820191906000526020600020905b81548152906001019060200180831161184757829003601f168201915b5050505050905090565b606060008267ffffffffffffffff8111156118b2577f4e487b7100000000000000000000000000000000000000000000000000000000600052604160045260246000fd5b6040519080825280602002602001820160405280156118e05781602001602082028036833780820191505090505b50905060005b8381101561199657600085826118fc9190614baf565b9050600073ffffffffffffffffffffffffffffffffffffffff1661191f826115ec565b73ffffffffffffffffffffffffffffffffffffffff1614156119825780838381518110611975577f4e487b7100000000000000000000000000000000000000000000000000000000600052603260045260246000fd5b6020026020010181815250505b50808061198e90614e28565b9150506118e6565b508091505092915050565b6119a9612280565b73ffffffffffffffffffffffffffffffffffffffff168273ffffffffffffffffffffffffffffffffffffffff161415611a17576040517f08c379a0000000000000000000000000000000000000000000000000000000008152600401611a0e9061477a565b60405180910390fd5b8060056000611a24612280565b73ffffffffffffffffffffffffffffffffffffffff1673ffffffffffffffffffffffffffffffffffffffff16815260200190815260200160002060008473ffffffffffffffffffffffffffffffffffffffff1673ffffffffffffffffffffffffffffffffffffffff16815260200190815260200160002060006101000a81548160ff0219169083151502179055508173ffffffffffffffffffffffffffffffffffffffff16611ad1612280565b73ffffffffffffffffffffffffffffffffffffffff167f17307eab39ab6107e8899845ad3d59bd9653f200f220920489ca2b5937696c3183604051611b16919061462f565b60405180910390a35050565b73c09eac15f9ba6462e8e4612af7c431e1cfe08b8781565b611b42612280565b73ffffffffffffffffffffffffffffffffffffffff16611b60611716565b73ffffffffffffffffffffffffffffffffffffffff1614611bb6576040517f08c379a0000000000000000000000000000000000000000000000000000000008152600401611bad906148ba565b60405180910390fd5b601360009054906101000a900460ff16611c05576040517f08c379a0000000000000000000000000000000000000000000000000000000008152600401611bfc9061495a565b60405180910390fd5b60005b8151811015611cf357600073ffffffffffffffffffffffffffffffffffffffff16611c72838381518110611c65577f4e487b7100000000000000000000000000000000000000000000000000000000600052603260045260246000fd5b60200260200101516115ec565b73ffffffffffffffffffffffffffffffffffffffff161415611ce057611cdf611c99611716565b838381518110611cd2577f4e487b7100000000000000000000000000000000000000000000000000000000600052603260045260246000fd5b6020026020010151612a6d565b5b8080611ceb90614e28565b915050611c08565b5050565b611d08611d02612280565b83612341565b611d47576040517f08c379a0000000000000000000000000000000000000000000000000000000008152600401611d3e906149da565b60405180910390fd5b611d5384848484612aa8565b50505050565b611d61612280565b73ffffffffffffffffffffffffffffffffffffffff16611d7f611716565b73ffffffffffffffffffffffffffffffffffffffff1614611dd5576040517f08c379a0000000000000000000000000000000000000000000000000000000008152600401611dcc906148ba565b60405180910390fd5b80601360006101000a81548160ff0219169083151502179055507f10e1c3fcaff06b68391033547e8f9bb8067d7c4a2e32659b0629153814d242d3601360009054906101000a900460ff16604051611e2d919061462f565b60405180910390a150565b600181565b6060611e4882612214565b611e87576040517f08c379a0000000000000000000000000000000000000000000000000000000008152600401611e7e906148fa565b60405180910390fd5b6000611e91612b04565b90506000815111611eb15760405180602001604052806000815250611edc565b80611ebb84612b96565b604051602001611ecc92919061452f565b6040516020818303038152906040525b915050919050565b735db342fb039c1c85bec5fe89af6734621f421d8481565b60148054611f0990614dc5565b80601f0160208091040260200160405190810160405280929190818152602001828054611f3590614dc5565b8015611f825780601f10611f5757610100808354040283529160200191611f82565b820191906000526020600020905b815481529060010190602001808311611f6557829003601f168201915b505050505081565b6000600560008473ffffffffffffffffffffffffffffffffffffffff1673ffffffffffffffffffffffffffffffffffffffff16815260200190815260200160002060008373ffffffffffffffffffffffffffffffffffffffff1673ffffffffffffffffffffffffffffffffffffffff16815260200190815260200160002060009054906101000a900460ff16905092915050565b612026612280565b73ffffffffffffffffffffffffffffffffffffffff16612044611716565b73ffffffffffffffffffffffffffffffffffffffff161461209a576040517f08c379a0000000000000000000000000000000000000000000000000000000008152600401612091906148ba565b60405180910390fd5b600073ffffffffffffffffffffffffffffffffffffffff168173ffffffffffffffffffffffffffffffffffffffff16141561210a576040517f08c379a00000000000000000000000000000000000000000000000000000000081526004016121019061471a565b60405180910390fd5b612113816126dd565b50565b60006121206116fe565b600c5461212d9190614c90565b905090565b60007f80ac58cd000000000000000000000000000000000000000000000000000000007bffffffffffffffffffffffffffffffffffffffffffffffffffffffff1916827bffffffffffffffffffffffffffffffffffffffffffffffffffffffff191614806121fd57507f5b5e139f000000000000000000000000000000000000000000000000000000007bffffffffffffffffffffffffffffffffffffffffffffffffffffffff1916827bffffffffffffffffffffffffffffffffffffffffffffffffffffffff1916145b8061220d575061220c82612d43565b5b9050919050565b60008073ffffffffffffffffffffffffffffffffffffffff166002600084815260200190815260200160002060009054906101000a900473ffffffffffffffffffffffffffffffffffffffff1673ffffffffffffffffffffffffffffffffffffffff1614159050919050565b600033905090565b816004600083815260200190815260200160002060006101000a81548173ffffffffffffffffffffffffffffffffffffffff021916908373ffffffffffffffffffffffffffffffffffffffff160217905550808273ffffffffffffffffffffffffffffffffffffffff166122fb836110d6565b73ffffffffffffffffffffffffffffffffffffffff167f8c5be1e5ebec7d5bd14f71427d1e84f3dd0314c0f7b2291e5b200ac8c7c3b92560405160405180910390a45050565b600061234c82612214565b61238b576040517f08c379a0000000000000000000000000000000000000000000000000000000008152600401612382906147da565b60405180910390fd5b6000612396836110d6565b90508073ffffffffffffffffffffffffffffffffffffffff168473ffffffffffffffffffffffffffffffffffffffff16148061240557508373ffffffffffffffffffffffffffffffffffffffff166123ed84610ac5565b73ffffffffffffffffffffffffffffffffffffffff16145b8061241657506124158185611f8a565b5b91505092915050565b8273ffffffffffffffffffffffffffffffffffffffff1661243f826110d6565b73ffffffffffffffffffffffffffffffffffffffff1614612495576040517f08c379a000000000000000000000000000000000000000000000000000000000815260040161248c906148da565b60405180910390fd5b600073ffffffffffffffffffffffffffffffffffffffff168273ffffffffffffffffffffffffffffffffffffffff161415612505576040517f08c379a00000000000000000000000000000000000000000000000000000000081526004016124fc9061475a565b60405180910390fd5b612510838383612dad565b61251b600082612288565b6001600360008573ffffffffffffffffffffffffffffffffffffffff1673ffffffffffffffffffffffffffffffffffffffff168152602001908152602001600020600082825461256b9190614c90565b925050819055506001600360008473ffffffffffffffffffffffffffffffffffffffff1673ffffffffffffffffffffffffffffffffffffffff16815260200190815260200160002060008282546125c29190614baf565b92505081905550816002600083815260200190815260200160002060006101000a81548173ffffffffffffffffffffffffffffffffffffffff021916908373ffffffffffffffffffffffffffffffffffffffff160217905550808273ffffffffffffffffffffffffffffffffffffffff168473ffffffffffffffffffffffffffffffffffffffff167fddf252ad1be2c89b69c2b068fc378daa952ba7f163c4a11628f55a4df523b3ef60405160405180910390a4505050565b600081836126899190614c36565b905092915050565b60005b600c548110156126da57601181908060018154018082558091505060019003906000526020600020016000909190919091505580806126d290614e28565b915050612694565b50565b6000600b60009054906101000a900473ffffffffffffffffffffffffffffffffffffffff16905081600b60006101000a81548173ffffffffffffffffffffffffffffffffffffffff021916908373ffffffffffffffffffffffffffffffffffffffff1602179055508173ffffffffffffffffffffffffffffffffffffffff168173ffffffffffffffffffffffffffffffffffffffff167f8be0079c531659141344cd1fd0a4f28419497f9722a3daafe3b4186f6b6457e060405160405180910390a35050565b60007f000000000000000000000000000000000000000000000000000000000000000073ffffffffffffffffffffffffffffffffffffffff16634000aea07f00000000000000000000000000000000000000000000000000000000000000008486600060405160200161281792919061464a565b6040516020818303038152906040526040518463ffffffff1660e01b8152600401612844939291906145cf565b602060405180830381600087803b15801561285e57600080fd5b505af1158015612872573d6000803e3d6000fd5b505050506040513d601f19601f820116820180604052508101906128969190613df4565b5060006128b984600030600a600089815260200190815260200160002054612ec1565b90506001600a6000868152602001908152602001600020546128db9190614baf565b600a6000868152602001908152602001600020819055506128fc8482612efd565b91505092915050565b600081836129139190614c05565b905092915050565b60008273ffffffffffffffffffffffffffffffffffffffff168260405161294190614553565b60006040518083038185875af1925050503d806000811461297e576040519150601f19603f3d011682016040523d82523d6000602084013e612983565b606091505b50509050806129c7576040517f08c379a00000000000000000000000000000000000000000000000000000000081526004016129be906149ba565b60405180910390fd5b505050565b6000601180549050826129df9190614eaf565b905060006012600085815260200190815260200160002060009054906101000a900473ffffffffffffffffffffffffffffffffffffffff169050612a678160118481548110612a57577f4e487b7100000000000000000000000000000000000000000000000000000000600052603260045260246000fd5b9060005260206000200154612f30565b50505050565b612a778282612f47565b807fca9a3f9304018bf55bc0ce870ae2473e6015fac1a6deaa5a1bbcee486eb4766a60405160405180910390a25050565b612ab384848461241f565b612abf84848484612f65565b612afe576040517f08c379a0000000000000000000000000000000000000000000000000000000008152600401612af5906146fa565b60405180910390fd5b50505050565b606060148054612b1390614dc5565b80601f0160208091040260200160405190810160405280929190818152602001828054612b3f90614dc5565b8015612b8c5780601f10612b6157610100808354040283529160200191612b8c565b820191906000526020600020905b815481529060010190602001808311612b6f57829003601f168201915b5050505050905090565b60606000821415612bde576040518060400160405280600181526020017f30000000000000000000000000000000000000000000000000000000000000008152509050612d3e565b600082905060005b60008214612c10578080612bf990614e28565b915050600a82612c099190614c05565b9150612be6565b60008167ffffffffffffffff811115612c52577f4e487b7100000000000000000000000000000000000000000000000000000000600052604160045260246000fd5b6040519080825280601f01601f191660200182016040528015612c845781602001600182028036833780820191505090505b5090505b60008514612d3757600182612c9d9190614c90565b9150600a85612cac9190614eaf565b6030612cb89190614baf565b60f81b818381518110612cf4577f4e487b7100000000000000000000000000000000000000000000000000000000600052603260045260246000fd5b60200101907effffffffffffffffffffffffffffffffffffffffffffffffffffffffffffff1916908160001a905350600a85612d309190614c05565b9450612c88565b8093505050505b919050565b60007f01ffc9a7000000000000000000000000000000000000000000000000000000007bffffffffffffffffffffffffffffffffffffffffffffffffffffffff1916827bffffffffffffffffffffffffffffffffffffffffffffffffffffffff1916149050919050565b612db88383836130fc565b600073ffffffffffffffffffffffffffffffffffffffff168373ffffffffffffffffffffffffffffffffffffffff161415612dfb57612df681613101565b612e3a565b8173ffffffffffffffffffffffffffffffffffffffff168373ffffffffffffffffffffffffffffffffffffffff1614612e3957612e38838261314a565b5b5b600073ffffffffffffffffffffffffffffffffffffffff168273ffffffffffffffffffffffffffffffffffffffff161415612e7d57612e78816132b7565b612ebc565b8273ffffffffffffffffffffffffffffffffffffffff168273ffffffffffffffffffffffffffffffffffffffff1614612ebb57612eba82826133fa565b5b5b505050565b600084848484604051602001612eda9493929190614673565b6040516020818303038152906040528051906020012060001c9050949350505050565b60008282604051602001612f12929190614503565b60405160208183030381529060405280519060200120905092915050565b612f3a8282612a6d565b612f4381613479565b5050565b612f61828260405180602001604052806000815250613606565b5050565b6000612f868473ffffffffffffffffffffffffffffffffffffffff16613661565b156130ef578373ffffffffffffffffffffffffffffffffffffffff1663150b7a02612faf612280565b8786866040518563ffffffff1660e01b8152600401612fd19493929190614583565b602060405180830381600087803b158015612feb57600080fd5b505af192505050801561301c57506040513d601f19601f820116820180604052508101906130199190613e82565b60015b61309f573d806000811461304c576040519150601f19603f3d011682016040523d82523d6000602084013e613051565b606091505b50600081511415613097576040517f08c379a000000000000000000000000000000000000000000000000000000000815260040161308e906146fa565b60405180910390fd5b805181602001fd5b63150b7a0260e01b7bffffffffffffffffffffffffffffffffffffffffffffffffffffffff1916817bffffffffffffffffffffffffffffffffffffffffffffffffffffffff1916149150506130f4565b600190505b949350505050565b505050565b6008805490506009600083815260200190815260200160002081905550600881908060018154018082558091505060019003906000526020600020016000909190919091505550565b6000600161315784611188565b6131619190614c90565b9050600060076000848152602001908152602001600020549050818114613246576000600660008673ffffffffffffffffffffffffffffffffffffffff1673ffffffffffffffffffffffffffffffffffffffff168152602001908152602001600020600084815260200190815260200160002054905080600660008773ffffffffffffffffffffffffffffffffffffffff1673ffffffffffffffffffffffffffffffffffffffff168152602001908152602001600020600084815260200190815260200160002081905550816007600083815260200190815260200160002081905550505b6007600084815260200190815260200160002060009055600660008573ffffffffffffffffffffffffffffffffffffffff1673ffffffffffffffffffffffffffffffffffffffff16815260200190815260200160002060008381526020019081526020016000206000905550505050565b600060016008805490506132cb9190614c90565b9050600060096000848152602001908152602001600020549050600060088381548110613321577f4e487b7100000000000000000000000000000000000000000000000000000000600052603260045260246000fd5b906000526020600020015490508060088381548110613369577f4e487b7100000000000000000000000000000000000000000000000000000000600052603260045260246000fd5b9060005260206000200181905550816009600083815260200190815260200160002081905550600960008581526020019081526020016000206000905560088054806133de577f4e487b7100000000000000000000000000000000000000000000000000000000600052603160045260246000fd5b6001900381819060005260206000200160009055905550505050565b600061340583611188565b905081600660008573ffffffffffffffffffffffffffffffffffffffff1673ffffffffffffffffffffffffffffffffffffffff168152602001908152602001600020600083815260200190815260200160002081905550806007600084815260200190815260200160002081905550505050565b6000601180549050116134c1576040517f08c379a00000000000000000000000000000000000000000000000000000000081526004016134b89061485a565b60405180910390fd5b60006134cc82613674565b9050601180549050811115613516576040517f08c379a000000000000000000000000000000000000000000000000000000000815260040161350d906149fa565b60405180910390fd5b6011600160118054905061352a9190614c90565b81548110613561577f4e487b7100000000000000000000000000000000000000000000000000000000600052603260045260246000fd5b9060005260206000200154601182815481106135a6577f4e487b7100000000000000000000000000000000000000000000000000000000600052603260045260246000fd5b906000526020600020018190555060118054806135ec577f4e487b7100000000000000000000000000000000000000000000000000000000600052603160045260246000fd5b600190038181906000526020600020016000905590555050565b6136108383613713565b61361d6000848484612f65565b61365c576040517f08c379a0000000000000000000000000000000000000000000000000000000008152600401613653906146fa565b60405180910390fd5b505050565b600080823b905060008111915050919050565b600080600090505b6011805490508110156136f8576000601182815481106136c5577f4e487b7100000000000000000000000000000000000000000000000000000000600052603260045260246000fd5b90600052602060002001549050838114156136e457819250505061370e565b5080806136f090614e28565b91505061367c565b50606460118054905061370b9190614baf565b90505b919050565b600073ffffffffffffffffffffffffffffffffffffffff168273ffffffffffffffffffffffffffffffffffffffff161415613783576040517f08c379a000000000000000000000000000000000000000000000000000000000815260040161377a9061487a565b60405180910390fd5b61378c81612214565b156137cc576040517f08c379a00000000000000000000000000000000000000000000000000000000081526004016137c39061473a565b60405180910390fd5b6137d860008383612dad565b6001600360008473ffffffffffffffffffffffffffffffffffffffff1673ffffffffffffffffffffffffffffffffffffffff16815260200190815260200160002060008282546138289190614baf565b92505081905550816002600083815260200190815260200160002060006101000a81548173ffffffffffffffffffffffffffffffffffffffff021916908373ffffffffffffffffffffffffffffffffffffffff160217905550808273ffffffffffffffffffffffffffffffffffffffff16600073ffffffffffffffffffffffffffffffffffffffff167fddf252ad1be2c89b69c2b068fc378daa952ba7f163c4a11628f55a4df523b3ef60405160405180910390a45050565b8280546138ed90614dc5565b90600052602060002090601f01602090048101928261390f5760008555613956565b82601f1061392857805160ff1916838001178555613956565b82800160010185558215613956579182015b8281111561395557825182559160200191906001019061393a565b5b5090506139639190613967565b5090565b5b80821115613980576000816000905550600101613968565b5090565b600061399761399284614a9a565b614a75565b905080838252602082019050828560208602820111156139b657600080fd5b60005b858110156139e657816139cc8882613b68565b8452602084019350602083019250506001810190506139b9565b5050509392505050565b6000613a036139fe84614ac6565b614a75565b905082815260208101848484011115613a1b57600080fd5b613a26848285614d83565b509392505050565b6000613a41613a3c84614af7565b614a75565b905082815260208101848484011115613a5957600080fd5b613a64848285614d83565b509392505050565b600081359050613a7b8161568c565b92915050565b600082601f830112613a9257600080fd5b8135613aa2848260208601613984565b91505092915050565b600081359050613aba816156a3565b92915050565b600081519050613acf816156a3565b92915050565b600081359050613ae4816156ba565b92915050565b600081359050613af9816156d1565b92915050565b600081519050613b0e816156d1565b92915050565b600082601f830112613b2557600080fd5b8135613b358482602086016139f0565b91505092915050565b600082601f830112613b4f57600080fd5b8135613b5f848260208601613a2e565b91505092915050565b600081359050613b77816156e8565b92915050565b600081519050613b8c816156e8565b92915050565b600081359050613ba1816156ff565b92915050565b600060208284031215613bb957600080fd5b6000613bc784828501613a6c565b91505092915050565b60008060408385031215613be357600080fd5b6000613bf185828601613a6c565b9250506020613c0285828601613a6c565b9150509250929050565b600080600060608486031215613c2157600080fd5b6000613c2f86828701613a6c565b9350506020613c4086828701613a6c565b9250506040613c5186828701613b68565b9150509250925092565b60008060008060808587031215613c7157600080fd5b6000613c7f87828801613a6c565b9450506020613c9087828801613a6c565b9350506040613ca187828801613b68565b925050606085013567ffffffffffffffff811115613cbe57600080fd5b613cca87828801613b14565b91505092959194509250565b60008060408385031215613ce957600080fd5b6000613cf785828601613a6c565b9250506020613d0885828601613aab565b9150509250929050565b60008060408385031215613d2557600080fd5b6000613d3385828601613a6c565b9250506020613d4485828601613b68565b9150509250929050565b60008060408385031215613d6157600080fd5b6000613d6f85828601613a6c565b9250506020613d8085828601613b92565b9150509250929050565b600060208284031215613d9c57600080fd5b600082013567ffffffffffffffff811115613db657600080fd5b613dc284828501613a81565b91505092915050565b600060208284031215613ddd57600080fd5b6000613deb84828501613aab565b91505092915050565b600060208284031215613e0657600080fd5b6000613e1484828501613ac0565b91505092915050565b60008060408385031215613e3057600080fd5b6000613e3e85828601613ad5565b9250506020613e4f85828601613b68565b9150509250929050565b600060208284031215613e6b57600080fd5b6000613e7984828501613aea565b91505092915050565b600060208284031215613e9457600080fd5b6000613ea284828501613aff565b91505092915050565b600060208284031215613ebd57600080fd5b600082013567ffffffffffffffff811115613ed757600080fd5b613ee384828501613b3e565b91505092915050565b600060208284031215613efe57600080fd5b6000613f0c84828501613b68565b91505092915050565b600060208284031215613f2757600080fd5b6000613f3584828501613b7d565b91505092915050565b60008060408385031215613f5157600080fd5b6000613f5f85828601613b68565b9250506020613f7085828601613b68565b9150509250929050565b6000613f8683836144ce565b60208301905092915050565b613f9b81614cf8565b82525050565b6000613fac82614b38565b613fb68185614b66565b9350613fc183614b28565b8060005b83811015613ff2578151613fd98882613f7a565b9750613fe483614b59565b925050600181019050613fc5565b5085935050505092915050565b61400881614d0a565b82525050565b61401781614d16565b82525050565b61402e61402982614d16565b614e9b565b82525050565b600061403f82614b43565b6140498185614b77565b9350614059818560208601614d92565b61406281614f9c565b840191505092915050565b600061407882614b4e565b6140828185614b93565b9350614092818560208601614d92565b61409b81614f9c565b840191505092915050565b60006140b182614b4e565b6140bb8185614ba4565b93506140cb818560208601614d92565b80840191505092915050565b60006140e4602b83614b93565b91506140ef82614fad565b604082019050919050565b6000614107603283614b93565b915061411282614ffc565b604082019050919050565b600061412a602683614b93565b91506141358261504b565b604082019050919050565b600061414d601c83614b93565b91506141588261509a565b602082019050919050565b6000614170602483614b93565b915061417b826150c3565b604082019050919050565b6000614193601983614b93565b915061419e82615112565b602082019050919050565b60006141b6602b83614b93565b91506141c18261513b565b604082019050919050565b60006141d9600983614b93565b91506141e48261518a565b602082019050919050565b60006141fc602c83614b93565b9150614207826151b3565b604082019050919050565b600061421f603883614b93565b915061422a82615202565b604082019050919050565b6000614242602a83614b93565b915061424d82615251565b604082019050919050565b6000614265602983614b93565b9150614270826152a0565b604082019050919050565b6000614288601183614b93565b9150614293826152ef565b602082019050919050565b60006142ab602083614b93565b91506142b682615318565b602082019050919050565b60006142ce602c83614b93565b91506142d982615341565b604082019050919050565b60006142f1602083614b93565b91506142fc82615390565b602082019050919050565b6000614314602983614b93565b915061431f826153b9565b604082019050919050565b6000614337602f83614b93565b915061434282615408565b604082019050919050565b600061435a601f83614b93565b915061436582615457565b602082019050919050565b600061437d601183614b93565b915061438882615480565b602082019050919050565b60006143a0601083614b93565b91506143ab826154a9565b602082019050919050565b60006143c3602183614b93565b91506143ce826154d2565b604082019050919050565b60006143e6600e83614b93565b91506143f182615521565b602082019050919050565b6000614409600083614b88565b91506144148261554a565b600082019050919050565b600061442c601083614b93565b91506144378261554d565b602082019050919050565b600061444f603183614b93565b915061445a82615576565b604082019050919050565b6000614472602a83614b93565b915061447d826155c5565b604082019050919050565b6000614495602c83614b93565b91506144a082615614565b604082019050919050565b60006144b8600883614b93565b91506144c382615663565b602082019050919050565b6144d781614d6c565b82525050565b6144e681614d6c565b82525050565b6144fd6144f882614d6c565b614ea5565b82525050565b600061450f828561401d565b60208201915061451f82846144ec565b6020820191508190509392505050565b600061453b82856140a6565b915061454782846140a6565b91508190509392505050565b600061455e826143fc565b9150819050919050565b600060208201905061457d6000830184613f92565b92915050565b60006080820190506145986000830187613f92565b6145a56020830186613f92565b6145b260408301856144dd565b81810360608301526145c48184614034565b905095945050505050565b60006060820190506145e46000830186613f92565b6145f160208301856144dd565b81810360408301526146038184614034565b9050949350505050565b600060208201905081810360008301526146278184613fa1565b905092915050565b60006020820190506146446000830184613fff565b92915050565b600060408201905061465f600083018561400e565b61466c60208301846144dd565b9392505050565b6000608082019050614688600083018761400e565b61469560208301866144dd565b6146a26040830185613f92565b6146af60608301846144dd565b95945050505050565b600060208201905081810360008301526146d2818461406d565b905092915050565b600060208201905081810360008301526146f3816140d7565b9050919050565b60006020820190508181036000830152614713816140fa565b9050919050565b600060208201905081810360008301526147338161411d565b9050919050565b6000602082019050818103600083015261475381614140565b9050919050565b6000602082019050818103600083015261477381614163565b9050919050565b6000602082019050818103600083015261479381614186565b9050919050565b600060208201905081810360008301526147b3816141a9565b9050919050565b600060208201905081810360008301526147d3816141cc565b9050919050565b600060208201905081810360008301526147f3816141ef565b9050919050565b6000602082019050818103600083015261481381614212565b9050919050565b6000602082019050818103600083015261483381614235565b9050919050565b6000602082019050818103600083015261485381614258565b9050919050565b600060208201905081810360008301526148738161427b565b9050919050565b600060208201905081810360008301526148938161429e565b9050919050565b600060208201905081810360008301526148b3816142c1565b9050919050565b600060208201905081810360008301526148d3816142e4565b9050919050565b600060208201905081810360008301526148f381614307565b9050919050565b600060208201905081810360008301526149138161432a565b9050919050565b600060208201905081810360008301526149338161434d565b9050919050565b6000602082019050818103600083015261495381614370565b9050919050565b6000602082019050818103600083015261497381614393565b9050919050565b60006020820190508181036000830152614993816143b6565b9050919050565b600060208201905081810360008301526149b3816143d9565b9050919050565b600060208201905081810360008301526149d38161441f565b9050919050565b600060208201905081810360008301526149f381614442565b9050919050565b60006020820190508181036000830152614a1381614465565b9050919050565b60006020820190508181036000830152614a3381614488565b9050919050565b60006020820190508181036000830152614a53816144ab565b9050919050565b6000602082019050614a6f60008301846144dd565b92915050565b6000614a7f614a90565b9050614a8b8282614df7565b919050565b6000604051905090565b600067ffffffffffffffff821115614ab557614ab4614f6d565b5b602082029050602081019050919050565b600067ffffffffffffffff821115614ae157614ae0614f6d565b5b614aea82614f9c565b9050602081019050919050565b600067ffffffffffffffff821115614b1257614b11614f6d565b5b614b1b82614f9c565b9050602081019050919050565b6000819050602082019050919050565b600081519050919050565b600081519050919050565b600081519050919050565b6000602082019050919050565b600082825260208201905092915050565b600082825260208201905092915050565b600081905092915050565b600082825260208201905092915050565b600081905092915050565b6000614bba82614d6c565b9150614bc583614d6c565b9250827fffffffffffffffffffffffffffffffffffffffffffffffffffffffffffffffff03821115614bfa57614bf9614ee0565b5b828201905092915050565b6000614c1082614d6c565b9150614c1b83614d6c565b925082614c2b57614c2a614f0f565b5b828204905092915050565b6000614c4182614d6c565b9150614c4c83614d6c565b9250817fffffffffffffffffffffffffffffffffffffffffffffffffffffffffffffffff0483118215151615614c8557614c84614ee0565b5b828202905092915050565b6000614c9b82614d6c565b9150614ca683614d6c565b925082821015614cb957614cb8614ee0565b5b828203905092915050565b6000614ccf82614d76565b9150614cda83614d76565b925082821015614ced57614cec614ee0565b5b828203905092915050565b6000614d0382614d4c565b9050919050565b60008115159050919050565b6000819050919050565b60007fffffffff0000000000000000000000000000000000000000000000000000000082169050919050565b600073ffffffffffffffffffffffffffffffffffffffff82169050919050565b6000819050919050565b600060ff82169050919050565b82818337600083830152505050565b60005b83811015614db0578082015181840152602081019050614d95565b83811115614dbf576000848401525b50505050565b60006002820490506001821680614ddd57607f821691505b60208210811415614df157614df0614f3e565b5b50919050565b614e0082614f9c565b810181811067ffffffffffffffff82111715614e1f57614e1e614f6d565b5b80604052505050565b6000614e3382614d6c565b91507fffffffffffffffffffffffffffffffffffffffffffffffffffffffffffffffff821415614e6657614e65614ee0565b5b600182019050919050565b6000614e7c82614d76565b915060ff821415614e9057614e8f614ee0565b5b600182019050919050565b6000819050919050565b6000819050919050565b6000614eba82614d6c565b9150614ec583614d6c565b925082614ed557614ed4614f0f565b5b828206905092915050565b7f4e487b7100000000000000000000000000000000000000000000000000000000600052601160045260246000fd5b7f4e487b7100000000000000000000000000000000000000000000000000000000600052601260045260246000fd5b7f4e487b7100000000000000000000000000000000000000000000000000000000600052602260045260246000fd5b7f4e487b7100000000000000000000000000000000000000000000000000000000600052604160045260246000fd5b6000601f19601f8301169050919050565b7f455243373231456e756d657261626c653a206f776e657220696e646578206f7560008201527f74206f6620626f756e6473000000000000000000000000000000000000000000602082015250565b7f4552433732313a207472616e7366657220746f206e6f6e20455243373231526560008201527f63656976657220696d706c656d656e7465720000000000000000000000000000602082015250565b7f4f776e61626c653a206e6577206f776e657220697320746865207a65726f206160008201527f6464726573730000000000000000000000000000000000000000000000000000602082015250565b7f4552433732313a20746f6b656e20616c7265616479206d696e74656400000000600082015250565b7f4552433732313a207472616e7366657220746f20746865207a65726f2061646460008201527f7265737300000000000000000000000000000000000000000000000000000000602082015250565b7f4552433732313a20617070726f766520746f2063616c6c657200000000000000600082015250565b7f4e6f7420656e6f756768204c494e4b202d2066696c6c20636f6e74726163742060008201527f7769746820666175636574000000000000000000000000000000000000000000602082015250565b7f4d6178206c696d69740000000000000000000000000000000000000000000000600082015250565b7f4552433732313a206f70657261746f7220717565727920666f72206e6f6e657860008201527f697374656e7420746f6b656e0000000000000000000000000000000000000000602082015250565b7f4552433732313a20617070726f76652063616c6c6572206973206e6f74206f7760008201527f6e6572206e6f7220617070726f76656420666f7220616c6c0000000000000000602082015250565b7f4552433732313a2062616c616e636520717565727920666f7220746865207a6560008201527f726f206164647265737300000000000000000000000000000000000000000000602082015250565b7f4552433732313a206f776e657220717565727920666f72206e6f6e657869737460008201527f656e7420746f6b656e0000000000000000000000000000000000000000000000602082015250565b7f746f6b656e49647320697320656d707479000000000000000000000000000000600082015250565b7f4552433732313a206d696e7420746f20746865207a65726f2061646472657373600082015250565b7f4552433732313a20617070726f76656420717565727920666f72206e6f6e657860008201527f697374656e7420746f6b656e0000000000000000000000000000000000000000602082015250565b7f4f776e61626c653a2063616c6c6572206973206e6f7420746865206f776e6572600082015250565b7f4552433732313a207472616e73666572206f6620746f6b656e2074686174206960008201527f73206e6f74206f776e0000000000000000000000000000000000000000000000602082015250565b7f4552433732314d657461646174613a2055524920717565727920666f72206e6f60008201527f6e6578697374656e7420746f6b656e0000000000000000000000000000000000602082015250565b7f4f6e6c7920565246436f6f7264696e61746f722063616e2066756c66696c6c00600082015250565b7f56616c75652062656c6f77207072696365000000000000000000000000000000600082015250565b7f50617573652069732064697361626c6500000000000000000000000000000000600082015250565b7f4552433732313a20617070726f76616c20746f2063757272656e74206f776e6560008201527f7200000000000000000000000000000000000000000000000000000000000000602082015250565b7f53616c6573206e6f74206f70656e000000000000000000000000000000000000600082015250565b50565b7f5472616e73666572206661696c65642e00000000000000000000000000000000600082015250565b7f4552433732313a207472616e736665722063616c6c6572206973206e6f74206f60008201527f776e6572206e6f7220617070726f766564000000000000000000000000000000602082015250565b7f43616e6e6f742066696e6420746f6b656e49647320496e646578202d2072656d60008201527f6f7665546f6b656e496400000000000000000000000000000000000000000000602082015250565b7f455243373231456e756d657261626c653a20676c6f62616c20696e646578206f60008201527f7574206f6620626f756e64730000000000000000000000000000000000000000602082015250565b7f536f6c646f757421000000000000000000000000000000000000000000000000600082015250565b61569581614cf8565b81146156a057600080fd5b50565b6156ac81614d0a565b81146156b757600080fd5b50565b6156c381614d16565b81146156ce57600080fd5b50565b6156da81614d20565b81146156e557600080fd5b50565b6156f181614d6c565b81146156fc57600080fd5b50565b61570881614d76565b811461571357600080fd5b5056fea26469706673582212209c4ccee9fecf061190a793977f60db3c06db918b6f43c01edad348702d7342da64736f6c63430008040033",
  "devdoc": {
    "kind": "dev",
    "methods": {
      "approve(address,uint256)": {
        "details": "See {IERC721-approve}."
      },
      "balanceOf(address)": {
        "details": "See {IERC721-balanceOf}."
      },
      "getApproved(uint256)": {
        "details": "See {IERC721-getApproved}."
      },
      "isApprovedForAll(address,address)": {
        "details": "See {IERC721-isApprovedForAll}."
      },
      "name()": {
        "details": "See {IERC721Metadata-name}."
      },
      "owner()": {
        "details": "Returns the address of the current owner."
      },
      "ownerOf(uint256)": {
        "details": "See {IERC721-ownerOf}."
      },
      "rawOwnerOf(uint256)": {
        "details": "Edit for rawOwnerOf token"
      },
      "renounceOwnership()": {
        "details": "Leaves the contract without owner. It will not be possible to call `onlyOwner` functions anymore. Can only be called by the current owner. NOTE: Renouncing ownership will leave the contract without an owner, thereby removing any functionality that is only available to the owner."
      },
      "safeTransferFrom(address,address,uint256)": {
        "details": "See {IERC721-safeTransferFrom}."
      },
      "safeTransferFrom(address,address,uint256,bytes)": {
        "details": "See {IERC721-safeTransferFrom}."
      },
      "setApprovalForAll(address,bool)": {
        "details": "See {IERC721-setApprovalForAll}."
      },
      "supportsInterface(bytes4)": {
        "details": "See {IERC165-supportsInterface}."
      },
      "symbol()": {
        "details": "See {IERC721Metadata-symbol}."
      },
      "tokenByIndex(uint256)": {
        "details": "See {IERC721Enumerable-tokenByIndex}."
      },
      "tokenOfOwnerByIndex(address,uint256)": {
        "details": "See {IERC721Enumerable-tokenOfOwnerByIndex}."
      },
      "tokenURI(uint256)": {
        "details": "See {IERC721Metadata-tokenURI}."
      },
      "totalSupply()": {
        "details": "See {IERC721Enumerable-totalSupply}."
      },
      "transferFrom(address,address,uint256)": {
        "details": "See {IERC721-transferFrom}."
      },
      "transferOwnership(address)": {
        "details": "Transfers ownership of the contract to a new account (`newOwner`). Can only be called by the current owner."
      }
    },
    "version": 1
  },
  "userdoc": {
    "kind": "user",
    "methods": {},
    "version": 1
  },
  "storageLayout": {
    "storage": [
      {
        "astId": 1824,
        "contract": "contracts/NFT.sol:Iceberg",
        "label": "_name",
        "offset": 0,
        "slot": "0",
        "type": "t_string_storage"
      },
      {
        "astId": 1826,
        "contract": "contracts/NFT.sol:Iceberg",
        "label": "_symbol",
        "offset": 0,
        "slot": "1",
        "type": "t_string_storage"
      },
      {
        "astId": 1830,
        "contract": "contracts/NFT.sol:Iceberg",
        "label": "_owners",
        "offset": 0,
        "slot": "2",
        "type": "t_mapping(t_uint256,t_address)"
      },
      {
        "astId": 1834,
        "contract": "contracts/NFT.sol:Iceberg",
        "label": "_balances",
        "offset": 0,
        "slot": "3",
        "type": "t_mapping(t_address,t_uint256)"
      },
      {
        "astId": 1838,
        "contract": "contracts/NFT.sol:Iceberg",
        "label": "_tokenApprovals",
        "offset": 0,
        "slot": "4",
        "type": "t_mapping(t_uint256,t_address)"
      },
      {
        "astId": 1844,
        "contract": "contracts/NFT.sol:Iceberg",
        "label": "_operatorApprovals",
        "offset": 0,
        "slot": "5",
        "type": "t_mapping(t_address,t_mapping(t_address,t_bool))"
      },
      {
        "astId": 2645,
        "contract": "contracts/NFT.sol:Iceberg",
        "label": "_ownedTokens",
        "offset": 0,
        "slot": "6",
        "type": "t_mapping(t_address,t_mapping(t_uint256,t_uint256))"
      },
      {
        "astId": 2649,
        "contract": "contracts/NFT.sol:Iceberg",
        "label": "_ownedTokensIndex",
        "offset": 0,
        "slot": "7",
        "type": "t_mapping(t_uint256,t_uint256)"
      },
      {
        "astId": 2652,
        "contract": "contracts/NFT.sol:Iceberg",
        "label": "_allTokens",
        "offset": 0,
        "slot": "8",
        "type": "t_array(t_uint256)dyn_storage"
      },
      {
        "astId": 2656,
        "contract": "contracts/NFT.sol:Iceberg",
        "label": "_allTokensIndex",
        "offset": 0,
        "slot": "9",
        "type": "t_mapping(t_uint256,t_uint256)"
      },
      {
        "astId": 79,
        "contract": "contracts/NFT.sol:Iceberg",
        "label": "nonces",
        "offset": 0,
        "slot": "10",
        "type": "t_mapping(t_bytes32,t_uint256)"
      },
      {
        "astId": 273,
        "contract": "contracts/NFT.sol:Iceberg",
        "label": "_owner",
        "offset": 0,
        "slot": "11",
        "type": "t_address"
      },
      {
        "astId": 3653,
        "contract": "contracts/NFT.sol:Iceberg",
        "label": "MAX_ELEMENTS",
        "offset": 0,
        "slot": "12",
        "type": "t_uint256"
      },
      {
        "astId": 3670,
        "contract": "contracts/NFT.sol:Iceberg",
        "label": "keyHash",
        "offset": 0,
        "slot": "13",
        "type": "t_bytes32"
      },
      {
        "astId": 3677,
        "contract": "contracts/NFT.sol:Iceberg",
        "label": "VRFFee",
        "offset": 0,
        "slot": "14",
        "type": "t_uint256"
      },
      {
        "astId": 3679,
        "contract": "contracts/NFT.sol:Iceberg",
        "label": "LinkToken",
        "offset": 0,
        "slot": "15",
        "type": "t_address"
      },
      {
        "astId": 3681,
        "contract": "contracts/NFT.sol:Iceberg",
        "label": "VRFCoordinator",
        "offset": 0,
        "slot": "16",
        "type": "t_address"
      },
      {
        "astId": 3684,
        "contract": "contracts/NFT.sol:Iceberg",
        "label": "tokenIds",
        "offset": 0,
        "slot": "17",
        "type": "t_array(t_uint256)dyn_storage"
      },
      {
        "astId": 3688,
        "contract": "contracts/NFT.sol:Iceberg",
        "label": "requestToSender",
        "offset": 0,
        "slot": "18",
        "type": "t_mapping(t_bytes32,t_address)"
      },
      {
        "astId": 3691,
        "contract": "contracts/NFT.sol:Iceberg",
        "label": "PAUSE",
        "offset": 0,
        "slot": "19",
        "type": "t_bool"
      },
      {
        "astId": 3693,
        "contract": "contracts/NFT.sol:Iceberg",
        "label": "baseTokenURI",
        "offset": 0,
        "slot": "20",
        "type": "t_string_storage"
      }
    ],
    "types": {
      "t_address": {
        "encoding": "inplace",
        "label": "address",
        "numberOfBytes": "20"
      },
      "t_array(t_uint256)dyn_storage": {
        "base": "t_uint256",
        "encoding": "dynamic_array",
        "label": "uint256[]",
        "numberOfBytes": "32"
      },
      "t_bool": {
        "encoding": "inplace",
        "label": "bool",
        "numberOfBytes": "1"
      },
      "t_bytes32": {
        "encoding": "inplace",
        "label": "bytes32",
        "numberOfBytes": "32"
      },
      "t_mapping(t_address,t_bool)": {
        "encoding": "mapping",
        "key": "t_address",
        "label": "mapping(address => bool)",
        "numberOfBytes": "32",
        "value": "t_bool"
      },
      "t_mapping(t_address,t_mapping(t_address,t_bool))": {
        "encoding": "mapping",
        "key": "t_address",
        "label": "mapping(address => mapping(address => bool))",
        "numberOfBytes": "32",
        "value": "t_mapping(t_address,t_bool)"
      },
      "t_mapping(t_address,t_mapping(t_uint256,t_uint256))": {
        "encoding": "mapping",
        "key": "t_address",
        "label": "mapping(address => mapping(uint256 => uint256))",
        "numberOfBytes": "32",
        "value": "t_mapping(t_uint256,t_uint256)"
      },
      "t_mapping(t_address,t_uint256)": {
        "encoding": "mapping",
        "key": "t_address",
        "label": "mapping(address => uint256)",
        "numberOfBytes": "32",
        "value": "t_uint256"
      },
      "t_mapping(t_bytes32,t_address)": {
        "encoding": "mapping",
        "key": "t_bytes32",
        "label": "mapping(bytes32 => address)",
        "numberOfBytes": "32",
        "value": "t_address"
      },
      "t_mapping(t_bytes32,t_uint256)": {
        "encoding": "mapping",
        "key": "t_bytes32",
        "label": "mapping(bytes32 => uint256)",
        "numberOfBytes": "32",
        "value": "t_uint256"
      },
      "t_mapping(t_uint256,t_address)": {
        "encoding": "mapping",
        "key": "t_uint256",
        "label": "mapping(uint256 => address)",
        "numberOfBytes": "32",
        "value": "t_address"
      },
      "t_mapping(t_uint256,t_uint256)": {
        "encoding": "mapping",
        "key": "t_uint256",
        "label": "mapping(uint256 => uint256)",
        "numberOfBytes": "32",
        "value": "t_uint256"
      },
      "t_string_storage": {
        "encoding": "bytes",
        "label": "string",
        "numberOfBytes": "32"
      },
      "t_uint256": {
        "encoding": "inplace",
        "label": "uint256",
        "numberOfBytes": "32"
      }
    }
  }
}