{
  "address": "0x0d2509E505697832eb1cd4884c59d6545d480EeD",
  "abi": [
    {
      "inputs": [
        {
          "internalType": "string",
          "name": "baseURI",
          "type": "string"
        },
        {
          "internalType": "uint256",
          "name": "maxAmount",
          "type": "uint256"
        },
        {
          "internalType": "address",
          "name": "_VRFCoordinator",
          "type": "address"
        },
        {
          "internalType": "address",
          "name": "_LinkToken",
          "type": "address"
        },
        {
          "internalType": "bytes32",
          "name": "_keyhash",
          "type": "bytes32"
        }
      ],
      "stateMutability": "nonpayable",
      "type": "constructor"
    },
    {
      "anonymous": false,
      "inputs": [
        {
          "indexed": true,
          "internalType": "address",
          "name": "_to",
          "type": "address"
        },
        {
          "indexed": false,
          "internalType": "address",
          "name": "_address",
          "type": "address"
        }
      ],
      "name": "AddedWhiteList",
      "type": "event"
    },
    {
      "anonymous": false,
      "inputs": [
        {
          "indexed": true,
          "internalType": "address",
          "name": "owner",
          "type": "address"
        },
        {
          "indexed": true,
          "internalType": "address",
          "name": "approved",
          "type": "address"
        },
        {
          "indexed": true,
          "internalType": "uint256",
          "name": "tokenId",
          "type": "uint256"
        }
      ],
      "name": "Approval",
      "type": "event"
    },
    {
      "anonymous": false,
      "inputs": [
        {
          "indexed": true,
          "internalType": "address",
          "name": "owner",
          "type": "address"
        },
        {
          "indexed": true,
          "internalType": "address",
          "name": "operator",
          "type": "address"
        },
        {
          "indexed": false,
          "internalType": "bool",
          "name": "approved",
          "type": "bool"
        }
      ],
      "name": "ApprovalForAll",
      "type": "event"
    },
    {
      "anonymous": false,
      "inputs": [
        {
          "indexed": true,
          "internalType": "address",
          "name": "previousOwner",
          "type": "address"
        },
        {
          "indexed": true,
          "internalType": "address",
          "name": "newOwner",
          "type": "address"
        }
      ],
      "name": "OwnershipTransferred",
      "type": "event"
    },
    {
      "anonymous": false,
      "inputs": [
        {
          "indexed": false,
          "internalType": "bool",
          "name": "pause",
          "type": "bool"
        }
      ],
      "name": "PauseEvent",
      "type": "event"
    },
    {
      "anonymous": false,
      "inputs": [
        {
          "indexed": false,
          "internalType": "uint256",
          "name": "_count",
          "type": "uint256"
        }
      ],
      "name": "RemainTokenCount",
      "type": "event"
    },
    {
      "anonymous": false,
      "inputs": [
        {
          "indexed": true,
          "internalType": "address",
          "name": "_to",
          "type": "address"
        },
        {
          "indexed": false,
          "internalType": "address",
          "name": "_address",
          "type": "address"
        }
      ],
      "name": "RemovedWhiteList",
      "type": "event"
    },
    {
      "anonymous": false,
      "inputs": [],
      "name": "SoldOut",
      "type": "event"
    },
    {
      "anonymous": false,
      "inputs": [
        {
          "indexed": true,
          "internalType": "address",
          "name": "from",
          "type": "address"
        },
        {
          "indexed": true,
          "internalType": "address",
          "name": "to",
          "type": "address"
        },
        {
          "indexed": true,
          "internalType": "uint256",
          "name": "tokenId",
          "type": "uint256"
        }
      ],
      "name": "Transfer",
      "type": "event"
    },
    {
      "anonymous": false,
      "inputs": [
        {
          "indexed": true,
          "internalType": "address",
          "name": "_to",
          "type": "address"
        },
        {
          "indexed": false,
          "internalType": "uint256",
          "name": "id",
          "type": "uint256"
        }
      ],
      "name": "welcomeToNFT",
      "type": "event"
    },
    {
      "inputs": [],
      "name": "LinkToken",
      "outputs": [
        {
          "internalType": "address",
          "name": "",
          "type": "address"
        }
      ],
      "stateMutability": "view",
      "type": "function"
    },
    {
      "inputs": [],
      "name": "MAX_ELEMENTS",
      "outputs": [
        {
          "internalType": "uint256",
          "name": "",
          "type": "uint256"
        }
      ],
      "stateMutability": "view",
      "type": "function"
    },
    {
      "inputs": [],
      "name": "PRICE",
      "outputs": [
        {
          "internalType": "uint256",
          "name": "",
          "type": "uint256"
        }
      ],
      "stateMutability": "view",
      "type": "function"
    },
    {
      "inputs": [],
      "name": "START_AT",
      "outputs": [
        {
          "internalType": "uint256",
          "name": "",
          "type": "uint256"
        }
      ],
      "stateMutability": "view",
      "type": "function"
    },
    {
      "inputs": [],
      "name": "VRFCoordinator",
      "outputs": [
        {
          "internalType": "address",
          "name": "",
          "type": "address"
        }
      ],
      "stateMutability": "view",
      "type": "function"
    },
    {
      "inputs": [
        {
          "internalType": "address",
          "name": "to",
          "type": "address"
        },
        {
          "internalType": "uint256",
          "name": "tokenId",
          "type": "uint256"
        }
      ],
      "name": "approve",
      "outputs": [],
      "stateMutability": "nonpayable",
      "type": "function"
    },
    {
      "inputs": [
        {
          "internalType": "address",
          "name": "owner",
          "type": "address"
        }
      ],
      "name": "balanceOf",
      "outputs": [
        {
          "internalType": "uint256",
          "name": "",
          "type": "uint256"
        }
      ],
      "stateMutability": "view",
      "type": "function"
    },
    {
      "inputs": [],
      "name": "baseTokenURI",
      "outputs": [
        {
          "internalType": "string",
          "name": "",
          "type": "string"
        }
      ],
      "stateMutability": "view",
      "type": "function"
    },
    {
      "inputs": [],
      "name": "creator1Address",
      "outputs": [
        {
          "internalType": "address",
          "name": "",
          "type": "address"
        }
      ],
      "stateMutability": "view",
      "type": "function"
    },
    {
      "inputs": [],
      "name": "creator2Address",
      "outputs": [
        {
          "internalType": "address",
          "name": "",
          "type": "address"
        }
      ],
      "stateMutability": "view",
      "type": "function"
    },
    {
      "inputs": [],
      "name": "devAddress",
      "outputs": [
        {
          "internalType": "address",
          "name": "",
          "type": "address"
        }
      ],
      "stateMutability": "view",
      "type": "function"
    },
    {
      "inputs": [
        {
          "internalType": "uint256",
          "name": "tokenId",
          "type": "uint256"
        }
      ],
      "name": "getApproved",
      "outputs": [
        {
          "internalType": "address",
          "name": "",
          "type": "address"
        }
      ],
      "stateMutability": "view",
      "type": "function"
    },
    {
      "inputs": [],
      "name": "getPause",
      "outputs": [
        {
          "internalType": "bool",
          "name": "",
          "type": "bool"
        }
      ],
      "stateMutability": "view",
      "type": "function"
    },
    {
      "inputs": [
        {
          "internalType": "uint256",
          "name": "offset",
          "type": "uint256"
        },
        {
          "internalType": "uint256",
          "name": "limit",
          "type": "uint256"
        }
      ],
      "name": "getUnsoldTokens",
      "outputs": [
        {
          "internalType": "uint256[]",
          "name": "",
          "type": "uint256[]"
        }
      ],
      "stateMutability": "view",
      "type": "function"
    },
    {
      "inputs": [
        {
          "internalType": "address",
          "name": "owner",
          "type": "address"
        },
        {
          "internalType": "address",
          "name": "operator",
          "type": "address"
        }
      ],
      "name": "isApprovedForAll",
      "outputs": [
        {
          "internalType": "bool",
          "name": "",
          "type": "bool"
        }
      ],
      "stateMutability": "view",
      "type": "function"
    },
    {
      "inputs": [
        {
          "internalType": "uint256[]",
          "name": "_tokensId",
          "type": "uint256[]"
        }
      ],
      "name": "mintUnsoldTokens",
      "outputs": [],
      "stateMutability": "nonpayable",
      "type": "function"
    },
    {
      "inputs": [],
      "name": "mintedTokenCount",
      "outputs": [
        {
          "internalType": "uint256",
          "name": "",
          "type": "uint256"
        }
      ],
      "stateMutability": "view",
      "type": "function"
    },
    {
      "inputs": [],
      "name": "name",
      "outputs": [
        {
          "internalType": "string",
          "name": "",
          "type": "string"
        }
      ],
      "stateMutability": "view",
      "type": "function"
    },
    {
      "inputs": [],
      "name": "owner",
      "outputs": [
        {
          "internalType": "address",
          "name": "",
          "type": "address"
        }
      ],
      "stateMutability": "view",
      "type": "function"
    },
    {
      "inputs": [
        {
          "internalType": "uint256",
          "name": "tokenId",
          "type": "uint256"
        }
      ],
      "name": "ownerOf",
      "outputs": [
        {
          "internalType": "address",
          "name": "",
          "type": "address"
        }
      ],
      "stateMutability": "view",
      "type": "function"
    },
    {
      "inputs": [
        {
          "internalType": "uint256",
          "name": "_count",
          "type": "uint256"
        }
      ],
      "name": "price",
      "outputs": [
        {
          "internalType": "uint256",
          "name": "",
          "type": "uint256"
        }
      ],
      "stateMutability": "pure",
      "type": "function"
    },
    {
      "inputs": [
        {
          "internalType": "bytes32",
          "name": "requestId",
          "type": "bytes32"
        },
        {
          "internalType": "uint256",
          "name": "randomness",
          "type": "uint256"
        }
      ],
      "name": "rawFulfillRandomness",
      "outputs": [],
      "stateMutability": "nonpayable",
      "type": "function"
    },
    {
      "inputs": [
        {
          "internalType": "uint256",
          "name": "tokenId",
          "type": "uint256"
        }
      ],
      "name": "rawOwnerOf",
      "outputs": [
        {
          "internalType": "address",
          "name": "",
          "type": "address"
        }
      ],
      "stateMutability": "view",
      "type": "function"
    },
    {
      "inputs": [],
      "name": "remainTokenCount",
      "outputs": [
        {
          "internalType": "uint256",
          "name": "",
          "type": "uint256"
        }
      ],
      "stateMutability": "view",
      "type": "function"
    },
    {
      "inputs": [],
      "name": "renounceOwnership",
      "outputs": [],
      "stateMutability": "nonpayable",
      "type": "function"
    },
    {
      "inputs": [
        {
          "internalType": "address",
          "name": "_to",
          "type": "address"
        },
        {
          "internalType": "uint8",
          "name": "amount",
          "type": "uint8"
        }
      ],
      "name": "requestRandomNFT",
      "outputs": [],
      "stateMutability": "payable",
      "type": "function"
    },
    {
      "inputs": [
        {
          "internalType": "uint256",
          "name": "",
          "type": "uint256"
        },
        {
          "internalType": "uint256",
          "name": "value",
          "type": "uint256"
        }
      ],
      "name": "royaltyInfo",
      "outputs": [
        {
          "internalType": "address",
          "name": "receiver",
          "type": "address"
        },
        {
          "internalType": "uint256",
          "name": "royaltyAmount",
          "type": "uint256"
        }
      ],
      "stateMutability": "view",
      "type": "function"
    },
    {
      "inputs": [
        {
          "internalType": "address",
          "name": "from",
          "type": "address"
        },
        {
          "internalType": "address",
          "name": "to",
          "type": "address"
        },
        {
          "internalType": "uint256",
          "name": "tokenId",
          "type": "uint256"
        }
      ],
      "name": "safeTransferFrom",
      "outputs": [],
      "stateMutability": "nonpayable",
      "type": "function"
    },
    {
      "inputs": [
        {
          "internalType": "address",
          "name": "from",
          "type": "address"
        },
        {
          "internalType": "address",
          "name": "to",
          "type": "address"
        },
        {
          "internalType": "uint256",
          "name": "tokenId",
          "type": "uint256"
        },
        {
          "internalType": "bytes",
          "name": "_data",
          "type": "bytes"
        }
      ],
      "name": "safeTransferFrom",
      "outputs": [],
      "stateMutability": "nonpayable",
      "type": "function"
    },
    {
      "inputs": [
        {
          "internalType": "address",
          "name": "operator",
          "type": "address"
        },
        {
          "internalType": "bool",
          "name": "approved",
          "type": "bool"
        }
      ],
      "name": "setApprovalForAll",
      "outputs": [],
      "stateMutability": "nonpayable",
      "type": "function"
    },
    {
      "inputs": [
        {
          "internalType": "string",
          "name": "baseURI",
          "type": "string"
        }
      ],
      "name": "setBaseURI",
      "outputs": [],
      "stateMutability": "nonpayable",
      "type": "function"
    },
    {
      "inputs": [
        {
          "internalType": "uint256",
          "name": "_maxElements",
          "type": "uint256"
        }
      ],
      "name": "setMaxElementCount",
      "outputs": [],
      "stateMutability": "nonpayable",
      "type": "function"
    },
    {
      "inputs": [
        {
          "internalType": "bool",
          "name": "_pause",
          "type": "bool"
        }
      ],
      "name": "setPause",
      "outputs": [],
      "stateMutability": "nonpayable",
      "type": "function"
    },
    {
      "inputs": [
        {
          "internalType": "address",
          "name": "recipient",
          "type": "address"
        },
        {
          "internalType": "uint256",
          "name": "value",
          "type": "uint256"
        }
      ],
      "name": "setRoyalties",
      "outputs": [],
      "stateMutability": "nonpayable",
      "type": "function"
    },
    {
      "inputs": [
        {
          "internalType": "bytes4",
          "name": "interfaceId",
          "type": "bytes4"
        }
      ],
      "name": "supportsInterface",
      "outputs": [
        {
          "internalType": "bool",
          "name": "",
          "type": "bool"
        }
      ],
      "stateMutability": "view",
      "type": "function"
    },
    {
      "inputs": [],
      "name": "symbol",
      "outputs": [
        {
          "internalType": "string",
          "name": "",
          "type": "string"
        }
      ],
      "stateMutability": "view",
      "type": "function"
    },
    {
      "inputs": [
        {
          "internalType": "uint256",
          "name": "index",
          "type": "uint256"
        }
      ],
      "name": "tokenByIndex",
      "outputs": [
        {
          "internalType": "uint256",
          "name": "",
          "type": "uint256"
        }
      ],
      "stateMutability": "view",
      "type": "function"
    },
    {
      "inputs": [
        {
          "internalType": "address",
          "name": "owner",
          "type": "address"
        },
        {
          "internalType": "uint256",
          "name": "index",
          "type": "uint256"
        }
      ],
      "name": "tokenOfOwnerByIndex",
      "outputs": [
        {
          "internalType": "uint256",
          "name": "",
          "type": "uint256"
        }
      ],
      "stateMutability": "view",
      "type": "function"
    },
    {
      "inputs": [
        {
          "internalType": "uint256",
          "name": "tokenId",
          "type": "uint256"
        }
      ],
      "name": "tokenURI",
      "outputs": [
        {
          "internalType": "string",
          "name": "",
          "type": "string"
        }
      ],
      "stateMutability": "view",
      "type": "function"
    },
    {
      "inputs": [],
      "name": "totalSupply",
      "outputs": [
        {
          "internalType": "uint256",
          "name": "",
          "type": "uint256"
        }
      ],
      "stateMutability": "view",
      "type": "function"
    },
    {
      "inputs": [
        {
          "internalType": "address",
          "name": "from",
          "type": "address"
        },
        {
          "internalType": "address",
          "name": "to",
          "type": "address"
        },
        {
          "internalType": "uint256",
          "name": "tokenId",
          "type": "uint256"
        }
      ],
      "name": "transferFrom",
      "outputs": [],
      "stateMutability": "nonpayable",
      "type": "function"
    },
    {
      "inputs": [
        {
          "internalType": "address",
          "name": "newOwner",
          "type": "address"
        }
      ],
      "name": "transferOwnership",
      "outputs": [],
      "stateMutability": "nonpayable",
      "type": "function"
    },
    {
      "inputs": [
        {
          "internalType": "address",
          "name": "_owner",
          "type": "address"
        }
      ],
      "name": "walletOfOwner",
      "outputs": [
        {
          "internalType": "uint256[]",
          "name": "",
          "type": "uint256[]"
        }
      ],
      "stateMutability": "view",
      "type": "function"
    },
    {
      "inputs": [],
      "name": "withdrawAll",
      "outputs": [],
      "stateMutability": "nonpayable",
      "type": "function"
    }
  ],
  "transactionHash": "0x39b2391a1a8ec2303fd38db563deeeca54bacbd4301cb1dc0da99bb9b701f442",
  "args": [
    "https://gateway.pinata.cloud/ipfs/Qmd8ZqZqrW7r99qbmGbKwrsp8HbCxAHBMfWYGSp8ao43hX/",
    6,
    "0xb3dCcb4Cf7a26f6cf6B120Cf5A73875B7BBc655B",
    "0x01BE23585060835E02B77ef475b0Cc51aA1e0709",
    "0x2ed0feb3e7fd2022120aa84fab1945545a9f2ffc9076fd6156fa96eaff4c1311"
  ],
  "solcInputHash": "4c161f6b189ca9a8a4f5525983978fe0",
  "bytecode": "0x60c06040526122b8600d5567016345785d8a0000600f556000601560006101000a81548160ff0219169083151502179055503480156200003e57600080fd5b50604051620067ac380380620067ac83398181016040528101906200006491906200077a565b82826040518060400160405280600781526020017f49434542455247000000000000000000000000000000000000000000000000008152506040518060400160405280600381526020017f49434500000000000000000000000000000000000000000000000000000000008152508160009080519060200190620000ea92919062000613565b5080600190805190602001906200010392919062000613565b5050508173ffffffffffffffffffffffffffffffffffffffff1660a08173ffffffffffffffffffffffffffffffffffffffff1660601b815250508073ffffffffffffffffffffffffffffffffffffffff1660808173ffffffffffffffffffffffffffffffffffffffff1660601b815250505050620001966200018a6200027460201b60201c565b6200027c60201b60201c565b620001a7856200034260201b60201c565b620001b884620003ed60201b60201c565b620001e0735db342fb039c1c85bec5fe89af6734621f421d846103e86200049660201b60201c565b82601160006101000a81548173ffffffffffffffffffffffffffffffffffffffff021916908373ffffffffffffffffffffffffffffffffffffffff16021790555081601060006101000a81548173ffffffffffffffffffffffffffffffffffffffff021916908373ffffffffffffffffffffffffffffffffffffffff16021790555080600e81905550505050505062000b8d565b600033905090565b6000600c60009054906101000a900473ffffffffffffffffffffffffffffffffffffffff16905081600c60006101000a81548173ffffffffffffffffffffffffffffffffffffffff021916908373ffffffffffffffffffffffffffffffffffffffff1602179055508173ffffffffffffffffffffffffffffffffffffffff168173ffffffffffffffffffffffffffffffffffffffff167f8be0079c531659141344cd1fd0a4f28419497f9722a3daafe3b4186f6b6457e060405160405180910390a35050565b620003526200027460201b60201c565b73ffffffffffffffffffffffffffffffffffffffff1662000378620004ac60201b60201c565b73ffffffffffffffffffffffffffffffffffffffff1614620003d1576040517f08c379a0000000000000000000000000000000000000000000000000000000008152600401620003c89062000885565b60405180910390fd5b8060169080519060200190620003e992919062000613565b5050565b620003fd6200027460201b60201c565b73ffffffffffffffffffffffffffffffffffffffff1662000423620004ac60201b60201c565b73ffffffffffffffffffffffffffffffffffffffff16146200047c576040517f08c379a0000000000000000000000000000000000000000000000000000000008152600401620004739062000885565b60405180910390fd5b80600d8190555062000493620004d660201b60201c565b50565b620004a882826200052660201b60201c565b5050565b6000600c60009054906101000a900473ffffffffffffffffffffffffffffffffffffffff16905090565b60005b600d548110156200052357601281908060018154018082558091505060019003906000526020600020016000909190919091505580806200051a9062000a01565b915050620004d9565b50565b6127108111156200056e576040517f08c379a0000000000000000000000000000000000000000000000000000000008152600401620005659062000863565b60405180910390fd5b60405180604001604052808373ffffffffffffffffffffffffffffffffffffffff1681526020018262ffffff16815250600a60008201518160000160006101000a81548173ffffffffffffffffffffffffffffffffffffffff021916908373ffffffffffffffffffffffffffffffffffffffff16021790555060208201518160000160146101000a81548162ffffff021916908362ffffff1602179055509050505050565b828054620006219062000995565b90600052602060002090601f01602090048101928262000645576000855562000691565b82601f106200066057805160ff191683800117855562000691565b8280016001018555821562000691579182015b828111156200069057825182559160200191906001019062000673565b5b509050620006a09190620006a4565b5090565b5b80821115620006bf576000816000905550600101620006a5565b5090565b6000620006da620006d484620008d0565b620008a7565b905082815260208101848484011115620006f357600080fd5b620007008482856200095f565b509392505050565b600081519050620007198162000b3f565b92915050565b600081519050620007308162000b59565b92915050565b600082601f8301126200074857600080fd5b81516200075a848260208601620006c3565b91505092915050565b600081519050620007748162000b73565b92915050565b600080600080600060a086880312156200079357600080fd5b600086015167ffffffffffffffff811115620007ae57600080fd5b620007bc8882890162000736565b9550506020620007cf8882890162000763565b9450506040620007e28882890162000708565b9350506060620007f58882890162000708565b925050608062000808888289016200071f565b9150509295509295909350565b600062000824601a8362000906565b9150620008318262000aed565b602082019050919050565b60006200084b60208362000906565b9150620008588262000b16565b602082019050919050565b600060208201905081810360008301526200087e8162000815565b9050919050565b60006020820190508181036000830152620008a0816200083c565b9050919050565b6000620008b3620008c6565b9050620008c18282620009cb565b919050565b6000604051905090565b600067ffffffffffffffff821115620008ee57620008ed62000aad565b5b620008f98262000adc565b9050602081019050919050565b600082825260208201905092915050565b6000620009248262000935565b9050919050565b6000819050919050565b600073ffffffffffffffffffffffffffffffffffffffff82169050919050565b6000819050919050565b60005b838110156200097f57808201518184015260208101905062000962565b838111156200098f576000848401525b50505050565b60006002820490506001821680620009ae57607f821691505b60208210811415620009c557620009c462000a7e565b5b50919050565b620009d68262000adc565b810181811067ffffffffffffffff82111715620009f857620009f762000aad565b5b80604052505050565b600062000a0e8262000955565b91507fffffffffffffffffffffffffffffffffffffffffffffffffffffffffffffffff82141562000a445762000a4362000a4f565b5b600182019050919050565b7f4e487b7100000000000000000000000000000000000000000000000000000000600052601160045260246000fd5b7f4e487b7100000000000000000000000000000000000000000000000000000000600052602260045260246000fd5b7f4e487b7100000000000000000000000000000000000000000000000000000000600052604160045260246000fd5b6000601f19601f8301169050919050565b7f45524332393831526f79616c746965733a20546f6f2068696768000000000000600082015250565b7f4f776e61626c653a2063616c6c6572206973206e6f7420746865206f776e6572600082015250565b62000b4a8162000917565b811462000b5657600080fd5b50565b62000b64816200092b565b811462000b7057600080fd5b50565b62000b7e8162000955565b811462000b8a57600080fd5b50565b60805160601c60a05160601c615be562000bc7600039600081816118c801526129010152600081816115e201526128c50152615be56000f3fe6080604052600436106102675760003560e01c8063721c492c11610144578063aa3d92fb116100b6578063c87b56dd1161007a578063c87b56dd14610948578063d091350514610985578063d547cfb7146109b0578063e985e9c5146109db578063f2fde38b14610a18578063fdf5a49f14610a4157610267565b8063aa3d92fb14610877578063b2992bb0146108a2578063b88d4fde146108cb578063bedb86fb146108f4578063bf7b766d1461091d57610267565b80638d859f3e116101085780638d859f3e146107675780638da5cb5b1461079257806394985ddd146107bd57806395d89b41146107e6578063967d61d914610811578063a22cb4651461084e57610267565b8063721c492c146106a35780637f81be69146106bf578063853828b6146106fc5780638c7ea24b146107135780638d0419881461073c57610267565b80633502a716116101dd5780634f6ccce7116101a15780634f6ccce7146105815780634f8e2fdf146105be57806355f804b3146105e95780636352211e1461061257806370a082311461064f578063715018a61461068c57610267565b80633502a7161461049a5780633ad10ef6146104c55780633e3ca9d3146104f057806342842e0e1461051b578063438b63001461054457610267565b806323b872dd1161022f57806323b872dd1461036557806326a49e371461038e5780632a55205a146103cb5780632b799146146104095780632f745c591461043257806333b608631461046f57610267565b806301ffc9a71461026c57806306fdde03146102a9578063081812fc146102d4578063095ea7b31461031157806318160ddd1461033a575b600080fd5b34801561027857600080fd5b50610293600480360381019061028e919061425d565b610a6c565b6040516102a09190614a7f565b60405180910390f35b3480156102b557600080fd5b506102be610a7e565b6040516102cb9190614b08565b60405180910390f35b3480156102e057600080fd5b506102fb60048036038101906102f691906142f0565b610b10565b604051610308919061498f565b60405180910390f35b34801561031d57600080fd5b5061033860048036038101906103339190614116565b610b95565b005b34801561034657600080fd5b5061034f610cad565b60405161035c9190614eca565b60405180910390f35b34801561037157600080fd5b5061038c60048036038101906103879190614010565b610cba565b005b34801561039a57600080fd5b506103b560048036038101906103b091906142f0565b610d1a565b6040516103c29190614eca565b60405180910390f35b3480156103d757600080fd5b506103f260048036038101906103ed9190614342565b610d3d565b6040516104009291906149f6565b60405180910390f35b34801561041557600080fd5b50610430600480360381019061042b91906142f0565b610dfd565b005b34801561043e57600080fd5b5061045960048036038101906104549190614116565b610e8b565b6040516104669190614eca565b60405180910390f35b34801561047b57600080fd5b50610484610f30565b604051610491919061498f565b60405180910390f35b3480156104a657600080fd5b506104af610f56565b6040516104bc9190614eca565b60405180910390f35b3480156104d157600080fd5b506104da610f5c565b6040516104e7919061498f565b60405180910390f35b3480156104fc57600080fd5b50610505610f74565b6040516105129190614a7f565b60405180910390f35b34801561052757600080fd5b50610542600480360381019061053d9190614010565b610f8b565b005b34801561055057600080fd5b5061056b60048036038101906105669190613fab565b610fab565b6040516105789190614a5d565b60405180910390f35b34801561058d57600080fd5b506105a860048036038101906105a391906142f0565b6110a5565b6040516105b59190614eca565b60405180910390f35b3480156105ca57600080fd5b506105d361113c565b6040516105e0919061498f565b60405180910390f35b3480156105f557600080fd5b50610610600480360381019061060b91906142af565b611162565b005b34801561061e57600080fd5b50610639600480360381019061063491906142f0565b6111f8565b604051610646919061498f565b60405180910390f35b34801561065b57600080fd5b5061067660048036038101906106719190613fab565b6112aa565b6040516106839190614eca565b60405180910390f35b34801561069857600080fd5b506106a1611362565b005b6106bd60048036038101906106b89190614152565b6113ea565b005b3480156106cb57600080fd5b506106e660048036038101906106e191906142f0565b611764565b6040516106f3919061498f565b60405180910390f35b34801561070857600080fd5b506107116117a1565b005b34801561071f57600080fd5b5061073a60048036038101906107359190614116565b611876565b005b34801561074857600080fd5b50610751611884565b60405161075e9190614eca565b60405180910390f35b34801561077357600080fd5b5061077c611891565b6040516107899190614eca565b60405180910390f35b34801561079e57600080fd5b506107a761189c565b6040516107b4919061498f565b60405180910390f35b3480156107c957600080fd5b506107e460048036038101906107df9190614221565b6118c6565b005b3480156107f257600080fd5b506107fb611962565b6040516108089190614b08565b60405180910390f35b34801561081d57600080fd5b5061083860048036038101906108339190614342565b6119f4565b6040516108459190614a5d565b60405180910390f35b34801561085a57600080fd5b50610875600480360381019061087091906140da565b611b27565b005b34801561088357600080fd5b5061088c611ca8565b604051610899919061498f565b60405180910390f35b3480156108ae57600080fd5b506108c960048036038101906108c4919061418e565b611cc0565b005b3480156108d757600080fd5b506108f260048036038101906108ed919061405f565b611e7d565b005b34801561090057600080fd5b5061091b600480360381019061091691906141cf565b611edf565b005b34801561092957600080fd5b50610932611fbe565b60405161093f9190614eca565b60405180910390f35b34801561095457600080fd5b5061096f600480360381019061096a91906142f0565b611fc3565b60405161097c9190614b08565b60405180910390f35b34801561099157600080fd5b5061099a61206a565b6040516109a7919061498f565b60405180910390f35b3480156109bc57600080fd5b506109c5612082565b6040516109d29190614b08565b60405180910390f35b3480156109e757600080fd5b50610a0260048036038101906109fd9190613fd4565b612110565b604051610a0f9190614a7f565b60405180910390f35b348015610a2457600080fd5b50610a3f6004803603810190610a3a9190613fab565b6121a4565b005b348015610a4d57600080fd5b50610a5661229c565b604051610a639190614eca565b60405180910390f35b6000610a77826122b8565b9050919050565b606060008054610a8d90615235565b80601f0160208091040260200160405190810160405280929190818152602001828054610ab990615235565b8015610b065780601f10610adb57610100808354040283529160200191610b06565b820191906000526020600020905b815481529060010190602001808311610ae957829003601f168201915b5050505050905090565b6000610b1b82612332565b610b5a576040517f08c379a0000000000000000000000000000000000000000000000000000000008152600401610b5190614d0a565b60405180910390fd5b6004600083815260200190815260200160002060009054906101000a900473ffffffffffffffffffffffffffffffffffffffff169050919050565b6000610ba0826111f8565b90508073ffffffffffffffffffffffffffffffffffffffff168373ffffffffffffffffffffffffffffffffffffffff161415610c11576040517f08c379a0000000000000000000000000000000000000000000000000000000008152600401610c0890614dea565b60405180910390fd5b8073ffffffffffffffffffffffffffffffffffffffff16610c3061239e565b73ffffffffffffffffffffffffffffffffffffffff161480610c5f5750610c5e81610c5961239e565b612110565b5b610c9e576040517f08c379a0000000000000000000000000000000000000000000000000000000008152600401610c9590614c6a565b60405180910390fd5b610ca883836123a6565b505050565b6000600880549050905090565b610ccb610cc561239e565b8261245f565b610d0a576040517f08c379a0000000000000000000000000000000000000000000000000000000008152600401610d0190614e4a565b60405180910390fd5b610d1583838361253d565b505050565b6000610d368266470de4df82000061279990919063ffffffff16565b9050919050565b6000806000600a6040518060400160405290816000820160009054906101000a900473ffffffffffffffffffffffffffffffffffffffff1673ffffffffffffffffffffffffffffffffffffffff1673ffffffffffffffffffffffffffffffffffffffff1681526020016000820160149054906101000a900462ffffff1662ffffff1662ffffff1681525050905080600001519250612710816020015162ffffff1685610de991906150a6565b610df39190615075565b9150509250929050565b610e0561239e565b73ffffffffffffffffffffffffffffffffffffffff16610e2361189c565b73ffffffffffffffffffffffffffffffffffffffff1614610e79576040517f08c379a0000000000000000000000000000000000000000000000000000000008152600401610e7090614d2a565b60405180910390fd5b80600d81905550610e886127af565b50565b6000610e96836112aa565b8210610ed7576040517f08c379a0000000000000000000000000000000000000000000000000000000008152600401610ece90614b4a565b60405180910390fd5b600660008473ffffffffffffffffffffffffffffffffffffffff1673ffffffffffffffffffffffffffffffffffffffff168152602001908152602001600020600083815260200190815260200160002054905092915050565b601160009054906101000a900473ffffffffffffffffffffffffffffffffffffffff1681565b600d5481565b7394da7d3d5f83a7253a2b96427d69c971a4bac6df81565b6000601560009054906101000a900460ff16905090565b610fa683838360405180602001604052806000815250611e7d565b505050565b60606000610fb8836112aa565b905060008167ffffffffffffffff811115610ffc577f4e487b7100000000000000000000000000000000000000000000000000000000600052604160045260246000fd5b60405190808252806020026020018201604052801561102a5781602001602082028036833780820191505090505b50905060005b8281101561109a576110428582610e8b565b82828151811061107b577f4e487b7100000000000000000000000000000000000000000000000000000000600052603260045260246000fd5b602002602001018181525050808061109290615298565b915050611030565b508092505050919050565b60006110af610cad565b82106110f0576040517f08c379a00000000000000000000000000000000000000000000000000000000081526004016110e790614e8a565b60405180910390fd5b6008828154811061112a577f4e487b7100000000000000000000000000000000000000000000000000000000600052603260045260246000fd5b90600052602060002001549050919050565b601060009054906101000a900473ffffffffffffffffffffffffffffffffffffffff1681565b61116a61239e565b73ffffffffffffffffffffffffffffffffffffffff1661118861189c565b73ffffffffffffffffffffffffffffffffffffffff16146111de576040517f08c379a00000000000000000000000000000000000000000000000000000000081526004016111d590614d2a565b60405180910390fd5b80601690805190602001906111f4929190613ce5565b5050565b6000806002600084815260200190815260200160002060009054906101000a900473ffffffffffffffffffffffffffffffffffffffff169050600073ffffffffffffffffffffffffffffffffffffffff168173ffffffffffffffffffffffffffffffffffffffff1614156112a1576040517f08c379a000000000000000000000000000000000000000000000000000000000815260040161129890614caa565b60405180910390fd5b80915050919050565b60008073ffffffffffffffffffffffffffffffffffffffff168273ffffffffffffffffffffffffffffffffffffffff16141561131b576040517f08c379a000000000000000000000000000000000000000000000000000000000815260040161131290614c8a565b60405180910390fd5b600360008373ffffffffffffffffffffffffffffffffffffffff1673ffffffffffffffffffffffffffffffffffffffff168152602001908152602001600020549050919050565b61136a61239e565b73ffffffffffffffffffffffffffffffffffffffff1661138861189c565b73ffffffffffffffffffffffffffffffffffffffff16146113de576040517f08c379a00000000000000000000000000000000000000000000000000000000081526004016113d590614d2a565b60405180910390fd5b6113e860006127fb565b565b60006113f4611884565b1015611435576040517f08c379a000000000000000000000000000000000000000000000000000000000815260040161142c90614eaa565b60405180910390fd5b601560009054906101000a900460ff1615801561149c5750601460003373ffffffffffffffffffffffffffffffffffffffff1673ffffffffffffffffffffffffffffffffffffffff16815260200190815260200160002060009054906101000a900460ff16155b6114db576040517f08c379a00000000000000000000000000000000000000000000000000000000081526004016114d290614e0a565b60405180910390fd5b60006114e561229c565b905060028260ff16111561152e576040517f08c379a000000000000000000000000000000000000000000000000000000000815260040161152590614c2a565b60405180910390fd5b600d548260ff1682611540919061501f565b1115611581576040517f08c379a000000000000000000000000000000000000000000000000000000000815260040161157890614c2a565b60405180910390fd5b61158d8260ff16610d1a565b3410156115cf576040517f08c379a00000000000000000000000000000000000000000000000000000000081526004016115c690614daa565b60405180910390fd5b8160ff16600f546115e091906150a6565b7f000000000000000000000000000000000000000000000000000000000000000073ffffffffffffffffffffffffffffffffffffffff166370a08231306040518263ffffffff1660e01b8152600401611639919061498f565b60206040518083038186803b15801561165157600080fd5b505afa158015611665573d6000803e3d6000fd5b505050506040513d601f19601f820116820180604052508101906116899190614319565b10156116ca576040517f08c379a00000000000000000000000000000000000000000000000000000000081526004016116c190614c0a565b60405180910390fd5b60005b6001836116da9190615134565b60ff168160ff161161175e5760006116f6600e54600f546128c1565b9050846013600083815260200190815260200160002060006101000a81548173ffffffffffffffffffffffffffffffffffffffff021916908373ffffffffffffffffffffffffffffffffffffffff160217905550508080611756906152e1565b9150506116cd565b50505050565b60006002600083815260200190815260200160002060009054906101000a900473ffffffffffffffffffffffffffffffffffffffff169050919050565b6117a961239e565b73ffffffffffffffffffffffffffffffffffffffff166117c761189c565b73ffffffffffffffffffffffffffffffffffffffff161461181d576040517f08c379a000000000000000000000000000000000000000000000000000000000815260040161181490614d2a565b60405180910390fd5b60004790506000811161182f57600080fd5b61187373c09eac15f9ba6462e8e4612af7c431e1cfe08b8761186e606461186060648661279990919063ffffffff16565b612a2390919063ffffffff16565b612a39565b50565b6118808282612aea565b5050565b6000601280549050905090565b66470de4df82000081565b6000600c60009054906101000a900473ffffffffffffffffffffffffffffffffffffffff16905090565b7f000000000000000000000000000000000000000000000000000000000000000073ffffffffffffffffffffffffffffffffffffffff163373ffffffffffffffffffffffffffffffffffffffff1614611954576040517f08c379a000000000000000000000000000000000000000000000000000000000815260040161194b90614d8a565b60405180910390fd5b61195e8282612bd4565b5050565b60606001805461197190615235565b80601f016020809104026020016040519081016040528092919081815260200182805461199d90615235565b80156119ea5780601f106119bf576101008083540402835291602001916119ea565b820191906000526020600020905b8154815290600101906020018083116119cd57829003601f168201915b5050505050905090565b606060008267ffffffffffffffff811115611a38577f4e487b7100000000000000000000000000000000000000000000000000000000600052604160045260246000fd5b604051908082528060200260200182016040528015611a665781602001602082028036833780820191505090505b50905060005b83811015611b1c5760008582611a82919061501f565b9050600073ffffffffffffffffffffffffffffffffffffffff16611aa582611764565b73ffffffffffffffffffffffffffffffffffffffff161415611b085780838381518110611afb577f4e487b7100000000000000000000000000000000000000000000000000000000600052603260045260246000fd5b6020026020010181815250505b508080611b1490615298565b915050611a6c565b508091505092915050565b611b2f61239e565b73ffffffffffffffffffffffffffffffffffffffff168273ffffffffffffffffffffffffffffffffffffffff161415611b9d576040517f08c379a0000000000000000000000000000000000000000000000000000000008152600401611b9490614bea565b60405180910390fd5b8060056000611baa61239e565b73ffffffffffffffffffffffffffffffffffffffff1673ffffffffffffffffffffffffffffffffffffffff16815260200190815260200160002060008473ffffffffffffffffffffffffffffffffffffffff1673ffffffffffffffffffffffffffffffffffffffff16815260200190815260200160002060006101000a81548160ff0219169083151502179055508173ffffffffffffffffffffffffffffffffffffffff16611c5761239e565b73ffffffffffffffffffffffffffffffffffffffff167f17307eab39ab6107e8899845ad3d59bd9653f200f220920489ca2b5937696c3183604051611c9c9190614a7f565b60405180910390a35050565b73c09eac15f9ba6462e8e4612af7c431e1cfe08b8781565b611cc861239e565b73ffffffffffffffffffffffffffffffffffffffff16611ce661189c565b73ffffffffffffffffffffffffffffffffffffffff1614611d3c576040517f08c379a0000000000000000000000000000000000000000000000000000000008152600401611d3390614d2a565b60405180910390fd5b601560009054906101000a900460ff16611d8b576040517f08c379a0000000000000000000000000000000000000000000000000000000008152600401611d8290614dca565b60405180910390fd5b60005b8151811015611e7957600073ffffffffffffffffffffffffffffffffffffffff16611df8838381518110611deb577f4e487b7100000000000000000000000000000000000000000000000000000000600052603260045260246000fd5b6020026020010151611764565b73ffffffffffffffffffffffffffffffffffffffff161415611e6657611e65611e1f61189c565b838381518110611e58577f4e487b7100000000000000000000000000000000000000000000000000000000600052603260045260246000fd5b6020026020010151612cf4565b5b8080611e7190615298565b915050611d8e565b5050565b611e8e611e8861239e565b8361245f565b611ecd576040517f08c379a0000000000000000000000000000000000000000000000000000000008152600401611ec490614e4a565b60405180910390fd5b611ed984848484612d50565b50505050565b611ee761239e565b73ffffffffffffffffffffffffffffffffffffffff16611f0561189c565b73ffffffffffffffffffffffffffffffffffffffff1614611f5b576040517f08c379a0000000000000000000000000000000000000000000000000000000008152600401611f5290614d2a565b60405180910390fd5b80601560006101000a81548160ff0219169083151502179055507f10e1c3fcaff06b68391033547e8f9bb8067d7c4a2e32659b0629153814d242d3601560009054906101000a900460ff16604051611fb39190614a7f565b60405180910390a150565b600181565b6060611fce82612332565b61200d576040517f08c379a000000000000000000000000000000000000000000000000000000000815260040161200490614d6a565b60405180910390fd5b6000612017612dac565b905060008151116120375760405180602001604052806000815250612062565b8061204184612e3e565b604051602001612052929190614956565b6040516020818303038152906040525b915050919050565b735db342fb039c1c85bec5fe89af6734621f421d8481565b6016805461208f90615235565b80601f01602080910402602001604051908101604052809291908181526020018280546120bb90615235565b80156121085780601f106120dd57610100808354040283529160200191612108565b820191906000526020600020905b8154815290600101906020018083116120eb57829003601f168201915b505050505081565b6000600560008473ffffffffffffffffffffffffffffffffffffffff1673ffffffffffffffffffffffffffffffffffffffff16815260200190815260200160002060008373ffffffffffffffffffffffffffffffffffffffff1673ffffffffffffffffffffffffffffffffffffffff16815260200190815260200160002060009054906101000a900460ff16905092915050565b6121ac61239e565b73ffffffffffffffffffffffffffffffffffffffff166121ca61189c565b73ffffffffffffffffffffffffffffffffffffffff1614612220576040517f08c379a000000000000000000000000000000000000000000000000000000000815260040161221790614d2a565b60405180910390fd5b600073ffffffffffffffffffffffffffffffffffffffff168173ffffffffffffffffffffffffffffffffffffffff161415612290576040517f08c379a000000000000000000000000000000000000000000000000000000000815260040161228790614b8a565b60405180910390fd5b612299816127fb565b50565b60006122a6611884565b600d546122b39190615100565b905090565b60007f2a55205a000000000000000000000000000000000000000000000000000000007bffffffffffffffffffffffffffffffffffffffffffffffffffffffff1916827bffffffffffffffffffffffffffffffffffffffffffffffffffffffff1916148061232b575061232a82612feb565b5b9050919050565b60008073ffffffffffffffffffffffffffffffffffffffff166002600084815260200190815260200160002060009054906101000a900473ffffffffffffffffffffffffffffffffffffffff1673ffffffffffffffffffffffffffffffffffffffff1614159050919050565b600033905090565b816004600083815260200190815260200160002060006101000a81548173ffffffffffffffffffffffffffffffffffffffff021916908373ffffffffffffffffffffffffffffffffffffffff160217905550808273ffffffffffffffffffffffffffffffffffffffff16612419836111f8565b73ffffffffffffffffffffffffffffffffffffffff167f8c5be1e5ebec7d5bd14f71427d1e84f3dd0314c0f7b2291e5b200ac8c7c3b92560405160405180910390a45050565b600061246a82612332565b6124a9576040517f08c379a00000000000000000000000000000000000000000000000000000000081526004016124a090614c4a565b60405180910390fd5b60006124b4836111f8565b90508073ffffffffffffffffffffffffffffffffffffffff168473ffffffffffffffffffffffffffffffffffffffff16148061252357508373ffffffffffffffffffffffffffffffffffffffff1661250b84610b10565b73ffffffffffffffffffffffffffffffffffffffff16145b8061253457506125338185612110565b5b91505092915050565b8273ffffffffffffffffffffffffffffffffffffffff1661255d826111f8565b73ffffffffffffffffffffffffffffffffffffffff16146125b3576040517f08c379a00000000000000000000000000000000000000000000000000000000081526004016125aa90614d4a565b60405180910390fd5b600073ffffffffffffffffffffffffffffffffffffffff168273ffffffffffffffffffffffffffffffffffffffff161415612623576040517f08c379a000000000000000000000000000000000000000000000000000000000815260040161261a90614bca565b60405180910390fd5b61262e838383613065565b6126396000826123a6565b6001600360008573ffffffffffffffffffffffffffffffffffffffff1673ffffffffffffffffffffffffffffffffffffffff16815260200190815260200160002060008282546126899190615100565b925050819055506001600360008473ffffffffffffffffffffffffffffffffffffffff1673ffffffffffffffffffffffffffffffffffffffff16815260200190815260200160002060008282546126e0919061501f565b92505081905550816002600083815260200190815260200160002060006101000a81548173ffffffffffffffffffffffffffffffffffffffff021916908373ffffffffffffffffffffffffffffffffffffffff160217905550808273ffffffffffffffffffffffffffffffffffffffff168473ffffffffffffffffffffffffffffffffffffffff167fddf252ad1be2c89b69c2b068fc378daa952ba7f163c4a11628f55a4df523b3ef60405160405180910390a4505050565b600081836127a791906150a6565b905092915050565b60005b600d548110156127f857601281908060018154018082558091505060019003906000526020600020016000909190919091505580806127f090615298565b9150506127b2565b50565b6000600c60009054906101000a900473ffffffffffffffffffffffffffffffffffffffff16905081600c60006101000a81548173ffffffffffffffffffffffffffffffffffffffff021916908373ffffffffffffffffffffffffffffffffffffffff1602179055508173ffffffffffffffffffffffffffffffffffffffff168173ffffffffffffffffffffffffffffffffffffffff167f8be0079c531659141344cd1fd0a4f28419497f9722a3daafe3b4186f6b6457e060405160405180910390a35050565b60007f000000000000000000000000000000000000000000000000000000000000000073ffffffffffffffffffffffffffffffffffffffff16634000aea07f000000000000000000000000000000000000000000000000000000000000000084866000604051602001612935929190614a9a565b6040516020818303038152906040526040518463ffffffff1660e01b815260040161296293929190614a1f565b602060405180830381600087803b15801561297c57600080fd5b505af1158015612990573d6000803e3d6000fd5b505050506040513d601f19601f820116820180604052508101906129b491906141f8565b5060006129d784600030600b600089815260200190815260200160002054613179565b90506001600b6000868152602001908152602001600020546129f9919061501f565b600b600086815260200190815260200160002081905550612a1a84826131b5565b91505092915050565b60008183612a319190615075565b905092915050565b60008273ffffffffffffffffffffffffffffffffffffffff1682604051612a5f9061497a565b60006040518083038185875af1925050503d8060008114612a9c576040519150601f19603f3d011682016040523d82523d6000602084013e612aa1565b606091505b5050905080612ae5576040517f08c379a0000000000000000000000000000000000000000000000000000000008152600401612adc90614e2a565b60405180910390fd5b505050565b612710811115612b2f576040517f08c379a0000000000000000000000000000000000000000000000000000000008152600401612b2690614b2a565b60405180910390fd5b60405180604001604052808373ffffffffffffffffffffffffffffffffffffffff1681526020018262ffffff16815250600a60008201518160000160006101000a81548173ffffffffffffffffffffffffffffffffffffffff021916908373ffffffffffffffffffffffffffffffffffffffff16021790555060208201518160000160146101000a81548162ffffff021916908362ffffff1602179055509050505050565b600060128054905082612be7919061531f565b905060006013600085815260200190815260200160002060009054906101000a900473ffffffffffffffffffffffffffffffffffffffff169050612c6f8160128481548110612c5f577f4e487b7100000000000000000000000000000000000000000000000000000000600052603260045260246000fd5b90600052602060002001546131e8565b6000612c79611884565b90506000811115612cc0577fa650fd68254e5b4ec12085cac5ab4db28cbd9fe57bc98b366fbd4d91ab55c14881604051612cb39190614eca565b60405180910390a1612ced565b7f52df9fe5b9c9a7b0b4fdc2c9f89387959e35e4209c2a8d133a2b8165edad2a0460405160405180910390a15b5050505050565b612cfe82826131ff565b8173ffffffffffffffffffffffffffffffffffffffff167f07084d10de365e4fe4f6861261b5f1fc13cea244b38301f31d2ff67e1cb92de282604051612d449190614eca565b60405180910390a25050565b612d5b84848461253d565b612d678484848461321d565b612da6576040517f08c379a0000000000000000000000000000000000000000000000000000000008152600401612d9d90614b6a565b60405180910390fd5b50505050565b606060168054612dbb90615235565b80601f0160208091040260200160405190810160405280929190818152602001828054612de790615235565b8015612e345780601f10612e0957610100808354040283529160200191612e34565b820191906000526020600020905b815481529060010190602001808311612e1757829003601f168201915b5050505050905090565b60606000821415612e86576040518060400160405280600181526020017f30000000000000000000000000000000000000000000000000000000000000008152509050612fe6565b600082905060005b60008214612eb8578080612ea190615298565b915050600a82612eb19190615075565b9150612e8e565b60008167ffffffffffffffff811115612efa577f4e487b7100000000000000000000000000000000000000000000000000000000600052604160045260246000fd5b6040519080825280601f01601f191660200182016040528015612f2c5781602001600182028036833780820191505090505b5090505b60008514612fdf57600182612f459190615100565b9150600a85612f54919061531f565b6030612f60919061501f565b60f81b818381518110612f9c577f4e487b7100000000000000000000000000000000000000000000000000000000600052603260045260246000fd5b60200101907effffffffffffffffffffffffffffffffffffffffffffffffffffffffffffff1916908160001a905350600a85612fd89190615075565b9450612f30565b8093505050505b919050565b60007f780e9d63000000000000000000000000000000000000000000000000000000007bffffffffffffffffffffffffffffffffffffffffffffffffffffffff1916827bffffffffffffffffffffffffffffffffffffffffffffffffffffffff1916148061305e575061305d826133b4565b5b9050919050565b613070838383613496565b600073ffffffffffffffffffffffffffffffffffffffff168373ffffffffffffffffffffffffffffffffffffffff1614156130b3576130ae8161349b565b6130f2565b8173ffffffffffffffffffffffffffffffffffffffff168373ffffffffffffffffffffffffffffffffffffffff16146130f1576130f083826134e4565b5b5b600073ffffffffffffffffffffffffffffffffffffffff168273ffffffffffffffffffffffffffffffffffffffff1614156131355761313081613651565b613174565b8273ffffffffffffffffffffffffffffffffffffffff168273ffffffffffffffffffffffffffffffffffffffff1614613173576131728282613794565b5b5b505050565b6000848484846040516020016131929493929190614ac3565b6040516020818303038152906040528051906020012060001c9050949350505050565b600082826040516020016131ca92919061492a565b60405160208183030381529060405280519060200120905092915050565b6131f28282612cf4565b6131fb81613813565b5050565b6132198282604051806020016040528060008152506139a0565b5050565b600061323e8473ffffffffffffffffffffffffffffffffffffffff166139fb565b156133a7578373ffffffffffffffffffffffffffffffffffffffff1663150b7a0261326761239e565b8786866040518563ffffffff1660e01b815260040161328994939291906149aa565b602060405180830381600087803b1580156132a357600080fd5b505af19250505080156132d457506040513d601f19601f820116820180604052508101906132d19190614286565b60015b613357573d8060008114613304576040519150601f19603f3d011682016040523d82523d6000602084013e613309565b606091505b5060008151141561334f576040517f08c379a000000000000000000000000000000000000000000000000000000000815260040161334690614b6a565b60405180910390fd5b805181602001fd5b63150b7a0260e01b7bffffffffffffffffffffffffffffffffffffffffffffffffffffffff1916817bffffffffffffffffffffffffffffffffffffffffffffffffffffffff1916149150506133ac565b600190505b949350505050565b60007f80ac58cd000000000000000000000000000000000000000000000000000000007bffffffffffffffffffffffffffffffffffffffffffffffffffffffff1916827bffffffffffffffffffffffffffffffffffffffffffffffffffffffff1916148061347f57507f5b5e139f000000000000000000000000000000000000000000000000000000007bffffffffffffffffffffffffffffffffffffffffffffffffffffffff1916827bffffffffffffffffffffffffffffffffffffffffffffffffffffffff1916145b8061348f575061348e82613a0e565b5b9050919050565b505050565b6008805490506009600083815260200190815260200160002081905550600881908060018154018082558091505060019003906000526020600020016000909190919091505550565b600060016134f1846112aa565b6134fb9190615100565b90506000600760008481526020019081526020016000205490508181146135e0576000600660008673ffffffffffffffffffffffffffffffffffffffff1673ffffffffffffffffffffffffffffffffffffffff168152602001908152602001600020600084815260200190815260200160002054905080600660008773ffffffffffffffffffffffffffffffffffffffff1673ffffffffffffffffffffffffffffffffffffffff168152602001908152602001600020600084815260200190815260200160002081905550816007600083815260200190815260200160002081905550505b6007600084815260200190815260200160002060009055600660008573ffffffffffffffffffffffffffffffffffffffff1673ffffffffffffffffffffffffffffffffffffffff16815260200190815260200160002060008381526020019081526020016000206000905550505050565b600060016008805490506136659190615100565b90506000600960008481526020019081526020016000205490506000600883815481106136bb577f4e487b7100000000000000000000000000000000000000000000000000000000600052603260045260246000fd5b906000526020600020015490508060088381548110613703577f4e487b7100000000000000000000000000000000000000000000000000000000600052603260045260246000fd5b906000526020600020018190555081600960008381526020019081526020016000208190555060096000858152602001908152602001600020600090556008805480613778577f4e487b7100000000000000000000000000000000000000000000000000000000600052603160045260246000fd5b6001900381819060005260206000200160009055905550505050565b600061379f836112aa565b905081600660008573ffffffffffffffffffffffffffffffffffffffff1673ffffffffffffffffffffffffffffffffffffffff168152602001908152602001600020600083815260200190815260200160002081905550806007600084815260200190815260200160002081905550505050565b60006012805490501161385b576040517f08c379a000000000000000000000000000000000000000000000000000000000815260040161385290614cca565b60405180910390fd5b600061386682613a78565b90506012805490508111156138b0576040517f08c379a00000000000000000000000000000000000000000000000000000000081526004016138a790614e6a565b60405180910390fd5b601260016012805490506138c49190615100565b815481106138fb577f4e487b7100000000000000000000000000000000000000000000000000000000600052603260045260246000fd5b906000526020600020015460128281548110613940577f4e487b7100000000000000000000000000000000000000000000000000000000600052603260045260246000fd5b90600052602060002001819055506012805480613986577f4e487b7100000000000000000000000000000000000000000000000000000000600052603160045260246000fd5b600190038181906000526020600020016000905590555050565b6139aa8383613b17565b6139b7600084848461321d565b6139f6576040517f08c379a00000000000000000000000000000000000000000000000000000000081526004016139ed90614b6a565b60405180910390fd5b505050565b600080823b905060008111915050919050565b60007f01ffc9a7000000000000000000000000000000000000000000000000000000007bffffffffffffffffffffffffffffffffffffffffffffffffffffffff1916827bffffffffffffffffffffffffffffffffffffffffffffffffffffffff1916149050919050565b600080600090505b601280549050811015613afc57600060128281548110613ac9577f4e487b7100000000000000000000000000000000000000000000000000000000600052603260045260246000fd5b9060005260206000200154905083811415613ae8578192505050613b12565b508080613af490615298565b915050613a80565b506064601280549050613b0f919061501f565b90505b919050565b600073ffffffffffffffffffffffffffffffffffffffff168273ffffffffffffffffffffffffffffffffffffffff161415613b87576040517f08c379a0000000000000000000000000000000000000000000000000000000008152600401613b7e90614cea565b60405180910390fd5b613b9081612332565b15613bd0576040517f08c379a0000000000000000000000000000000000000000000000000000000008152600401613bc790614baa565b60405180910390fd5b613bdc60008383613065565b6001600360008473ffffffffffffffffffffffffffffffffffffffff1673ffffffffffffffffffffffffffffffffffffffff1681526020019081526020016000206000828254613c2c919061501f565b92505081905550816002600083815260200190815260200160002060006101000a81548173ffffffffffffffffffffffffffffffffffffffff021916908373ffffffffffffffffffffffffffffffffffffffff160217905550808273ffffffffffffffffffffffffffffffffffffffff16600073ffffffffffffffffffffffffffffffffffffffff167fddf252ad1be2c89b69c2b068fc378daa952ba7f163c4a11628f55a4df523b3ef60405160405180910390a45050565b828054613cf190615235565b90600052602060002090601f016020900481019282613d135760008555613d5a565b82601f10613d2c57805160ff1916838001178555613d5a565b82800160010185558215613d5a579182015b82811115613d59578251825591602001919060010190613d3e565b5b509050613d679190613d6b565b5090565b5b80821115613d84576000816000905550600101613d6c565b5090565b6000613d9b613d9684614f0a565b614ee5565b90508083825260208201905082856020860282011115613dba57600080fd5b60005b85811015613dea5781613dd08882613f6c565b845260208401935060208301925050600181019050613dbd565b5050509392505050565b6000613e07613e0284614f36565b614ee5565b905082815260208101848484011115613e1f57600080fd5b613e2a8482856151f3565b509392505050565b6000613e45613e4084614f67565b614ee5565b905082815260208101848484011115613e5d57600080fd5b613e688482856151f3565b509392505050565b600081359050613e7f81615b25565b92915050565b600082601f830112613e9657600080fd5b8135613ea6848260208601613d88565b91505092915050565b600081359050613ebe81615b3c565b92915050565b600081519050613ed381615b3c565b92915050565b600081359050613ee881615b53565b92915050565b600081359050613efd81615b6a565b92915050565b600081519050613f1281615b6a565b92915050565b600082601f830112613f2957600080fd5b8135613f39848260208601613df4565b91505092915050565b600082601f830112613f5357600080fd5b8135613f63848260208601613e32565b91505092915050565b600081359050613f7b81615b81565b92915050565b600081519050613f9081615b81565b92915050565b600081359050613fa581615b98565b92915050565b600060208284031215613fbd57600080fd5b6000613fcb84828501613e70565b91505092915050565b60008060408385031215613fe757600080fd5b6000613ff585828601613e70565b925050602061400685828601613e70565b9150509250929050565b60008060006060848603121561402557600080fd5b600061403386828701613e70565b935050602061404486828701613e70565b925050604061405586828701613f6c565b9150509250925092565b6000806000806080858703121561407557600080fd5b600061408387828801613e70565b945050602061409487828801613e70565b93505060406140a587828801613f6c565b925050606085013567ffffffffffffffff8111156140c257600080fd5b6140ce87828801613f18565b91505092959194509250565b600080604083850312156140ed57600080fd5b60006140fb85828601613e70565b925050602061410c85828601613eaf565b9150509250929050565b6000806040838503121561412957600080fd5b600061413785828601613e70565b925050602061414885828601613f6c565b9150509250929050565b6000806040838503121561416557600080fd5b600061417385828601613e70565b925050602061418485828601613f96565b9150509250929050565b6000602082840312156141a057600080fd5b600082013567ffffffffffffffff8111156141ba57600080fd5b6141c684828501613e85565b91505092915050565b6000602082840312156141e157600080fd5b60006141ef84828501613eaf565b91505092915050565b60006020828403121561420a57600080fd5b600061421884828501613ec4565b91505092915050565b6000806040838503121561423457600080fd5b600061424285828601613ed9565b925050602061425385828601613f6c565b9150509250929050565b60006020828403121561426f57600080fd5b600061427d84828501613eee565b91505092915050565b60006020828403121561429857600080fd5b60006142a684828501613f03565b91505092915050565b6000602082840312156142c157600080fd5b600082013567ffffffffffffffff8111156142db57600080fd5b6142e784828501613f42565b91505092915050565b60006020828403121561430257600080fd5b600061431084828501613f6c565b91505092915050565b60006020828403121561432b57600080fd5b600061433984828501613f81565b91505092915050565b6000806040838503121561435557600080fd5b600061436385828601613f6c565b925050602061437485828601613f6c565b9150509250929050565b600061438a83836148f5565b60208301905092915050565b61439f81615168565b82525050565b60006143b082614fa8565b6143ba8185614fd6565b93506143c583614f98565b8060005b838110156143f65781516143dd888261437e565b97506143e883614fc9565b9250506001810190506143c9565b5085935050505092915050565b61440c8161517a565b82525050565b61441b81615186565b82525050565b61443261442d82615186565b61530b565b82525050565b600061444382614fb3565b61444d8185614fe7565b935061445d818560208601615202565b6144668161540c565b840191505092915050565b600061447c82614fbe565b6144868185615003565b9350614496818560208601615202565b61449f8161540c565b840191505092915050565b60006144b582614fbe565b6144bf8185615014565b93506144cf818560208601615202565b80840191505092915050565b60006144e8601a83615003565b91506144f38261541d565b602082019050919050565b600061450b602b83615003565b915061451682615446565b604082019050919050565b600061452e603283615003565b915061453982615495565b604082019050919050565b6000614551602683615003565b915061455c826154e4565b604082019050919050565b6000614574601c83615003565b915061457f82615533565b602082019050919050565b6000614597602483615003565b91506145a28261555c565b604082019050919050565b60006145ba601983615003565b91506145c5826155ab565b602082019050919050565b60006145dd602b83615003565b91506145e8826155d4565b604082019050919050565b6000614600600983615003565b915061460b82615623565b602082019050919050565b6000614623602c83615003565b915061462e8261564c565b604082019050919050565b6000614646603883615003565b91506146518261569b565b604082019050919050565b6000614669602a83615003565b9150614674826156ea565b604082019050919050565b600061468c602983615003565b915061469782615739565b604082019050919050565b60006146af601183615003565b91506146ba82615788565b602082019050919050565b60006146d2602083615003565b91506146dd826157b1565b602082019050919050565b60006146f5602c83615003565b9150614700826157da565b604082019050919050565b6000614718602083615003565b915061472382615829565b602082019050919050565b600061473b602983615003565b915061474682615852565b604082019050919050565b600061475e602f83615003565b9150614769826158a1565b604082019050919050565b6000614781601f83615003565b915061478c826158f0565b602082019050919050565b60006147a4601183615003565b91506147af82615919565b602082019050919050565b60006147c7601083615003565b91506147d282615942565b602082019050919050565b60006147ea602183615003565b91506147f58261596b565b604082019050919050565b600061480d600e83615003565b9150614818826159ba565b602082019050919050565b6000614830600083614ff8565b915061483b826159e3565b600082019050919050565b6000614853601083615003565b915061485e826159e6565b602082019050919050565b6000614876603183615003565b915061488182615a0f565b604082019050919050565b6000614899602a83615003565b91506148a482615a5e565b604082019050919050565b60006148bc602c83615003565b91506148c782615aad565b604082019050919050565b60006148df600883615003565b91506148ea82615afc565b602082019050919050565b6148fe816151dc565b82525050565b61490d816151dc565b82525050565b61492461491f826151dc565b615315565b82525050565b60006149368285614421565b6020820191506149468284614913565b6020820191508190509392505050565b600061496282856144aa565b915061496e82846144aa565b91508190509392505050565b600061498582614823565b9150819050919050565b60006020820190506149a46000830184614396565b92915050565b60006080820190506149bf6000830187614396565b6149cc6020830186614396565b6149d96040830185614904565b81810360608301526149eb8184614438565b905095945050505050565b6000604082019050614a0b6000830185614396565b614a186020830184614904565b9392505050565b6000606082019050614a346000830186614396565b614a416020830185614904565b8181036040830152614a538184614438565b9050949350505050565b60006020820190508181036000830152614a7781846143a5565b905092915050565b6000602082019050614a946000830184614403565b92915050565b6000604082019050614aaf6000830185614412565b614abc6020830184614904565b9392505050565b6000608082019050614ad86000830187614412565b614ae56020830186614904565b614af26040830185614396565b614aff6060830184614904565b95945050505050565b60006020820190508181036000830152614b228184614471565b905092915050565b60006020820190508181036000830152614b43816144db565b9050919050565b60006020820190508181036000830152614b63816144fe565b9050919050565b60006020820190508181036000830152614b8381614521565b9050919050565b60006020820190508181036000830152614ba381614544565b9050919050565b60006020820190508181036000830152614bc381614567565b9050919050565b60006020820190508181036000830152614be38161458a565b9050919050565b60006020820190508181036000830152614c03816145ad565b9050919050565b60006020820190508181036000830152614c23816145d0565b9050919050565b60006020820190508181036000830152614c43816145f3565b9050919050565b60006020820190508181036000830152614c6381614616565b9050919050565b60006020820190508181036000830152614c8381614639565b9050919050565b60006020820190508181036000830152614ca38161465c565b9050919050565b60006020820190508181036000830152614cc38161467f565b9050919050565b60006020820190508181036000830152614ce3816146a2565b9050919050565b60006020820190508181036000830152614d03816146c5565b9050919050565b60006020820190508181036000830152614d23816146e8565b9050919050565b60006020820190508181036000830152614d438161470b565b9050919050565b60006020820190508181036000830152614d638161472e565b9050919050565b60006020820190508181036000830152614d8381614751565b9050919050565b60006020820190508181036000830152614da381614774565b9050919050565b60006020820190508181036000830152614dc381614797565b9050919050565b60006020820190508181036000830152614de3816147ba565b9050919050565b60006020820190508181036000830152614e03816147dd565b9050919050565b60006020820190508181036000830152614e2381614800565b9050919050565b60006020820190508181036000830152614e4381614846565b9050919050565b60006020820190508181036000830152614e6381614869565b9050919050565b60006020820190508181036000830152614e838161488c565b9050919050565b60006020820190508181036000830152614ea3816148af565b9050919050565b60006020820190508181036000830152614ec3816148d2565b9050919050565b6000602082019050614edf6000830184614904565b92915050565b6000614eef614f00565b9050614efb8282615267565b919050565b6000604051905090565b600067ffffffffffffffff821115614f2557614f246153dd565b5b602082029050602081019050919050565b600067ffffffffffffffff821115614f5157614f506153dd565b5b614f5a8261540c565b9050602081019050919050565b600067ffffffffffffffff821115614f8257614f816153dd565b5b614f8b8261540c565b9050602081019050919050565b6000819050602082019050919050565b600081519050919050565b600081519050919050565b600081519050919050565b6000602082019050919050565b600082825260208201905092915050565b600082825260208201905092915050565b600081905092915050565b600082825260208201905092915050565b600081905092915050565b600061502a826151dc565b9150615035836151dc565b9250827fffffffffffffffffffffffffffffffffffffffffffffffffffffffffffffffff0382111561506a57615069615350565b5b828201905092915050565b6000615080826151dc565b915061508b836151dc565b92508261509b5761509a61537f565b5b828204905092915050565b60006150b1826151dc565b91506150bc836151dc565b9250817fffffffffffffffffffffffffffffffffffffffffffffffffffffffffffffffff04831182151516156150f5576150f4615350565b5b828202905092915050565b600061510b826151dc565b9150615116836151dc565b92508282101561512957615128615350565b5b828203905092915050565b600061513f826151e6565b915061514a836151e6565b92508282101561515d5761515c615350565b5b828203905092915050565b6000615173826151bc565b9050919050565b60008115159050919050565b6000819050919050565b60007fffffffff0000000000000000000000000000000000000000000000000000000082169050919050565b600073ffffffffffffffffffffffffffffffffffffffff82169050919050565b6000819050919050565b600060ff82169050919050565b82818337600083830152505050565b60005b83811015615220578082015181840152602081019050615205565b8381111561522f576000848401525b50505050565b6000600282049050600182168061524d57607f821691505b60208210811415615261576152606153ae565b5b50919050565b6152708261540c565b810181811067ffffffffffffffff8211171561528f5761528e6153dd565b5b80604052505050565b60006152a3826151dc565b91507fffffffffffffffffffffffffffffffffffffffffffffffffffffffffffffffff8214156152d6576152d5615350565b5b600182019050919050565b60006152ec826151e6565b915060ff821415615300576152ff615350565b5b600182019050919050565b6000819050919050565b6000819050919050565b600061532a826151dc565b9150615335836151dc565b9250826153455761534461537f565b5b828206905092915050565b7f4e487b7100000000000000000000000000000000000000000000000000000000600052601160045260246000fd5b7f4e487b7100000000000000000000000000000000000000000000000000000000600052601260045260246000fd5b7f4e487b7100000000000000000000000000000000000000000000000000000000600052602260045260246000fd5b7f4e487b7100000000000000000000000000000000000000000000000000000000600052604160045260246000fd5b6000601f19601f8301169050919050565b7f45524332393831526f79616c746965733a20546f6f2068696768000000000000600082015250565b7f455243373231456e756d657261626c653a206f776e657220696e646578206f7560008201527f74206f6620626f756e6473000000000000000000000000000000000000000000602082015250565b7f4552433732313a207472616e7366657220746f206e6f6e20455243373231526560008201527f63656976657220696d706c656d656e7465720000000000000000000000000000602082015250565b7f4f776e61626c653a206e6577206f776e657220697320746865207a65726f206160008201527f6464726573730000000000000000000000000000000000000000000000000000602082015250565b7f4552433732313a20746f6b656e20616c7265616479206d696e74656400000000600082015250565b7f4552433732313a207472616e7366657220746f20746865207a65726f2061646460008201527f7265737300000000000000000000000000000000000000000000000000000000602082015250565b7f4552433732313a20617070726f766520746f2063616c6c657200000000000000600082015250565b7f4e6f7420656e6f756768204c494e4b202d2066696c6c20636f6e74726163742060008201527f7769746820666175636574000000000000000000000000000000000000000000602082015250565b7f4d6178206c696d69740000000000000000000000000000000000000000000000600082015250565b7f4552433732313a206f70657261746f7220717565727920666f72206e6f6e657860008201527f697374656e7420746f6b656e0000000000000000000000000000000000000000602082015250565b7f4552433732313a20617070726f76652063616c6c6572206973206e6f74206f7760008201527f6e6572206e6f7220617070726f76656420666f7220616c6c0000000000000000602082015250565b7f4552433732313a2062616c616e636520717565727920666f7220746865207a6560008201527f726f206164647265737300000000000000000000000000000000000000000000602082015250565b7f4552433732313a206f776e657220717565727920666f72206e6f6e657869737460008201527f656e7420746f6b656e0000000000000000000000000000000000000000000000602082015250565b7f746f6b656e49647320697320656d707479000000000000000000000000000000600082015250565b7f4552433732313a206d696e7420746f20746865207a65726f2061646472657373600082015250565b7f4552433732313a20617070726f76656420717565727920666f72206e6f6e657860008201527f697374656e7420746f6b656e0000000000000000000000000000000000000000602082015250565b7f4f776e61626c653a2063616c6c6572206973206e6f7420746865206f776e6572600082015250565b7f4552433732313a207472616e73666572206f6620746f6b656e2074686174206960008201527f73206e6f74206f776e0000000000000000000000000000000000000000000000602082015250565b7f4552433732314d657461646174613a2055524920717565727920666f72206e6f60008201527f6e6578697374656e7420746f6b656e0000000000000000000000000000000000602082015250565b7f4f6e6c7920565246436f6f7264696e61746f722063616e2066756c66696c6c00600082015250565b7f56616c75652062656c6f77207072696365000000000000000000000000000000600082015250565b7f50617573652069732064697361626c6500000000000000000000000000000000600082015250565b7f4552433732313a20617070726f76616c20746f2063757272656e74206f776e6560008201527f7200000000000000000000000000000000000000000000000000000000000000602082015250565b7f53616c6573206e6f74206f70656e000000000000000000000000000000000000600082015250565b50565b7f5472616e73666572206661696c65642e00000000000000000000000000000000600082015250565b7f4552433732313a207472616e736665722063616c6c6572206973206e6f74206f60008201527f776e6572206e6f7220617070726f766564000000000000000000000000000000602082015250565b7f43616e6e6f742066696e6420746f6b656e49647320496e646578202d2072656d60008201527f6f7665546f6b656e496400000000000000000000000000000000000000000000602082015250565b7f455243373231456e756d657261626c653a20676c6f62616c20696e646578206f60008201527f7574206f6620626f756e64730000000000000000000000000000000000000000602082015250565b7f536f6c646f757421000000000000000000000000000000000000000000000000600082015250565b615b2e81615168565b8114615b3957600080fd5b50565b615b458161517a565b8114615b5057600080fd5b50565b615b5c81615186565b8114615b6757600080fd5b50565b615b7381615190565b8114615b7e57600080fd5b50565b615b8a816151dc565b8114615b9557600080fd5b50565b615ba1816151e6565b8114615bac57600080fd5b5056fea2646970667358221220673cc12a54cf0639fed64d669df8bf53723108c92c147e9528bb78068568d88964736f6c63430008040033",
  "devdoc": {
    "kind": "dev",
    "methods": {
      "approve(address,uint256)": {
        "details": "See {IERC721-approve}."
      },
      "balanceOf(address)": {
        "details": "See {IERC721-balanceOf}."
      },
      "getApproved(uint256)": {
        "details": "See {IERC721-getApproved}."
      },
      "isApprovedForAll(address,address)": {
        "details": "See {IERC721-isApprovedForAll}."
      },
      "name()": {
        "details": "See {IERC721Metadata-name}."
      },
      "owner()": {
        "details": "Returns the address of the current owner."
      },
      "ownerOf(uint256)": {
        "details": "See {IERC721-ownerOf}."
      },
      "rawOwnerOf(uint256)": {
        "details": "Edit for rawOwnerOf token"
      },
      "renounceOwnership()": {
        "details": "Leaves the contract without owner. It will not be possible to call `onlyOwner` functions anymore. Can only be called by the current owner. NOTE: Renouncing ownership will leave the contract without an owner, thereby removing any functionality that is only available to the owner."
      },
      "royaltyInfo(uint256,uint256)": {
        "params": {
          "_tokenId": "- the NFT asset queried for royalty information",
          "_value": "- the sale price of the NFT asset specified by _tokenId"
        },
        "returns": {
          "receiver": "- address of who should be sent the royalty payment",
          "royaltyAmount": "- the royalty payment amount for value sale price"
        }
      },
      "safeTransferFrom(address,address,uint256)": {
        "details": "See {IERC721-safeTransferFrom}."
      },
      "safeTransferFrom(address,address,uint256,bytes)": {
        "details": "See {IERC721-safeTransferFrom}."
      },
      "setApprovalForAll(address,bool)": {
        "details": "See {IERC721-setApprovalForAll}."
      },
      "setRoyalties(address,uint256)": {
        "details": "This function in a real contract should be protected with a onlOwner (or equivalent) modifier",
        "params": {
          "recipient": "the royalties recipient",
          "value": "royalties value (between 0 and 10000)"
        }
      },
      "supportsInterface(bytes4)": {
        "details": "See {IERC165-supportsInterface}."
      },
      "symbol()": {
        "details": "See {IERC721Metadata-symbol}."
      },
      "tokenByIndex(uint256)": {
        "details": "See {IERC721Enumerable-tokenByIndex}."
      },
      "tokenOfOwnerByIndex(address,uint256)": {
        "details": "See {IERC721Enumerable-tokenOfOwnerByIndex}."
      },
      "tokenURI(uint256)": {
        "details": "See {IERC721Metadata-tokenURI}."
      },
      "totalSupply()": {
        "details": "See {IERC721Enumerable-totalSupply}."
      },
      "transferFrom(address,address,uint256)": {
        "details": "See {IERC721-transferFrom}."
      },
      "transferOwnership(address)": {
        "details": "Transfers ownership of the contract to a new account (`newOwner`). Can only be called by the current owner."
      }
    },
    "version": 1
  },
  "userdoc": {
    "kind": "user",
    "methods": {
      "setRoyalties(address,uint256)": {
        "notice": "Allows to set the royalties on the contract"
      }
    },
    "version": 1
  },
  "storageLayout": {
    "storage": [
      {
        "astId": 1932,
        "contract": "contracts/NFT.sol:Iceberg",
        "label": "_name",
        "offset": 0,
        "slot": "0",
        "type": "t_string_storage"
      },
      {
        "astId": 1934,
        "contract": "contracts/NFT.sol:Iceberg",
        "label": "_symbol",
        "offset": 0,
        "slot": "1",
        "type": "t_string_storage"
      },
      {
        "astId": 1938,
        "contract": "contracts/NFT.sol:Iceberg",
        "label": "_owners",
        "offset": 0,
        "slot": "2",
        "type": "t_mapping(t_uint256,t_address)"
      },
      {
        "astId": 1942,
        "contract": "contracts/NFT.sol:Iceberg",
        "label": "_balances",
        "offset": 0,
        "slot": "3",
        "type": "t_mapping(t_address,t_uint256)"
      },
      {
        "astId": 1946,
        "contract": "contracts/NFT.sol:Iceberg",
        "label": "_tokenApprovals",
        "offset": 0,
        "slot": "4",
        "type": "t_mapping(t_uint256,t_address)"
      },
      {
        "astId": 1952,
        "contract": "contracts/NFT.sol:Iceberg",
        "label": "_operatorApprovals",
        "offset": 0,
        "slot": "5",
        "type": "t_mapping(t_address,t_mapping(t_address,t_bool))"
      },
      {
        "astId": 2753,
        "contract": "contracts/NFT.sol:Iceberg",
        "label": "_ownedTokens",
        "offset": 0,
        "slot": "6",
        "type": "t_mapping(t_address,t_mapping(t_uint256,t_uint256))"
      },
      {
        "astId": 2757,
        "contract": "contracts/NFT.sol:Iceberg",
        "label": "_ownedTokensIndex",
        "offset": 0,
        "slot": "7",
        "type": "t_mapping(t_uint256,t_uint256)"
      },
      {
        "astId": 2760,
        "contract": "contracts/NFT.sol:Iceberg",
        "label": "_allTokens",
        "offset": 0,
        "slot": "8",
        "type": "t_array(t_uint256)dyn_storage"
      },
      {
        "astId": 2764,
        "contract": "contracts/NFT.sol:Iceberg",
        "label": "_allTokensIndex",
        "offset": 0,
        "slot": "9",
        "type": "t_mapping(t_uint256,t_uint256)"
      },
      {
        "astId": 1845,
        "contract": "contracts/NFT.sol:Iceberg",
        "label": "_royalties",
        "offset": 0,
        "slot": "10",
        "type": "t_struct(RoyaltyInfo)1812_storage"
      },
      {
        "astId": 79,
        "contract": "contracts/NFT.sol:Iceberg",
        "label": "nonces",
        "offset": 0,
        "slot": "11",
        "type": "t_mapping(t_bytes32,t_uint256)"
      },
      {
        "astId": 273,
        "contract": "contracts/NFT.sol:Iceberg",
        "label": "_owner",
        "offset": 0,
        "slot": "12",
        "type": "t_address"
      },
      {
        "astId": 3114,
        "contract": "contracts/NFT.sol:Iceberg",
        "label": "MAX_ELEMENTS",
        "offset": 0,
        "slot": "13",
        "type": "t_uint256"
      },
      {
        "astId": 3131,
        "contract": "contracts/NFT.sol:Iceberg",
        "label": "keyHash",
        "offset": 0,
        "slot": "14",
        "type": "t_bytes32"
      },
      {
        "astId": 3138,
        "contract": "contracts/NFT.sol:Iceberg",
        "label": "VRFFee",
        "offset": 0,
        "slot": "15",
        "type": "t_uint256"
      },
      {
        "astId": 3140,
        "contract": "contracts/NFT.sol:Iceberg",
        "label": "LinkToken",
        "offset": 0,
        "slot": "16",
        "type": "t_address"
      },
      {
        "astId": 3142,
        "contract": "contracts/NFT.sol:Iceberg",
        "label": "VRFCoordinator",
        "offset": 0,
        "slot": "17",
        "type": "t_address"
      },
      {
        "astId": 3145,
        "contract": "contracts/NFT.sol:Iceberg",
        "label": "tokenIds",
        "offset": 0,
        "slot": "18",
        "type": "t_array(t_uint256)dyn_storage"
      },
      {
        "astId": 3149,
        "contract": "contracts/NFT.sol:Iceberg",
        "label": "requestToSender",
        "offset": 0,
        "slot": "19",
        "type": "t_mapping(t_bytes32,t_address)"
      },
      {
        "astId": 3153,
        "contract": "contracts/NFT.sol:Iceberg",
        "label": "whiteList",
        "offset": 0,
        "slot": "20",
        "type": "t_mapping(t_address,t_bool)"
      },
      {
        "astId": 3156,
        "contract": "contracts/NFT.sol:Iceberg",
        "label": "PAUSE",
        "offset": 0,
        "slot": "21",
        "type": "t_bool"
      },
      {
        "astId": 3158,
        "contract": "contracts/NFT.sol:Iceberg",
        "label": "baseTokenURI",
        "offset": 0,
        "slot": "22",
        "type": "t_string_storage"
      }
    ],
    "types": {
      "t_address": {
        "encoding": "inplace",
        "label": "address",
        "numberOfBytes": "20"
      },
      "t_array(t_uint256)dyn_storage": {
        "base": "t_uint256",
        "encoding": "dynamic_array",
        "label": "uint256[]",
        "numberOfBytes": "32"
      },
      "t_bool": {
        "encoding": "inplace",
        "label": "bool",
        "numberOfBytes": "1"
      },
      "t_bytes32": {
        "encoding": "inplace",
        "label": "bytes32",
        "numberOfBytes": "32"
      },
      "t_mapping(t_address,t_bool)": {
        "encoding": "mapping",
        "key": "t_address",
        "label": "mapping(address => bool)",
        "numberOfBytes": "32",
        "value": "t_bool"
      },
      "t_mapping(t_address,t_mapping(t_address,t_bool))": {
        "encoding": "mapping",
        "key": "t_address",
        "label": "mapping(address => mapping(address => bool))",
        "numberOfBytes": "32",
        "value": "t_mapping(t_address,t_bool)"
      },
      "t_mapping(t_address,t_mapping(t_uint256,t_uint256))": {
        "encoding": "mapping",
        "key": "t_address",
        "label": "mapping(address => mapping(uint256 => uint256))",
        "numberOfBytes": "32",
        "value": "t_mapping(t_uint256,t_uint256)"
      },
      "t_mapping(t_address,t_uint256)": {
        "encoding": "mapping",
        "key": "t_address",
        "label": "mapping(address => uint256)",
        "numberOfBytes": "32",
        "value": "t_uint256"
      },
      "t_mapping(t_bytes32,t_address)": {
        "encoding": "mapping",
        "key": "t_bytes32",
        "label": "mapping(bytes32 => address)",
        "numberOfBytes": "32",
        "value": "t_address"
      },
      "t_mapping(t_bytes32,t_uint256)": {
        "encoding": "mapping",
        "key": "t_bytes32",
        "label": "mapping(bytes32 => uint256)",
        "numberOfBytes": "32",
        "value": "t_uint256"
      },
      "t_mapping(t_uint256,t_address)": {
        "encoding": "mapping",
        "key": "t_uint256",
        "label": "mapping(uint256 => address)",
        "numberOfBytes": "32",
        "value": "t_address"
      },
      "t_mapping(t_uint256,t_uint256)": {
        "encoding": "mapping",
        "key": "t_uint256",
        "label": "mapping(uint256 => uint256)",
        "numberOfBytes": "32",
        "value": "t_uint256"
      },
      "t_string_storage": {
        "encoding": "bytes",
        "label": "string",
        "numberOfBytes": "32"
      },
      "t_struct(RoyaltyInfo)1812_storage": {
        "encoding": "inplace",
        "label": "struct ERC2981Base.RoyaltyInfo",
        "members": [
          {
            "astId": 1809,
            "contract": "contracts/NFT.sol:Iceberg",
            "label": "recipient",
            "offset": 0,
            "slot": "0",
            "type": "t_address"
          },
          {
            "astId": 1811,
            "contract": "contracts/NFT.sol:Iceberg",
            "label": "amount",
            "offset": 20,
            "slot": "0",
            "type": "t_uint24"
          }
        ],
        "numberOfBytes": "32"
      },
      "t_uint24": {
        "encoding": "inplace",
        "label": "uint24",
        "numberOfBytes": "3"
      },
      "t_uint256": {
        "encoding": "inplace",
        "label": "uint256",
        "numberOfBytes": "32"
      }
    }
  }
}