{
  "address": "0x5b88a87957e06Bdf7fbdd03438562C6FCB2dd350",
  "abi": [
    {
      "inputs": [
        {
          "internalType": "address",
          "name": "_proxyRegistryAddress",
          "type": "address"
        },
        {
          "internalType": "string",
          "name": "_contractUri",
          "type": "string"
        },
        {
          "internalType": "string",
          "name": "_metadataUri",
          "type": "string"
        },
        {
          "internalType": "string",
          "name": "_name",
          "type": "string"
        },
        {
          "internalType": "string",
          "name": "_symbol",
          "type": "string"
        },
        {
          "internalType": "uint256",
          "name": "_tokenAmount",
          "type": "uint256"
        },
        {
          "internalType": "address",
          "name": "_VRFCoordinator",
          "type": "address"
        },
        {
          "internalType": "address",
          "name": "_LinkToken",
          "type": "address"
        },
        {
          "internalType": "bytes32",
          "name": "_keyhash",
          "type": "bytes32"
        }
      ],
      "stateMutability": "nonpayable",
      "type": "constructor"
    },
    {
      "anonymous": false,
      "inputs": [
        {
          "indexed": true,
          "internalType": "address",
          "name": "owner",
          "type": "address"
        },
        {
          "indexed": true,
          "internalType": "address",
          "name": "approved",
          "type": "address"
        },
        {
          "indexed": true,
          "internalType": "uint256",
          "name": "tokenId",
          "type": "uint256"
        }
      ],
      "name": "Approval",
      "type": "event"
    },
    {
      "anonymous": false,
      "inputs": [
        {
          "indexed": true,
          "internalType": "address",
          "name": "owner",
          "type": "address"
        },
        {
          "indexed": true,
          "internalType": "address",
          "name": "operator",
          "type": "address"
        },
        {
          "indexed": false,
          "internalType": "bool",
          "name": "approved",
          "type": "bool"
        }
      ],
      "name": "ApprovalForAll",
      "type": "event"
    },
    {
      "anonymous": false,
      "inputs": [
        {
          "indexed": false,
          "internalType": "address",
          "name": "userAddress",
          "type": "address"
        },
        {
          "indexed": false,
          "internalType": "address payable",
          "name": "relayerAddress",
          "type": "address"
        },
        {
          "indexed": false,
          "internalType": "bytes",
          "name": "functionSignature",
          "type": "bytes"
        }
      ],
      "name": "MetaTransactionExecuted",
      "type": "event"
    },
    {
      "anonymous": false,
      "inputs": [
        {
          "indexed": true,
          "internalType": "address",
          "name": "previousOwner",
          "type": "address"
        },
        {
          "indexed": true,
          "internalType": "address",
          "name": "newOwner",
          "type": "address"
        }
      ],
      "name": "OwnershipTransferred",
      "type": "event"
    },
    {
      "anonymous": false,
      "inputs": [
        {
          "indexed": true,
          "internalType": "address",
          "name": "from",
          "type": "address"
        },
        {
          "indexed": true,
          "internalType": "address",
          "name": "to",
          "type": "address"
        },
        {
          "indexed": true,
          "internalType": "uint256",
          "name": "tokenId",
          "type": "uint256"
        }
      ],
      "name": "Transfer",
      "type": "event"
    },
    {
      "inputs": [],
      "name": "ERC712_VERSION",
      "outputs": [
        {
          "internalType": "string",
          "name": "",
          "type": "string"
        }
      ],
      "stateMutability": "view",
      "type": "function"
    },
    {
      "inputs": [],
      "name": "LinkToken",
      "outputs": [
        {
          "internalType": "address",
          "name": "",
          "type": "address"
        }
      ],
      "stateMutability": "view",
      "type": "function"
    },
    {
      "inputs": [],
      "name": "VRFCoordinator",
      "outputs": [
        {
          "internalType": "address",
          "name": "",
          "type": "address"
        }
      ],
      "stateMutability": "view",
      "type": "function"
    },
    {
      "inputs": [
        {
          "internalType": "string",
          "name": "_metadataUri",
          "type": "string"
        }
      ],
      "name": "_setBaseURI",
      "outputs": [],
      "stateMutability": "nonpayable",
      "type": "function"
    },
    {
      "inputs": [
        {
          "internalType": "string",
          "name": "_contractUri",
          "type": "string"
        }
      ],
      "name": "_setContractURI",
      "outputs": [],
      "stateMutability": "nonpayable",
      "type": "function"
    },
    {
      "inputs": [
        {
          "internalType": "uint256",
          "name": "_tokenAmount",
          "type": "uint256"
        }
      ],
      "name": "_setTokenAmount",
      "outputs": [],
      "stateMutability": "nonpayable",
      "type": "function"
    },
    {
      "inputs": [
        {
          "internalType": "address",
          "name": "to",
          "type": "address"
        },
        {
          "internalType": "uint256",
          "name": "tokenId",
          "type": "uint256"
        }
      ],
      "name": "approve",
      "outputs": [],
      "stateMutability": "nonpayable",
      "type": "function"
    },
    {
      "inputs": [
        {
          "internalType": "address",
          "name": "owner",
          "type": "address"
        }
      ],
      "name": "balanceOf",
      "outputs": [
        {
          "internalType": "uint256",
          "name": "",
          "type": "uint256"
        }
      ],
      "stateMutability": "view",
      "type": "function"
    },
    {
      "inputs": [],
      "name": "contractURI",
      "outputs": [
        {
          "internalType": "string",
          "name": "",
          "type": "string"
        }
      ],
      "stateMutability": "view",
      "type": "function"
    },
    {
      "inputs": [
        {
          "internalType": "address",
          "name": "userAddress",
          "type": "address"
        },
        {
          "internalType": "bytes",
          "name": "functionSignature",
          "type": "bytes"
        },
        {
          "internalType": "bytes32",
          "name": "sigR",
          "type": "bytes32"
        },
        {
          "internalType": "bytes32",
          "name": "sigS",
          "type": "bytes32"
        },
        {
          "internalType": "uint8",
          "name": "sigV",
          "type": "uint8"
        }
      ],
      "name": "executeMetaTransaction",
      "outputs": [
        {
          "internalType": "bytes",
          "name": "",
          "type": "bytes"
        }
      ],
      "stateMutability": "payable",
      "type": "function"
    },
    {
      "inputs": [
        {
          "internalType": "uint256",
          "name": "tokenId",
          "type": "uint256"
        }
      ],
      "name": "getApproved",
      "outputs": [
        {
          "internalType": "address",
          "name": "",
          "type": "address"
        }
      ],
      "stateMutability": "view",
      "type": "function"
    },
    {
      "inputs": [],
      "name": "getAvaiableTokenAmount",
      "outputs": [
        {
          "internalType": "uint256",
          "name": "",
          "type": "uint256"
        }
      ],
      "stateMutability": "view",
      "type": "function"
    },
    {
      "inputs": [],
      "name": "getChainId",
      "outputs": [
        {
          "internalType": "uint256",
          "name": "",
          "type": "uint256"
        }
      ],
      "stateMutability": "view",
      "type": "function"
    },
    {
      "inputs": [],
      "name": "getDomainSeperator",
      "outputs": [
        {
          "internalType": "bytes32",
          "name": "",
          "type": "bytes32"
        }
      ],
      "stateMutability": "view",
      "type": "function"
    },
    {
      "inputs": [
        {
          "internalType": "address",
          "name": "user",
          "type": "address"
        }
      ],
      "name": "getNonce",
      "outputs": [
        {
          "internalType": "uint256",
          "name": "nonce",
          "type": "uint256"
        }
      ],
      "stateMutability": "view",
      "type": "function"
    },
    {
      "inputs": [],
      "name": "getTokenAmount",
      "outputs": [
        {
          "internalType": "uint256",
          "name": "",
          "type": "uint256"
        }
      ],
      "stateMutability": "view",
      "type": "function"
    },
    {
      "inputs": [
        {
          "internalType": "address",
          "name": "owner",
          "type": "address"
        },
        {
          "internalType": "address",
          "name": "operator",
          "type": "address"
        }
      ],
      "name": "isApprovedForAll",
      "outputs": [
        {
          "internalType": "bool",
          "name": "",
          "type": "bool"
        }
      ],
      "stateMutability": "view",
      "type": "function"
    },
    {
      "inputs": [],
      "name": "name",
      "outputs": [
        {
          "internalType": "string",
          "name": "",
          "type": "string"
        }
      ],
      "stateMutability": "view",
      "type": "function"
    },
    {
      "inputs": [],
      "name": "owner",
      "outputs": [
        {
          "internalType": "address",
          "name": "",
          "type": "address"
        }
      ],
      "stateMutability": "view",
      "type": "function"
    },
    {
      "inputs": [
        {
          "internalType": "uint256",
          "name": "tokenId",
          "type": "uint256"
        }
      ],
      "name": "ownerOf",
      "outputs": [
        {
          "internalType": "address",
          "name": "",
          "type": "address"
        }
      ],
      "stateMutability": "view",
      "type": "function"
    },
    {
      "inputs": [],
      "name": "randomResult",
      "outputs": [
        {
          "internalType": "uint256",
          "name": "",
          "type": "uint256"
        }
      ],
      "stateMutability": "view",
      "type": "function"
    },
    {
      "inputs": [
        {
          "internalType": "bytes32",
          "name": "requestId",
          "type": "bytes32"
        },
        {
          "internalType": "uint256",
          "name": "randomness",
          "type": "uint256"
        }
      ],
      "name": "rawFulfillRandomness",
      "outputs": [],
      "stateMutability": "nonpayable",
      "type": "function"
    },
    {
      "inputs": [],
      "name": "renounceOwnership",
      "outputs": [],
      "stateMutability": "nonpayable",
      "type": "function"
    },
    {
      "inputs": [
        {
          "internalType": "address",
          "name": "_to",
          "type": "address"
        },
        {
          "internalType": "uint8",
          "name": "amount",
          "type": "uint8"
        }
      ],
      "name": "requestRandomNFT",
      "outputs": [],
      "stateMutability": "nonpayable",
      "type": "function"
    },
    {
      "inputs": [
        {
          "internalType": "address",
          "name": "from",
          "type": "address"
        },
        {
          "internalType": "address",
          "name": "to",
          "type": "address"
        },
        {
          "internalType": "uint256",
          "name": "tokenId",
          "type": "uint256"
        }
      ],
      "name": "safeTransferFrom",
      "outputs": [],
      "stateMutability": "nonpayable",
      "type": "function"
    },
    {
      "inputs": [
        {
          "internalType": "address",
          "name": "from",
          "type": "address"
        },
        {
          "internalType": "address",
          "name": "to",
          "type": "address"
        },
        {
          "internalType": "uint256",
          "name": "tokenId",
          "type": "uint256"
        },
        {
          "internalType": "bytes",
          "name": "_data",
          "type": "bytes"
        }
      ],
      "name": "safeTransferFrom",
      "outputs": [],
      "stateMutability": "nonpayable",
      "type": "function"
    },
    {
      "inputs": [
        {
          "internalType": "address",
          "name": "operator",
          "type": "address"
        },
        {
          "internalType": "bool",
          "name": "approved",
          "type": "bool"
        }
      ],
      "name": "setApprovalForAll",
      "outputs": [],
      "stateMutability": "nonpayable",
      "type": "function"
    },
    {
      "inputs": [
        {
          "internalType": "bytes4",
          "name": "interfaceId",
          "type": "bytes4"
        }
      ],
      "name": "supportsInterface",
      "outputs": [
        {
          "internalType": "bool",
          "name": "",
          "type": "bool"
        }
      ],
      "stateMutability": "view",
      "type": "function"
    },
    {
      "inputs": [],
      "name": "symbol",
      "outputs": [
        {
          "internalType": "string",
          "name": "",
          "type": "string"
        }
      ],
      "stateMutability": "view",
      "type": "function"
    },
    {
      "inputs": [
        {
          "internalType": "uint256",
          "name": "index",
          "type": "uint256"
        }
      ],
      "name": "tokenByIndex",
      "outputs": [
        {
          "internalType": "uint256",
          "name": "",
          "type": "uint256"
        }
      ],
      "stateMutability": "view",
      "type": "function"
    },
    {
      "inputs": [
        {
          "internalType": "address",
          "name": "owner",
          "type": "address"
        },
        {
          "internalType": "uint256",
          "name": "index",
          "type": "uint256"
        }
      ],
      "name": "tokenOfOwnerByIndex",
      "outputs": [
        {
          "internalType": "uint256",
          "name": "",
          "type": "uint256"
        }
      ],
      "stateMutability": "view",
      "type": "function"
    },
    {
      "inputs": [
        {
          "internalType": "uint256",
          "name": "_tokenId",
          "type": "uint256"
        }
      ],
      "name": "tokenURI",
      "outputs": [
        {
          "internalType": "string",
          "name": "",
          "type": "string"
        }
      ],
      "stateMutability": "view",
      "type": "function"
    },
    {
      "inputs": [],
      "name": "totalSupply",
      "outputs": [
        {
          "internalType": "uint256",
          "name": "",
          "type": "uint256"
        }
      ],
      "stateMutability": "view",
      "type": "function"
    },
    {
      "inputs": [
        {
          "internalType": "address",
          "name": "from",
          "type": "address"
        },
        {
          "internalType": "address",
          "name": "to",
          "type": "address"
        },
        {
          "internalType": "uint256",
          "name": "tokenId",
          "type": "uint256"
        }
      ],
      "name": "transferFrom",
      "outputs": [],
      "stateMutability": "nonpayable",
      "type": "function"
    },
    {
      "inputs": [
        {
          "internalType": "address",
          "name": "newOwner",
          "type": "address"
        }
      ],
      "name": "transferOwnership",
      "outputs": [],
      "stateMutability": "nonpayable",
      "type": "function"
    }
  ],
  "transactionHash": "0x1f8bfb0d15a163eea83aeea458cf8f385ad9dd35a004ab9983cbd9dd0a97a63c",
  "args": [
    "0xf57b2c51ded3a29e6891aba85459d600256cf317",
    "https://gateway.pinata.cloud/ipfs/QmTUsZSsWe7hgL5wJFxigmAjSovntYrq6rUtx5Qhr8LasP",
    "https://gateway.pinata.cloud/ipfs/QmbHc4TRoZQh4ZnnM2UQSr11diDdFpeXt1dntVw7jUhTvH/",
    "Tokens created by nft-minter",
    "NFT",
    6,
    "0xdD3782915140c8f3b190B5D67eAc6dc5760C46E9",
    "0xa36085F69e2889c224210F603D836748e7dC0088",
    "0x6c3699283bda56ad74f6b855546325b68d482e983852a7a82979cc4807b641f4"
  ],
  "solcInputHash": "62faff4fc6ccebbd19509cb9c1b46fda",
  "bytecode": "0x60c06040526000600a60006101000a81548160ff021916908315150217905550600060105560006013553480156200003657600080fd5b50604051620066313803806200663183398181016040528101906200005c919062000812565b85858a8585858282878781600090805190602001906200007e92919062000688565b5080600190805190602001906200009792919062000688565b505050620000ba620000ae6200025c60201b60201c565b6200027860201b60201c565b8173ffffffffffffffffffffffffffffffffffffffff1660a08173ffffffffffffffffffffffffffffffffffffffff1660601b815250508073ffffffffffffffffffffffffffffffffffffffff1660808173ffffffffffffffffffffffffffffffffffffffff1660601b81525050505083600f60006101000a81548173ffffffffffffffffffffffffffffffffffffffff021916908373ffffffffffffffffffffffffffffffffffffffff1602179055506200017c866200033e60201b60201c565b8060148190555082601760006101000a81548173ffffffffffffffffffffffffffffffffffffffff021916908373ffffffffffffffffffffffffffffffffffffffff16021790555081601660006101000a81548173ffffffffffffffffffffffffffffffffffffffff021916908373ffffffffffffffffffffffffffffffffffffffff16021790555067016345785d8a00006015819055505050505050506200022b87620003c060201b60201c565b6200023c88620003dc60201b60201c565b6200024d84620003f860201b60201c565b50505050505050505062000d46565b600062000273620004ef60201b62001cbb1760201c565b905090565b6000600d60009054906101000a900473ffffffffffffffffffffffffffffffffffffffff16905081600d60006101000a81548173ffffffffffffffffffffffffffffffffffffffff021916908373ffffffffffffffffffffffffffffffffffffffff1602179055508173ffffffffffffffffffffffffffffffffffffffff168173ffffffffffffffffffffffffffffffffffffffff167f8be0079c531659141344cd1fd0a4f28419497f9722a3daafe3b4186f6b6457e060405160405180910390a35050565b600a60009054906101000a900460ff161562000391576040517f08c379a0000000000000000000000000000000000000000000000000000000008152600401620003889062000a3e565b60405180910390fd5b620003a281620005a260201b60201c565b6001600a60006101000a81548160ff02191690831515021790555050565b8060119080519060200190620003d892919062000688565b5050565b8060129080519060200190620003f492919062000688565b5050565b620004086200025c60201b60201c565b73ffffffffffffffffffffffffffffffffffffffff166200042e6200065160201b60201c565b73ffffffffffffffffffffffffffffffffffffffff161462000487576040517f08c379a00000000000000000000000000000000000000000000000000000000081526004016200047e9062000a1c565b60405180910390fd5b80601381905550601960006200049e919062000719565b60005b601354811015620004eb5760198190806001815401808255809150506001900390600052602060002001600090919091909150558080620004e29062000bba565b915050620004a1565b5050565b60003073ffffffffffffffffffffffffffffffffffffffff163373ffffffffffffffffffffffffffffffffffffffff1614156200059b57600080368080601f016020809104026020016040519081016040528093929190818152602001838380828437600081840152601f19601f820116905080830192505050505050509050600080369050905073ffffffffffffffffffffffffffffffffffffffff8183015116925050506200059f565b3390505b90565b6040518060800160405280604f8152602001620065e2604f91398051906020012081805190602001206040518060400160405280600181526020017f31000000000000000000000000000000000000000000000000000000000000008152508051906020012030620006196200067b60201b60201c565b60001b60405160200162000632959493929190620009bf565b60405160208183030381529060405280519060200120600b8190555050565b6000600d60009054906101000a900473ffffffffffffffffffffffffffffffffffffffff16905090565b6000804690508091505090565b828054620006969062000b4e565b90600052602060002090601f016020900481019282620006ba576000855562000706565b82601f10620006d557805160ff191683800117855562000706565b8280016001018555821562000706579182015b8281111562000705578251825591602001919060010190620006e8565b5b5090506200071591906200073c565b5090565b50805460008255906000526020600020908101906200073991906200073c565b50565b5b80821115620007575760008160009055506001016200073d565b5090565b6000620007726200076c8462000a89565b62000a60565b9050828152602081018484840111156200078b57600080fd5b6200079884828562000b18565b509392505050565b600081519050620007b18162000cf8565b92915050565b600081519050620007c88162000d12565b92915050565b600082601f830112620007e057600080fd5b8151620007f28482602086016200075b565b91505092915050565b6000815190506200080c8162000d2c565b92915050565b60008060008060008060008060006101208a8c0312156200083257600080fd5b6000620008428c828d01620007a0565b99505060208a015167ffffffffffffffff8111156200086057600080fd5b6200086e8c828d01620007ce565b98505060408a015167ffffffffffffffff8111156200088c57600080fd5b6200089a8c828d01620007ce565b97505060608a015167ffffffffffffffff811115620008b857600080fd5b620008c68c828d01620007ce565b96505060808a015167ffffffffffffffff811115620008e457600080fd5b620008f28c828d01620007ce565b95505060a0620009058c828d01620007fb565b94505060c0620009188c828d01620007a0565b93505060e06200092b8c828d01620007a0565b9250506101006200093f8c828d01620007b7565b9150509295985092959850929598565b6200095a8162000ad0565b82525050565b6200096b8162000ae4565b82525050565b60006200098060208362000abf565b91506200098d8262000ca6565b602082019050919050565b6000620009a7600e8362000abf565b9150620009b48262000ccf565b602082019050919050565b600060a082019050620009d6600083018862000960565b620009e5602083018762000960565b620009f4604083018662000960565b62000a0360608301856200094f565b62000a12608083018462000960565b9695505050505050565b6000602082019050818103600083015262000a378162000971565b9050919050565b6000602082019050818103600083015262000a598162000998565b9050919050565b600062000a6c62000a7f565b905062000a7a828262000b84565b919050565b6000604051905090565b600067ffffffffffffffff82111562000aa75762000aa662000c66565b5b62000ab28262000c95565b9050602081019050919050565b600082825260208201905092915050565b600062000add8262000aee565b9050919050565b6000819050919050565b600073ffffffffffffffffffffffffffffffffffffffff82169050919050565b6000819050919050565b60005b8381101562000b3857808201518184015260208101905062000b1b565b8381111562000b48576000848401525b50505050565b6000600282049050600182168062000b6757607f821691505b6020821081141562000b7e5762000b7d62000c37565b5b50919050565b62000b8f8262000c95565b810181811067ffffffffffffffff8211171562000bb15762000bb062000c66565b5b80604052505050565b600062000bc78262000b0e565b91507fffffffffffffffffffffffffffffffffffffffffffffffffffffffffffffffff82141562000bfd5762000bfc62000c08565b5b600182019050919050565b7f4e487b7100000000000000000000000000000000000000000000000000000000600052601160045260246000fd5b7f4e487b7100000000000000000000000000000000000000000000000000000000600052602260045260246000fd5b7f4e487b7100000000000000000000000000000000000000000000000000000000600052604160045260246000fd5b6000601f19601f8301169050919050565b7f4f776e61626c653a2063616c6c6572206973206e6f7420746865206f776e6572600082015250565b7f616c726561647920696e69746564000000000000000000000000000000000000600082015250565b62000d038162000ad0565b811462000d0f57600080fd5b50565b62000d1d8162000ae4565b811462000d2957600080fd5b50565b62000d378162000b0e565b811462000d4357600080fd5b50565b60805160601c60a05160601c61586262000d80600039600081816114b601526124e10152600081816112fd01526124a501526158626000f3fe6080604052600436106102045760003560e01c80634f6ccce71161011857806395d89b41116100a0578063c87b56dd1161006f578063c87b56dd14610770578063c92bb9ce146107ad578063e8a3d485146107d6578063e985e9c514610801578063f2fde38b1461083e57610204565b806395d89b41146106ca578063a22cb465146106f5578063b7b334c31461071e578063b88d4fde1461074757610204565b8063715018a6116100e7578063715018a61461060b578063721c492c1461062257806375f91ec81461064b5780638da5cb5b1461067657806394985ddd146106a157610204565b80634f6ccce7146105295780634f8e2fdf146105665780636352211e1461059157806370a08231146105ce57610204565b806320379ee51161019b57806331b5b9071161016a57806331b5b9071461045657806333b608631461047f5780633408e470146104aa57806342619f66146104d557806342842e0e1461050057610204565b806320379ee51461038857806323b872dd146103b35780632d0335ab146103dc5780632f745c591461041957610204565b80630c53c51c116101d75780630c53c51c146102d75780630f7e59701461030757806318160ddd146103325780631855495f1461035d57610204565b806301ffc9a71461020957806306fdde0314610246578063081812fc14610271578063095ea7b3146102ae575b600080fd5b34801561021557600080fd5b50610230600480360381019061022b9190613d95565b610867565b60405161023d919061459e565b60405180910390f35b34801561025257600080fd5b5061025b6108e1565b60405161026891906146ee565b60405180910390f35b34801561027d57600080fd5b5061029860048036038101906102939190613e51565b610973565b6040516102a591906144bb565b60405180910390f35b3480156102ba57600080fd5b506102d560048036038101906102d09190613cb8565b6109f8565b005b6102f160048036038101906102ec9190613c29565b610b10565b6040516102fe91906146cc565b60405180910390f35b34801561031357600080fd5b5061031c610d82565b60405161032991906146ee565b60405180910390f35b34801561033e57600080fd5b50610347610dbb565b6040516103549190614ab7565b60405180910390f35b34801561036957600080fd5b50610372610dc8565b60405161037f9190614ab7565b60405180910390f35b34801561039457600080fd5b5061039d610ddf565b6040516103aa91906145b9565b60405180910390f35b3480156103bf57600080fd5b506103da60048036038101906103d59190613b23565b610de9565b005b3480156103e857600080fd5b5061040360048036038101906103fe9190613abe565b610e49565b6040516104109190614ab7565b60405180910390f35b34801561042557600080fd5b50610440600480360381019061043b9190613cb8565b610e92565b60405161044d9190614ab7565b60405180910390f35b34801561046257600080fd5b5061047d60048036038101906104789190613e10565b610f37565b005b34801561048b57600080fd5b50610494610f51565b6040516104a191906144bb565b60405180910390f35b3480156104b657600080fd5b506104bf610f77565b6040516104cc9190614ab7565b60405180910390f35b3480156104e157600080fd5b506104ea610f84565b6040516104f79190614ab7565b60405180910390f35b34801561050c57600080fd5b5061052760048036038101906105229190613b23565b610f8a565b005b34801561053557600080fd5b50610550600480360381019061054b9190613e51565b610faa565b60405161055d9190614ab7565b60405180910390f35b34801561057257600080fd5b5061057b611041565b60405161058891906144bb565b60405180910390f35b34801561059d57600080fd5b506105b860048036038101906105b39190613e51565b611067565b6040516105c591906144bb565b60405180910390f35b3480156105da57600080fd5b506105f560048036038101906105f09190613abe565b611119565b6040516106029190614ab7565b60405180910390f35b34801561061757600080fd5b506106206111d1565b005b34801561062e57600080fd5b5061064960048036038101906106449190613cf4565b611259565b005b34801561065757600080fd5b50610660611480565b60405161066d9190614ab7565b60405180910390f35b34801561068257600080fd5b5061068b61148a565b60405161069891906144bb565b60405180910390f35b3480156106ad57600080fd5b506106c860048036038101906106c39190613d59565b6114b4565b005b3480156106d657600080fd5b506106df611550565b6040516106ec91906146ee565b60405180910390f35b34801561070157600080fd5b5061071c60048036038101906107179190613bed565b6115e2565b005b34801561072a57600080fd5b5061074560048036038101906107409190613e51565b611763565b005b34801561075357600080fd5b5061076e60048036038101906107699190613b72565b611841565b005b34801561077c57600080fd5b5061079760048036038101906107929190613e51565b6118a3565b6040516107a491906146ee565b60405180910390f35b3480156107b957600080fd5b506107d460048036038101906107cf9190613e10565b61194c565b005b3480156107e257600080fd5b506107eb611966565b6040516107f891906146ee565b60405180910390f35b34801561080d57600080fd5b5061082860048036038101906108239190613ae7565b611ac1565b604051610835919061459e565b60405180910390f35b34801561084a57600080fd5b5061086560048036038101906108609190613abe565b611bc3565b005b60007f780e9d63000000000000000000000000000000000000000000000000000000007bffffffffffffffffffffffffffffffffffffffffffffffffffffffff1916827bffffffffffffffffffffffffffffffffffffffffffffffffffffffff191614806108da57506108d982611d6c565b5b9050919050565b6060600080546108f090614de1565b80601f016020809104026020016040519081016040528092919081815260200182805461091c90614de1565b80156109695780601f1061093e57610100808354040283529160200191610969565b820191906000526020600020905b81548152906001019060200180831161094c57829003601f168201915b5050505050905090565b600061097e82611e4e565b6109bd576040517f08c379a00000000000000000000000000000000000000000000000000000000081526004016109b490614977565b60405180910390fd5b6004600083815260200190815260200160002060009054906101000a900473ffffffffffffffffffffffffffffffffffffffff169050919050565b6000610a0382611067565b90508073ffffffffffffffffffffffffffffffffffffffff168373ffffffffffffffffffffffffffffffffffffffff161415610a74576040517f08c379a0000000000000000000000000000000000000000000000000000000008152600401610a6b90614a37565b60405180910390fd5b8073ffffffffffffffffffffffffffffffffffffffff16610a93611eba565b73ffffffffffffffffffffffffffffffffffffffff161480610ac25750610ac181610abc611eba565b611ac1565b5b610b01576040517f08c379a0000000000000000000000000000000000000000000000000000000008152600401610af8906148d7565b60405180910390fd5b610b0b8383611ec9565b505050565b606060006040518060600160405280600c60008a73ffffffffffffffffffffffffffffffffffffffff1673ffffffffffffffffffffffffffffffffffffffff1681526020019081526020016000205481526020018873ffffffffffffffffffffffffffffffffffffffff168152602001878152509050610b938782878787611f82565b610bd2576040517f08c379a0000000000000000000000000000000000000000000000000000000008152600401610bc9906149d7565b60405180910390fd5b610c256001600c60008a73ffffffffffffffffffffffffffffffffffffffff1673ffffffffffffffffffffffffffffffffffffffff1681526020019081526020016000205461208b90919063ffffffff16565b600c60008973ffffffffffffffffffffffffffffffffffffffff1673ffffffffffffffffffffffffffffffffffffffff168152602001908152602001600020819055507f5845892132946850460bff5a0083f71031bc5bf9aadcd40f1de79423eac9b10b873388604051610c9b939291906144d6565b60405180910390a16000803073ffffffffffffffffffffffffffffffffffffffff16888a604051602001610cd092919061442d565b604051602081830303815290604052604051610cec9190614416565b6000604051808303816000865af19150503d8060008114610d29576040519150601f19603f3d011682016040523d82523d6000602084013e610d2e565b606091505b509150915081610d73576040517f08c379a0000000000000000000000000000000000000000000000000000000008152600401610d6a906147d7565b60405180910390fd5b80935050505095945050505050565b6040518060400160405280600181526020017f310000000000000000000000000000000000000000000000000000000000000081525081565b6000600880549050905090565b6000601054601354610dda9190614c88565b905090565b6000600b54905090565b610dfa610df4611eba565b826120a1565b610e39576040517f08c379a0000000000000000000000000000000000000000000000000000000008152600401610e3090614a57565b60405180910390fd5b610e4483838361217f565b505050565b6000600c60008373ffffffffffffffffffffffffffffffffffffffff1673ffffffffffffffffffffffffffffffffffffffff168152602001908152602001600020549050919050565b6000610e9d83611119565b8210610ede576040517f08c379a0000000000000000000000000000000000000000000000000000000008152600401610ed590614777565b60405180910390fd5b600660008473ffffffffffffffffffffffffffffffffffffffff1673ffffffffffffffffffffffffffffffffffffffff168152602001908152602001600020600083815260200190815260200160002054905092915050565b8060119080519060200190610f4d929190613858565b5050565b601760009054906101000a900473ffffffffffffffffffffffffffffffffffffffff1681565b6000804690508091505090565b60185481565b610fa583838360405180602001604052806000815250611841565b505050565b6000610fb4610dbb565b8210610ff5576040517f08c379a0000000000000000000000000000000000000000000000000000000008152600401610fec90614a97565b60405180910390fd5b6008828154811061102f577f4e487b7100000000000000000000000000000000000000000000000000000000600052603260045260246000fd5b90600052602060002001549050919050565b601660009054906101000a900473ffffffffffffffffffffffffffffffffffffffff1681565b6000806002600084815260200190815260200160002060009054906101000a900473ffffffffffffffffffffffffffffffffffffffff169050600073ffffffffffffffffffffffffffffffffffffffff168173ffffffffffffffffffffffffffffffffffffffff161415611110576040517f08c379a000000000000000000000000000000000000000000000000000000000815260040161110790614917565b60405180910390fd5b80915050919050565b60008073ffffffffffffffffffffffffffffffffffffffff168273ffffffffffffffffffffffffffffffffffffffff16141561118a576040517f08c379a0000000000000000000000000000000000000000000000000000000008152600401611181906148f7565b60405180910390fd5b600360008373ffffffffffffffffffffffffffffffffffffffff1673ffffffffffffffffffffffffffffffffffffffff168152602001908152602001600020549050919050565b6111d9611eba565b73ffffffffffffffffffffffffffffffffffffffff166111f761148a565b73ffffffffffffffffffffffffffffffffffffffff161461124d576040517f08c379a000000000000000000000000000000000000000000000000000000000815260040161124490614997565b60405180910390fd5b61125760006123db565b565b8060ff166013548111156112a2576040517f08c379a0000000000000000000000000000000000000000000000000000000008152600401611299906149f7565b60405180910390fd5b8160ff1660148111156112ea576040517f08c379a00000000000000000000000000000000000000000000000000000000081526004016112e190614817565b60405180910390fd5b8260ff166015546112fb9190614c2e565b7f000000000000000000000000000000000000000000000000000000000000000073ffffffffffffffffffffffffffffffffffffffff166370a08231306040518263ffffffff1660e01b815260040161135491906144bb565b60206040518083038186803b15801561136c57600080fd5b505afa158015611380573d6000803e3d6000fd5b505050506040513d601f19601f820116820180604052508101906113a49190613e7a565b10156113e5576040517f08c379a00000000000000000000000000000000000000000000000000000000081526004016113dc90614877565b60405180910390fd5b60005b6001846113f59190614cbc565b60ff168160ff16116114795760006114116014546015546124a1565b905085601a600083815260200190815260200160002060006101000a81548173ffffffffffffffffffffffffffffffffffffffff021916908373ffffffffffffffffffffffffffffffffffffffff16021790555050808061147190614e8d565b9150506113e8565b5050505050565b6000601354905090565b6000600d60009054906101000a900473ffffffffffffffffffffffffffffffffffffffff16905090565b7f000000000000000000000000000000000000000000000000000000000000000073ffffffffffffffffffffffffffffffffffffffff163373ffffffffffffffffffffffffffffffffffffffff1614611542576040517f08c379a000000000000000000000000000000000000000000000000000000000815260040161153990614a17565b60405180910390fd5b61154c8282612603565b5050565b60606001805461155f90614de1565b80601f016020809104026020016040519081016040528092919081815260200182805461158b90614de1565b80156115d85780601f106115ad576101008083540402835291602001916115d8565b820191906000526020600020905b8154815290600101906020018083116115bb57829003601f168201915b5050505050905090565b6115ea611eba565b73ffffffffffffffffffffffffffffffffffffffff168273ffffffffffffffffffffffffffffffffffffffff161415611658576040517f08c379a000000000000000000000000000000000000000000000000000000000815260040161164f90614857565b60405180910390fd5b8060056000611665611eba565b73ffffffffffffffffffffffffffffffffffffffff1673ffffffffffffffffffffffffffffffffffffffff16815260200190815260200160002060008473ffffffffffffffffffffffffffffffffffffffff1673ffffffffffffffffffffffffffffffffffffffff16815260200190815260200160002060006101000a81548160ff0219169083151502179055508173ffffffffffffffffffffffffffffffffffffffff16611712611eba565b73ffffffffffffffffffffffffffffffffffffffff167f17307eab39ab6107e8899845ad3d59bd9653f200f220920489ca2b5937696c3183604051611757919061459e565b60405180910390a35050565b61176b611eba565b73ffffffffffffffffffffffffffffffffffffffff1661178961148a565b73ffffffffffffffffffffffffffffffffffffffff16146117df576040517f08c379a00000000000000000000000000000000000000000000000000000000081526004016117d690614997565b60405180910390fd5b80601381905550601960006117f491906138de565b60005b60135481101561183d576019819080600181540180825580915050600190039060005260206000200160009091909190915055808061183590614e44565b9150506117f7565b5050565b61185261184c611eba565b836120a1565b611891576040517f08c379a000000000000000000000000000000000000000000000000000000000815260040161188890614a57565b60405180910390fd5b61189d848484846126ac565b50505050565b60606119146040518060400160405280600a81526020017f746f6b656e5552493a20000000000000000000000000000000000000000000008152506118e6612708565b6118ef85612863565b604051602001611900929190614455565b604051602081830303815290604052612a10565b61191c612708565b61192583612863565b604051602001611936929190614455565b6040516020818303038152906040529050919050565b8060129080519060200190611962929190613858565b5050565b6060611a316040518060400160405280600d81526020017f636f6e74726163745552493a2000000000000000000000000000000000000000815250601280546119ae90614de1565b80601f01602080910402602001604051908101604052809291908181526020018280546119da90614de1565b8015611a275780601f106119fc57610100808354040283529160200191611a27565b820191906000526020600020905b815481529060010190602001808311611a0a57829003601f168201915b5050505050612a10565b60128054611a3e90614de1565b80601f0160208091040260200160405190810160405280929190818152602001828054611a6a90614de1565b8015611ab75780601f10611a8c57610100808354040283529160200191611ab7565b820191906000526020600020905b815481529060010190602001808311611a9a57829003601f168201915b5050505050905090565b600080600f60009054906101000a900473ffffffffffffffffffffffffffffffffffffffff1690508273ffffffffffffffffffffffffffffffffffffffff168173ffffffffffffffffffffffffffffffffffffffff1663c4552791866040518263ffffffff1660e01b8152600401611b3991906144bb565b60206040518083038186803b158015611b5157600080fd5b505afa158015611b65573d6000803e3d6000fd5b505050506040513d601f19601f82011682018060405250810190611b899190613de7565b73ffffffffffffffffffffffffffffffffffffffff161415611baf576001915050611bbd565b611bb98484612aac565b9150505b92915050565b611bcb611eba565b73ffffffffffffffffffffffffffffffffffffffff16611be961148a565b73ffffffffffffffffffffffffffffffffffffffff1614611c3f576040517f08c379a0000000000000000000000000000000000000000000000000000000008152600401611c3690614997565b60405180910390fd5b600073ffffffffffffffffffffffffffffffffffffffff168173ffffffffffffffffffffffffffffffffffffffff161415611caf576040517f08c379a0000000000000000000000000000000000000000000000000000000008152600401611ca6906147b7565b60405180910390fd5b611cb8816123db565b50565b60003073ffffffffffffffffffffffffffffffffffffffff163373ffffffffffffffffffffffffffffffffffffffff161415611d6557600080368080601f016020809104026020016040519081016040528093929190818152602001838380828437600081840152601f19601f820116905080830192505050505050509050600080369050905073ffffffffffffffffffffffffffffffffffffffff818301511692505050611d69565b3390505b90565b60007f80ac58cd000000000000000000000000000000000000000000000000000000007bffffffffffffffffffffffffffffffffffffffffffffffffffffffff1916827bffffffffffffffffffffffffffffffffffffffffffffffffffffffff19161480611e3757507f5b5e139f000000000000000000000000000000000000000000000000000000007bffffffffffffffffffffffffffffffffffffffffffffffffffffffff1916827bffffffffffffffffffffffffffffffffffffffffffffffffffffffff1916145b80611e475750611e4682612b40565b5b9050919050565b60008073ffffffffffffffffffffffffffffffffffffffff166002600084815260200190815260200160002060009054906101000a900473ffffffffffffffffffffffffffffffffffffffff1673ffffffffffffffffffffffffffffffffffffffff1614159050919050565b6000611ec4611cbb565b905090565b816004600083815260200190815260200160002060006101000a81548173ffffffffffffffffffffffffffffffffffffffff021916908373ffffffffffffffffffffffffffffffffffffffff160217905550808273ffffffffffffffffffffffffffffffffffffffff16611f3c83611067565b73ffffffffffffffffffffffffffffffffffffffff167f8c5be1e5ebec7d5bd14f71427d1e84f3dd0314c0f7b2291e5b200ac8c7c3b92560405160405180910390a45050565b60008073ffffffffffffffffffffffffffffffffffffffff168673ffffffffffffffffffffffffffffffffffffffff161415611ff3576040517f08c379a0000000000000000000000000000000000000000000000000000000008152600401611fea906148b7565b60405180910390fd5b600161200661200187612baa565b612c12565b838686604051600081526020016040526040516120269493929190614687565b6020604051602081039080840390855afa158015612048573d6000803e3d6000fd5b5050506020604051035173ffffffffffffffffffffffffffffffffffffffff168673ffffffffffffffffffffffffffffffffffffffff1614905095945050505050565b600081836120999190614ba7565b905092915050565b60006120ac82611e4e565b6120eb576040517f08c379a00000000000000000000000000000000000000000000000000000000081526004016120e290614897565b60405180910390fd5b60006120f683611067565b90508073ffffffffffffffffffffffffffffffffffffffff168473ffffffffffffffffffffffffffffffffffffffff16148061216557508373ffffffffffffffffffffffffffffffffffffffff1661214d84610973565b73ffffffffffffffffffffffffffffffffffffffff16145b8061217657506121758185611ac1565b5b91505092915050565b8273ffffffffffffffffffffffffffffffffffffffff1661219f82611067565b73ffffffffffffffffffffffffffffffffffffffff16146121f5576040517f08c379a00000000000000000000000000000000000000000000000000000000081526004016121ec906149b7565b60405180910390fd5b600073ffffffffffffffffffffffffffffffffffffffff168273ffffffffffffffffffffffffffffffffffffffff161415612265576040517f08c379a000000000000000000000000000000000000000000000000000000000815260040161225c90614837565b60405180910390fd5b612270838383612c4b565b61227b600082611ec9565b6001600360008573ffffffffffffffffffffffffffffffffffffffff1673ffffffffffffffffffffffffffffffffffffffff16815260200190815260200160002060008282546122cb9190614c88565b925050819055506001600360008473ffffffffffffffffffffffffffffffffffffffff1673ffffffffffffffffffffffffffffffffffffffff16815260200190815260200160002060008282546123229190614ba7565b92505081905550816002600083815260200190815260200160002060006101000a81548173ffffffffffffffffffffffffffffffffffffffff021916908373ffffffffffffffffffffffffffffffffffffffff160217905550808273ffffffffffffffffffffffffffffffffffffffff168473ffffffffffffffffffffffffffffffffffffffff167fddf252ad1be2c89b69c2b068fc378daa952ba7f163c4a11628f55a4df523b3ef60405160405180910390a4505050565b6000600d60009054906101000a900473ffffffffffffffffffffffffffffffffffffffff16905081600d60006101000a81548173ffffffffffffffffffffffffffffffffffffffff021916908373ffffffffffffffffffffffffffffffffffffffff1602179055508173ffffffffffffffffffffffffffffffffffffffff168173ffffffffffffffffffffffffffffffffffffffff167f8be0079c531659141344cd1fd0a4f28419497f9722a3daafe3b4186f6b6457e060405160405180910390a35050565b60007f000000000000000000000000000000000000000000000000000000000000000073ffffffffffffffffffffffffffffffffffffffff16634000aea07f0000000000000000000000000000000000000000000000000000000000000000848660006040516020016125159291906145d4565b6040516020818303038152906040526040518463ffffffff1660e01b815260040161254293929190614560565b602060405180830381600087803b15801561255c57600080fd5b505af1158015612570573d6000803e3d6000fd5b505050506040513d601f19601f820116820180604052508101906125949190613d30565b5060006125b784600030600e600089815260200190815260200160002054612d5f565b90506001600e6000868152602001908152602001600020546125d99190614ba7565b600e6000868152602001908152602001600020819055506125fa8482612d9b565b91505092915050565b8060188190555060006019805490508261261d9190614eef565b90506000601a600085815260200190815260200160002060009054906101000a900473ffffffffffffffffffffffffffffffffffffffff1690506126a58160198481548110612695577f4e487b7100000000000000000000000000000000000000000000000000000000600052603260045260246000fd5b9060005260206000200154612dce565b5050505050565b6126b784848461217f565b6126c384848484612e72565b612702576040517f08c379a00000000000000000000000000000000000000000000000000000000081526004016126f990614797565b60405180910390fd5b50505050565b60606127d36040518060400160405280600e81526020017f62617365546f6b656e5552493a200000000000000000000000000000000000008152506011805461275090614de1565b80601f016020809104026020016040519081016040528092919081815260200182805461277c90614de1565b80156127c95780601f1061279e576101008083540402835291602001916127c9565b820191906000526020600020905b8154815290600101906020018083116127ac57829003601f168201915b5050505050612a10565b601180546127e090614de1565b80601f016020809104026020016040519081016040528092919081815260200182805461280c90614de1565b80156128595780601f1061282e57610100808354040283529160200191612859565b820191906000526020600020905b81548152906001019060200180831161283c57829003601f168201915b5050505050905090565b606060008214156128ab576040518060400160405280600181526020017f30000000000000000000000000000000000000000000000000000000000000008152509050612a0b565b600082905060005b600082146128dd5780806128c690614e44565b915050600a826128d69190614bfd565b91506128b3565b60008167ffffffffffffffff81111561291f577f4e487b7100000000000000000000000000000000000000000000000000000000600052604160045260246000fd5b6040519080825280601f01601f1916602001820160405280156129515781602001600182028036833780820191505090505b5090505b60008514612a045760018261296a9190614c88565b9150600a856129799190614eef565b60306129859190614ba7565b60f81b8183815181106129c1577f4e487b7100000000000000000000000000000000000000000000000000000000600052603260045260246000fd5b60200101907effffffffffffffffffffffffffffffffffffffffffffffffffffffffffffff1916908160001a905350600a856129fd9190614bfd565b9450612955565b8093505050505b919050565b612aa88282604051602401612a26929190614710565b6040516020818303038152906040527f4b5c4277000000000000000000000000000000000000000000000000000000007bffffffffffffffffffffffffffffffffffffffffffffffffffffffff19166020820180517bffffffffffffffffffffffffffffffffffffffffffffffffffffffff8381831617835250505050613009565b5050565b6000600560008473ffffffffffffffffffffffffffffffffffffffff1673ffffffffffffffffffffffffffffffffffffffff16815260200190815260200160002060008373ffffffffffffffffffffffffffffffffffffffff1673ffffffffffffffffffffffffffffffffffffffff16815260200190815260200160002060009054906101000a900460ff16905092915050565b60007f01ffc9a7000000000000000000000000000000000000000000000000000000007bffffffffffffffffffffffffffffffffffffffffffffffffffffffff1916827bffffffffffffffffffffffffffffffffffffffffffffffffffffffff1916149050919050565b60006040518060800160405280604381526020016157ea604391398051906020012082600001518360200151846040015180519060200120604051602001612bf594939291906145fd565b604051602081830303815290604052805190602001209050919050565b6000612c1c610ddf565b82604051602001612c2e929190614484565b604051602081830303815290604052805190602001209050919050565b612c56838383613032565b600073ffffffffffffffffffffffffffffffffffffffff168373ffffffffffffffffffffffffffffffffffffffff161415612c9957612c9481613037565b612cd8565b8173ffffffffffffffffffffffffffffffffffffffff168373ffffffffffffffffffffffffffffffffffffffff1614612cd757612cd68382613080565b5b5b600073ffffffffffffffffffffffffffffffffffffffff168273ffffffffffffffffffffffffffffffffffffffff161415612d1b57612d16816131ed565b612d5a565b8273ffffffffffffffffffffffffffffffffffffffff168273ffffffffffffffffffffffffffffffffffffffff1614612d5957612d588282613330565b5b5b505050565b600084848484604051602001612d789493929190614642565b6040516020818303038152906040528051906020012060001c9050949350505050565b60008282604051602001612db09291906143ea565b60405160208183030381529060405280519060200120905092915050565b6000612dda83836133af565b612e196040518060400160405280600981526020017f546f6b656e49643a2000000000000000000000000000000000000000000000008152508361357d565b612e606040518060400160405280600981526020017f626173657572693a200000000000000000000000000000000000000000000000815250612e5b846118a3565b612a10565b612e6982613619565b81905092915050565b6000612e938473ffffffffffffffffffffffffffffffffffffffff166137a6565b15612ffc578373ffffffffffffffffffffffffffffffffffffffff1663150b7a02612ebc611eba565b8786866040518563ffffffff1660e01b8152600401612ede9493929190614514565b602060405180830381600087803b158015612ef857600080fd5b505af1925050508015612f2957506040513d601f19601f82011682018060405250810190612f269190613dbe565b60015b612fac573d8060008114612f59576040519150601f19603f3d011682016040523d82523d6000602084013e612f5e565b606091505b50600081511415612fa4576040517f08c379a0000000000000000000000000000000000000000000000000000000008152600401612f9b90614797565b60405180910390fd5b805181602001fd5b63150b7a0260e01b7bffffffffffffffffffffffffffffffffffffffffffffffffffffffff1916817bffffffffffffffffffffffffffffffffffffffffffffffffffffffff191614915050613001565b600190505b949350505050565b60008151905060006a636f6e736f6c652e6c6f679050602083016000808483855afa5050505050565b505050565b6008805490506009600083815260200190815260200160002081905550600881908060018154018082558091505060019003906000526020600020016000909190919091505550565b6000600161308d84611119565b6130979190614c88565b905060006007600084815260200190815260200160002054905081811461317c576000600660008673ffffffffffffffffffffffffffffffffffffffff1673ffffffffffffffffffffffffffffffffffffffff168152602001908152602001600020600084815260200190815260200160002054905080600660008773ffffffffffffffffffffffffffffffffffffffff1673ffffffffffffffffffffffffffffffffffffffff168152602001908152602001600020600084815260200190815260200160002081905550816007600083815260200190815260200160002081905550505b6007600084815260200190815260200160002060009055600660008573ffffffffffffffffffffffffffffffffffffffff1673ffffffffffffffffffffffffffffffffffffffff16815260200190815260200160002060008381526020019081526020016000206000905550505050565b600060016008805490506132019190614c88565b9050600060096000848152602001908152602001600020549050600060088381548110613257577f4e487b7100000000000000000000000000000000000000000000000000000000600052603260045260246000fd5b90600052602060002001549050806008838154811061329f577f4e487b7100000000000000000000000000000000000000000000000000000000600052603260045260246000fd5b906000526020600020018190555081600960008381526020019081526020016000208190555060096000858152602001908152602001600020600090556008805480613314577f4e487b7100000000000000000000000000000000000000000000000000000000600052603160045260246000fd5b6001900381819060005260206000200160009055905550505050565b600061333b83611119565b905081600660008573ffffffffffffffffffffffffffffffffffffffff1673ffffffffffffffffffffffffffffffffffffffff168152602001908152602001600020600083815260200190815260200160002081905550806007600084815260200190815260200160002081905550505050565b600073ffffffffffffffffffffffffffffffffffffffff168273ffffffffffffffffffffffffffffffffffffffff16141561341f576040517f08c379a000000000000000000000000000000000000000000000000000000000815260040161341690614957565b60405180910390fd5b61342881611e4e565b15613468576040517f08c379a000000000000000000000000000000000000000000000000000000000815260040161345f906147f7565b60405180910390fd5b61347460008383612c4b565b6001600360008473ffffffffffffffffffffffffffffffffffffffff1673ffffffffffffffffffffffffffffffffffffffff16815260200190815260200160002060008282546134c49190614ba7565b92505081905550816002600083815260200190815260200160002060006101000a81548173ffffffffffffffffffffffffffffffffffffffff021916908373ffffffffffffffffffffffffffffffffffffffff160217905550808273ffffffffffffffffffffffffffffffffffffffff16600073ffffffffffffffffffffffffffffffffffffffff167fddf252ad1be2c89b69c2b068fc378daa952ba7f163c4a11628f55a4df523b3ef60405160405180910390a45050565b6136158282604051602401613593929190614747565b6040516020818303038152906040527f9710a9d0000000000000000000000000000000000000000000000000000000007bffffffffffffffffffffffffffffffffffffffffffffffffffffffff19166020820180517bffffffffffffffffffffffffffffffffffffffffffffffffffffffff8381831617835250505050613009565b5050565b600060198054905011613661576040517f08c379a000000000000000000000000000000000000000000000000000000000815260040161365890614937565b60405180910390fd5b600061366c826137b9565b90506019805490508111156136b6576040517f08c379a00000000000000000000000000000000000000000000000000000000081526004016136ad90614a77565b60405180910390fd5b601960016019805490506136ca9190614c88565b81548110613701577f4e487b7100000000000000000000000000000000000000000000000000000000600052603260045260246000fd5b906000526020600020015460198281548110613746577f4e487b7100000000000000000000000000000000000000000000000000000000600052603260045260246000fd5b9060005260206000200181905550601980548061378c577f4e487b7100000000000000000000000000000000000000000000000000000000600052603160045260246000fd5b600190038181906000526020600020016000905590555050565b600080823b905060008111915050919050565b600080600090505b60198054905081101561383d5760006019828154811061380a577f4e487b7100000000000000000000000000000000000000000000000000000000600052603260045260246000fd5b9060005260206000200154905083811415613829578192505050613853565b50808061383590614e44565b9150506137c1565b5060646019805490506138509190614ba7565b90505b919050565b82805461386490614de1565b90600052602060002090601f01602090048101928261388657600085556138cd565b82601f1061389f57805160ff19168380011785556138cd565b828001600101855582156138cd579182015b828111156138cc5782518255916020019190600101906138b1565b5b5090506138da91906138ff565b5090565b50805460008255906000526020600020908101906138fc91906138ff565b50565b5b80821115613918576000816000905550600101613900565b5090565b600061392f61392a84614af7565b614ad2565b90508281526020810184848401111561394757600080fd5b613952848285614d9f565b509392505050565b600061396d61396884614b28565b614ad2565b90508281526020810184848401111561398557600080fd5b613990848285614d9f565b509392505050565b6000813590506139a781615748565b92915050565b6000813590506139bc8161575f565b92915050565b6000815190506139d18161575f565b92915050565b6000813590506139e681615776565b92915050565b6000813590506139fb8161578d565b92915050565b600081519050613a108161578d565b92915050565b600082601f830112613a2757600080fd5b8135613a3784826020860161391c565b91505092915050565b600081519050613a4f816157a4565b92915050565b600082601f830112613a6657600080fd5b8135613a7684826020860161395a565b91505092915050565b600081359050613a8e816157bb565b92915050565b600081519050613aa3816157bb565b92915050565b600081359050613ab8816157d2565b92915050565b600060208284031215613ad057600080fd5b6000613ade84828501613998565b91505092915050565b60008060408385031215613afa57600080fd5b6000613b0885828601613998565b9250506020613b1985828601613998565b9150509250929050565b600080600060608486031215613b3857600080fd5b6000613b4686828701613998565b9350506020613b5786828701613998565b9250506040613b6886828701613a7f565b9150509250925092565b60008060008060808587031215613b8857600080fd5b6000613b9687828801613998565b9450506020613ba787828801613998565b9350506040613bb887828801613a7f565b925050606085013567ffffffffffffffff811115613bd557600080fd5b613be187828801613a16565b91505092959194509250565b60008060408385031215613c0057600080fd5b6000613c0e85828601613998565b9250506020613c1f858286016139ad565b9150509250929050565b600080600080600060a08688031215613c4157600080fd5b6000613c4f88828901613998565b955050602086013567ffffffffffffffff811115613c6c57600080fd5b613c7888828901613a16565b9450506040613c89888289016139d7565b9350506060613c9a888289016139d7565b9250506080613cab88828901613aa9565b9150509295509295909350565b60008060408385031215613ccb57600080fd5b6000613cd985828601613998565b9250506020613cea85828601613a7f565b9150509250929050565b60008060408385031215613d0757600080fd5b6000613d1585828601613998565b9250506020613d2685828601613aa9565b9150509250929050565b600060208284031215613d4257600080fd5b6000613d50848285016139c2565b91505092915050565b60008060408385031215613d6c57600080fd5b6000613d7a858286016139d7565b9250506020613d8b85828601613a7f565b9150509250929050565b600060208284031215613da757600080fd5b6000613db5848285016139ec565b91505092915050565b600060208284031215613dd057600080fd5b6000613dde84828501613a01565b91505092915050565b600060208284031215613df957600080fd5b6000613e0784828501613a40565b91505092915050565b600060208284031215613e2257600080fd5b600082013567ffffffffffffffff811115613e3c57600080fd5b613e4884828501613a55565b91505092915050565b600060208284031215613e6357600080fd5b6000613e7184828501613a7f565b91505092915050565b600060208284031215613e8c57600080fd5b6000613e9a84828501613a94565b91505092915050565b613eac81614d02565b82525050565b613ebb81614cf0565b82525050565b613ed2613ecd82614cf0565b614eb7565b82525050565b613ee181614d14565b82525050565b613ef081614d20565b82525050565b613f07613f0282614d20565b614ec9565b82525050565b6000613f1882614b59565b613f228185614b6f565b9350613f32818560208601614dae565b613f3b81614fdc565b840191505092915050565b6000613f5182614b59565b613f5b8185614b80565b9350613f6b818560208601614dae565b80840191505092915050565b6000613f8282614b64565b613f8c8185614b8b565b9350613f9c818560208601614dae565b613fa581614fdc565b840191505092915050565b6000613fbb82614b64565b613fc58185614b9c565b9350613fd5818560208601614dae565b80840191505092915050565b6000613fee602b83614b8b565b9150613ff982614ffa565b604082019050919050565b6000614011603283614b8b565b915061401c82615049565b604082019050919050565b6000614034602683614b8b565b915061403f82615098565b604082019050919050565b6000614057601c83614b8b565b9150614062826150e7565b602082019050919050565b600061407a601c83614b8b565b915061408582615110565b602082019050919050565b600061409d600283614b9c565b91506140a882615139565b600282019050919050565b60006140c0602a83614b8b565b91506140cb82615162565b604082019050919050565b60006140e3602483614b8b565b91506140ee826151b1565b604082019050919050565b6000614106601983614b8b565b915061411182615200565b602082019050919050565b6000614129602b83614b8b565b915061413482615229565b604082019050919050565b600061414c602c83614b8b565b915061415782615278565b604082019050919050565b600061416f602583614b8b565b915061417a826152c7565b604082019050919050565b6000614192603883614b8b565b915061419d82615316565b604082019050919050565b60006141b5602a83614b8b565b91506141c082615365565b604082019050919050565b60006141d8602983614b8b565b91506141e3826153b4565b604082019050919050565b60006141fb601183614b8b565b915061420682615403565b602082019050919050565b600061421e602083614b8b565b91506142298261542c565b602082019050919050565b6000614241602c83614b8b565b915061424c82615455565b604082019050919050565b6000614264602083614b8b565b915061426f826154a4565b602082019050919050565b6000614287602983614b8b565b9150614292826154cd565b604082019050919050565b60006142aa602183614b8b565b91506142b58261551c565b604082019050919050565b60006142cd602983614b8b565b91506142d88261556b565b604082019050919050565b60006142f0601f83614b8b565b91506142fb826155ba565b602082019050919050565b6000614313602183614b8b565b915061431e826155e3565b604082019050919050565b6000614336603183614b8b565b915061434182615632565b604082019050919050565b6000614359602a83614b8b565b915061436482615681565b604082019050919050565b600061437c602c83614b8b565b9150614387826156d0565b604082019050919050565b600061439f600183614b9c565b91506143aa8261571f565b600182019050919050565b6143be81614d88565b82525050565b6143d56143d082614d88565b614ee5565b82525050565b6143e481614d92565b82525050565b60006143f68285613ef6565b60208201915061440682846143c4565b6020820191508190509392505050565b60006144228284613f46565b915081905092915050565b60006144398285613f46565b91506144458284613ec1565b6014820191508190509392505050565b60006144618285613fb0565b915061446c82614392565b91506144788284613fb0565b91508190509392505050565b600061448f82614090565b915061449b8285613ef6565b6020820191506144ab8284613ef6565b6020820191508190509392505050565b60006020820190506144d06000830184613eb2565b92915050565b60006060820190506144eb6000830186613eb2565b6144f86020830185613ea3565b818103604083015261450a8184613f0d565b9050949350505050565b60006080820190506145296000830187613eb2565b6145366020830186613eb2565b61454360408301856143b5565b81810360608301526145558184613f0d565b905095945050505050565b60006060820190506145756000830186613eb2565b61458260208301856143b5565b81810360408301526145948184613f0d565b9050949350505050565b60006020820190506145b36000830184613ed8565b92915050565b60006020820190506145ce6000830184613ee7565b92915050565b60006040820190506145e96000830185613ee7565b6145f660208301846143b5565b9392505050565b60006080820190506146126000830187613ee7565b61461f60208301866143b5565b61462c6040830185613eb2565b6146396060830184613ee7565b95945050505050565b60006080820190506146576000830187613ee7565b61466460208301866143b5565b6146716040830185613eb2565b61467e60608301846143b5565b95945050505050565b600060808201905061469c6000830187613ee7565b6146a960208301866143db565b6146b66040830185613ee7565b6146c36060830184613ee7565b95945050505050565b600060208201905081810360008301526146e68184613f0d565b905092915050565b600060208201905081810360008301526147088184613f77565b905092915050565b6000604082019050818103600083015261472a8185613f77565b9050818103602083015261473e8184613f77565b90509392505050565b600060408201905081810360008301526147618185613f77565b905061477060208301846143b5565b9392505050565b6000602082019050818103600083015261479081613fe1565b9050919050565b600060208201905081810360008301526147b081614004565b9050919050565b600060208201905081810360008301526147d081614027565b9050919050565b600060208201905081810360008301526147f08161404a565b9050919050565b600060208201905081810360008301526148108161406d565b9050919050565b60006020820190508181036000830152614830816140b3565b9050919050565b60006020820190508181036000830152614850816140d6565b9050919050565b60006020820190508181036000830152614870816140f9565b9050919050565b600060208201905081810360008301526148908161411c565b9050919050565b600060208201905081810360008301526148b08161413f565b9050919050565b600060208201905081810360008301526148d081614162565b9050919050565b600060208201905081810360008301526148f081614185565b9050919050565b60006020820190508181036000830152614910816141a8565b9050919050565b60006020820190508181036000830152614930816141cb565b9050919050565b60006020820190508181036000830152614950816141ee565b9050919050565b6000602082019050818103600083015261497081614211565b9050919050565b6000602082019050818103600083015261499081614234565b9050919050565b600060208201905081810360008301526149b081614257565b9050919050565b600060208201905081810360008301526149d08161427a565b9050919050565b600060208201905081810360008301526149f08161429d565b9050919050565b60006020820190508181036000830152614a10816142c0565b9050919050565b60006020820190508181036000830152614a30816142e3565b9050919050565b60006020820190508181036000830152614a5081614306565b9050919050565b60006020820190508181036000830152614a7081614329565b9050919050565b60006020820190508181036000830152614a908161434c565b9050919050565b60006020820190508181036000830152614ab08161436f565b9050919050565b6000602082019050614acc60008301846143b5565b92915050565b6000614adc614aed565b9050614ae88282614e13565b919050565b6000604051905090565b600067ffffffffffffffff821115614b1257614b11614fad565b5b614b1b82614fdc565b9050602081019050919050565b600067ffffffffffffffff821115614b4357614b42614fad565b5b614b4c82614fdc565b9050602081019050919050565b600081519050919050565b600081519050919050565b600082825260208201905092915050565b600081905092915050565b600082825260208201905092915050565b600081905092915050565b6000614bb282614d88565b9150614bbd83614d88565b9250827fffffffffffffffffffffffffffffffffffffffffffffffffffffffffffffffff03821115614bf257614bf1614f20565b5b828201905092915050565b6000614c0882614d88565b9150614c1383614d88565b925082614c2357614c22614f4f565b5b828204905092915050565b6000614c3982614d88565b9150614c4483614d88565b9250817fffffffffffffffffffffffffffffffffffffffffffffffffffffffffffffffff0483118215151615614c7d57614c7c614f20565b5b828202905092915050565b6000614c9382614d88565b9150614c9e83614d88565b925082821015614cb157614cb0614f20565b5b828203905092915050565b6000614cc782614d92565b9150614cd283614d92565b925082821015614ce557614ce4614f20565b5b828203905092915050565b6000614cfb82614d68565b9050919050565b6000614d0d82614d68565b9050919050565b60008115159050919050565b6000819050919050565b60007fffffffff0000000000000000000000000000000000000000000000000000000082169050919050565b6000614d6182614cf0565b9050919050565b600073ffffffffffffffffffffffffffffffffffffffff82169050919050565b6000819050919050565b600060ff82169050919050565b82818337600083830152505050565b60005b83811015614dcc578082015181840152602081019050614db1565b83811115614ddb576000848401525b50505050565b60006002820490506001821680614df957607f821691505b60208210811415614e0d57614e0c614f7e565b5b50919050565b614e1c82614fdc565b810181811067ffffffffffffffff82111715614e3b57614e3a614fad565b5b80604052505050565b6000614e4f82614d88565b91507fffffffffffffffffffffffffffffffffffffffffffffffffffffffffffffffff821415614e8257614e81614f20565b5b600182019050919050565b6000614e9882614d92565b915060ff821415614eac57614eab614f20565b5b600182019050919050565b6000614ec282614ed3565b9050919050565b6000819050919050565b6000614ede82614fed565b9050919050565b6000819050919050565b6000614efa82614d88565b9150614f0583614d88565b925082614f1557614f14614f4f565b5b828206905092915050565b7f4e487b7100000000000000000000000000000000000000000000000000000000600052601160045260246000fd5b7f4e487b7100000000000000000000000000000000000000000000000000000000600052601260045260246000fd5b7f4e487b7100000000000000000000000000000000000000000000000000000000600052602260045260246000fd5b7f4e487b7100000000000000000000000000000000000000000000000000000000600052604160045260246000fd5b6000601f19601f8301169050919050565b60008160601b9050919050565b7f455243373231456e756d657261626c653a206f776e657220696e646578206f7560008201527f74206f6620626f756e6473000000000000000000000000000000000000000000602082015250565b7f4552433732313a207472616e7366657220746f206e6f6e20455243373231526560008201527f63656976657220696d706c656d656e7465720000000000000000000000000000602082015250565b7f4f776e61626c653a206e6577206f776e657220697320746865207a65726f206160008201527f6464726573730000000000000000000000000000000000000000000000000000602082015250565b7f46756e6374696f6e2063616c6c206e6f74207375636365737366756c00000000600082015250565b7f4552433732313a20746f6b656e20616c7265616479206d696e74656400000000600082015250565b7f1901000000000000000000000000000000000000000000000000000000000000600082015250565b7f53686f756c64204265206c657373206f7220657175616c207468616e20616d6f60008201527f756e742070657220747800000000000000000000000000000000000000000000602082015250565b7f4552433732313a207472616e7366657220746f20746865207a65726f2061646460008201527f7265737300000000000000000000000000000000000000000000000000000000602082015250565b7f4552433732313a20617070726f766520746f2063616c6c657200000000000000600082015250565b7f4e6f7420656e6f756768204c494e4b202d2066696c6c20636f6e74726163742060008201527f7769746820666175636574000000000000000000000000000000000000000000602082015250565b7f4552433732313a206f70657261746f7220717565727920666f72206e6f6e657860008201527f697374656e7420746f6b656e0000000000000000000000000000000000000000602082015250565b7f4e61746976654d6574615472616e73616374696f6e3a20494e56414c49445f5360008201527f49474e4552000000000000000000000000000000000000000000000000000000602082015250565b7f4552433732313a20617070726f76652063616c6c6572206973206e6f74206f7760008201527f6e6572206e6f7220617070726f76656420666f7220616c6c0000000000000000602082015250565b7f4552433732313a2062616c616e636520717565727920666f7220746865207a6560008201527f726f206164647265737300000000000000000000000000000000000000000000602082015250565b7f4552433732313a206f776e657220717565727920666f72206e6f6e657869737460008201527f656e7420746f6b656e0000000000000000000000000000000000000000000000602082015250565b7f746f6b656e49647320697320656d707479000000000000000000000000000000600082015250565b7f4552433732313a206d696e7420746f20746865207a65726f2061646472657373600082015250565b7f4552433732313a20617070726f76656420717565727920666f72206e6f6e657860008201527f697374656e7420746f6b656e0000000000000000000000000000000000000000602082015250565b7f4f776e61626c653a2063616c6c6572206973206e6f7420746865206f776e6572600082015250565b7f4552433732313a207472616e73666572206f6620746f6b656e2074686174206960008201527f73206e6f74206f776e0000000000000000000000000000000000000000000000602082015250565b7f5369676e657220616e64207369676e617475726520646f206e6f74206d61746360008201527f6800000000000000000000000000000000000000000000000000000000000000602082015250565b7f53686f756c64204265206c657373206f7220657175616c207468616e20746f7460008201527f616c20616d6f756e740000000000000000000000000000000000000000000000602082015250565b7f4f6e6c7920565246436f6f7264696e61746f722063616e2066756c66696c6c00600082015250565b7f4552433732313a20617070726f76616c20746f2063757272656e74206f776e6560008201527f7200000000000000000000000000000000000000000000000000000000000000602082015250565b7f4552433732313a207472616e736665722063616c6c6572206973206e6f74206f60008201527f776e6572206e6f7220617070726f766564000000000000000000000000000000602082015250565b7f43616e6e6f742066696e6420746f6b656e49647320496e646578202d2072656d60008201527f6f7665546f6b656e496400000000000000000000000000000000000000000000602082015250565b7f455243373231456e756d657261626c653a20676c6f62616c20696e646578206f60008201527f7574206f6620626f756e64730000000000000000000000000000000000000000602082015250565b7f2f00000000000000000000000000000000000000000000000000000000000000600082015250565b61575181614cf0565b811461575c57600080fd5b50565b61576881614d14565b811461577357600080fd5b50565b61577f81614d20565b811461578a57600080fd5b50565b61579681614d2a565b81146157a157600080fd5b50565b6157ad81614d56565b81146157b857600080fd5b50565b6157c481614d88565b81146157cf57600080fd5b50565b6157db81614d92565b81146157e657600080fd5b5056fe4d6574615472616e73616374696f6e2875696e74323536206e6f6e63652c616464726573732066726f6d2c62797465732066756e6374696f6e5369676e617475726529a2646970667358221220089e832658c2a439c96005dde80c9785febfc3d401889e3e5bf1b377b30838b964736f6c63430008040033454950373132446f6d61696e28737472696e67206e616d652c737472696e672076657273696f6e2c6164647265737320766572696679696e67436f6e74726163742c627974657333322073616c7429",
  "devdoc": {
    "kind": "dev",
    "methods": {
      "approve(address,uint256)": {
        "details": "See {IERC721-approve}."
      },
      "balanceOf(address)": {
        "details": "See {IERC721-balanceOf}."
      },
      "getApproved(uint256)": {
        "details": "See {IERC721-getApproved}."
      },
      "name()": {
        "details": "See {IERC721Metadata-name}."
      },
      "owner()": {
        "details": "Returns the address of the current owner."
      },
      "ownerOf(uint256)": {
        "details": "See {IERC721-ownerOf}."
      },
      "renounceOwnership()": {
        "details": "Leaves the contract without owner. It will not be possible to call `onlyOwner` functions anymore. Can only be called by the current owner. NOTE: Renouncing ownership will leave the contract without an owner, thereby removing any functionality that is only available to the owner."
      },
      "safeTransferFrom(address,address,uint256)": {
        "details": "See {IERC721-safeTransferFrom}."
      },
      "safeTransferFrom(address,address,uint256,bytes)": {
        "details": "See {IERC721-safeTransferFrom}."
      },
      "setApprovalForAll(address,bool)": {
        "details": "See {IERC721-setApprovalForAll}."
      },
      "supportsInterface(bytes4)": {
        "details": "See {IERC165-supportsInterface}."
      },
      "symbol()": {
        "details": "See {IERC721Metadata-symbol}."
      },
      "tokenByIndex(uint256)": {
        "details": "See {IERC721Enumerable-tokenByIndex}."
      },
      "tokenOfOwnerByIndex(address,uint256)": {
        "details": "See {IERC721Enumerable-tokenOfOwnerByIndex}."
      },
      "totalSupply()": {
        "details": "See {IERC721Enumerable-totalSupply}."
      },
      "transferFrom(address,address,uint256)": {
        "details": "See {IERC721-transferFrom}."
      },
      "transferOwnership(address)": {
        "details": "Transfers ownership of the contract to a new account (`newOwner`). Can only be called by the current owner."
      }
    },
    "title": "Creature Creature - a contract for my non-fungible creatures.",
    "version": 1
  },
  "userdoc": {
    "kind": "user",
    "methods": {
      "isApprovedForAll(address,address)": {
        "notice": "Override isApprovedForAll to whitelist user's OpenSea proxy accounts to enable gas-less listings."
      }
    },
    "version": 1
  },
  "storageLayout": {
    "storage": [
      {
        "astId": 9453,
        "contract": "contracts/MyNFT.sol:MyNFT",
        "label": "_name",
        "offset": 0,
        "slot": "0",
        "type": "t_string_storage"
      },
      {
        "astId": 9455,
        "contract": "contracts/MyNFT.sol:MyNFT",
        "label": "_symbol",
        "offset": 0,
        "slot": "1",
        "type": "t_string_storage"
      },
      {
        "astId": 9459,
        "contract": "contracts/MyNFT.sol:MyNFT",
        "label": "_owners",
        "offset": 0,
        "slot": "2",
        "type": "t_mapping(t_uint256,t_address)"
      },
      {
        "astId": 9463,
        "contract": "contracts/MyNFT.sol:MyNFT",
        "label": "_balances",
        "offset": 0,
        "slot": "3",
        "type": "t_mapping(t_address,t_uint256)"
      },
      {
        "astId": 9467,
        "contract": "contracts/MyNFT.sol:MyNFT",
        "label": "_tokenApprovals",
        "offset": 0,
        "slot": "4",
        "type": "t_mapping(t_uint256,t_address)"
      },
      {
        "astId": 9473,
        "contract": "contracts/MyNFT.sol:MyNFT",
        "label": "_operatorApprovals",
        "offset": 0,
        "slot": "5",
        "type": "t_mapping(t_address,t_mapping(t_address,t_bool))"
      },
      {
        "astId": 10392,
        "contract": "contracts/MyNFT.sol:MyNFT",
        "label": "_ownedTokens",
        "offset": 0,
        "slot": "6",
        "type": "t_mapping(t_address,t_mapping(t_uint256,t_uint256))"
      },
      {
        "astId": 10396,
        "contract": "contracts/MyNFT.sol:MyNFT",
        "label": "_ownedTokensIndex",
        "offset": 0,
        "slot": "7",
        "type": "t_mapping(t_uint256,t_uint256)"
      },
      {
        "astId": 10399,
        "contract": "contracts/MyNFT.sol:MyNFT",
        "label": "_allTokens",
        "offset": 0,
        "slot": "8",
        "type": "t_array(t_uint256)dyn_storage"
      },
      {
        "astId": 10403,
        "contract": "contracts/MyNFT.sol:MyNFT",
        "label": "_allTokensIndex",
        "offset": 0,
        "slot": "9",
        "type": "t_mapping(t_uint256,t_uint256)"
      },
      {
        "astId": 1045,
        "contract": "contracts/MyNFT.sol:MyNFT",
        "label": "inited",
        "offset": 0,
        "slot": "10",
        "type": "t_bool"
      },
      {
        "astId": 952,
        "contract": "contracts/MyNFT.sol:MyNFT",
        "label": "domainSeperator",
        "offset": 0,
        "slot": "11",
        "type": "t_bytes32"
      },
      {
        "astId": 1091,
        "contract": "contracts/MyNFT.sol:MyNFT",
        "label": "nonces",
        "offset": 0,
        "slot": "12",
        "type": "t_mapping(t_address,t_uint256)"
      },
      {
        "astId": 9331,
        "contract": "contracts/MyNFT.sol:MyNFT",
        "label": "_owner",
        "offset": 0,
        "slot": "13",
        "type": "t_address"
      },
      {
        "astId": 79,
        "contract": "contracts/MyNFT.sol:MyNFT",
        "label": "nonces",
        "offset": 0,
        "slot": "14",
        "type": "t_mapping(t_bytes32,t_uint256)"
      },
      {
        "astId": 299,
        "contract": "contracts/MyNFT.sol:MyNFT",
        "label": "proxyRegistryAddress",
        "offset": 0,
        "slot": "15",
        "type": "t_address"
      },
      {
        "astId": 302,
        "contract": "contracts/MyNFT.sol:MyNFT",
        "label": "_currentTokenId",
        "offset": 0,
        "slot": "16",
        "type": "t_uint256"
      },
      {
        "astId": 304,
        "contract": "contracts/MyNFT.sol:MyNFT",
        "label": "_baseTokenURI",
        "offset": 0,
        "slot": "17",
        "type": "t_string_storage"
      },
      {
        "astId": 306,
        "contract": "contracts/MyNFT.sol:MyNFT",
        "label": "_contractURI",
        "offset": 0,
        "slot": "18",
        "type": "t_string_storage"
      },
      {
        "astId": 309,
        "contract": "contracts/MyNFT.sol:MyNFT",
        "label": "tokenAmount",
        "offset": 0,
        "slot": "19",
        "type": "t_uint256"
      },
      {
        "astId": 311,
        "contract": "contracts/MyNFT.sol:MyNFT",
        "label": "keyHash",
        "offset": 0,
        "slot": "20",
        "type": "t_bytes32"
      },
      {
        "astId": 313,
        "contract": "contracts/MyNFT.sol:MyNFT",
        "label": "fee",
        "offset": 0,
        "slot": "21",
        "type": "t_uint256"
      },
      {
        "astId": 315,
        "contract": "contracts/MyNFT.sol:MyNFT",
        "label": "LinkToken",
        "offset": 0,
        "slot": "22",
        "type": "t_address"
      },
      {
        "astId": 317,
        "contract": "contracts/MyNFT.sol:MyNFT",
        "label": "VRFCoordinator",
        "offset": 0,
        "slot": "23",
        "type": "t_address"
      },
      {
        "astId": 319,
        "contract": "contracts/MyNFT.sol:MyNFT",
        "label": "randomResult",
        "offset": 0,
        "slot": "24",
        "type": "t_uint256"
      },
      {
        "astId": 322,
        "contract": "contracts/MyNFT.sol:MyNFT",
        "label": "tokenIds",
        "offset": 0,
        "slot": "25",
        "type": "t_array(t_uint256)dyn_storage"
      },
      {
        "astId": 326,
        "contract": "contracts/MyNFT.sol:MyNFT",
        "label": "requestToSender",
        "offset": 0,
        "slot": "26",
        "type": "t_mapping(t_bytes32,t_address)"
      },
      {
        "astId": 840,
        "contract": "contracts/MyNFT.sol:MyNFT",
        "label": "openseaContractUri",
        "offset": 0,
        "slot": "27",
        "type": "t_string_storage"
      }
    ],
    "types": {
      "t_address": {
        "encoding": "inplace",
        "label": "address",
        "numberOfBytes": "20"
      },
      "t_array(t_uint256)dyn_storage": {
        "base": "t_uint256",
        "encoding": "dynamic_array",
        "label": "uint256[]",
        "numberOfBytes": "32"
      },
      "t_bool": {
        "encoding": "inplace",
        "label": "bool",
        "numberOfBytes": "1"
      },
      "t_bytes32": {
        "encoding": "inplace",
        "label": "bytes32",
        "numberOfBytes": "32"
      },
      "t_mapping(t_address,t_bool)": {
        "encoding": "mapping",
        "key": "t_address",
        "label": "mapping(address => bool)",
        "numberOfBytes": "32",
        "value": "t_bool"
      },
      "t_mapping(t_address,t_mapping(t_address,t_bool))": {
        "encoding": "mapping",
        "key": "t_address",
        "label": "mapping(address => mapping(address => bool))",
        "numberOfBytes": "32",
        "value": "t_mapping(t_address,t_bool)"
      },
      "t_mapping(t_address,t_mapping(t_uint256,t_uint256))": {
        "encoding": "mapping",
        "key": "t_address",
        "label": "mapping(address => mapping(uint256 => uint256))",
        "numberOfBytes": "32",
        "value": "t_mapping(t_uint256,t_uint256)"
      },
      "t_mapping(t_address,t_uint256)": {
        "encoding": "mapping",
        "key": "t_address",
        "label": "mapping(address => uint256)",
        "numberOfBytes": "32",
        "value": "t_uint256"
      },
      "t_mapping(t_bytes32,t_address)": {
        "encoding": "mapping",
        "key": "t_bytes32",
        "label": "mapping(bytes32 => address)",
        "numberOfBytes": "32",
        "value": "t_address"
      },
      "t_mapping(t_bytes32,t_uint256)": {
        "encoding": "mapping",
        "key": "t_bytes32",
        "label": "mapping(bytes32 => uint256)",
        "numberOfBytes": "32",
        "value": "t_uint256"
      },
      "t_mapping(t_uint256,t_address)": {
        "encoding": "mapping",
        "key": "t_uint256",
        "label": "mapping(uint256 => address)",
        "numberOfBytes": "32",
        "value": "t_address"
      },
      "t_mapping(t_uint256,t_uint256)": {
        "encoding": "mapping",
        "key": "t_uint256",
        "label": "mapping(uint256 => uint256)",
        "numberOfBytes": "32",
        "value": "t_uint256"
      },
      "t_string_storage": {
        "encoding": "bytes",
        "label": "string",
        "numberOfBytes": "32"
      },
      "t_uint256": {
        "encoding": "inplace",
        "label": "uint256",
        "numberOfBytes": "32"
      }
    }
  }
}